:10000000D8290020DD1E0000C5050000990500006C
:100010009905000099050000990500009905000068
:100020000000000000000000000000009905000032
:10003000990500000000000099050000F50500008A
:1000400065180000F11C0000050600001106000004
:1000500000000000000000000000000000000000A0
:100060000000000000000000000000000000000090
:100070000000000000000000000000000000000080
:100080000000000000000000000000000000000070
:10040000FFFFFFFFDFCEFFFFFCFFFF00FFFFFF004E
:10041000FCFFFF00FFFFFF00FCFFFF00FFFFFF00EE
:10042000FCFF0F20FFFF0F20FCFF7F40FFFF7F40FE
:10043000FCFF0D40FFFF0D40FFFFFFFFFFFFFFFF31
:10044000FFFFFFFFFFFFFFFFFFFFFFFFFFFFFFFFBC
:10045000FFFFFFFFFFFFFFFFFFFFFFFFFFFFFFFFAC
:10046000FFFFFFFFFFFFFFFFFFFFFFFFFFFFFFFF9C
:10047000FFFFFFFFFFFFFFFFFFFFFFFFFFFFFFFF8C
:10048000FFFFFFFFFFFFFFFFFFFFFFFFFFFFFFFF7C
:10049000FFFFFFFFFFFFFFFFFFFFFFFFFFFFFFFF6C
:1004A000FFFFFFFFFFFFFFFFFFFFFFFFFFFFFFFF5C
:1004B000FFFFFFFFFFFFFFFFFFFFFFFFFFFFFFFF4C
:1004C000FFFFFFFFFFFFFFFFFFFFFFFFFFFFFFFF3C
:1004D000FFFFFFFFFFFFFFFFFFFFFFFFFFFFFFFF2C
:1004E000FFFFFFFFFFFFFFFFFFFFFFFFFFFFFFFF1C
:1004F000FFFFFFFFFFFFFFFFFFFFFFFFFFFFFFFF0C
:100500000A4B53F83000CBB211F07F010BD0DA095F
:10051000074B03EB02130B4493F878301BB13733CE
:1005200000EB430070476030704700BF5C2B000059
:1005300038110020014B01221A60704700E100E0F1
:10054000044B0122C3F88020BFF34F8FBFF36F8F9E
:10055000704700BF00E100E010B50446FFF7D0FF90
:1005600001462046FFF7ECFF0B8803F0030343F03E
:1005700002030B8002230B80BDE81040FFF7DABFB7
:10058000044AB2F8CC309BB243F08003A2F8CC30DE
:10059000704700BF0000094000BE7047064B93F84B
:1005A00026101A6A054B53F82130C2F30262D34079
:1005B000034A1360704700BF00E00140AC05002013
:1005C000CC100020034AB2F840319BB2A2F830317F
:1005D000704700BF00600040C030054B53F820203A
:1005E00022F4803243F8202053F82030704700BFB7
:1005F00000600040024A136801331360704700BF77
:10060000C8100020EFF30380103840B2FFF7E4BFBA
:10061000FFF7F8BF0A4492B291424FEA400001D876
:10062000824201DB121A92B21046704700207047D6
:100630004B6902490B610121184700BF5C10002083
:10064000034A034610780BB1FFF774BFFFF778BF7A
:10065000A8050020024B02225A8000221A7170471E
:100660008C0E0020024B00221A80FFF7F3BF00BF60
:100670008C0E00200020FFF7F5BF01207047FFFF20
:100680008B79012B70B535D1CB79022B32D1002378
:100690008D7818468C79012C20D04B78212B22D1D3
:1006A000154B8A781A70B1F805300930402B80B2AA
:1006B00021D94FF0E023D3F8F03DDB071BD500BE76
:1006C00019E08C78AC420ED1CE78DCB2A6420AD1C9
:1006D0000C78204480B221440133DBE7CC79022C32
:1006E000DBD19042EDD34FF0E023D3F8F03DDA07B1
:1006F00000D500BE002070BD8C0E002010B501F1A9
:10070000080400F00F02D3B2092A8CBF373330330C
:1007100004F8013D8C424FEA1010F2D110BDFFFFEA
:1007200008B50146FFF758FFBFF35F8F01224B0961
:1007300001F01F018A406033014941F8232008BDC0
:1007400000E100E0044A4109012300F01F0083405A
:1007500042F82130704700BF00E100E0084B1A6802
:10076000084B9A4209D1084BB3F8B20F00F0810050
:10077000003818BF0120C00070470720704700BF35
:10078000D81000204E45504F00F07E40084B00220C
:100790001A719A78042A02D103229A707047072AA4
:1007A000FCD11A7812F0040F0CBF08220622F4E7DD
:1007B0008C0E002008B50378012B06D103490B8865
:1007C0001BB1FFF7E3FF00230B8008BD880E00205C
:1007D000EFF31080012383F310880A4A53889BB2F9
:1007E0004BB90949B1F8FE339BB243F4254343F0BA
:1007F0000203A1F8FE33538801339BB2538080F388
:10080000108870478006002000E00140EFF310815F
:10081000012383F310880C4A53889BB21BB1538881
:10082000013B9BB2538053889BB24BB9074AB2F845
:10083000FE339BB223F0020343F42543A2F8FE33B8
:1008400081F31088704700BF8006002000E001405F
:10085000030143EA801040F4847040F001007047C7
:1008600010B5041E0EDB04F1604303F5614309017A
:10087000C9B283F80013FFF753FF2046BDE81040CC
:10088000FFF760BF10BDFFFF30B5194DAB686D6855
:100890009C6E2D78032D98BF013408B1A0421DD362
:1008A0005B6BD20754BF03F01F03C3F30443032D54
:1008B00008D90F2B8CBF0023012348B9A3B9022309
:1008C0004B6030BD03F00C031A1F53425341F4E751
:1008D000A04201D3002BF2D10323F1E7032D98BFEF
:1008E00000F1FF300860ECE7002CE8D0F4E700BF2F
:1008F000101100202DE9F34101F00307032F80467A
:100900000C4607D02B4B5A681278062A01F00C01CE
:1009100003D129B902B0BDE8F08109B1032AF9D1A8
:100920001968254A9142F5D19E68736E013343459B
:10093000F0D34FF0FF350023224669464046CDE90B
:100940000053FFF7A1FF019A356B8AB914F0080F25
:1009500014BF04230223A0075BBFDB19123306EB8D
:10096000830306EB830300994ABFD9645960196574
:10097000630642BF336C43F480033364012F15D008
:1009800025F44035022C45EA02450BD12AB101225B
:1009900069464046FFF778FF019A25F0407545EA21
:1009A000026501E0002FF8D13563B3E7022CEDD0EA
:1009B000F3E700BF1011002054504700F8B5038939
:1009C00044899BB2A4B205468088A34236BFC4EBDB
:1009D000400EA3EB040E9E441FFA8EFE7045164691
:1009E0001ED80027BC463B463A46B24228BF324694
:1009F0000CEB020084452AD1B61AB6B23EB1B3421E
:100A000028BF3346F818874225D113449AB2298962
:100A1000A88889B2FFF7FEFD2881F8BD1B1A9BB29A
:100A20009842FBD9A0420FD92F68A34207EB030CD1
:100A30002DBFC01AE41A0027A3EB0E0339BFA2B2E0
:100A40003B4682B29BB2D0E7241AA4B2EAE70C7804
:100A50000CF8014BCEE70C7807F8014BD3E722F0F6
:100A6000010370B50344550804469C4205D1D307E1
:100A700044BF10F815300B7070BD34F8026B0E8057
:100A8000F3E72DE9F041174602894389848892B241
:100A90009BB29A4236BFC3EB4405D51AAD18ADB22E
:100AA000AC42064605D2A24208D3131B9BB2438137
:100AB00025468DBB2C46A846284610E013199BB24C
:100AC000438125469C422AD9D6F80080934208EB00
:100AD000030027D32D1BE21A2B449CB295B2BD42D2
:100AE00028BF3D467F1B2A46BFB2FFF7B8FF47B17C
:100AF000A7423A46404628BF2246FFF7B0FF1544BA
:100B0000ADB27189B0882A4689B2FFF783FD708142
:100B1000BDE8F081121B92B29442FBD9D2E71B1BB5
:100B20009BB2CFE74FF000084446D8E72DE9F041EB
:100B3000144DEC8807461CB92C600120BDE8F081FB
:100B4000B0F85E8008F07F084445264628BF464638
:100B50003EB16B7A286807F11401324663B1FFF7A2
:100B600090FF444538BF4FF40043A4EB060438BF60
:100B70007B84EC800020E1E7FFF771FF30442860C0
:100B8000EFE700BF381100202DE9F0470C23254D79
:100B90004B43EA180446D6880F461EB9EE50012092
:100BA000BDE8F0878BB243F480620285A0F8643020
:100BB000B0F86CA01FFA8AFA238D03F00F039F424E
:100BC000FAD1638D9B04FCD55645B04628BFD0466C
:100BD000B8F1000F0ED04FF00C0909FB07F905EB37
:100BE000090355F809005B7A04F1180142469BB1EC
:100BF000FFF747FF56453CBF4FF400436385002392
:100C00002385208D10F00F00FBD10C2303FB07552B
:100C1000A6EB0806EE80C3E7FFF721FF404445F846
:100C20000900E7E7381100202DE9F047364E06EBC2
:100C3000D0138A4693F8285015F00105074611464F
:100C40004FEAD0190AD04FF0E023D3F8F03DDB078C
:100C500000D500BE00252846BDE8F0872B4A92F853
:100C6000008093F8282042F0010283F82820284BC6
:100C700053F838404046FFF763FC0CB900BEFEE76E
:100C80008FB34FF484632384238C9A06FCD5214BC5
:100C900000225A729980D98091B3C3F800A057B34B
:100CA000B4F86030180403D5B4F8543019061FD4D2
:100CB0004FF0E023D3F8F03DDA0700D500BE404600
:100CC000FFF738FC002DC6D106EB090393F8282066
:100CD00065F3000283F8282093F8282065F3820248
:100CE00083F82820AFE72784238C9B06FCD4CEE72B
:100CF0002046FFF71BFF0123A4F860300125DEE743
:100D000019600523F8E700BF81100020A805002026
:100D10005C2B000038110020C0430022114600F077
:100D20008000FFF781BFFFFF10B40346064C006848
:100D30005968224603C20022C4E9022218785DF8ED
:100D4000044BFFF7E9BF00BF5C1000202DE9F04124
:100D5000184E194FDFF87080054600243278E3B250
:100D60009A4210D23C220021144801F0CFFD1022FB
:100D7000FF21134801F0CAFDBDE8F04111481422DB
:100D8000FF2101F0C3BD0DD9D8F8002012EB4313A9
:100D90000BD14FF0E023D3F8F03DDB0700D500BEC8
:100DA000BDE8F0819B1A07EB4313DB6828469847A0
:100DB0000134D3E778100020F82A000081100020C9
:100DC00085100020951000207410002070B5058952
:100DD0000389428986889BB292B2934236BFC2EBA6
:100DE00046029B1A9B189BB29E420446ADB217D88E
:100DF000C079C00914D170BD801B80B2B042FBD253
:100E0000E2882368C2F30E0202FB003001F086FD87
:100E1000A08801222946FFF7FDFB20810120EAE797
:100E20002846EBE710B5114B9989DA8993F9000050
:100E30008C1AA4B2402C28BF402400280DDA91421D
:100E400011D099680A48224601F068FD80200849BF
:100E50002246BDE81040FFF7E7BE91424FF0000088
:100E6000F5D10146F4E780200021F1E75C10002075
:100E7000D80E002070B50346104C00680E46596825
:100E8000A660254603C50021E181D988914228BF8B
:100E90001146A181DA886AB1FFF7C4FF40B94FF06B
:100EA000E023D3F8F03DDB0700D500BE002000E0D2
:100EB000012070BD1878FFF72FFFEFE75C100020CE
:100EC00007B58DF800208DF801301A0A1B0C8DF83B
:100ED00002208DF803308DF80410002306226946A5
:100EE0008DF80530FFF7C6FF03B05DF804FBFFFF88
:100EF0002DE9F04F87B0834B1D6800202B68984781
:100F0000AB89E98928899BB289B28B4236BFC1EB94
:100F100040025A1AD21894B29CB1A04205D2834220
:100F20002CBF1B1A1B1899B2E981884225D96A89FE
:100F30006B68C2F30E0202FB013103A801F0EEFC64
:100F40000124E9892889224689B2FFF763FB2B68CF
:100F5000E88101209847002C34D09DF80D30013BEA
:100F6000072B00F23A83DFE813F00B0019009C0313
:100F700092039203230017039503091A89B2D4E759
:100F80009DF80C00FFF7E2FE14225F48002101F0FB
:100F9000BDFC5E4A9DF810309370ACE79DF80C00E4
:100FA000FFF7D4FE14220021574801F0AFFCA2E75E
:100FB000574A13784BB94FF0E023D3F8F03DDA07E6
:100FC00000D500BE07B0BDE8F08F1378013BDBB25F
:100FD0001370127802F0FF03002A8CD14B4CDFF81B
:100FE00028812278C8F8103042F00102227094F86B
:100FF00028209DF80C7063F3000284F8282094F8F0
:10100000282063F3820284F8282094F8292063F3CF
:10101000000284F8292094F8292063F3820284F8DE
:1010200029209DF8102002F06003602B07D14FF0BB
:10103000E023D3F8F03DD90706D500BE04E0402BED
:101040000DD1344BC8F810309DF80C000021FFF78B
:1010500083FA9DF80C008021FFF77EFA4BE702F03F
:101060001F02012A00F0D681022A00F00282002A23
:10107000DDD1202B16D19DF814300F2BE4D8264A51
:10108000234412781B79934209D2244A116811EB48
:101090004311D9D004AA3846FFF7CAFA2BE1D3D1BD
:1010A0001F49F7E7002BC2D19DF81130092BBED89C
:1010B00001A252F823F000BFB9130000A7130000EB
:1010C0002F100000931300002F100000E11000000B
:1010D000BD1200002F100000FB10000025110000C1
:1010E00006AB13E903000023C8E90233237843F079
:1010F0000203C8E900012370FDE663788DF80A3029
:10110000012263E17C1000205C100020811000208F
:10111000801000202D0600007810002074100020A0
:10112000F82A00009DF812806378984500F0B1809D
:101130006378002B47D0A84BA84E53F837100025F2
:1011400086F898500B8E65F34D330B863846FFF7C3
:10115000F7F901F1600B33464FF0090CB64693F8EE
:10116000742022B302F07F09D20910010EEB0212A3
:101170004A44CE8E92F878204FF0010AB6B20AFAAD
:1011800002FA26EA0A06CE86002A46D002F137067F
:1011900001EB4606358070440C26A1F864204844D3
:1011A00006FB02E2A1F86850157280F87850BCF195
:1011B000010CA3F10C03D2D13846FFF7BBF9A57897
:1011C000FFF7C4FDA57084F80180B8F1000F60D06E
:1011D00023788349DFF8349223F03003237001F140
:1011E0001B084B780B2B03BF0B7891F803A0C91891
:1011F0004FF0010A4B78042B13D04FF0E023D3F8C3
:10120000F03DDE0758D44FF0E023D3F8F03DDD0782
:1012100000D500BE0023637016E75E46BAE70146BC
:10122000DFE7A8EB0102DFF8E8B192B2002699F8F7
:101230000030F5B29D42E0D811D26A4B1B6813EB27
:101240004513DAD01B693846CDE9001298470828C3
:10125000DDE900122ED982422CD300220CE0EB1AD9
:101260000BEB4313EEE78E78334454FA83F30132E9
:101270001E79FF2EC1D11D71D3B29A45F3D85A4EB3
:101280000844884209D899F80030AB42B5D34045AC
:10129000C5D304A8FFF748FD2DE64B78052B06D1F2
:1012A0008B7803F07F0206EB4202DB09D5540B7802
:1012B0001944E6E70136BAE700BEA4E7BDF81230EC
:1012C000190A4A1E062A3FF6BFAE01A050F822F0C6
:1012D000ED120000FF1200000D1300004910000085
:1012E0004910000049100000FF1200003F4912227F
:1012F00004A8FFF7BFFD00287FF4FDADA4E6022996
:101300007FF4A2AE3A4931F80229F1E713F0FF0366
:101310000ED138493848022201F000FB012040007C
:10132000821C364942F440730B8002F0FE02DFE774
:10133000052B3FF689AE324A324C52F823502378BF
:10134000BBB9314BD3F89C3103F1140658692146DF
:10135000FFF7D4F9706804F10801FFF7CFF9B0681E
:1013600004F11001FFF7CAF9F06804F11801FFF762
:10137000C5F9284601F0E0FA2049C0B20022D3B2F4
:10138000984202F10102CAD95C1CEB5C21F81430CE
:10139000F5E7BDF81230012B7FF456AE237843F009
:1013A0000803237075E7BDF81230012B7FF44CAEB3
:1013B000237823F00803F4E72378C3F340129B0853
:1013C00003F002031343ADF80A3002220DF10A01C3
:1013D00004A8FFF74FFD8EE55C2B000038110020BC
:1013E000A12A00007410002095100020BC2A0000E3
:1013F0009A2A0000C62900005C0F00205A0F002026
:10140000802A0000180F002000B07F4078100020D4
:10141000F82A00009DF814300F2B3FF615AEA54AB0
:10142000234412781B7993421FD2A34A116811EB0F
:1014300043113FF409AE04AA3846FFF7F9F8002833
:101440007FF459AD9DF8103013F060037FF4FCADCC
:101450009DF81120A2F10A0101293FF6F5AD0A2AF3
:10146000C8F810307FF415AF48E67FF4EDAD93492E
:10147000E1E79DF8149009F07F02092A3FF6D7AD05
:10148000550004EB42028B4902EBD9120978127D18
:101490008A424FEAD91B14D287490E6806EB4216DE
:1014A000BBB99DF8113003F0FD02012A15D0002BC5
:1014B0007FF4BDAD2C445C4494F82830C3F3400362
:1014C00081E740F0F1807D4E002BEAD004AA31463E
:1014D000E1E5002E3FF4B8ADF8E7BDF81220002A90
:1014E00038D1774A012B92F800A044D1754A019374
:1014F00052F83A20009249465046FFF701F801465B
:101500005046FFF71DF84FF48070DDE90023088096
:10151000BBF1000F01D00B800BE06B48484490F802
:101520007800A2F86400B2F86820C2F38132012A80
:10153000F1D125445D445046FEF7FCFF95F8283074
:1015400023F0020385F8283095F8283023F00103B2
:1015500085F82830002E3FF4CEAC04AA3146384638
:10156000FFF766F80023C8F8103094F82930D80740
:101570003FF5C1AC8DE625445D4449465046FEF733
:10158000EBFF95F8283043F0020385F8283095F8F2
:10159000283043F00103DBE79DF810104B4B01F0BE
:1015A0007F0003EB400303EBD113CF0993F828200E
:1015B00022F0010283F8282093F8282022F0040268
:1015C00083F8282000284BD1414C9DF80C602378EB
:1015D000059DB7EBD31F12D045B14FF0E023D3F8F0
:1015E000F03DDB077FF587AC00BE84E42369002B68
:1015F0003FF481AC22460321304698477BE494F9BE
:101600000030002B07DBA06800283FF474AC3149A0
:101610002A4601F083F9A268E3892A442B44A26098
:10162000E2889BB29A42E38101D03F2D15D823690D
:1016300033B92078FFF770FB00287FF45CACCCE76F
:101640000221234A3046984701460028F1D130460E
:10165000FEF782FF80213046FEE4FFF7E3FBEBE775
:101660001A7D144B1B789A420DD2134B1B6813EB57
:1016700042133FF4A0AC9C699DF81120059B9DF896
:101680000C00A04737E47FF496AC0C4BF3E70F4B0C
:101690001B7830E4049B002B3FF42DAC0598984751
:1016A00029E40A4BDB7826E4002B7FF4CDAC00263E
:1016B000F7E600BF7810002074100020F82A000020
:1016C000A80500205C2B00003811002081100020AC
:1016D0005C100020D80E002008B50D4C0D4E25687A
:1016E000327823685B1B632B0CD9BFF34F8F0A49F9
:1016F0000A4BCA6802F4E0621343CB60BFF34F8F1A
:1017000000BFFDE7FF2AECD0FFF7F2FBE8E700BFE0
:10171000C8100020A805002000ED00E00400FA0534
:101720002DE9FF414378023B0446042B13D8DFE840
:1017300003F00382161E8800444B1A7822F001023F
:101740001A701A78002122F002021A7059701A7861
:1017500061F382021A703E4B2146186853E03B4BFE
:101760001A78D6075AD51A7842F00402F2E7374AB7
:101770001378DD0752D5137823F004031370EAE7DA
:101780004FD9D8F8002012EB43134DD101353278F0
:10179000EBB29A42F4D22D4D2B7858071ED52B78F8
:1017A00023F004032B700023CDF80630CDF80A3067
:1017B000ADF80E3023788DF8043005238DF8053010
:1017C000234B186801A90430FFF700FB30B94FF034
:1017D000E023D3F8F03DD90700D500BEEB78DA0757
:1017E0001CD50023CDF80630CDF80A30ADF80E3008
:1017F00023788DF8043003238DF805306368029355
:10180000134B186801A90430FFF7E0FA30B94FF024
:10181000E023D3F8F03DDB0700D500BE04B0BDE8FF
:10182000F0819B1A07EB4313DB69002BAED0616894
:1018300020789847AAE7074E074FDFF82480002555
:10184000A5E7064A13780133DBB297E78110002041
:101850007C10002078100020F82A00008010002062
:10186000741000202DE9F04F89B0EFF30380103899
:1018700040B2FEF7B1FEB34BB3F84010CA4362F476
:1018800078428CB292B20904A3F840200CD5B3F888
:10189000402012F0800FC2F3C0111A8814BF42F02A
:1018A000100261F304121A80620417D50023CDF8E8
:1018B0001630CDF81A30ADF81E308DF8143005A86A
:1018C00005238DF81530FFF72BFF9F4B93F89810E9
:1018D00021B99C4B1A8E61F34D321A86A3041FD591
:1018E000984D2B8E9F041BD5B5F84C200023C2F3D6
:1018F0000A02CDF81630CDF81A30ADF81E308DF84A
:10190000143005A803238DF815300692FFF708FF61
:101910008D4B93F898201AB92B8E62F34D332B869A
:10192000E60408D504F07003202B00F0EA8062D8AA
:10193000102B00F08380200532D5E10740F10C81A7
:10194000804BB3F8402012072AD54FF480425A84C6
:10195000B3F85420ADF80C20B3F85620ADF80E20A3
:10196000B3F85820ADF81020B3F85A20ADF8122083
:101970004FF6F772A3F840200023CDF81630CDF8CB
:101980001A30ADF81E308DF814300822062303A952
:1019900006A88DF8153000F0C1FF05A8FFF7C0FEBE
:1019A000670515D56748B0F84A300022DE07A0F871
:1019B0004A200DD5FFF7BAF850B1634B4FF4E065FC
:1019C0009B880793802205A8CDE90552FFF7A8FE62
:1019D000E0050DD55B4C5C4DE38EB4F84670BFB2AC
:1019E0001F40FB439BB2A4F84630002F40F0C58057
:1019F00009B0BDE8F08F602B04D01DD804F060035F
:101A0000402B98D10023CDF81630CDF81A30ADF820
:101A10001E308DF8143005A804238DF81530FFF71B
:101A20007FFE494B93F89830002B84D1454A138EA2
:101A300043F4005313867EE7702BE2E7414B01220B
:101A40005A87DA864FF480425A8400221A851A8D0A
:101A500012F00F02FBD19A859A8D12F00F02FBD182
:101A60003A4D3B493748012394464FF400774FF4F1
:101A700080761FFA83FEA0F864E0A0F868C021F821
:101A8000137021F8132025F823600133062BF0D1C1
:101A900000252C4E28464FF400729FB2A6F86470C1
:101AA000A6F8680021F8132021F8135001330A2BFF
:101AB000F3D125489C22002100F028FF338903F050
:101AC0000703013B9BB2022B12D8224ACDF81650D5
:101AD000D35CCDF81A500122ADF81E508DF8145089
:101AE0008DF815208DF8183005A8FFF719FE22E7AC
:101AF0004FF0E023D3F8F03DDD077FF51CAF00BECB
:101B000019E7104BB3F8503013F07F033FF413AFD5
:101B10004FF4A062ADF80E300023ADF80C20049312
:101B2000CDF81630CDF81A30ADF81E308DF81430DF
:101B30000822062303A906A88DF8153000F0EEFE52
:101B4000D2E700BF00000940381100208C00094096
:101B50006E000940CE2A000014F007027FF420AF87
:101B6000604B1B8C0792C3F340134FF4E061DB0121
:101B7000CDE905128DF818300FE797FAA7F6B6FAF7
:101B800086F60C2303FB06531A7AD20918D0314685
:101B90002046FEF7F9FF00285BD00C2303FB065319
:101BA0004FF4E060197A9A88DB88D31A0022CDE9D5
:101BB000050205A88DF818100793FFF7B1FD48E05E
:101BC000002E5AD0B2B2DB882285A4F86420B4F883
:101BD0006CA01FFA8AFA228D02F00F029642FAD107
:101BE000628D9104FCD5B4F82A80C8F30B08D04567
:101BF00028BFD0460C2272434345994628BFC146B0
:101C000055F802B0A918B9F1000F08D04A7A2AB3E2
:101C1000354901934A465846FEF7D0FE019BCA4516
:101C200084BF4FF48042628500222285228D1207F4
:101C3000FCD10C2202FB0651A3EB0900CA45C88067
:101C400001D8434505D872430023AB50BBF1000FC8
:101C5000A3D10123B34027EA0307C6E621480BEBD3
:101C600009015A46914203D10C227243A950D6E78A
:101C700090F818C002F801CBF4E7B4F85EA0B4F80D
:101C80002280B5F806B0C8F30B080AF07F0AD045E9
:101C900028BFD046D845C14628BFD946B9F1000F64
:101CA00006D06B7A286893B110494A46FEF786FE43
:101CB000CA4584BF4FF480436384ABEB0903CA4534
:101CC000EB8001D8D845C4D300232B6065E7054AD3
:101CD00000EB0903834201D12B60E9E7117D00F895
:101CE000011BF7E7000009401800094014000940F3
:101CF000FFF7B8BDA0F101000028FBD17047FFFF3E
:101D0000064B07481A68074BB3FBF2F3B0FBF3F03E
:101D1000800801D0FFF7EEBF704700BFCC10002055
:101D2000400D030000CA9A3B2DE9F74F524D534E28
:101D300004464FF00008238898452BD3EFF310801A
:101D4000012383F310884E4B196819B94D4AD1709D
:101D50004021D1701A6801321A6080F310884A4D10
:101D60000020218882B2914267D8EFF310810122CE
:101D700082F310881A6812B11A68013A1A601A6858
:101D80001AB9404BDA708022DA7081F3108803B000
:101D9000BDE8F08F3D4B01934FEAC80A0027636806
:101DA000019803EB0A0130F8022B898801909142D7
:101DB00027D153F80A3095F8BB14012203F0B85329
:101DC000BA40B3F1807F5FFA82F907F1200B1ED190
:101DD00011EA090F09D1FEF7FBFC95F8BB1441EAA3
:101DE000090285F8BB24FEF711FD16F81B20D20965
:101DF00007D116F81B2042F0800206F81B20FFF7DF
:101E00007FFF0137032FCAD108F1010893E711EAD8
:101E1000090F09D0FEF7DCFC95F8BB1421EA090292
:101E200085F8BB24FEF7F2FC16F81B20D209E8D097
:101E300016F81B2022F08002DFE7666882B206EB0C
:101E4000C20156F83260898816F4803F4FEA1122A9
:101E50004FEA0212C9B20AD0571855F827C02CF41D
:101E6000803C45F827C026F4803C45F827C00A444A
:101E7000013045F8226074E700E001400040044072
:101E800070100020000D044000080440D22A000019
:101E900010B5104B4AF68022A3F8B22F0E4B816882
:101EA0000446062000F058FD93F8A0309B070CBFB5
:101EB0001020502000F05CFD63681A784AB193F955
:101EC00011402046FEF72CFC2046BDE81040FEF7EE
:101ED00039BC10BD00F07E4000E001408FB5BE4B24
:101EE000BE48BF4E4FF47002C3F888209E604AF28D
:101EF0000253A0F8FE33012380F81F3490F8B13468
:101F0000DF06FBD54FF42543A0F8FE334AF2035316
:101F1000A0F8FE33B34BB449B44D0022A3F800211E
:101F2000B34BC3E900514FF40041C3E902121A61F7
:101F3000FEF734FB012380F8803490F8A030A3B181
:101F400090F8363023B9A54A92F83C30DC07FBD52F
:101F5000A24B93F8A020D006C2F30011F9D483F865
:101F6000A01093F8A020D206FBD49C48002380F850
:101F7000363090F83C30DF07FBD501249D4B80F8CC
:101F800031400362002380F82630FEF707FB4FF450
:101F9000254380F8D040A0F8FE33924BA3F80441CB
:101FA000B3F80441A4B2002CFAD10125A3F80051E2
:101FB0008DF807409DF80730FEF70AFCEFF310821A
:101FC00085F310888C4FD7F8043123F00043C7F80D
:101FD0000431D7F8043182F31088884B1A68C2F3B1
:101FE00000028DF807201A68C2F300028DF807205E
:101FF0001B68C3F300038DF80730EFF3108285F3FD
:102000001088D7F8043143F00043C7F80431D7F8FB
:10201000043182F31088FEF7F9FB794B79489C80F4
:102020004FF425421A803268774EA2F5006199601C
:10203000DA60764A4FF48051A2F82011744A9D80EC
:10204000121A214600F062FC7248734A7349121A50
:1020500000F064FC724B9B1B9D10A54200F3AA810B
:10206000FEF79CFA6F4B002483F82840FEF7B0FB84
:102070005A4B83F8BB44FEF7C9FB6B4A63492346BE
:1020800003F1C000013312F8014B41F82040202B2E
:10209000F6D162B6654D664C2B68A34203D0654805
:1020A0002C60FFF741FEDFF8AC814FF47A72D8F86C
:1020B0000030B3FBF2F3013BB3F1807F0AD24FF063
:1020C000E022F0215361444B83F8231000239361F5
:1020D000072313612B68A34202BF574B4FF00062E6
:1020E0009A623E4B554AD3F80015914240F0678101
:1020F0004AF20252A3F8FE230022C3F800254FF44F
:102100002542A3F8FE234E4B1A68A24203D04D4845
:102110001C60FFF709FE4C4EDFF83C9133684B45DD
:1021200000F0A8801023F360484B494A73600025F3
:1021300001233374B2607561C6E90655EFF310826E
:1021400083F31088D7F8083123F04003C7F808312B
:10215000D7F8083182F31088B3684FF425421A602B
:10216000B4684FF08073E562E563A564E3624FF005
:10217000004323616361A36149F6950365622A46C2
:10218000A56202A9E56144F64B402562A366636639
:102190004FF0FF33CDE90235FEF776FBDDE9022390
:1021A00028466265A2651A0642EA0342FEF750FB22
:1021B0004FF4AA03A563C4F888502364F368E3606E
:1021C000000442F0030342F001026063FF21236335
:1021D0002846226342E000BF00ED00E000E001403D
:1021E0000000000000C0014000127A00006CDC0218
:1021F000AC05002000010110006F044000080440FD
:10220000000D0040C0050020AC050020006000402B
:10221000D411002000000020AC050020942B000009
:10222000AC05002000400440D82A0000D010002057
:1022300054524F50182B00000000044035817307A2
:1022400030110020542B000010110020342B00000E
:1022500000840740CC10002054504700FEF700FBDC
:1022600029462846FEF7FCFA29462846FEF7F8FAE2
:10227000C6F800907168087844F61F6344F620623F
:10228000032898BF1A46B3689A66097819B942F2CA
:102290000F7159659965D96ACD0705D45A664FF40F
:1022A000AA021A64F268DA6001210020FEF722FB1C
:1022B0003368A94CA94D4B4504BFD6E902325A6098
:1022C0002368AB4272D0A64B6360A648D8F80010D2
:1022D000002384F83430026AC2F3026301FA03F384
:1022E000C2F30272D340A04AE360934209D89F4AE6
:1022F000934206D09E4A934203D09E4A934240F0B6
:10230000BC80026A99489C4EC2F302629140D1405F
:1023100003F5742303F23F2301F57421B3FBF0F3BB
:10232000E36040F2835301F23F21B1FBF0F106205C
:102330004B43B3FBF0F3236140F276334B43B3FBE3
:10234000F0F3636158234B43B3FBF0F3A3618B4B72
:10235000A1604B43B3FBF0F3E3614EF278634B4370
:102360002362874B4B43B3FBF0F36362854B002240
:1023700083F8C02F96F89030012B04D0012386F803
:10238000903000F0E9FA7448FFF782FDE368D6F870
:10239000D8217148013B03F01F0363F30502C6F81F
:1023A000D82100F0E1FA002864D125606A4800F0E5
:1023B000D7FA62E056F8043B984701344DE693F8AB
:1023C0001014CE0709D44AF20251A3F8FE13C3F841
:1023D00000254FF42542A3F8FE236B4A1368B3F59A
:1023E000FA7FFBD35F4B4AF2025600214FF425459A
:1023F0004FF48042A3F8FE63C3F80015A3F8FE5320
:10240000106800F07F40B0F1005F7FF47CAEA3F86D
:10241000FE63EFF3108C012686F31088D7F80001D5
:1024200040F40060C7F80001D7F800018CF3108871
:10243000EFF3108C86F31088D7F8000140F4805039
:10244000C7F80001D7F800018CF31088A3F8FE53F9
:102450004E4B998072B6BFF34F8FBFF36F8F4FF023
:10246000E0231961C3F8082D136883F308885368C3
:10247000984748E62368AB4298D0454D2B78FF2B10
:1024800040F0A9803C224348002100F03FFA424B33
:1024900000221A70414BDA819A81414A1360414B04
:1024A00023B14148AFF30080404B18603E4EDFF847
:1024B0000881DFF8F89000243278E3B293427DD9A6
:1024C00000222A70D7F80031394923F40063C7F895
:1024D0000031384B81F898201A8842F480621A80C3
:1024E0001A885005FCD51A8822F020021A801A8812
:1024F00022F040021A801A8842F001021A80052256
:10250000C3F8F020D3F8002422F01002C3F800240E
:10251000B3F85E20402060F30602A3F85E2000229C
:10252000A3F8402091F898309342224B0CBF4FF40F
:102530005D424FF47D421A8601225A87DA86B3F84B
:102540004020120642BF1A8842F010021A80002072
:10255000FDF7F0FF3FE000BFD81000204E45504F80
:10256000202B000000E00140FF083D0040420F002A
:1025700080841E00C0C62D0000C07E40B86A0500E1
:1025800068ED220000F07E40C8100020000D0040E1
:10259000A805002081100020801000209805002050
:1025A0007C10002000000000781000207410002033
:1025B0003811002000000940F82A000030D2D9F874
:1025C000002012EB43132ED14FF0E023D3F8F03D5F
:1025D000DC0700D500BEFDF7D3FF1F4F1F4EDFF80D
:1025E00084802B78FF2B01D0FEF782FC3A68336899
:1025F000D21A632AF5D9D8F8004064330121204665
:102600003360FEF777F9164B1A78BAB1B4F5FA6F62
:102610000FD200221A704FF4FA63C8F80030E0E7D6
:102620009B1A08EB43135B680134002BCCD098470E
:1026300042E7A4F5FA64C8F80040D2E704F5FA646A
:1026400044F61F629442C8F80040CAD901221A70A9
:1026500044F62063E1E700BFC8100020C41000204A
:10266000BD100020C010002010B5104B1988FEF7D7
:1026700075F80346C0B90E4A02EA8112A2F56E311E
:1026800001396FF47E3081420ED30A490A48B1F510
:10269000802F80F8343007D9BDE810404FF4006334
:1026A00002F5804200F050B910BD00BF8A0E002034
:1026B00000F8FFFF88060020D810002070B51378BE
:1026C000144603F01F02012A0D4640F00A8113F060
:1026D000600019D163780A2B0DD00B2B27D101296B
:1026E00024D1814B62885A70FDF7B4FF2046BDE8C3
:1026F0007040FEF719BB012918D10A467B492046D4
:10270000BDE87040FEF7B6BB202840F0EA80637851
:10271000062B00F2E680DFE803F004321C520F14AF
:102720000F00012904D12046FEF7FEFA012070BDFA
:102730000329FBD1FEF7D0FF0129F7D1FDF78AFF6E
:10274000F1E70129F2D10A4620466949FEF792FBDA
:10275000ECE70129EAD1644E337813F00200E6D0A9
:10276000E588402D00F2BD8061882A46694306F164
:102770000C0000F0D3F82A4606F10C01BFE701294E
:10278000D4D159490B7813F00100D0D08B78022BAB
:1027900002D0052B40F0A580E388402B00F2A180F9
:1027A00001230B716388CB80E3880B81E2881AB127
:1027B00003238B704F49A2E706238B7096E74A4AA2
:1027C0009178032905D006294FD0012DAED10023E1
:1027D00008E0012D0AD113791BB1537823B90421E4
:1027E00000E00521D2784BE06423F8E7032D9DD16A
:1027F0001379002B36D00423D18893703E4B148973
:10280000198001F58071890111F4F86F12D172B647
:10281000FDF7A4FF034660B93848B1F5802F80F872
:10282000343006DA4FF4006301226FF30A0100F03E
:102830008FF862B6324D33482B882E492246184411
:1028400000F06CF82B881C44A4B2B4F5006F2C8007
:1028500005D172B6FFF708FF62B600232B80FDF7A3
:1028600095FF63E70523937060E7012D0DD1137980
:10287000D278002B18BF07214FF0000308BF0221B8
:102880002046BDE87040FEF71BBB032D7FF44EAF22
:10289000137923B30723937072B6FFF7E5FE62B690
:1028A000FDF774FFFDF75AFF00287FF43FAF134B8D
:1028B00018605B6893F9113013F1210F3FF436AFC4
:1028C0005A09012103F01F03994002F120030E4A27
:1028D00042F82310BFF34F8FBFF36F8F26E7022319
:1028E000C1E7002023E700BF8C0E00208D0E0020E2
:1028F0008E0E0020980E00208A0E0020D810002096
:10290000880E00208806002000E100E00244034613
:10291000934200D1704703F8011BF9E70A44914242
:1029200000F1FF3300D1704710B511F8014B03F8E7
:10293000014F9142F9D110BD034613F8012B002A33
:10294000FBD1181A013870475FF800F039040020F5
:102950005FF800F00D0300205FF800F07D0000201C
:102960005FF800F0390100205FF800F0B9000020A6
:102970005FF800F08F00002000000504342E352E93
:1029800030004275696C7420776974682052656EF6
:102990006573617320416476616E63656420466C83
:1029A000657869626C6520536F6674776172652023
:1029B0005061636B6167652076657273696F6E2025
:1029C000342E352E30000904040000000B010000F5
:1029D000000000000A0100000000011307040000CD
:1029E000000001130E090000000001130F09000090
:1029F00000000100000000000000000000000000D6
:102A000000000000000000000000000000000000C6
:102A100000000000000000000000000000000000B6
:102A2000000001030402000041726475696E6F00CA
:102A30004E616E6F205234204446550040436F640F
:102A400065466C617368202F30783030303030301C
:102A500030302F382A324B612C3132302A324B67DA
:102A6000004044617461466C617368202F30783097
:102A7000383030303030302F382A314B6700FFFF8C
:102A8000C6290000282A0000302A0000180F002064
:102A90003C2A0000612A0000090224000101008094
:102AA000320904000000FE0102040904000100FED6
:102AB000010205092107E80340000101120100029B
:102AC00000000040412374030001010203010100E2
:102AD00002FF020403040404333431320000000016
:102AE00000000000000000000000000000000000E6
:102AF000000000000000000000000000750600005B
:102B00007B0600006506000081060000BD2600006F
:102B1000000000000000000005000000C8290000BF
:102B200000000000B50700000000000000000000E9
:102B30000207020802000000969800000200000050
:102B40004B4C000004FF00000000000000000000EB
:102B5000F029000001000000202A000000000940C8
:102B6000000000001000000000000000017A520088
:102B7000027C0E011B0C0D0010000000180000006C
:0C2B8000B8FDFFFF100000000000000086
:082B8C00ACFDFF7F0100000019
:102B940010B5431E19440B4B93F8044124F001046F
:102BA40083F80441040C80B2A3F81041D2B2A3F814
:102BB4000801080C89B2C3F82001A3F8181183F89E
:102BC400142110BD00C07E4082B00F4B0190D3F899
:102BD4002C2151060FD5002283F814210190D3F83B
:102BE4002C21C2F38010520608D5019A2AB1019A09
:102BF400013A0192F3E7019A12B9142002B0704726
:102C0400019A013A0192E2E700C07E40484303285A
:102C140004D98008A0F101000028FBD17047094BBA
:102C2400A522C3F88021C243D2B283F8000183F8FD
:102C3400002183F8000193F80031834200D100BFE2
:102C4400704700BF00C07E4073B51D4EB6F8B24F4A
:102C5400A4B24FF49643012C0546019309D1922066
:102C6400FFF7DDFF0320A968FFF7D0FF1220FFF76D
:102C7400D6FF0820FFF7D3FFA96806204FF42A43A4
:102C8400FFF7C4FFA6F8B23FB6F8B23F9BB27BB9D8
:102C9400012C0AD10B4BA3F80441B3F8042192B2DE
:102CA400002AFAD10122A3F80021002002B070BD4D
:102CB400019B1BB1019B013B0193E5E71420F5E760
:102CC40000F07E4000C0014010B5002380F834308D
:102CD4000C4BB3F8B23F9BB204460BB900F020FA98
:102CE400094BD3F8242142F00102C3F82421D3F87C
:102CF400242122F00102C3F824212046BDE810401B
:102D0400A2E700BF00F07E4000C07E40F8B5054653
:102D1400084616461F46FFF757FF1428044604D1F9
:102D24002846FFF7D1FF2046F8BD054BD3F8F04104
:102D34003440F8D02846FFF7C7FF3C46F3E700BF0E
:102D440000C07E4010B50023934200D110BDCC5C7E
:102D5400C4540133F8E738B51C4B0022A3F8002112
:102D640043681A7804467AB193F9113001215A095B
:102D740003F01F03994002F12003154A42F823107F
:102D8400BFF34F8FBFF36F8F124B4AF60122A3F8A4
:102D9400B22F1220FFF743FF0F4BA1680320FFF768
:102DA40035FF93F8A0309B070BBF8221C2219220EC
:102DB400D2200CBF06250425FFF731FF0846FFF794
:102DC4002EFFA1682846BDE838401FE700C0014037
:102DD40000E100E000F07E4000E0014082B00F4BD3
:102DE4000190D3F82C2111060FD50022C3F8DC2161
:102DF4000190D3F82C21C2F3C010120608D5019A11
:102E04002AB1019A013A0192F3E7019A12B9142006
:102E140002B07047019A013A0192E2E700C07E4095
:102E240038B50546406AFFF7D9FF1428044604D193
:102E34002846FFF749FF204638BD054BD3F8F0413B
:102E440014F01204F7D02846FFF73EFF1824F2E7E7
:102E540000C07E40F8B5054614460F461E46FFF7EF
:102E64007AFF214683223846FFF792FE0334A9698C
:102E7400A4084FF4FC73102261432846FFF746FF71
:102E840048B9054BD3F82831C3F3C003337028463F
:102E9400BDE8F840D8E6F8BD00C07E402DE9F04119
:102EA400044616460F469846FFF755FF0D4B93F818
:102EB400045125F0010583F80451842208FB06F12E
:102EC4003846FFF765FEE169192311227143204654
:102ED400FFF71CFF18B92046BDE8F041B4E6BDE891
:102EE400F08100BF00C07E402DE9F84F894680463E
:102EF4009246FFF730FF214C4D4683274FF6FF7B68
:102F040094F8043143F0010384F80431BAF1000F5A
:102F14001DD1C4F830B1C4F838B1C4F8DC714046EE
:102F2400FFF77EFF94F8043123F00103013784F89E
:102F34000431064618B9872F05F10405E0D140464F
:102F4400FFF782FE002E18BF3046BDE8F88F6A787E
:102F54002B7843EA0223C4F83031BB00B3F5067F73
:102F64000DBFB9F80E30EA78AB784AEA030318BF0C
:102F740043EA0223C4F83831CFE700BF00C07E40E3
:102F840013B5104C0B0C89B2A4F810310822A4F824
:102F9400081101466846FFF7D5FEBDF80030C4F8B5
:102FA4003031BDF80230C4F83831BDF80430C4F80B
:102FB4004031BDF80630C4F84431812384F814311B
:102FC40002B010BD00C07E40F8B5044617460E4658
:102FD4001D46FFF7C0FEC4E90A67154AED082563DC
:102FE40092F8043123F0010382F804310025236BA5
:102FF40013B9C5B12846F8BD002DFBD1D4E90A01A7
:10300400FFF7BEFFA36A21690833A362E36A0833AA
:10301400E362236B013B2363122218232046FFF74C
:1030240075FE0546E3E72046FFF70EFEE2E700BF24
:1030340000C07E400C4B5AB9C0F38F20C1F38F21DE
:10304400C3F830018222C3F83811C3F8DC21704779
:1030540040F47E404FF6FF7240F0FF00C3F8382181
:10306400C3F830018122F0E700C07E40F8B517466E
:1030740006460C46154DFFF76EFE6FB1D5F8D831F4
:1030840064F38713C5F8D83100243046FFF7DCFD1C
:10309400002C18BF2046F8BD95F80431E44343F0F2
:1030A4000103240285F8043104F4807001223946B6
:1030B400FFF7C0FF3046FFF7B3FE95F8043167F31E
:1030C4000003044685F80431DFE700BF00C07E40FA
:1030D400F8B5114E05460C461746FFF73CFE96F828
:1030E400043143F0010386F80431002239462046B6
:1030F400FFF7A0FF2846FFF793FE96F8043123F06C
:103104000103044686F804312846FFF79DFD002C90
:1031140018BF2046F8BD00BF00C07E40000000007C
:103124005FF800F0911E000041060000C005002079
:0C31340010000C0000000000FF00000074
:020000040101F8
:10001800FFFFFFFFFFFFFFFFFFFFFFFFFFFFFFFFE8
:0C002800FFFFFFFFFFFFFFFFFFFFFFFFD8
:0400000300001EDDFE
:00000001FF
