:10000000D0290020B51E0000BD05000085050000B8
:1000100085050000850500008505000085050000B8
:100020000000000000000000000000008505000046
:10003000850500000000000085050000ED050000BA
:10004000191A0000611E0000FD05000009060000ED
:1000500000000000000000000000000000000000A0
:100060000000000000000000000000000000000090
:100070000000000000000000000000000000000080
:100080000000000000000000000000000000000070
:10040000FFFFFFFFDFCEFFFFFCFFFF00FFFFFF004E
:10041000FCFFFF00FFFFFF00FCFFFF00FFFFFF00EE
:10042000FCFF0F20FFFF0F20FCFF7F40FFFF7F40FE
:10043000FCFF0D40FFFF0D40FFFFFFFFFFFFFFFF31
:10044000FFFFFFFFFFFFFFFFFFFFFFFFFFFFFFFFBC
:10045000FFFFFFFFFFFFFFFFFFFFFFFFFFFFFFFFAC
:10046000FFFFFFFFFFFFFFFFFFFFFFFFFFFFFFFF9C
:10047000FFFFFFFFFFFFFFFFFFFFFFFFFFFFFFFF8C
:10048000FFFFFFFFFFFFFFFFFFFFFFFFFFFFFFFF7C
:10049000FFFFFFFFFFFFFFFFFFFFFFFFFFFFFFFF6C
:1004A000FFFFFFFFFFFFFFFFFFFFFFFFFFFFFFFF5C
:1004B000FFFFFFFFFFFFFFFFFFFFFFFFFFFFFFFF4C
:1004C000FFFFFFFFFFFFFFFFFFFFFFFFFFFFFFFF3C
:1004D000FFFFFFFFFFFFFFFFFFFFFFFFFFFFFFFF2C
:1004E000FFFFFFFFFFFFFFFFFFFFFFFFFFFFFFFF1C
:1004F000FFFFFFFFFFFFFFFFFFFFFFFFFFFFFFFF0C
:100500000A4B53F8300011F07F03CAB20BD00849F0
:10051000D20901EB0211194491F878301BB137333D
:1005200000EB430070476030704700BFF82A0000BE
:10053000E0050020014B01221A60704700E100E055
:10054000044B0122C3F88020BFF34F8FBFF36F8F9E
:10055000704700BF00E100E010B50446FFF7D0FF90
:10056000014670B12046FFF7EBFF0B8803F0030351
:1005700043F002030B8002230B80BDE81040FFF71D
:10058000D9BF10BD00BE7047064B93F826101A6AFB
:10059000054B53F82130C2F30262D340034A136083
:1005A000704700BF00E00140AC050020C0050020FE
:1005B000A0F101000028FBD17047FFFF034AB2F809
:1005C00040319BB2A2F83031704700BF006000405C
:1005D000C030054B53F820206FF3104243F8202021
:1005E00053F82030704700BF00600040024A136893
:1005F00001331360704700BFCC110020EFF303807C
:10060000103840B2FFF7E4BFFFF7F8BF0A4492B2D8
:1006100091424FEA400001D8824201DB121A92B2A5
:1006200010467047074B1B78834206D9064B1B6860
:1006300000EB400003EBC00070470CBF03480020F4
:10064000704700BFC8050020C4050020DC29000059
:10065000CB6802490B610121184700BFCC0500207F
:10066000034A034610780BB1FFF764BFFFF768BF7A
:10067000A8050020024B02225A8000221A717047FE
:1006800078070020024B00221A80FFF7F3BF00BF5B
:10069000780700200020FFF7F5BFFFFF8B79012BC3
:1006A00070B512D1CB79022B0FD100238D7818466B
:1006B000CC79022C1BD1824209D84FF0E023D3F829
:1006C000F00D10F0010025D000BE002022E08C7853
:1006D000AC42F2D1CE78DCB2A642EED10C78214405
:1006E00020448C79012C80B203F10103E0D04B78D7
:1006F000212BE2D1084B8A781A70B1F80530093005
:10070000402B80B206D94FF0E023D3F8F03DDB0751
:1007100000D500BE70BD00BF7807002010B501F104
:10072000080400F00F02D3B2092ACCBF37333033AC
:1007300004F8013DA1424FEA1010F2D110BDFFFFB5
:1007400008B50146FFF744FFBFF35F8F4B09054A29
:1007500001F01F010120603300FA01F142F823107B
:1007600008BD00BF00E100E00123420900F01F00C6
:1007700003FA00F0014B43F82200704700E100E06B
:10078000084B1A68084B9A4209D1084BB3F8B23F9C
:1007900003F08103002B0CBF0020082070470720C6
:1007A000704700BF0C1100204E45504F00F07E40B6
:1007B000084B00221A719A78042A02D103229A70F7
:1007C0007047072AFCD11A7812F0040F14BF0622D2
:1007D0000822F4E77807002008B50378012B06D13A
:1007E00003490B881BB1FFF7E3FF00230B8008BD13
:1007F00006110020EFF31080012383F310880A4ACA
:1008000053889BB24BB90949B1F8FE339BB243F40C
:10081000254343F00203A1F8FE33538801339BB212
:10082000538080F3108870474411002000E001409D
:10083000EFF31081012383F310880C4A53889BB295
:100840001BB15388013B9BB2538053889BB24BB979
:10085000074AB2F8FE339BB223F0020343F4254368
:10086000A2F8FE3381F31088704700BF44110020C6
:1008700000E00140064B07481B68B0FBF3F3064855
:10088000B0FBF3F0800801D0FFF792BE704700BFC5
:10089000C005002000CA9A3B400D03002DE9F74F28
:1008A000524D534E04464FF00008238898452BD3F1
:1008B000EFF31080012383F310884E4B196819B9A8
:1008C0004D4AD1704021D1701A6801321A6080F30C
:1008D00010884A4D0020218882B2914267D8EFF3F8
:1008E0001081012282F310881A6812B11A68013A45
:1008F0001A601A681AB9404BDA708022DA7081F3F4
:10090000108803B0BDE8F08F3D4B01934FEAC80952
:1009100000276368019803EB090130F8022B8988EE
:100920000190914227D153F8093095F8BB14012268
:1009300003F0B853BA40B3F1807F5FFA82FA07F14F
:10094000200B1ED111EA0A0F09D1FFF753FF95F8CA
:10095000BB1441EA0A0285F8BB24FFF769FF16F8C9
:100960001B20D30907D116F81B2042F0800206F89D
:100970001B20FFF77FFF0137032FCAD108F10108C1
:1009800093E711EA0A0F09D0FFF734FF95F8BB147B
:1009900021EA0A0285F8BB24FFF74AFF16F81B205C
:1009A000D309E8D016F81B206FF3C712DFE766689B
:1009B00082B206EBC20156F83260898816F4803F95
:1009C0004FEA11224FEA0212C9B20AD0571855F85D
:1009D00027C06FF3104C45F827C026F4803C45F83B
:1009E00027C00A44013045F8226074E700E0014066
:1009F000004004404C110020000D04400008044059
:100A0000C82A0000030143EA801040F4847040F0DB
:100A10000100704710B5041E0EDB04F1604303F5BE
:100A200061430901C9B283F80013FFF789FE20462C
:100A3000BDE81040FFF798BE10BDFFFF30B5184D60
:100A4000AB686D689C6E2D78032D98BF013408B19A
:100A5000A0421CD35B6BD20754BF03F01F03C3F348
:100A60000443032D07D91B0983F0010348B9A3B937
:100A700002234B6030BD03F00C031A1F5342534155
:100A8000F4E7A04201D3002BF2D10323F1E7032DB9
:100A900098BF00F1FF300860ECE7002CE8D0F4E7E5
:100AA000A811002022F0010330B5034454089842F5
:100AB00007D16FF0010303FB04220AB103780B7026
:100AC00030BD30F8025B0D80F1E7FFFFF0B501F0BB
:100AD0000307032F85B00C4607D02E4E73681B7892
:100AE000062B01F00C0202D122B905B0F0BD0AB10B
:100AF000032BFAD13268284B9A42F6D1B3685B6E69
:100B000001338342F1D34FF0FF320023CDE90223BA
:100B100002A922460190FFF791FFB2680399156B75
:100B20000198B1B914F0080F0CBF0223042314F08C
:100B3000020F05BFDB19123302EB830302EB8303C1
:100B4000DDF808C016BFC3F84CC0C3F804C0C3F832
:100B500050C0630642BF136C43F480031364012F3B
:100B600015D025F44035022C45EA01450AD119B1CA
:100B7000012202A9FFF762FF039B25F0407545EAB9
:100B8000036501E0002FF7D1B3681D63ADE7022CC8
:100B9000EDD0F1E7A811002054504700F8B50389C3
:100BA000448985889BB2A4B2A34236BFC4EB450CEE
:100BB000A3EB040C9C441FFA8CFC654506461ED82A
:100BC0000020074603460446944228BF14463D19B8
:100BD000AF422BD1121B92B23AB1934228BF1346B7
:100BE000C218904227D123449CB23189B088224652
:100BF00089B2FFF70BFD3081F8BD5B1B9BB29D42B4
:100C0000FBD9A5420FD93068A34200EB03072DBFE3
:100C1000EC1AE31A0020A3EB0C0335BF9CB2A4B27C
:100C200003469BB2D0E7641BA4B2EAE791F800C088
:100C300007F801CBCCE70D7800F8015BD1E72DE98F
:100C4000F041B0F808C0438984881FFA8CFC9BB23D
:100C50009C4536BFC3EB4405ACEB03056544ADB220
:100C6000AC420746164608D2A4452CBFACEB0403A1
:100C70000CEB04039BB2438125463DB92C46A846A4
:100C8000284612E0ACEB040C1FFA8CFC6445F9D941
:100C90009C4225D9D7F800809C4508EB030022D858
:100CA0002D1BE21A1D44ACB295B2B54228BF3546A1
:100CB0002A46FFF7F7FE721B92B242B1944228BF58
:100CC000144622464046FFF7EDFE2544ADB2798931
:100CD000B8882A4689B2FFF799FC7881BDE8F0818F
:100CE0001B1B9BB2D4E74FF000084446DDE7FFFF33
:100CF0002DE9F341174CE58807463DB9257065702D
:100D0000A570E570012002B0BDE8F081B0F85E800A
:100D100008F07F0845452E4628BF464646B1637A0F
:100D20002068DB0707F1140132460CD5FFF787FF77
:100D3000464538BF4FF40043A5EB060538BF7B841A
:100D4000E5800020DFE70190FFF7ACFE019830441A
:100D50002060EDE7E00500202DE9F347334E0C233A
:100D600003FB01630446B3F806800D46B8F1000F9B
:100D70001AD131B101F1370234F812305904FBD4E1
:100D800006E04FF0E023D3F8F03DD80700D500BED1
:100D90000C214D4372190023735501205370937039
:100DA000D37002B0BDE8F0878BB243F48062028555
:100DB000A0F86430B0F86CA01FFA8AFA238D03F013
:100DC0000F039D42FAD1638D9A04FCD5D045474666
:100DD00028BF57467FB14FF00C0909FB05F906EB18
:100DE000090356F809005B7ADB0704F118013A465B
:100DF00013D5FFF724FF57453CBF4FF400436385ED
:100E000000232385208D10F00F00FBD10C2101FB66
:100E10000565A8EB0707EF80C3E70190FFF742FEE7
:100E20000198384446F80900E5E700BFE0050020D6
:100E30002DE9F0473E4F07EBD013804693F827404B
:100E400014F0010416464FEAD01A0BD04FF0E023FD
:100E5000D3F8F03DD90703D400242046BDE8F0873D
:100E600000BEF9E7334A92F8009093F8272042F049
:100E7000010283F82720304B484653F83950FFF7DA
:100E80005FFBB8F1000F3CD04FF484632B842B8CB4
:100E90009A06FCD5294B5A7A9E806FF300025A724B
:100EA000DE80002E3AD01960B8F1000F32D0B5F8CC
:100EB0006030180403D5B5F85430190627D44FF024
:100EC000E023D3F8F03DDA0700D500BE4846FFF72F
:100ED00031FB002CC1D107EB0A0393F8272064F300
:100EE000000283F8272093F8272064F3820283F816
:100EF00027204FF0E023D3F8F03DDB07ACD500BE50
:100F0000ABE7A5F820802B8C9B06FCD4C2E72846D3
:100F1000FFF7EEFE0124A5F86040D7E71E705E7073
:100F20009E70DE700523A5F860300124CEE700BF77
:100F300004080020A8050020F82A0000E005002091
:100F400010F0800F4FF0000211460CBF80201046B9
:100F5000FFF76EBF10B40346064C0068596822467E
:100F600003C20022C4E902225DF8044B1878FFF79F
:100F7000E7BF00BFCC05002070B5144E0546002425
:100F8000E0B2FFF74FFB38B94FF0E023D3F8F03D64
:100F9000DB0700D500BE70BD436828469847013482
:100FA0003278E3B29A42EBD23B220021084801F0AA
:100FB00091FC1022FF21074801F08CFCBDE8704035
:100FC00005481422FF2101F085BC00BFC8050020A0
:100FD00004080020070800201708002070B50589C4
:100FE0000389428986889BB292B2934236BFC2EB94
:100FF00046029B1A9B189BB29E420446ADB217D87C
:10100000C079C00914D170BD9B1B9BB2B342FBD207
:10101000E2882068C2F30E0202FB030001F04CFCE0
:10102000A08801222946FFF7F1FA20810120EAE792
:101030002B46EBE713B5124B9889D98993F90040F9
:10104000421A92B2402A28BF4022002C0EDA88426F
:1010500012D099680B48019201F02EFC0949019ABF
:10106000802002B0BDE81040FFF7E2BE88424FF09A
:10107000000003D10021F4E78020FBE70149F0E7FD
:10108000CC050020C407002070B50446164D00684A
:101090000B466168AB602E4603C60021E981E188FA
:1010A0008A4228BF0A46AA81E18881B152B14BB970
:1010B0004FF0E022D2F8F02DD20701D4002070BD0D
:1010C00000BEFBE7FFF7B6FF28B10120F7E7207865
:1010D000FFF736FFF8E74FF0E023D3F8F03DDB07EA
:1010E000ECD500BEEBE700BFCC05002007B58DF8BE
:1010F00000208DF801301A0A1B0C8DF802208DF8A3
:1011000003308DF804100023062269468DF805305F
:10111000FFF7BAFF03B05DF804FBFFFF2DE9F04FC6
:1011200087B0B14B1D6800202B689847A989EB89CF
:10113000288989B29BB2994236BFC3EB4002CA1AD2
:10114000521894B29CB1A04205D281422CBF091A18
:1011500009188BB2EB81984226D96A896968C2F373
:101160000E0202FB031103A801F0A6FB0124E9898A
:101170002889224689B2FFF749FA2B68E8810120C5
:101180009847002C00F09B839DF80D30013B072B06
:1011900000F24183DFE813F00B0019003F039E03C8
:1011A0009E0323001D03A1031B1A9BB2D3E79DF8E6
:1011B0000C00FFF7E1FE14228C48002101F08AFBAD
:1011C0008B4B9DF810209A70ABE79DF80C00FFF751
:1011D000D3FE14220021854801F07CFBA1E7844C5A
:1011E000DFF8088223789DF80C5043F00103237048
:1011F00094F827306FF3000384F8273094F82730F1
:101200006FF3820384F8273094F828306FF30003DB
:1012100084F8283094F828306FF3820384F828305B
:101220000023C8F810309DF8103003F06002602AE7
:1012300011D14FF0E023D3F8F03DD90700D500BE1F
:101240009DF80C000021FFF787F99DF80C00802124
:10125000FFF782F965E7402A0DD1664B002BEFD0EE
:1012600004AA01212846C8F81030AFF300800028F6
:101270007FF457AFE4E703F01F07012F00F0D4819C
:10128000022F00F0FA81002FD3D1202A0FD19DF830
:1012900014300F2BD4D82344D878FFF7C3F9014674
:1012A0000028CDD004AA2846FFF7D2F9DFE7002AAC
:1012B000BFD19DF81130092BBBD801A252F823F001
:1012C000131600000116000033120000ED15000097
:1012D00033120000E9120000BF14000033120000B6
:1012E000031300001713000006AB13E903000023EB
:1012F000C8E90233237843F00203C8E900012370F0
:101300000FE763788DF80A3001220DF10A0104A875
:10131000FFF7BAFE05E79DF8126063789E4200F081
:10132000C9806378BBB12846334FFFF709F94FF006
:101330000C094FF00A0C4FF0010E4FF00008BCF101
:10134000010C20D12846FFF7F5F894F80280FFF74A
:1013500013FE84F80280002E00F0AC802378DFF8C2
:10136000A0B023F0300323704FF0010A9BF8013046
:10137000042B47D04FF0E023D3F8F03DDA077FF598
:1013800058AF00BE55E709FB0C731B7A002BD6D073
:1013900003F07F0A194ADB09190107EB031352F81E
:1013A00035205344D08E93F8783080B20EFA03FB88
:1013B00020EA0B00D0869BB103F1370002EB40001E
:1013C0003944A0F800808A4498B209FB0373A2F85C
:1013D0006400A2F8688083F808808AF87880AEE715
:1013E00002F16000ECE700BF40080020CC050020BF
:1013F0000408002000000000E0050020F82A00009A
:10140000252A0000B24BA3EB0B0297B24FF0000964
:101410005FFA89F84046FFF705F90028AAD08368EB
:101420003A4659462846984708283AD9874238D339
:1014300000220CE09BF802C0634454FA83F30132AB
:1014400093F803C0BCF1FF0F94D183F80380D3B2AB
:101450009A45EFD85844584511D89E4B1B784345C0
:1014600088D39B4B984225D243780B2B03BF03783C
:1014700090F803A0C0184FF0010A834676E79BF866
:101480000130052B09D19BF8022002F07F0304EB09
:10149000430303EBD21383F813809BF800309B4483
:1014A000D9E78C4B09F1010918785FFA89F3984262
:1014B000AED25FE7667004A8FFF74CFD31E6BDF8D9
:1014C0001200030A5A1EC0B20E2A3FF6B9AE01A19D
:1014D00051F822F0111500003515000053150000D9
:1014E0004112000041120000D51500003515000022
:1014F00041120000411200004112000041120000A0
:101500004112000041120000411200001D150000B0
:101510007149122204A8FFF7B7FDA8E66F4B002B14
:101520003FF48EAEAFF30080014600283FF481AE59
:101530004A88EFE7022B01D16949F9E7694B002B93
:101540003FF47EAEAFF3008000283FF472AE014658
:10155000EEE770B964496548022201F0ADF9012057
:101560004000821C624942F440730B8002F0FE028C
:10157000D0E705283FF664AE5E4B5F4C53F8205031
:101580002378BBB95D4BD3F89C3103F1140658693D
:101590002146FFF7C3F8706804F10801FFF7BEF8B1
:1015A000B06804F11001FFF7B9F8F06804F1180110
:1015B000FFF7B4F8284601F095F94D49C0B2002371
:1015C000DAB2904203F10103CAD9541CAA5C21F893
:1015D0001420F5E74A4B002B3FF432AEAFF3008006
:1015E000014600283FF42CAE027893E7BDF8123094
:1015F000012B7FF425AE237843F0080323705AE7CC
:10160000BDF81230012B7FF41BAE23786FF3C303B8
:10161000F4E72378C3F340129B0803F0020313435B
:10162000ADF80A30022270E69DF814200F2A3FF62A
:1016300007AE2244D078FEF7F5FF014600283FF4BC
:10164000FFAD04AA2846FFF703F800287FF469AD30
:101650009DF8102012F060027FF4F2AD9DF8111099
:10166000A1F10A0001283FF6EBAD0A29C8F81020C5
:101670007FF421AF8DF80A2046E69DF814B00BF0F8
:101680007F06092E3FF6D5AD730004EB460606EB48
:10169000DB160093F07CFEF7C5FF4FEADB1A8146AC
:1016A0002AB100283FF4CCAD04AA0146FBE59DF821
:1016B000112002F0FD00012824D0002A7FF4B9ADEA
:1016C00096F82720C2F34002ADF80A20AAE700BF2F
:1016D000402A0000C8050020402A00000000000049
:1016E0001C2A000000000000D82900007A06002013
:1016F00078060020002B00005011002000B07F4031
:1017000000000000BDF81230002B3CD1764B203693
:10171000012A1F78F27948D1930734D559463846C3
:10172000FEF7EEFE0646F8B1704A384652F837200A
:101730000192FEF705FF4FF48070019A3080BAF1F4
:10174000000F02D0012232800BE06949594491F820
:101750007810A2F86410B2F86820C2F38132012A2E
:10176000F0D13846FEF7E6FE009B2344534493F83D
:1017700027206FF3410283F8272093F827206FF387
:10178000000283F82720B9F1000F3FF4CAAC04AA85
:1017900049462846FEF75CFF0023C8F8103094F84D
:1017A0002830D8073FF5BDAC85E69607EBD45946FF
:1017B0003846FEF7D1FE009B2344534493F827207C
:1017C00042F0020283F8272093F8272042F001021A
:1017D000D7E79DF81010474B01F07F0403EB44035B
:1017E00003EBD1134FEAD11C93F827006FF30000ED
:1017F00083F8270093F827006FF3820083F827000F
:10180000002C51D13C4C9DF80C502378059EBCEB2C
:10181000D31F18D046B14FF0E023D3F8F03DDB07DB
:101820007FF57FAC00BE7CE4344B1BB121462846DB
:10183000AFF300802369002B3FF473AC2E4A0321E1
:10184000284698476DE494F90030002B07DBA06828
:1018500000283FF466AC2A49324601F02DF8A26810
:10186000E38932443344A260E2889BB29A42E38126
:1018700001D03F2E15D8236933B92078FFF760FBDC
:1018800000287FF44EACC6E702211B4A2846984741
:1018900001460028F1D12846FEF75EFE8021284649
:1018A000D6E4FFF7C7FBEBE7D87CFEF7BBFE48B9F1
:1018B0004FF0E023D3F8F03DDA0700D500BE07B0C3
:1018C000BDE8F08F0469059B9DF811209DF80C0080
:1018D000A04726E4074B1B7823E4049B002B3FF42E
:1018E00020AC059898471CE4A8050020F82A0000C1
:1018F000E005002004080020CC05002000000000C6
:10190000C407002008B50D4C0D4E256832782368B9
:101910005B1B632B0CD9BFF34F8F0A490A4BCA6874
:1019200002F4E0621343CB60BFF34F8F00BFFDE7CB
:10193000FF2AECD0FFF7F2FBE8E700BFCC11002054
:10194000A805002000ED00E00400FA057FB543780B
:10195000023B0446032B12D8DFE803F00255151DA5
:101960002A4B1A786FF300021A701A7800216FF36D
:1019700041021A7059701A7861F382021A70244B6E
:101980002146186832E0214B1A78D50739D51A78E4
:1019900042F00402F2E71D4A1378D80731D51378D4
:1019A0006FF382031370EAE7FEF73CFE20B1436950
:1019B00013B161682078984701353378E8B28342E3
:1019C000F2D2124A137859071BD513786FF38203AA
:1019D00013700023CDE90133039323788DF804308D
:1019E00005238DF805300A4B186801A90430FFF76C
:1019F000F5FA30B94FF0E023D3F8F03DDB0700D51E
:101A000000BE04B070BD034E0025D6E704080020D8
:101A100040080020C80500202DE9F04F89B0EFF301
:101A20000380103840B2FEF7D3FDA74BB3F8401047
:101A3000CA4362F4784292B2A3F840200A048CB2FE
:101A40000CD5B3F8402012F0800FC2F3C0111A88F1
:101A500014BF42F0100261F304121A8067040ED51D
:101A60000025052305A8CDE9055507958DF8153006
:101A7000FFF76CFF944B1A8E65F34D321A86A6045D
:101A800011D5914E338E9D040DD50025032305A855
:101A9000CDE9055507958DF81530FFF757FF338EC3
:101AA00065F34D333386E00407D504F07003202B33
:101AB00000F0D7805ED8102B75D022052DD5E30716
:101AC00040F1EE80804BB3F84020170725D54FF446
:101AD00080425A84B3F85420ADF80C20B3F8562055
:101AE000ADF80E20B3F85820ADF81020B3F85A2006
:101AF000ADF812204FF6F772A3F840200023CDE98D
:101B0000053307930822062303A906A88DF815308C
:101B100000F0D2FE05A8FFF719FF660515D56A4843
:101B2000B0F84A300022DD07A0F84A200DD5FFF7B3
:101B3000DFF850B1654B4FF4E06080229B8807933B
:101B4000CDE9050205A8FFF701FFE1050FD55E4BC2
:101B50005E4CDA8EB3F84660DFF880A1B6B216406C
:101B6000F24392B2A3F84620002E40F0B98009B0AB
:101B7000BDE8F08F602B04D013D804F06003402B35
:101B80009BD10023CDE90533079305A804238DF8E5
:101B90001530FFF7DBFE4C4A138E43F400531386D7
:101BA0008BE7702BECE7484B01225A87DA864FF41B
:101BB00080425A8400221A851A8D12F00F02FBD13E
:101BC0009A859A8D12F00F02FBD1414D41493E4852
:101BD000012394464FF400774FF480761FFA83FE7A
:101BE000A0F864E0A0F868C021F8137021F8132071
:101BF00025F823600133062BF0D10025324E28460C
:101C00004FF400729FB2A6F86470A6F8680021F83D
:101C1000132021F8135001330A2BF3D12B489822BB
:101C2000002100F057FE338903F00703013B9BB20C
:101C3000022B0DD8284A0795D35C0122CDE9055522
:101C40008DF815208DF8183005A8FFF77FFE34E7D2
:101C50004FF0E023D3F8F03DD9077FF52EAF00BE5B
:101C60002BE7194BB3F8503013F07F023FF425AF48
:101C700000230521CDE905338DF80C308DF80D10CA
:101C8000ADF80E20ADF81030ADF8123007930822F1
:101C9000062303A906A88DF8153000F00DFED3E742
:101CA00014F007037FF439AF074A128C079312F040
:101CB000200F14BF802200220721CDE905338DF8C3
:101CC00015108DF8182025E700000940E0050020D8
:101CD0008C0009406E000940D5290000140009401D
:101CE00096FAA6F5B5FA85F50C2202FB0542137AA1
:101CF000DB091DD058482946FFF72EF890B10C2378
:101D000003FB054305A89A88197ADB88D31A0022B9
:101D1000CDE9052207228DF815208DF818100793BC
:101D2000FFF714FE012303FA05F526EA05061BE773
:101D3000494B002D57D0B2F806B0AAB21A85A3F8C5
:101D40006420B3F86C901FFA89F91A8D02F00F0223
:101D50009542FAD15A8D9204FCD55F8DC7F30B07DB
:101D60004F4528BF4F460C236B43BB45D84628BF81
:101D7000B846E058E218B8F1000F08D0537ADB07F4
:101D800022D5364901904246FEF708FF0198324BB2
:101D9000C14584BF4FF480425A8500221A851A8DAE
:101DA0001107FCD10C2303FB0542ABEB0801C14535
:101DB000D18001D8BB45B5D86B43E1180022E2546D
:101DC0004A708A70CA7099E7234900EB08020346FB
:101DD000934203D10C226A43A350D8E791F818C06C
:101DE00003F801CBF4E7B3F85E905F8CB4F806B06B
:101DF000C7F30B0709F07F094F4528BF4F46BB4586
:101E0000D84628BFB846B8F1000F07D0627A2068DC
:101E1000D20717D542465146FEF7C0FEC14582BFE4
:101E20000D4B4FF480425A84ABEB0803C145E3806D
:101E300002D8BB453FF676AF002323706370A370D2
:101E4000E3705CE700EB0802904201D12060E5E717
:101E5000197D00F8011BF7E7000009401800094050
:101E6000FFF7DABD13B5114B4AF68022A3F8B22F63
:101E70000F4B81680446062000F046FD93F8A03021
:101E80009B070CBF1020502000F046FD63681A78B5
:101E900052B193F911000190FEF752FC019802B083
:101EA000BDE81040FEF760BC02B010BD00F07E40FF
:101EB00000E001408FB5BC4BBC48BD4F4FF47002F1
:101EC000C3F888209F604AF20253A0F8FE33012332
:101ED00080F81F3490F8B134DD06FBD54FF425436C
:101EE000A0F8FE334AF20353A0F8FE33B14BB249D7
:101EF000B24C0022A3F80021B14BC3E900414FF4DA
:101F00000041C3E902121A61FEF73EFB012380F88B
:101F1000803490F8A030A3B190F83620A34B1AB9C2
:101F200093F83C20D207FBD593F8A020D606C2F345
:101F30000011F9D49D4A83F8A01092F8A030DD0674
:101F4000FBD49A48002380F8363090F83C30DC0708
:101F5000FBD501249B4B80F831400362002380F8BD
:101F60002630FEF711FB4FF4254380F8D040A0F84F
:101F7000FE33904BA3F80441B3F80441A4B2002C03
:101F8000FAD10125A3F800518DF807409DF80730DC
:101F9000FEF730FCEFF3108285F310888A4ED6F8F6
:101FA000043123F00043C6F80431D6F8043182F33B
:101FB0001088864B1A68C2F300028DF807201A6851
:101FC000C2F300028DF807201B68C3F300038DF8ED
:101FD0000730EFF3108285F31088D6F8043143F010
:101FE0000043C6F80431D6F8043182F31088FEF7B6
:101FF0001FFC774B77489C804FF425421A803A6843
:10200000754FA2F500619960DA60744A4FF480510F
:10201000A2F82011724A9D80121A214600F05AFC43
:102020007048714A7149724D121A00F045FCED1B5F
:10203000AD10A54200F3AA81FEF7A6FA6D4B00246D
:1020400083F82840FEF7D6FB584B83F8BB44FEF7D5
:10205000EFFB694A6149234603F1C000013312F8DE
:10206000014B41F82040202BF6D162B6634D644C01
:102070002B68A34203D063482C60FEF70FFC624F2D
:102080004FF47A723B68B3FBF2F3013BB3F1807F0C
:102090000AD24FF0E022F0215361434B83F8231022
:1020A00000239361072313612B68A34202BF574BA0
:1020B0004FF000629A623D4B554AD3F800159142A9
:1020C00040F069814AF20252A3F8FE230022C3F8CD
:1020D00000254FF42542A3F8FE234E4B1A68A24276
:1020E00003D04D481C60FEF7D9FB4C4CDFF838811B
:1020F0002368434500F0A8804023E360484B494AE9
:102100006360002501232374A2606561C4E906555C
:10211000EFF3108283F31088D6F8083123F04003E0
:10212000C6F80831D6F8083182F31088A3684FF456
:1021300025421A60A3684FF08072DD62DD639D6402
:10214000DA624FF000421A615A619A6149F69502CB
:102150005D6202A99D6244F64B40DD611D629A6694
:102160005A664FF0FF332A46CDE90235FEF766FC8A
:10217000A268029B53659365039B2846190641EAB2
:102180000341FEF73FFC4FF4AA039563C2F8885061
:102190001364E368D36041F0030341F0010150632D
:1021A0001363284642E000BF00ED00E000E001407C
:1021B0000000000000C0014000127A00006CDC0248
:1021C000AC05002000010110006F0440000804402D
:1021D000000D0040C0050020AC050020006000405C
:1021E000D011002000000020AC050020182B0000BA
:1021F000AC05002000400440782A00009C1100201B
:1022000054524F505C2A0000C005002000000440DA
:102210003581730794110020D02A0000A8110020F6
:10222000D82A000000860740545047001163FF2160
:10223000FEF7F0FB29462846FEF7ECFB2946284628
:10224000FEF7E8FBC4F800806168087844F61F6375
:1022500044F62062032898BF1A46A3689A66097854
:1022600019B942F20F7159659965D96ACD0705D43C
:102270005A664FF4AA021A64E268DA60002108463E
:10228000FEF724FC2368984D434508BFD4E9023289
:10229000964C08BF5A602368AB4273D0944B63607E
:1022A00094483A68002384F83430016AC1F3026329
:1022B00002FA03F3C1F30271CB408F49E3608B4212
:1022C00009D88E498B4206D08D498B4203D08D4967
:1022D0008B4240F0BF80006A884FC0F3026002FA70
:1022E00000F1C14003F5742303F23F2301F574218B
:1022F000B3FBF7F3E36040F28353062001F23F2182
:10230000B1FBF7F14B43B3FBF0F3236140F27633BB
:102310004B43B3FBF0F3636158234B43B3FBF0F340
:10232000A361794B794FA1604B43B3FBF0F3E361B9
:10233000774B4B43B3FBF0F32362764B4B43B3FB3A
:10234000F0F36362744B002283F8C02F97F890304B
:10235000012B04D0012387F8903000F0D5FA6348B0
:10236000FFF780FDE368D7F8D8216048013B03F010
:102370001F0363F30502C7F8D82100F0BDFA002857
:1023800065D12560594800F0BBFA63E057F8043B7B
:10239000984701344DE693F81014C90709D44AF25E
:1023A0000251A3F8FE13C3F800254FF42542A3F809
:1023B000FE235A4A1368B3F5FA7FFBD34D4B4AF21A
:1023C000025C00214FF425454FF48042A3F8FEC380
:1023D000C3F80015A3F8FE53106800F07F40B0F179
:1023E000005F7FF47AAEA3F8FEC3EFF3108E4FF0D8
:1023F000010C8CF31088D6F8000140F40060C6F898
:102400000001D6F800018EF31088EFF3108E8CF3E4
:102410001088D6F8000140F48050C6F80001D6F8C4
:1024200000018EF31088A3F8FE533D4B998072B6DD
:10243000BFF34F8FBFF36F8F4FF0E0231961C3F8E5
:10244000082D136883F308885368984745E6236886
:10245000AB4297D0334D2B78FF2B1FD13B22324814
:10246000002100F037FA314B0022DA819A81304A9C
:102470001360304B23B13048AFF300802F4B18600E
:102480002D4F0024E0B2FEF7CDF800285ED14FF0CA
:10249000E023D3F8F03DD80700D500BE1F4F284EEB
:1024A000DFF8A4802B78FF2B01D0FEF737FE3A68C7
:1024B0003368D21A632AF5D9D8F800406433002172
:1024C00020463360FEF702FB1E4B1A78002A00F00C
:1024D0008A80B4F5FA6F80F0818000221A704FF480
:1024E000FA63C8F80030DDE74E45504F0C1100206C
:1024F000642A000000E00140FF083D0040420F0058
:1025000080841E00C0C62D00B86A050000C07E4051
:10251000D066050068ED220000F07E40CC1100205E
:10252000000D0040A80500200408002098050020A8
:102530004008002000000000C8050020C40500205D
:10254000C811002008110020A4110020036898473A
:1025500001343A78E3B29A4294D200232B70D6F831
:10256000003123F40063C6F80031264B1A8842F488
:1025700080621A801A885105FCD51A886FF34512BB
:102580001A801A886FF386121A801A8842F00102A4
:102590001A800522C3F8F020D3F800246FF3041248
:1025A000C3F80024B3F85E20402161F30602A3F8CB
:1025B0005E200022A3F840204FF45D421A860122DB
:1025C0005A87DA86B3F84020120642BF1A8842F0D2
:1025D00010021A800020FDF7ADFF5FE7A4F5FA6452
:1025E000C8F800405EE704F5FA6444F61F629442BE
:1025F000C8F800407FF656AF01221A7044F62063F7
:102600006FE700BF0000094010B5104B1988FEF7B6
:10261000B7F8C8B90E4A02EA8112A2F56E33013B3F
:102620006FF47E318B420FD30A490B4CB1F5802FEA
:1026300084F8340008D920464FF40063BDE8104008
:1026400002F5804200F06CB910BD00BF0409002003
:1026500000F8FFFF060900200C11002070B50C46A1
:10266000117801F01F03012B154640F0118111F084
:1026700060011CD153780A2B10D00B2B40F008813D
:10268000012C01D0012424E0824B52885A70FDF7BE
:10269000F1FF2846BDE87040FEF75CBC012CF1D18B
:1026A0007D4922462846BDE87040FEF7EDBC202952
:1026B00040F0EE805378062B00F2EA80DFE803F06A
:1026C00004321C520F140F00012C04D12846FEF7CF
:1026D00041FC204670BD032CD4D1FFF713F9012C27
:1026E000D0D1FDF7C7FFF1E7012CCBD16B492246D2
:1026F0002846FEF7C9FCECE7012CC3D1654E3478BF
:1027000014F00204E5D0EC88402C00F2C180698806
:102710002246614306F10C0000F0CEF8224606F195
:102720000C01BFE7012CADD15A4B1C7814F0010409
:10273000CFD09A78022A02D0052A40F0A980EA88F0
:10274000402A00F2A58001221A716A88DA80EA889C
:102750001A81EA881AB1032199705149A2E7062229
:102760009A7096E74B4A9178032905D0062953D0F1
:10277000012C87D1002309E0012C0BD113793BB147
:102780005378002B0CBF002364230421D2784EE041
:102790000521FBE7032C7FF475AF1479002C38D0AA
:1027A0000423D18893703F4B1589198001F58071FE
:1027B000890111F4F86F14D172B6FDF7E1FF78B911
:1027C000394EB1F5802F86F8340009D221F4FF612B
:1027D0004FF40063012221F00701304600F098F821
:1027E00062B6324E324833882D492A46184400F0EA
:1027F00063F833881D44ADB2B5F5006F358005D15F
:1028000072B6FFF701FF62B600233380FDF7D0FFF9
:102810005FE70523937035E7012C0DD11379D2784A
:10282000002B08BF02214FF0000318BF07212846E4
:10283000BDE87040FEF75ABC032C7FF423AF147937
:1028400024B30723937072B6FFF7DEFE62B6FDF77E
:10285000AFFFFDF795FF00287FF414AF124B18600F
:102860005B6893F9113013F1210F3FF40BAF5A0954
:10287000012103F01F0301FA03F320320D4941F84F
:102880002230BFF34F8FBFF36F8F22E70223C1E7E0
:1028900000241EE778070020790700207A0700202F
:1028A00084070020040900200C11002006110020DC
:1028B0000609002000E100E00A44914200F1FF33E4
:1028C00000D1704710B511F8014B03F8014F914248
:1028D000F9D110BD02440346934200D1704703F87A
:1028E000011BF9E7034613F8012B002AFBD1181A44
:1028F00001387047FFFFFFFF5FF800F0B9000020CC
:102900005FF800F0390100205FF800F07D00002042
:102910005FF800F0110300205FF800F08F00002046
:102920005FF800F03904002000000504342E352E35
:1029300030004275696C7420776974682052656E46
:102940006573617320416476616E63656420466CD3
:10295000657869626C6520536F6674776172652073
:102960005061636B6167652076657273696F6E2075
:10297000342E352E300041726475696E6F004F50F1
:10298000544120414E414C4F472056302E31204477
:1029900046550040436F6465466C617368202F3074
:1029A0007830303030303030302F382A324B612C94
:1029B0003132302A324B67004044617461466C61A9
:1029C0007368202F307830383030303030302F3846
:1029D0002A314B67000100020904FFFF9506000041
:1029E000850600009D0600005D2600000000000036
:1029F00000000000040000000B01000000000000C7
:102A00000A01000000000113070400000000011388
:102A10000E090000000001130F0900000902240044
:102A200001010080320904000000FE0102040904D3
:102A3000000100FE010205092107E8034000010131
:102A40001201000200000040412371010001010257
:102A50000301FFFF000001030B040000050000005C
:102A6000F429000000000000D90700000000000069
:102A70000000000002070208333431320000000079
:102A80000000000000000000000000000000000046
:102A90000000000000000000010000000000000035
:102AA0000000000000000000000000000000000026
:102AB0000000000000000000000000000000000016
:102AC0000000000000000000020403040404FFFFF3
:102AD00001000000542A0000020000009698000047
:102AE000020000004B4C000006FF00000000000048
:102AF00000000000982A00000000094000000000CB
:102B0000D8290000762900007E29000050110020FD
:082B100093290000B829000020
:102B180010B5431E19440B4B93F804416FF300049E
:102B280083F80441040C80B2A3F81041D2B2A3F890
:102B38000801080C89B2C3F82001A3F8181183F81A
:102B4800142110BD00C07E4082B00F4B0190D3F815
:102B58002C2151060FD5002283F814210190D3F8B7
:102B68002C21C2F38010520608D5019A2AB1019A85
:102B7800013A0192F3E7019A12B9142002B07047A2
:102B8800019A013A0192E2E700C07E4041430329DD
:102B980004D98908A1F101010029FBD17047094B2B
:102BA800A522C3F88021C243D2B283F8000183F87A
:102BB800002183F8000193F80031834200D100BF5F
:102BC800704700BF00C07E4073B51D4EB6F8B24FC7
:102BD800A4B24FF49643012C0546019309D19220E3
:102BE800FFF7DDFF0320A968FFF7D0FF1220FFF7EA
:102BF800D6FF0820FFF7D3FFA96806204FF42A4321
:102C0800FFF7C4FFA6F8B23FB6F8B20F80B270B9AA
:102C1800012C0AD10B4BA3F80441B3F8040180B28C
:102C28000028FAD10122A3F8002102B070BD019B4F
:102C38001BB1019B013B0193E6E71420F5E700BFB8
:102C480000F07E4000C0014010B5002380F8343009
:102C58000C4BB3F8B23F9BB204460BB900F020FA14
:102C6800094BD3F8242142F00102C3F82421D3F8F8
:102C780024216FF30002C3F824212046BDE8104048
:102C8800A2E700BF00F07E4000C07E40F8B50546D0
:102C9800084616461F46FFF757FF1428044604D176
:102CA8002846FFF7D1FF2046F8BD054BD3F8F04181
:102CB8003440F8D02846FFF7C7FF3C46F3E700BF8B
:102CC80000C07E4010B50023934200D110BDCC5CFB
:102CD800C4540133F8E738B51D4B0022A3F800218E
:102CE80043681A7804467AB193F9113001215A09D8
:102CF80003F01F0301FA03F32032164941F822308A
:102D0800BFF34F8FBFF36F8F134B4AF60122A3F81F
:102D1800B22F1220FFF743FF104BA1680320FFF7E3
:102D280035FF93F8A0300340002B0BBF8221C2214E
:102D38009220D2200CBF06250425FFF730FF084655
:102D4800FFF72DFFA1682846BDE838401EE700BF01
:102D580000C0014000E100E000F07E4000E00140DA
:102D680082B00F4B0190D3F82C2111060FD5002209
:102D7800C3F8DC210190D3F82C21C2F3C01012064D
:102D880008D5019A2AB1019A013A0192F3E7019A0A
:102D980012B9142002B07047019A013A0192E2E791
:102DA80000C07E4038B50546406AFFF7D9FF1428B1
:102DB800044604D12846FFF747FF204638BD054B97
:102DC800D3F8F04114F01204F7D02846FFF73CFF7F
:102DD8001824F2E700C07E40F8B5054614460F46B1
:102DE8001E46FFF778FF214683223846FFF790FEFC
:102DF8000334A969A4084FF4FC73102261432846E0
:102E0800FFF744FF48B9054BD3F82831C3F3C00393
:102E180033702846BDE8F840D6E6F8BD00C07E40CD
:102E2800F8B5044615460E461F46FFF754FF0D4BEE
:102E380093F804216FF3000283F8042107FB05F1DE
:102E480084223046FFF764FEE169192311226943A1
:102E58002046FFF71BFF18B92046BDE8F840B3E647
:102E6800F8BD00BF00C07E402DE9F84F8946804676
:102E78009246FFF730FF214C4D4683274FF6FF7BE4
:102E880094F8043143F0010384F80431BAF1000FD7
:102E98001DD1C4F830B1C4F838B1C4F8DC7140466B
:102EA800FFF780FF94F804316FF30003013784F8CB
:102EB8000431064618B9872F05F10405E0D14046CC
:102EC800FFF782FE002E18BF3046BDE8F88F6A78FB
:102ED8002B7843EA0223C4F83031BB00B3F5067FF0
:102EE8000DBFB9F80E30EA78AB784AEA030318BF89
:102EF80043EA0223C4F83831CFE700BF00C07E4060
:102F080013B5104C0B0C89B2A4F810310822A4F8A0
:102F1800081101466846FFF7D5FEBDF80030C4F831
:102F28003031BDF80230C4F83831BDF80430C4F887
:102F38004031BDF80630C4F84431812384F8143197
:102F480002B010BD00C07E40F8B5044617460E46D4
:102F58001D46FFF7C0FEC4E90A67154AED08256358
:102F680092F804316FF3000382F804310025236BD3
:102F7800BBB10DB12846F8BDD4E90A01FFF7C0FF7F
:102F8800A36A21690833A362E36A0833E362236B07
:102F9800013B2363122218232046FFF777FE0546DC
:102FA800E5E7002DE6D12046FFF70EFEE2E700BF79
:102FB80000C07E400C4B5AB9C0F38F20C1F38F215B
:102FC800C3F830018222C3F83811C3F8DC217047F6
:102FD80040F47E404FF6FF7240F0FF00C3F83821FE
:102FE800C3F830018122F0E700C07E40F8B51646EC
:102FF80007460D46164CFFF76EFE6EB1D4F8D83171
:1030080065F38713C4F8D83100253846FFF7DCFD8F
:10301800002D18BF2846F8BD94F8043115F0010FAB
:1030280043F0010384F804310CBF4FF48070002092
:1030380001223146FFF7BEFF3846FFF7B3FE94F88A
:10304800043166F30003054684F80431DDE700BF68
:1030580000C07E4073B5114E019205460C46FFF73D
:103068003AFE96F8043143F0010386F804310199D9
:1030780000222046FFF79EFF2846FFF793FE96F8AA
:1030880004316FF30003044686F804312846FFF73D
:103098009BFD002C18BF204602B070BD00C07E40CA
:1030A8005FF800F0651E000061060000440800207B
:0C30B80010000C0000000000FF000000F1
:020000040101F8
:10001800FFFFFFFFFFFFFFFFFFFFFFFFFFFFFFFFE8
:0C002800FFFFFFFFFFFFFFFFFFFFFFFFD8
:0400000300001EB526
:00000001FF
