:1000000078AB0020A922000089030000FB02000059
:10001000FB020000FB020000FB020000FB020000EC
:10002000000000000000000000000000FB020000D3
:10003000FB02000000000000FB020000950500002C
:10004000BD12000005170000A5050000B305000063
:10005000000000000000000000000000991F0000E8
:100060003D1F00001D0A0000190B000000000000E9
:100070000000000000000000000000000000000080
:100080000000000000000000000000000000000070
:100090000000000000000000000000000000000060
:1000A0000000000000000000000000000000000050
:1000B0000000000000000000000000000000000040
:1000C0000000000000000000000000000000000030
:1000D0000000000000000000000000000000000020
:1000E0000000000000000000000000000000000010
:1000F0000000000000000000000000000000000000
:1001000000000000000000000000000000000000EF
:1001100000000000000000000000000000000000DF
:1001200000000000000000000000000000000000CF
:1001300000000000000000000000000000000000BF
:1001400000000000000000000000000000000000AF
:10015000000000000000000000000000000000009F
:10016000000000000000000000000000000000008F
:10017000000000000000000000000000000000007F
:10018000000000000000000000000000000000006F
:10019000000000000000000000000000000000005F
:1001A000000000000000000000000000000000004F
:1001B000000000000000000000000000000000003F
:1001C000FFFFFFFFFFFFFFFFFFFFFFFFFFFFFFFF3F
:1001D000FFFFFFFFFFFFFFFFFFFFFFFFFFFFFFFF2F
:1001E000FFFFFFFFFFFFFFFFFFFFFFFFFFFFFFFF1F
:1001F000FFFFFFFFFFFFFFFFFFFFFFFFFFFFFFFF0F
:100200000A4BCAB253F8300011F07F030BD00849F3
:10021000D20901EB0211194491F878301BB1373340
:1002200000EB430070476030704700BFE02E0000D5
:10023000B805002070B50C4C5D08A042104623F0B4
:10024000010404BF033002320C44A14207D16FF015
:10025000010202FB05330BB10B78037070BD31F85E
:10026000026B1680F1E700BF00101140084B03EB52
:10027000C000426853B2002B08DB012102F01F02CC
:1002800001FA02F203495B0941F82320704700BFDD
:10029000E02E000000E100E00A4B03EBC0004268E2
:1002A00053B2002B0DDB012102F01F0201FA02F212
:1002B0005B090549203341F82320BFF34F8FBFF37B
:1002C0006F8F7047E02E000000E100E038B5054672
:1002D000FFF796FF044678B12846FFF7DDFF238835
:1002E000284603F0030343F0020323800223238004
:1002F000BDE83840FFF7BABF38BD00BE7047FFFF0A
:100300000123074AA2F80431B2F804319BB2002B52
:10031000FAD10123A2F80031024A936013607047BA
:1003200000C0014000700040064B93F826101A6A86
:10033000054BC2F3026253F82130D340034A1360E5
:10034000704700BF00E001407C05002098050020B8
:10035000A0F101000028FBD17047FFFF48434FF494
:100360007A71074BA0FB01011B680649B1FBF3F151
:10037000B0FBF1F0800801D0FFF7EABF704700BF83
:100380009805002000CA9A3B034AB2F840319BB25C
:10039000A2F83031704700BF0060004010B5EFF3A5
:1003A0001081012383F310880F4A32F810309BB27A
:1003B0002BB132F81030013B9BB222F8103032F8EA
:1003C00010309BB263B9094A094CB2F8FE3334F8D5
:1003D00010009BB243F4254323EA0003A2F8FE3346
:1003E00081F3108810BD00BF2889002000E0014083
:1003F000782E000030B5EFF31084012383F31088CA
:100400000D4A32F810309BB263B90C490C4DB1F86B
:10041000FE3335F810509BB22B4343F425439BB277
:10042000A1F8FE3332F8103001339BB222F81030BD
:1004300084F3108830BD00BF2889002000E001400F
:10044000782E00002DE9F84F044600274FF0010BED
:10045000414D23889F422AD3EFF31080012383F379
:1004600010883E4B196819B93D4AD1704021D170AE
:100470001A6801321A6080F310880020394D2188F3
:1004800082B291424AD8EFF31081012282F31088A0
:100490001A6812B11A68013A1A601A681AB9304B10
:1004A000DA708022DA7081F31088BDE8F88F4FF09F
:1004B0000008DFF8B4904FEAC70A636839F8022BE6
:1004C00003EB0A018988914217D153F80A300BFADD
:1004D00008F603F0B853B3F1807FF6B295F8BB3459
:1004E00012D1334209D10120FFF784FF95F8BB34C4
:1004F0001E4385F8BB64FFF751FF08F10108B8F10E
:10050000030FDAD10137A4E73342F6D00120FFF719
:1005100071FF95F8BB3423EA0606EAE7666882B203
:1005200006EBC201898856F832600A0A16F4803F49
:10053000C9B24FEA02120AD0571855F827C06FF314
:10054000104C45F827C026F4803C45F827C00A44E3
:1005500045F82260013092E700E001403089002038
:10056000000D084000080840B02E0000EFF30380A3
:10057000103840B27047FFFF054BC03053F82020C1
:100580006FF3104243F8202053F82030704700BF2B
:1005900000600040024A136801331360704700BFD7
:1005A000708B002008B5FFF7E1FFBDE80840FFF7BA
:1005B000E3BFFFF7F7BF0A4492B291424FEA40000F
:1005C00001D8824201DB121A92B2104670472DE91F
:1005D000F341B1F808C04C891FFA8CFCA4B2B1F801
:1005E00004E0A44536BFC4EB4E05ACEB04056544FE
:1005F000ADB2AE450F461E4608D27546F4452CBF37
:10060000ACEB0E040CEB0E04A4B24C813DB92C46AD
:10061000A846294614E0ACEB0E0C1FFA8CFCE6450C
:10062000F9D9A6452CD9D7F80080A44508EB0401D8
:100630002AD8A5EB0E05AEEB04032C44A4B29DB260
:10064000B54228BF35462B46CDE90002FFF7F2FD43
:10065000DDE90002731B9BB243B19C4228BF1C46DC
:1006600041462346FFF7E6FD2544ADB279892A4687
:10067000B88889B2FFF79FFF788102B0BDE8F081AA
:10068000A4EB0E04A4B2CCE74FF000084446D7E731
:100690002DE9F341184C0746E5883DB90120257046
:1006A0006570A570E57002B0BDE8F081B0F85E80BD
:1006B0002E4608F07F08454528BF46464EB1637A6E
:1006C000216813F0010F00F1140233460DD0FFF73B
:1006D0007EFF464538BF4FF40043A5EB06054FF0BB
:1006E000000038BF7B84E580DDE70191FFF7A2FDC4
:1006F000019931442160ECE7B80500200C232DE975
:10070000F347344E044603FB0163B3F806800D46FD
:10071000B8F1000F1AD131B101F1370234F81230BB
:100720005904FBD406E04FF0E023D3F8F03DD8079E
:1007300000D500BE0C21002301204D4372197355D2
:1007400053709370D37002B0BDE8F0878BB243F45E
:1007500080620285A0F86430B0F86CA01FFA8AFAB3
:10076000238D03F00F039D42FAD1638D9B04FCD5CA
:10077000D045474628BF57468FB14FF00C0909FBBB
:1007800005F906EB09035B7A56F8091013F0010F1F
:1007900004F118023B4614D02046FFF718FF5745D6
:1007A0003CBF4FF40043638500232385208D10F068
:1007B0000F00FBD10C2101FB0565A8EB0707EF80BB
:1007C000C1E720460191FFF735FD0199394446F80C
:1007D0000910E4E7B8050020074B1B78834206D9CF
:1007E000064B00EB40001B6803EBC000704714BFD2
:1007F00000200348704700BFA00500209C05002092
:100800001C2D0000CB6802490B610121184700BF75
:10081000A40500200346034A10780BB1FFF726BD5C
:10082000FFF73ABD380500200222024B5A80002211
:100830001A717047500700200022024B1A80FFF700
:10084000F3BF00BF500700200020FFF7F5BFFFFFF8
:100850008B7970B5012B12D1CB79022B0FD10023EC
:1008600018468D78CC79022C1AD1824209D84FF0E3
:10087000E023D3F8F00D10F0010024D000BE0020DA
:1008800021E08C78AC42F2D1CE78DCB2A642EED137
:100890000C780133214420448C7980B2012CE1D0C2
:1008A0004B78212BE3D1084B8A7809301A70B1F8C4
:1008B000053080B2402B06D94FF0E023D3F8F03D4D
:1008C000DB0700D500BE70BD50070020704710B593
:1008D00001F1080400F00F02D3B2092ACCBF37336C
:1008E000303304F8013DA1424FEA1010F2D110BD9F
:1008F00008B50146FFF740FEBFF35F8F012201F00C
:100900001F039A404B099B0003F1604303F56143C9
:10091000C3F880211A6008BD0122430900F01F00BE
:1009200002FA00F0044A203342F82300BFF34F8F4D
:10093000BFF36F8F704700BF00E100E010B4090102
:1009400000F16044C9B204F5614484F8001303491E
:1009500041F820205DF8044BFFF7CABF348900201E
:1009600037B5C36B04460A466D468BB193E8030066
:1009700085E803001A70226C18465A60A26B9047F3
:10098000E36B1BB195E8030083E8030003B030BDBF
:100990002B46EFE74FF4964313B5019343680446A3
:1009A0001A7842B193F91100FFF7A2FF636893F937
:1009B0001300FFF79DFF4AF680230A4AA2F884300D
:1009C000B2F884309BB2802B02D1002002B010BD5F
:1009D000019B1BB1019B013B0193F1E74FF4FA70BE
:1009E000F4E700BF00E07F4037B5836B04460A465A
:1009F0006D468BB193E8030085E80300E16B1A7143
:100A000019601846626B9047A36B1BB195E8030011
:100A100083E8030003B030BD2B46EFE710B5FFF7C6
:100A2000A5FDFFF7A9FDFFF7A1FD3A4B53F82030D4
:100A30001A69117BC1F30000C9074FD493F82C1039
:100A400093F82A408C4215D093F82D0020B102294A
:100A500002D15223D3720CE093F82810D17093F88E
:100A60002B20013A83F82B2093F82C20013283F8B5
:100A70002C2010BD196A41B393F82D404CB95A6A25
:100A800098690139805C013219625A621B69D87019
:100A9000EFE793F831406CB1012983F8310004D1BC
:100AA00020211A699172FF20F0E790721A6A012AD8
:100AB000F9D1F5E7507999695A6A88541A6A013A66
:100AC0001A625A6A01325A62F0E793F82E1081B125
:100AD0005221D172012283F83020CAE793F82D10F9
:100AE00011B193F8311031B100211962012183F85D
:100AF0002F105423AEE7507999695A6A88541A6ABC
:100B000093F82E10013A1A625A6A01325A621A692F
:100B1000DDE700BF3489002010B5FFF727FD2D4B1E
:100B200053F820000269D37A6FF3C303D37290F8AD
:100B30002F2002F0FF0332B1F02201210369DA72A3
:100B4000FFF752FF1BE090F82A1090F82C209142FA
:100B500029D0D2B901290CBF90F8283090F829305B
:100B600000210269D1720269D37090F82B30013BE9
:100B700080F82B3090F82C30013380F82C30FFF7C0
:100B8000F5FCBDE81040FFF7F7BC90F82D1001F020
:100B9000FF0431B1022AE3D190F8293043F0010378
:100BA000DEE72346DCE7026A002AE8D190F82D3020
:100BB00090F83040002B14BF0221032103690CB1CF
:100BC000DA72BDE7F022DA720269937803F0CF039C
:100BD0009370B5E7348900200022084B1A719A7887
:100BE000042A02D103229A707047072AFCD11A788E
:100BF00012F0040F14BF06220822F4E75007002069
:100C000008B50378012B06D103490B881BB1FFF708
:100C1000E3FF00230B8008BDDE88002073B5344B52
:100C2000344CDD68A54209D11A6A3AB993F83020EC
:100C300022B90826304A5E60127B1A720022A54251
:100C40008DF804008DF8051083F82E2031D1596BF2
:100C500079B301A999610221D961197A012907D1D2
:100C600083F829205A6883F82A10520083F8282034
:100C70000022022183F82D2083F82F2083F83120D1
:100C800083F8332083F82C205A62196293F82D20C0
:100C900093F82A1083F82B1012B1012283F8312027
:100CA000B4211A69917093F830204AB951221B6916
:100CB000DA724FF47A710520FFF750FB02B070BD75
:100CC000002283F8302093F82A201969012A0CBFEA
:100CD00093F8282093F82920CA7093F82B20013A22
:100CE00083F82B2093F82C20013283F82C20E0E7A6
:100CF000F88A0020433249534C050020030143EA9F
:100D0000801040F4847040F001007047002802DB3E
:100D1000014AFFF713BE70474C8B00202DE9F84FB6
:100D2000404F804607EBD01393F827408B4614F0D2
:100D3000010416464FEAD01A0BD04FF0E023D3F847
:100D4000F03DD90703D400242046BDE8F88F00BE4B
:100D5000F9E7354A92F8009093F82720484642F088
:100D6000010283F82720314B53F83950FFF794FAEA
:100D70000DB900BEFEE7B8F1000F3DD04FF484631B
:100D80002B842B8C9A06FCD5294B5A7A9E806FF3C4
:100D900000025A72DE80002E3BD0C3F800B0B8F1DA
:100DA000000F32D0B5F86030180403D5B5F85430D0
:100DB000190627D44FF0E023D3F8F03DDA0700D529
:100DC00000BE4846FFF752FA002CBDD107EB0A03DC
:100DD00093F8272064F3000283F8272093F8272054
:100DE00064F3820283F827204FF0E023D3F8F03D2C
:100DF000DB07A8D500BEA7E7A5F820802B8C9B06B3
:100E0000FCD4C1E72846FFF743FC0124A5F8604065
:100E1000D7E71E705E709E70DE7005230124A5F872
:100E20006030CEE7DC07002038050020E02E00000F
:100E3000B805002030B5184DAB686D689C6E2D78F4
:100E4000032D98BF013408B1A0421CD35B6BD207BD
:100E500054BF03F01F03C3F30443032D07D91B0939
:100E600083F0010348B9A3B902234B6030BD03F0FE
:100E70000C031A1F53425341F4E7A04201D3002B45
:100E8000F2D10323F1E7032D98BF00F1FF30086092
:100E9000ECE7002CE8D0F4E74C8B0020F0B501F033
:100EA0000307032F0C4685B007D02F4E01F00C022C
:100EB00073681B78062B02D122B905B0F0BD0AB1C8
:100EC000032BFAD13268294B9A42F6D1B3685B6E94
:100ED00001338342F1D34FF0FF32002302A9CDE961
:100EE000022322460190FFF7A5FFB2680399156B14
:100EF0000198B9B914F0080F0CBF0223042314F0B1
:100F0000020F08BFDB19DDF808C00BBF123302EB7C
:100F1000830302EB8303C3F84CC00CBFC3F804C0C7
:100F2000C3F850C0630642BF136C43F480031364DC
:100F3000012F15D025F44035022C45EA01450AD190
:100F400019B1012202A9FFF775FF039B25F0407537
:100F500045EA036501E0002FF7D1B3681D63ACE7F4
:100F6000022CEDD0F1E700BF4C8B0020545047001D
:100F7000002210F0800F11460CBF80201046FFF7B2
:100F8000CDBEFFFF10B40346064C006822465968E8
:100F900003C20022C4E902225DF8044B1878FFF76F
:100FA000E7BF00BFA4050020F8B5038944899BB2C0
:100FB000A4B28588A34236BFC4EB450CA3EB040C56
:100FC0009C441FFA8CFC654506461ED80020074647
:100FD00003460446944228BF14463D19AF422BD124
:100FE000121B92B23AB1934228BF1346C2189042E4
:100FF00027D123449CB231892246B08889B2FFF7B9
:10100000DAFA3081F8BD5B1B9BB29D42FBD9A54249
:101010000FD93068A34200EB030735BF0020EC1A5C
:10102000E31AA3EB0C0335BF9CB2A4B203469BB2F8
:10103000D0E7641BA4B2EAE791F800C007F801CB3F
:10104000CCE70D7800F8015BD1E7FFFF70B50546EE
:101050000024134EE0B2FFF7BFFB38B94FF0E02396
:10106000D3F8F03DDB0700D500BE70BD43682846CD
:10107000984701343278E3B29A42EBD23B22002106
:10108000084801F0A4FD1022FF21074801F09FFD50
:10109000BDE870401422FF21044801F098BD00BF54
:1010A000A0050020DC070020DF070020EF0700205C
:1010B00070B50589038942899BB292B286889342B2
:1010C00036BFC2EB46029B1A9B189BB29E42044657
:1010D000ADB217D8C079C00914D170BD9B1B9BB2AB
:1010E000B342FBD2E2882068C2F30E0202FB030087
:1010F00001F060FD01222946A088FFF75CFA2081FB
:101100000120EAE72B46EBE77FB543780446023B34
:10111000032B12D8DFE803F00255151D00212A4BDE
:101120001A786FF300021A701A786FF341021A707E
:1011300059701A7861F382021A70244B214618689C
:1011400032E0214B1A78D50739D51A7842F00402DB
:10115000F2E71D4A1378D80731D513786FF382036D
:101160001370EAE7FFF738FB20B1436913B16168F8
:101170002078984701353378E8B28342F2D2124A98
:10118000137859071BD5137801A96FF382031370E5
:101190000023CDE90133039323788DF80430052330
:1011A0008DF80530094B18680430FFF781FF30B91E
:1011B0004FF0E023D3F8F03DDB0700D500BE04B0CC
:1011C00070BD0025024ED6E7DC070020180800207D
:1011D000A005002013B5124B9889D98993F90040D6
:1011E000421A92B2402A28BF4022002C0EDA8842CE
:1011F00012D099680B48019201F0DCFC802009496B
:10120000019A02B0BDE81040FFF788BD88424FF058
:10121000000003D10021F4E78020FBE70149F0E75B
:10122000A40500209C07002070B50446164D0068F8
:101230002E460B466168AB6003C60021E981E18858
:101240008A4228BF0A46AA81E18881B152B14BB9CE
:101250004FF0E022D2F8F02DD20701D4002070BD6B
:1012600000BEFBE7FFF7B6FF28B10120F7E72078C3
:10127000FFF77EFEF8E74FF0E023D3F8F03DDB0701
:10128000ECD500BEEBE700BFA405002007B58DF844
:1012900000208DF801301A0A1B0C8DF80330002352
:1012A0008DF802208DF80410062269468DF805306D
:1012B000FFF7BAFF03B05DF804FBFFFF2DE9F04F25
:1012C00089B0FFF753F9FFF757F9A74BB3F8401070
:1012D000CA4362F4784292B2A3F840200A048CB266
:1012E0000CD5B3F8402012F0800FC2F3C0111A8859
:1012F00014BF42F0100261F304121A8067040ED585
:101300000025052305A8CDE9055507958DF815306D
:10131000FFF7FAFE944B1A8E65F34D321A86A60437
:1013200011D5914E338E9D040DD50025032305A8BC
:10133000CDE9055507958DF81530FFF7E5FE338E9D
:1013400065F34D333386E00407D504F07003202B9A
:1013500000F0D7805ED8102B75D022052DD5E3077D
:1013600040F1EE80804BB3F84020170725D54FF4AD
:1013700080425A84B3F8542003A9ADF80C20B3F886
:10138000562006A8ADF80E20B3F85820ADF810206E
:10139000B3F85A20ADF812204FF6F772A3F84020A8
:1013A0000023CDE905330793062308228DF8153075
:1013B00001F000FC05A8FFF7A7FE660515D5002281
:1013C0006948B0F84A30A0F84A20DD070DD5FFF78C
:1013D0005FF950B14FF4E0608022644B9B88CDE907
:1013E000050205A80793FFF78FFEE1050FD55E4BB9
:1013F0005E4CDA8EB3F84660DFF880A1B6B21640D4
:10140000F24392B2A3F84620002E40F0B98009B012
:10141000BDE8F08F602B04D013D804F06003402B9C
:101420009BD10023CDE905330793042305A88DF84C
:101430001530FFF769FE4C4A138E43F400531386B0
:101440008BE7702BECE70122474B5A87DA864FF483
:1014500080425A8400221A851A8D12F00F02FBD1A5
:101460009A859A8D12F00F02FBD1012394464FF416
:1014700000774FF480763E4D3E493B481FFA83FE8D
:10148000A0F864E0A0F868C021F8137021F81320D8
:1014900025F823600133062BF0D100254FF40072AC
:1014A0002846314E9FB2A6F86470A6F8680021F86D
:1014B000132021F8135001330A2BF3D19822002175
:1014C0002A4801F084FB338903F00703013B9BB2F8
:1014D000022B0DD8284ACDE90555D35C012207958A
:1014E0008DF815208DF8183005A8FFF70DFE34E7AC
:1014F0004FF0E023D3F8F03DD9077FF52EAF00BEC3
:101500002BE7194BB3F8503013F07F023FF425AFAF
:1015100000230521CDE905338DF80C30ADF81030EE
:10152000ADF81230079306238DF80D10ADF80E209C
:1015300003A9082206A88DF8153001F03BFBD3E77C
:1015400014F007037FF439AF074A0721128CCDE965
:10155000053312F0200F14BF802200228DF81510E1
:101560008DF81820079325E700000940B8050020F2
:101570008C0009406E000940162D0000140009403F
:1015800096FAA6F50C22B5FA85F502FB0542137A08
:10159000DB091DD029465948FFF7B0F890B10C235C
:1015A00003FB05439A88197ADB8805A8D31A002221
:1015B000CDE9052207228DF818108DF81520079324
:1015C000FFF7A2FD012303FA05F526EA05061BE74E
:1015D0004A4B002D58D0B2F806B0AAB21A85A3F82B
:1015E0006420B3F86C901FFA89F91A8D02F00F028B
:1015F0009542FAD15A8D9204FCD55F8D0C23C7F326
:101600000B074F4528BF4F46BB45D84628BFB846B5
:101610006B43E058E218B8F1000F08D0537ADB07AB
:1016200023D5424636490190FFF7BEFC0198C145DB
:1016300088BF4FF48042314B88BF5A8500221A85FB
:101640001A8D1107FCD10C2303FB0542ABEB0801FB
:10165000C145D18001D8BB45B4D800226B43E11805
:10166000E2544A708A70CA7098E70346234900EB37
:101670000802934203D10C226A43A350D7E791F8A2
:1016800018C003F801CBF4E7B3F85E905F8C09F063
:101690007F09C7F30B074F4528BF4F46B4F806B084
:1016A000BB45D84628BFB846B8F1000F07D0627ACC
:1016B0002068D20717D542465146FFF775FCC14551
:1016C00082BF4FF480420D4B5A84ABEB0803C145F7
:1016D000E38002D8BB453FF675AF002323706370EB
:1016E000A370E3705BE700EB0802904201D1206039
:1016F000E5E7197D00F8011BF7E700BF000009408E
:1017000018000940FFF7DABD2DE9F04F87B0B14B63
:1017100000201D682B689847A989EB8989B29BB284
:101720002889994236BFC3EB4002CA1A521894B2B4
:101730009CB1A04205D281422CBF091A09188BB274
:10174000EB81984226D96A896968C2F30E0202FBCE
:10175000031103A801F02EFA0124E9892246288901
:1017600089B2FEF728FF2B68E88101209847002CFA
:1017700000F09C839DF80D30013B072B00F2428363
:10178000DFE813F00B00190040039F039F032300C1
:101790001E03A2031B1A9BB2D3E79DF80C00FFF7B0
:1017A00055FC142200218C4801F011FA9DF81020FC
:1017B0008A4B9A70ABE79DF80C00FFF747FC1422A8
:1017C0000021854801F003FAA1E7844CDFF8088284
:1017D00023789DF80C5043F00103237094F82730D0
:1017E0006FF3000384F8273094F827306FF38203F7
:1017F00084F8273094F828306FF3000384F82830F9
:1018000094F828306FF3820384F828300023C8F856
:1018100010309DF8103003F06002602A11D14FF0B3
:10182000E023D3F8F03DD90700D500BE00219DF894
:101830000C00FEF74BFD80219DF80C00FEF746FDE5
:1018400065E7402A0DD1664B002BEFD001212846D9
:1018500004AAC8F8103000E000BF00287FF457AF9A
:10186000E4E703F01F07012F00F0D481022F00F0FE
:10187000FA81002FD3D1202A0FD19DF814300F2BDD
:10188000D4D82344D878FEF7A7FF01460028CDD04E
:1018900004AA2846FEF7B6FFDFE7002ABFD19DF86D
:1018A0001130092BBBD801A252F823F0FF1B000016
:1018B000ED1B00001F180000D91B00001F180000BE
:1018C000D5180000AB1A00001F180000EF18000028
:1018D0000319000006AB13E903000023C8E9023333
:1018E0002378C8E9000143F0020323700FE763780F
:1018F0008DF80A3001220DF10A0104A8FFF794FCCB
:1019000005E79DF8126063789E4200F0C980637815
:10191000C3B12846FEF7C0FC4FF00C094FF00A0C8B
:101920004FF0010E4FF000082E4FBCF1010C21D1F9
:101930002846FEF79BFC94F802802846FFF786FBBA
:1019400084F80280002E00F0AB804FF0010A23786B
:10195000DFF898B023F0300323709BF80130042B9C
:1019600046D04FF0E023D3F8F03DDA077FF557AFCC
:1019700000BE54E709FB0C731B7A002BD5D01A4A22
:1019800003F07F0ADB0952F83520190107EB031336
:10199000534493F87830D08E0EFA03FB80B220EADD
:1019A0000B00D0869BB103F1370002EB4000A0F89A
:1019B000008098B209FB037339448A44A2F864009A
:1019C000A2F8688083F808808AF87880ADE702F191
:1019D0006000ECE718080020A4050020DC070020C8
:1019E00000000000B8050020E02E0000652D00007A
:1019F0004FF00009B14BA3EB0B0297B25FFA89F8E5
:101A00004046FEF7E9FE0028ABD083683A465946C7
:101A10002846984708283AD9874238D300220CE054
:101A20009BF802C00132634454FA83F393F803C075
:101A3000BCF1FF0F95D183F80380D3B29A45EFD85C
:101A40005844584511D89E4B1B78434589D39B4B2E
:101A5000984225D243780B2B03BF037890F803A05C
:101A6000C0184FF0010A834677E79BF80130052B39
:101A700009D19BF8022002F07F0304EB430303EB40
:101A8000D21383F813809BF800309B44D9E78C4B2A
:101A900009F1010918785FFA89F39842AED260E73C
:101AA000667004A8FFF76EFA31E6BDF81200030A6B
:101AB0005A1EC0B20E2A3FF6B9AE01A151F822F06B
:101AC000FD1A0000211B00003F1B00002D18000024
:101AD0002D180000C11B0000211B00002D18000064
:101AE0002D1800002D1800002D1800002D180000E2
:101AF0002D1800002D180000091B0000122271494A
:101B000004A8FFF791FBA8E66F4B002B3FF48EAEC5
:101B100000E000BF014600283FF481AE4A88EFE7AD
:101B2000022B01D16949F9E7694B002B3FF47EAEE6
:101B300000E000BF00283FF472AE0146EEE770B946
:101B400002226449644801F035F801204000821CFB
:101B5000624942F440730B8002F0FE02D0E7052890
:101B60003FF664AE5E4B5F4C53F820602378BBB900
:101B70005D4D2146D5F89000FEF7A9FED5F89400FA
:101B800004F10801FEF7A3FED5F8980004F1100156
:101B9000FEF79DFED5F89C0004F11801FEF797FEB4
:101BA000304601F01CF800234C49C0B2DAB2904232
:101BB00003F10103CAD9541CB25C21F81420F5E7E3
:101BC0004A4B002B3FF432AE00E000BF0146002834
:101BD0003FF42CAE027893E7BDF81230012B7FF46E
:101BE00025AE237843F0080323705AE7BDF812307E
:101BF000012B7FF41BAE23786FF3C303F4E7237844
:101C0000C3F340129B0803F002031343ADF80A30FC
:101C1000022270E69DF814200F2A3FF607AE2244F8
:101C2000D078FEF7D9FD014600283FF4FFAD2846E5
:101C300004AAFEF7E7FD00287FF469AD9DF81020A7
:101C400012F060027FF4F2AD9DF81110A1F10A00CC
:101C500001283FF6EBAD0A29C8F810207FF421AF28
:101C60008DF80A2046E69DF814B00BF07F06092E89
:101C70003FF6D5AD730004EB460606EBDB16F07CB1
:101C80000093FEF7A9FD4FEADB1A81462AB100282E
:101C90003FF4CCAD014604AAFBE59DF8112002F00B
:101CA000FD00012824D0002A7FF4B9AD96F8272042
:101CB000C2F34002ADF80A20AAE700BF802D000061
:101CC000A0050020802D0000000000005C2D000019
:101CD00000000000192D00005206002050060020D0
:101CE000F02E0000B48A00200081000100000000F6
:101CF000BDF81230002B3DD1774B012A06F12006AA
:101D00001F78F27948D1930734D559463846FEF703
:101D100077FA0646F8B1714A384652F837200192F0
:101D2000FEF7BAFA4FF48070019A3080BAF1000FD2
:101D300002D0012232800BE06949594491F87810B1
:101D4000A2F86410B2F86820C2F38132012AF0D1FF
:101D50003846FEF78BFA009B2344534493F8272020
:101D60006FF3410283F8272093F827206FF30002D6
:101D700083F82720B9F1000F3FF4C9AC4946284643
:101D800004AAFEF73FFD0023C8F8103094F828306D
:101D9000D8073FF5BCAC84E69607EBD459463846E5
:101DA000FEF794FA009B2344534493F8272042F013
:101DB000020283F8272093F8272042F00102D7E798
:101DC0009DF81010474B01F07F0403EB440303EB35
:101DD000D11393F827004FEAD11C6FF3000083F86A
:101DE000270093F827006FF3820083F82700002C68
:101DF00051D13D4C9DF80C502378059EBCEBD31F70
:101E000018D046B14FF0E023D3F8F03DDB077FF563
:101E10007EAC00BE7BE4354B1BB12146284600E07A
:101E200000BF2369002B3FF472AC032128462E4AE1
:101E300098476CE494F90030002B07DBA068002879
:101E40003FF465AC32462A4900F0B4FEA268E3894B
:101E500032443344A260E2889BB29A42E38101D0CB
:101E60003F2E15D8236933B92078FFF781F8002871
:101E70007FF44DACC6E7022128461B4A984701462D
:101E80000028F1D12846FEF721FA80212846D5E422
:101E9000FFF7A0F9EBE7D87CFEF79EFC48B94FF0BE
:101EA000E023D3F8F03DDA0700D500BE07B0BDE867
:101EB000F08F0469059B9DF811209DF80C00A04748
:101EC00025E4084B1B7822E4049B002B3FF41FAC55
:101ED000059898471BE400BF38050020E02E00005D
:101EE000B8050020DC070020A40500200000000049
:101EF0009C07002008B50D4C0D4E256832782368EC
:101F00005B1B632B0CD9BFF34F8F0A490A4BCA687E
:101F100002F4E0621343CB60BFF34F8F00BFFDE7D5
:101F2000FF2AECD0FFF7F0FBE8E700BF708B002042
:101F30003805002000ED00E00400FA0570B5FEF75A
:101F400015FB1349134B0A7C53F820600546100714
:101F5000D1F88010D3B214D41A0614D4DB0614D5E9
:101F600011F4405F14BF07240624304600F060FEE1
:101F70002846FEF701FB21463046BDE87040FEF7DB
:101F8000EFBC0424F1E70524EFE70724EDE700BFE9
:101F900000E07F403489002038B5FEF7E7FA1A4B9D
:101FA00053F82040FEF7E8FA94F83450012D0CD194
:101FB000236BE3B100220421204600F019FE08B390
:101FC0002046BDE8384000F033BE022D08D1256B15
:101FD0006DB12046BDE838400022402100F018BE17
:101FE0000A4B93F8D430012B0CBF0325022500F0D7
:101FF00017FE002384F8343029462046BDE83840D7
:10200000FEF7AEBC38BD00BF3489002000E07F4041
:10201000094B0A481A880A4B03EA8213094A03F556
:102020008033128852080263074AC0E90A2300235A
:1020300080F8343000F0E4BDDC080020E4880020A3
:102040000080FFFFDE880020DE08002070B51378D6
:102050000C4603F01F010129154640F0108113F0D2
:1020600060031CD152780A2A0FD00B2A40F0078156
:10207000012C40F0CE806A88824B5A70FEF7D4FB68
:102080002846BDE87040FEF77DBF012C40F0C180BE
:1020900022467D492846BDE87040FFF7C5B8202B91
:1020A00040F0ED805378062B00F2E980DFE803F082
:1020B00004361F5610161000012C04D12846FEF7D6
:1020C00061FF204670BD032C40F0A380FFF712FF94
:1020D000012C40F09E80FEF7A7FBEFE7012C40F0BB
:1020E0009880224628466949FFF79EF8E9E7012CC7
:1020F00040F08F80634E347814F00204E1D0EC8815
:10210000402C00F2BC8069882246614306F10C0035
:1021100000F050FD224606F10C01BBE7012C78D1FE
:10212000584B1C7814F00104CBD09A78022A02D0C4
:10213000052A40F0A480EA88402A00F2A08001220B
:102140001A716A88DA80EA881A81EA881AB103214A
:1021500099704F499EE706229A7091E7494A917813
:10216000032905D0062956D0012C52D1002309E0BD
:10217000012C0BD113793BB153780421002B0CBFF8
:1021800000236423D27851E00521FBE7032C40D1E2
:102190001479002C3BD0042315899370D3883D4AD1
:1021A000138047F6C07203F58063990112EA831326
:1021B00015D172B6384A384882F8343021F4001309
:1021C000B3F5803F38BF21F4FF514FF0010234BF17
:1021D00021F01F0101F4FF0100F032FD62B62F4E25
:1021E0002F4833882A461844294900F0E3FC3388F5
:1021F0001D44ADB2B5F5004F358005D172B6FFF77D
:1022000007FF62B600233380FEF7E6FC59E705239B
:102210009370012455E7012C0DD11379D278002B4E
:1022200008BF02214FF0000318BF07212846BDE870
:102230007040FFF72BB8032CEBD11479ECB10723D6
:10224000937072B6FFF7E4FE62B600261249FEF7FD
:10225000C3FC4B680E6093F91100B04201DBFEF73E
:102260005BFB104D2E764B6893F91300002801DBC1
:10227000FEF752FB00232B7523E70223C8E7002457
:102280001FE700BF50070020510700205207002021
:102290005C070020DC080020E4880020DE880020A5
:1022A000DE08002000E07F408FB54FF47002C24B83
:1022B000C24DC3F888209D604AF20353C04CC14907
:1022C000A4F8FE33FEF71CF8BF4BDFF870C3BF4A1B
:1022D000DFF86CE3C3E900C24FF40042C3E9022116
:1022E0001A61BB4AC3E905E2FEF71EF8002384F831
:1022F0001334092384F8A23094F8803433B90121CF
:1023000040F2C44084F88014FEF728F80023AC485B
:1023100084F8813484F8803484F8323090F83C308A
:102320001F07FBD542F2017343F20212A0F84830B6
:10233000002380F84A30028580F82A3090F83C303B
:102340009E06FBD50322A34B83F81C21A24B0362FC
:10235000052380F82630FDF7E7FF012380F83030B1
:1023600080F8523090F8743043F0400380F87430B5
:10237000934B93F87420D209FBD00622462183F8B0
:102380006C2083F8741083F8742093F87420D209B9
:10239000FBD193F8772042F0400283F87720884BF6
:1023A00093F87720D209FBD0022283F86F20C6224F
:1023B00083F8772093F8772002F0BF0283F8772024
:1023C0007F4B93F87760F609FBD14FF42542A3F8D1
:1023D000FE232B68A3F5805383F30A887F48804A45
:1023E0003146121A00F0F3FB7E487F4A7F49121AE9
:1023F00000F0E0FB37467E4D7E4C641BA410BC42CF
:1024000000F3458200257C4CFDF78EFFC82001219A
:1024100084F82850FDF7A2FF84F8245094F8243063
:10242000002BFBD194F8243043F0020384F82430CD
:10243000714B93F824209507C2F34004F9D401208E
:1024400083F82240FDF7D6FF5D4B83F8BB44FDF7D0
:10245000A5FF0320FDF7CEFF23464FF6FF70674A26
:1024600003F108010133092B22F81100F8D10320F0
:10247000FDF794FF0320FDF7BDFF6FF0FF02604BF7
:10248000604C9A64FF210C2201A800F0A0FB2546B5
:102490000023012735F8022B6AB104A95A0901EB80
:1024A000820203F01F0107FA01F052F80C1C21EA26
:1024B000000142F80C1C0133602BEBD10199504A0A
:1024C000514B1167C3F88012029903205167C3F87A
:1024D000841203999167C3F88812FDF75FFF002308
:1024E0004A4A03F1C00134F8020B0133602B42F871
:1024F0002100F6D162B6464CDFF8489123684B457F
:1025000004D04448C4F80090FDF79CFF4FF47A7261
:10251000414F3B68B3FBF2F3013BB3F1807F0AD23A
:102520004FF0E022F0215361234B83F82310002366
:1025300093610723136123684B4502BF4FF4800268
:10254000364B9A621E4B364AD3F80015914240F042
:10255000CD814AF20252A3F8FE230022C3F80025DF
:102560004FF42542A3F8FE232E4B1A684A4504D0A7
:102570002D48C3F80090FDF765FF2C4CDFF8C880AC
:102580002368434500F0AF804FF48073E360284B2D
:10259000002563600123274A2374A2606561C4E9B2
:1025A0000655EFF3108183F31088234B1A6922F448
:1025B00000021A611B6949E000ED00E00000000024
:1025C00000E0014000366E017C05002000127A0018
:1025D000001C4E0E00C00140211201209805002071
:1025E000748B0020000000207C050020082F0000D4
:1025F0007C0500207C05002000300840000D0840CC
:1026000000800040B82D000000E100E000600040C4
:10261000408B00209C2D0000980500200000084001
:1026200035817307388B0020B82E00004C8B0020BA
:10263000C02E00000098164000400840002D3101D7
:1026400000C2EB0B54524F505450470081F3108896
:102650004FF42542A36844F64B401A604FF4000241
:10266000A36801A9DD62DD639D64DA624FF0004278
:102670001A615A619A6149F695025D629D62DD6157
:102680001D629A665A664FF0FF332A46CDE901353E
:10269000FEF7D0FBA268019B284653659365029B19
:1026A000190641EA0341FEF729FB4FF4AA0395639B
:1026B000C2F888501364E3680004D36041F0030358
:1026C00041F001015063136328461163FF21FEF7B7
:1026D0001DFB29462846FEF719FB29462846FEF72A
:1026E00015FBC4F8008044F61F6344F6206261685D
:1026F0000878032898BF1A46A3689A66097819B91A
:1027000042F20F7159659965D96ACD0705D45A66A9
:102710004FF4AA021A64E268DA6001210020FEF791
:10272000BDFB23685C48434504BFD4E902325A60CC
:102730005A4B5B4C436000232376237580F834307A
:102740000123584D85F816342B6A39682D6AC3F376
:10275000026201FA02F2C3F30273C5F30265DA40C2
:1027600001FA05F35049EB408A423ED94F4902F540
:10277000742202F23F22B2FBF1F203F5742303F25A
:102780003F23B3FBF1F343F6B85102F5F05292B296
:10279000A4F8E42006225943B1FBF2F1816040F62F
:1027A000D8615943B1FBF2F1C1605900B1FBF2F1BC
:1027B000016154215943B1FBF2F141613C49594354
:1027C000B1FBF2F1816144F250615943B1FBF2F186
:1027D000416238495943B1FBF2F1016236494B433A
:1027E000B3FBF2F3C361354B03602B48344D00F06B
:1027F0001FFA01220221284800F02AFA2B78FF2B29
:102800001FD13B2200212F4800F0E1F900222E4B7E
:10281000DA819A812D4A13602D4B23B12D4800E0B7
:1028200000BF2D4B18602B4CF0B2FDF7D5FF0028F0
:1028300040F053814FF0E023D3F8F03DD80700D5A6
:1028400000BE264F264EDFF8A0802B78FF2B01D04C
:10285000FEF75AFF3A683368D21A632AF5D9D8F8D6
:1028600000406433012120463360FEF717FB1D4B07
:102870001A78002A00F07E81B4F5FA6F80F0758135
:1028800000221A704FF4FA63C8F80030DDE755F8FB
:10289000043B98470137B2E5E4880020A42D0000EE
:1028A00000E07F4000E00140FF083D0040420F0093
:1028B00038AF040080DE0F00A0F703004E45504FF4
:1028C00038050020DC07002028050020180800201B
:1028D00000000000A00500209C050020708B002057
:1028E0006C8B0020E0880020488B002093F81014A7
:1028F000C80709D44AF20251A3F8FE13C3F8002511
:102900004FF42542A3F8FE23A14D6A6A002A00F085
:1029100093806B689F498B4203D09F498B4240F064
:102920008B8095F90F30002BC0F2868095F910301E
:10293000002BC0F28180994CDFF874A2E368534504
:102940007AD02B781F2B77D840F2FF31D940C907B6
:1029500072D5117819B192F90320002A6CDA4FF080
:10296000000803F5800303F58C531B022361AB6859
:10297000256063602B7BC4F838802372EB69636346
:102980002B6AE363EFF31080012383F310884FF089
:102990000041834B95F800C05A6821FA0CF122EAF5
:1029A00001025A605B6880F31088F0222368596A3C
:1029B000236983F802802369DA728B78226903F035
:1029C00003031370FA2223699A714A7823695A70B3
:1029D0000B7822699B0043F02003DBB2D3714A7964
:1029E00023691A72CA7823699A740B792269DB0009
:1029F00043F00103DBB25372232223699A722369E5
:102A0000664A83F80D80697B95F90F00FDF796FF04
:102A1000624A697B95F91000FDF790FFC4E90688CA
:102A2000C4E9088884F82D80C4F80CA084F82E80AE
:102A300084F82F8084F8308080219C20FEF7EEF807
:102A400020219E20FEF7EAF8564A1368B3F5FA7F74
:102A5000FBD34AF2025400204FF425454FF4803155
:102A6000514AA2F8FE43C2F80005A2F8FE530B68D3
:102A700003F07F43B3F1005F7FF476ADA2F8FE432D
:102A8000EFF3108E4FF0010C8CF31088444B5C6810
:102A900044F400645C605C688EF31088EFF3108E81
:102AA0008CF310885C6844F480545C605B688EF33F
:102AB0001088A2F8FE5380F30A8872B6BFF34F8FD6
:102AC000BFF36F8F4FF0E0231861C3F8081D0B6848
:102AD00083F308884B68984746E5036898470136B2
:102AE0002278F3B29A42BFF49FAE00232C4A2B7097
:102AF000536823F4006353602C4B1A8842F48062BD
:102B00001A801A885105FCD51A8840216FF34512A6
:102B10001A801A8800206FF386121A801A8842F0F1
:102B200001021A800522C3F8F020D3F800246FF3C5
:102B30000412C3F80024B3F85E2061F30602A3F880
:102B40005E200022A3F840204FF45D421A86012245
:102B50005A87DA86B3F84020120642BF1A8842F03C
:102B600010021A80FDF782FB6BE6A4F5FA64C8F840
:102B700000406AE644F61F6204F5FA649442C8F81D
:102B800000407FF662AE01221A7044F620637BE6B5
:102B90004C050020A0860100801A0600F88A00205B
:102BA00000400840708B002000E001400000094018
:102BB000433249530A44431E914200D1704710B535
:102BC00011F8014B914203F8014FF9D110BD0244B5
:102BD0000346934200D1704703F8011BF9E703460F
:102BE00013F8012B002AFBD1181A01387047FFFF98
:102BF00001B40248844601BC604700BF7501002053
:102C000001B40248844601BC604700BF490300206C
:102C100001B40248844601BC604700BF3501002072
:102C200001B40248844601BC604700BF0100002097
:102C300001B40248844601BC604700BFE1000020A7
:102C400001B40248844601BC604700BFD1030020A4
:102C500001B40248844601BC604700BF81040020E3
:102C600000000504342E352E30004275696C742046
:102C7000776974682052656E65736173204164766C
:102C8000616E63656420466C657869626C6520538B
:102C90006F667477617265205061636B6167652050
:102CA00076657273696F6E20342E352E3000417256
:102CB0006475696E6F00537061726B46756E205457
:102CC00068696E6720506C7573205241364D35200F
:102CD0004446550040436F6465466C617368202F1D
:102CE000307830303030303030302F382A384B6147
:102CF0002C36332A33324B67004044617461466C92
:102D0000617368202F307830383030303030302FD9
:102D1000382A314B67000100020904FF490800000E
:102D200039080000510800004D200000000000009C
:102D30000000000004000000060100000000000088
:102D400008040000000C011307040000000C01132C
:102D500000050000000C0113010500000902240019
:102D600001010080320904000000FE010204090490
:102D7000000100FE010205092107E80340000101EE
:102D800012010002000000404F1B3600000101024A
:102D90000301FFFF00000103060100000500000021
:102DA000342D000000000000010C000000000000B5
:102DB00000000000020702086D006E006B006C004E
:102DC0000000000000003100300093019401000079
:102DD00000000000000000000000000000000000F3
:102DE00000000000000000000000000000000000E3
:102DF00000000000000000000000000000000000D3
:102E000000000000000000000000000000000000C2
:102E100000000000000000000000000000000000B2
:102E200000000000000000000000000000000000A2
:102E30000000000000000000000000000000000092
:102E40000000000000000000000000000000000082
:102E50000000000000000000000000000000000072
:102E60000000000000000000000000000000000062
:102E70000000000000000000010002000800100037
:102E80000000010000000000000000000000000041
:102E90000000000000000000000000000000000032
:102EA0000000000000000000000000000000000022
:102EB000020403040404FFFF01000000942D00003D
:102EC0000200000096980000010000004B4C00003A
:102ED00008FF00000000000000000000802E00003D
:102EE0000000094000000000001011400400000034
:102EF000192D0000AE2C0000B62C0000B48A002072
:082F0000D42C0000F92C0000A4
:102F08004FF42A4110B500204FF49644104AB2F805
:102F18008430A2F884109BB2B2F8841089B241B907
:102F2800012B0CD14DF60113A2F8443000F064FADD
:102F380010BD002C08BF4FF4FA70013CECE7802B61
:102F4800F6D10122034B5A605A68002AFCD1EFE7F8
:102F580000E07F40007000404FF49643B32282B0F7
:102F680001930C4B1A700C4AD2F880301B0408D518
:102F7800137C40F2F51013F0100F08BF002002B0C8
:102F88007047019B1BB1019B013B0193ECE71420A7
:102F9800F5E700BF00007E4000E07F404FF4964315
:102FA800502282B001930C4B1A700C4AD2F8803030
:102FB8001B0408D5137C40F2F51013F0100F08BF5E
:102FC800002002B07047019B1BB1019B013B01939C
:102FD800ECE71420F5E700BF00007E4000E07F40EA
:102FE80038B5436805461A7842B193F9110000F0E4
:102FF800FBF96B6893F9130000F0F6F90C4BB3F882
:1030080084309BB213B9284600F0FEF9FFF7A4FFFD
:103018000446FFF7C3FF002C08BF0446FFF770FF04
:1030280000239C4218BF204685F8343038BD00BFC5
:1030380000E07F4030B50D4C836A0D4D236320239B
:103048002B70D0232B70836A1944036B8162013B78
:103058000363104612B930BD30B10138D4F880305E
:103068001B04F9D50020F6E71420F4E700E07F40C0
:1030780000007E40F7B50446154622B9436893F927
:10308800110000F0B1F9E820E36A214A4E08136301
:10309800204BC1F347011870197000218E4210D1DE
:1030A800D0211970002D2CD1636893F911300122B9
:1030B800590903F01F0302FA03F3174A42F82130B3
:1030C80019E020690190A06A00881880D2F8800071
:1030D80040050AD4A06A01310230A062E06A0230D9
:1030E800E062206B01382063D8E70198471E0197FA
:1030F8000028EBD11425284603B0F0BD002DF9D0E7
:10310800013DD2F880301B04F8D50025F3E700BF55
:1031180000E07F4000007E4000E100E010B50E4B6B
:103128001C7CE40609D5D3F88040640402D51C7CD5
:1031380000241C7440F2F51400E00024D3F8803019
:103148000B4218BF144620B90CB1FFF705FF204603
:1031580010BD0446F9E700BF00E07F40402213B5E8
:10316800836910480193104B01631A7008221A7082
:1031780000220E4931F8024B0132082A1C80F9D18D
:10318800D0221A70D0F880301B0402D5002002B07B
:1031980010BD019B1BB1019B013B0193F2E7142079
:1031A800F5E700BF00E07F4000007E403A050020C0
:1031B8006FEA415110B56FEA51514FF6FF74074B52
:1031C80042EAC03040F4F0401C805C80D88099808E
:1031D8001C815C819C81DC8110BD00BF3A05002008
:1031E8004FF4964307B500220193154B01461A6028
:1031F80043681A7842B193F9110000F0F5F84B686A
:1032080093F9130000F0F0F84FF459430D4AA2F86F
:1032180044304AF60123A2F88430B2F884309BB2D5
:10322800012B03D1002003B05DF804FB019B1BB107
:10323800019B013B0193F0E74FF4FA70F3E700BFFD
:103248000070004000E07F4038B50546FFF7C8FF32
:10325800044668B1204638BD6CB98021AA68284662
:10326800FFF708FF18224FF4A041FFF757FF044665
:103278002B6B002BF0D1FFF743FE002C08BF044650
:10328800E8E710B50F4B0446D3F890310E4803F029
:103298000703DB430E2220F8023BFF2100F0BCF8B5
:1032A8002046FFF79DFF20460849FFF757FF1822E1
:1032B8000021FFF733FF0446FFF722FE002C18BF5A
:1032C800204610BD00A000013A05002090A1000191
:1032D80038B5816202630546FFF782FF044650B99C
:1032E8000122124BA3F8E0202B6B33B9FFF708FE3D
:1032F800002C08BF0446204638BD002CF6D1D5E97D
:103308000712AB6A284623F40013B3F5803F36BF93
:103318000A464FF400414FF40051FFF78BFE192283
:103328004FF4C041FFF7FAFE0446DDE700E07F40B6
:103338002DE9F041104B0546D3F8DC600F46904666
:10334800FFF74EFFF60F044698B94FEA5832304659
:10335800790BFFF72DFF09492846FFF7FFFE2146A5
:103368001822FFF7DBFE0446FFF7CAFD002C08BF52
:1033780004462046BDE8F08100E07F4030A100010E
:10338800F8B507460D461646FFF72AFF044650B91A
:103398005EB1124B45F4CC45A3F8E850FFF7B0FDF9
:1033A800002C08BF04462046F8BD1022FF210C4817
:1033B80000F032F847F6FF7215F0010F4FF6FF7371
:1033C80018BF1346064A0749D3803846FFF7C6FE9A
:1033D80021461822FFF7A2FE0446DFE700E07F40FF
:1033E8003A05002030A1000101B40248844601BC1E
:1033F800604700BF1909000001B40248844601BCB7
:10340800604700BF0103000001B40248844601BCC4
:10341800604700BF9509000001B40248844601BC1A
:10342800604700BFCF2B0000150800001C080020D3
:1034380010000C0000000000FF00FFFF000000006B
:103448000000000000000000000000000300000071
:10345800A086010000000000010C00090A0000001D
:103468000000000000000000CD0800004C0500200E
:0C34780074050020000E00FF0F01000092
:020000040100F9
:10A10000FFFFFFFFFFFFFFFFFFFFFFFFFFFFFFFF5F
:04A11000FFFFFFFF4F
:04A13400FFFFFFFF2B
:10A20000FFFDFFFFFFFFFFFFFFFFFFFFFFFFFFFF60
:10A21000FFFFFFFFFFFFFFFFFFFFFFFFFFFFFFFF4E
:10A22000FFFFFFFFFFFFFFFFFFFFFFFFFFFFFFFF3E
:10A23000FFFFFFFFFFFFFFFFFFFFFFFFFFFFFFFF2E
:10A24000FFFFFFFFFFFFFFFFFFFFFFFFFFFFFFFF1E
:10A25000FFFFFFFFFFFFFFFFFFFFFFFFFFFFFFFF0E
:10A26000FFFFFFFFFFFFFFFFFFFFFFFFFFFFFFFFFE
:10A27000FFFFFFFFFFFFFFFFFFFFFFFFFFFFFFFFEE
:10A28000F8F8FFFFFFFFFFFFFFFFFFFFFFFFFFFFEC
:10A29000FFFFFFFFFFFFFFFFFFFFFFFFFFFFFFFFCE
:10A2A000FFFFFFFFFFFFFFFFFFFFFFFFFFFFFFFFBE
:10A2B000FFFFFFFFFFFFFFFFFFFFFFFFFFFFFFFFAE
:10A2C000FFFFFFFFFFFFFFFFFFFFFFFFFFFFFFFF9E
:04000003000022A92E
:00000001FF
