:10000000B8AB00205D22000045030000F1020000B3
:10001000F1020000F1020000F1020000F102000014
:10002000000000000000000000000000F1020000DD
:10003000F102000000000000F10200005105000084
:100040003D110000A9150000610500006F050000CA
:1000500073050000770500007B050000591F0000B4
:10006000FD1E0000810900007D0A00000000000064
:100070000000000000000000000000000000000080
:100080000000000000000000000000000000000070
:100090000000000000000000000000000000000060
:1000A0000000000000000000000000000000000050
:1000B0000000000000000000000000000000000040
:1000C0000000000000000000000000000000000030
:1000D0000000000000000000000000000000000020
:1000E0000000000000000000000000000000000010
:1000F0000000000000000000000000000000000000
:1001000000000000000000000000000000000000EF
:1001100000000000000000000000000000000000DF
:1001200000000000000000000000000000000000CF
:1001300000000000000000000000000000000000BF
:1001400000000000000000000000000000000000AF
:10015000000000000000000000000000000000009F
:10016000000000000000000000000000000000008F
:10017000000000000000000000000000000000007F
:10018000000000000000000000000000000000006F
:10019000000000000000000000000000000000005F
:1001A000000000000000000000000000000000004F
:1001B000000000000000000000000000000000003F
:1001C000FFFFFFFFFFFFFFFFFFFFFFFFFFFFFFFF3F
:1001D000FFFFFFFFFFFFFFFFFFFFFFFFFFFFFFFF2F
:1001E000FFFFFFFFFFFFFFFFFFFFFFFFFFFFFFFF1F
:1001F000FFFFFFFFFFFFFFFFFFFFFFFFFFFFFFFF0F
:100200000A4B53F83000CBB211F07F010BD0DA0962
:10021000074B03EB02130B4493F878301BB13733D1
:1002200000EB430070476030704700BF183000009B
:10023000208B002030B50A4CA042104623F0010468
:1002400004BF033002320C44A14204D1DB0744BF97
:100250000B78037030BD31F8025B1580F4E700BF06
:1002600000101140084B03EBC00393F90430002B3E
:1002700008DB0122590903F01F0302FA03F3034AC2
:1002800042F82130704700BF1830000000E100E064
:100290000A4B03EBC00393F90430002B0DDB012163
:1002A0005A0903F01F03994002F12003044A42F85F
:1002B0002310BFF34F8FBFF36F8F704718300000CC
:1002C00000E100E038B50546FFF79AFF044670B13B
:1002D0002846FFF7DDFF238803F0030343F0020302
:1002E000238002232380BDE83840FFF7BBBF38BD21
:1002F00000BE70470123074AA2F80431B2F8043166
:100300009BB2002BFAD10123A2F80031024A93607C
:100310001360704700C0014000700040064B93F826
:1003200026101A6A054BC2F3026253F82130D340FB
:10033000034A1360704700BF00E00140C40500207D
:10034000A88A0020034AB2F840319BB2A2F83031AB
:10035000704700BF0060004010B5EFF3108101232B
:1003600083F310880F4A32F810309BB22BB132F869
:100370001030013B9BB222F8103032F810309BB2A3
:1003800063B9094A094CB2F8FE3334F810009BB245
:1003900043F4254323EA0003A2F8FE3381F31088D7
:1003A00010BD00BF0C8A002000E001400A2F0000B1
:1003B00030B5EFF31084012383F310880D4A32F82F
:1003C00010309BB263B90C490C4DB1F8FE3335F8CF
:1003D00010509BB22B4343F425439BB2A1F8FE334C
:1003E00032F8103001339BB222F8103084F31088B9
:1003F00030BD00BF0C8A002000E001400A2F000041
:100400002DE9F84F044600274FF0010B414D23889A
:100410009F422AD3EFF31080012383F310883E4BD1
:10042000196819B93D4AD1704021D1701A6801325A
:100430001A6080F310880020394D218882B29142E1
:100440004AD8EFF31081012282F310881A6812B1A2
:100450001A68013A1A601A681AB9304BDA708022A9
:10046000DA7081F31088BDE8F88F4FF00008DFF8EC
:10047000B4904FEAC70A636839F8022B03EB0A010C
:100480008988914217D153F80A300BFA08F603F025
:10049000B853B3F1807FF6B295F8BB3412D1334232
:1004A00009D10120FFF784FF95F8BB34334385F869
:1004B000BB34FFF751FF08F10108B8F1030FDAD19F
:1004C0000137A4E73342F6D00120FFF771FF95F81A
:1004D000BB3423EA0603EAE7666882B206EBC20190
:1004E000898856F832600A0A16F4803FC9B24FEA8A
:1004F00002120AD0571855F827C06FF3104C45F870
:1005000027C026F4803C45F827C00A4445F82260FD
:10051000013092E700E00140088A0020000D084009
:1005200000080840042F0000EFF30380103840B2A9
:100530007047FFFF054BC03053F820206FF3104287
:1005400043F8202053F82030704700BF006000407F
:10055000024A136801331360704700BF648A0020A9
:1005600008B5FFF7E1FFBDE80840FFF7E3BFFFF77D
:10057000F7BFFFF7F5BFFFF7F3BFFFF7F1BF0A447F
:1005800092B291424FEA400001D8824201DB121A36
:1005900092B2104670472DE9F0471F460B894C89EF
:1005A0009BB2A4B292468A88A34236BFC4EB4205EE
:1005B0001D1BED18ADB2AA4281460E4605D29342EC
:1005C0000AD315469C1AA4B24C81002D37D09A420A
:1005D00006D89B1A9BB2FAE715469C18A4B24C8128
:1005E000A24229D9D6F80080A34208EB04012AD8F8
:1005F000AD1A131B2C44A4B29DB2BD4228BF3D4688
:100600007F1B2B4652464846BFB2FFF713FE57B139
:10061000BC4228BF3C465246234641464846FFF767
:1006200009FE2C44A5B271892A46B08889B2FFF729
:10063000A6FF7081BDE8F087A41AA4B2D0E72C46CB
:10064000A8462946D9E74FF000084446D5E7FFFF02
:100650002DE9F843184C0746E58835B90120257087
:100660006570A570E570BDE8F883B0F85E902E4621
:1006700009F07F094D4528BF4E465EB1637AD4F834
:10068000008013F0010F4146334600F114020DD0F3
:10069000FFF781FF4E4538BF4FF40043A5EB060539
:1006A0004FF0000038BF7B84E580DCE7B044FFF703
:1006B000C1FDC4F80080EDE7208B00202DE9F84F44
:1006C0000C23334E044603FB0163B3F806800D464A
:1006D000B8F1000F19D131B101F1370234F81230FD
:1006E0005904FBD406E04FF0E023D3F8F03DD807DF
:1006F00000D500BE0C22002301206A43B118B35478
:100700004B708B70CB70BDE8F88F8BB243F4806276
:100710000285A0F86430B0F86CB01FFA8BFB238D13
:1007200003F00F039D42FAD1638D9B04FCD5D8459D
:10073000474628BF5F4697B14FF00C0909FB05F902
:1007400006EB09035B7A56F809A013F0010F514636
:100750003B46204604F1180214D0FFF71CFF5F450A
:100760003CBF4FF40043638500232385208D10F0A8
:100770000F00FBD10C2303FB0566A8EB0708A6F8C6
:100780000680C0E7BA44FFF755FD46F809A0E6E742
:10079000208B0020074B1B78834206D9064B00EBC9
:1007A00040001B6803EBC000704714BF00200348E3
:1007B000704700BF188A0020148A0020E82E00002D
:1007C000CB6802490B610121184700BFF489002062
:1007D0000346034A10780BB1FFF744BDFFF758BD3D
:1007E000980500200222024B5A8000221A7170479D
:1007F000248800200022024B1A80FFF7F3BF00BFBD
:10080000248800200020FFF7F5BFFFFF8B7970B52B
:10081000012B35D1CB79022B32D1002318468D78AC
:100820008C79012C20D04B78212B22D1154B8A7842
:100830001A70B1F80530402B06D94FF0E023D3F8F9
:10084000F03DDB0700D500BE093080B219E08C789E
:10085000AC420ED1CE78DCB2A6420AD10C7801337C
:10086000204480B22144DBE7CC79022CDBD19042DA
:10087000EDD34FF0E023D3F8F03DDA0700D500BE0A
:10088000002070BD24880020704710B501F10804D5
:1008900000F00F02D3B2092A8CBF3733303304F88B
:1008A000013D8C424FEA1010F2D110BD08B501464F
:1008B000FFF740FEBFF35F8F012201F01F039A4054
:1008C0004B099B0003F1604303F56143C3F88021AA
:1008D0001A6008BD01220649430900F01F0082404A
:1008E000203341F82320BFF34F8FBFF36F8F704742
:1008F00000E100E010B4090100F16044C9B204F560
:10090000614484F80013034941F820205DF8044B4A
:10091000FFF7CCBFA006002037B5C36B04460A46DC
:100920006D468BB193E8030085E803001A70226CD2
:1009300018465A60A26B9047E36B1BB195E8030021
:1009400083E8030003B030BD2B46EFE737B5836B78
:1009500004460A466D468BB193E8030085E8030020
:10096000E16B1A7119601846626B9047A36B1BB15B
:1009700095E8030083E8030003B030BD2B46EFE7A2
:1009800010B5FFF7D1FDFFF7D5FDFFF7CDFD3A4BD1
:1009900053F820301A69117BC1F30000C9074FD406
:1009A00093F82C1093F82A408C4215D093F82D0020
:1009B00020B1022902D15223D3720CE093F82810FF
:1009C000D17093F82B20013A83F82B2093F82C2038
:1009D000013283F82C2010BD196A41B393F82D40E1
:1009E0004CB95A6A98690139805C013219625A62BD
:1009F0001B69D870EFE793F831406CB1012983F897
:100A0000310004D120211A699172FF20F0E7907221
:100A10001A6A012AF9D1F5E7507999695A6A885416
:100A20001A6A013A1A625A6A01325A62F0E793F876
:100A30002E1081B15221D172012283F83020CAE7F1
:100A400093F82D1011B193F8311031B100211962D2
:100A5000012183F82F105423AEE7507999695A6A1F
:100A600088541A6A93F82E10013A1A625A6A0132AF
:100A70005A621A69DDE700BFA006002010B5FFF733
:100A800053FD2D4B53F820000269D37A6FF3C30353
:100A9000D37290F82F2002F0FF0332B1F02201212F
:100AA0000369DA72FFF752FF1BE090F82A1090F802
:100AB0002C20914229D0D2B901290CBF90F82830BE
:100AC00090F8293000210269D1720269D37090F840
:100AD0002B30013B80F82B3090F82C30013380F81C
:100AE0002C30FFF721FDBDE81040FFF723BD90F843
:100AF0002D1001F0FF0431B1022AE3D190F8293022
:100B000043F00103DEE72346DCE7026A002AE8D16E
:100B100090F82D1090F83040C1F103010369C9B27B
:100B20000CB1DA72BEE7F022DA720269937803F050
:100B3000CF039370B6E700BFA00600200022084B49
:100B40001A719A78042A02D103229A707047072AF0
:100B5000FCD11A7812F0040F0CBF08220622F4E729
:100B60002488002008B50378012B06D103490B889F
:100B70001BB1FFF7E3FF00230B8008BD2088002096
:100B8000030143EA801040F4847040F00100704794
:100B9000002802DB014AFFF7ADBE7047F88A00204B
:100BA0002DE9F047404B414E1F7806EBD013154618
:100BB00093F827208046D20789464FEAD01A08D5F5
:100BC0004FF0E023D3F8F03DDB0700D500BE002056
:100BD00055E093F82720384642F0010283F8272099
:100BE000334B53F83740FFF753FB0CB900BEFEE719
:100BF000B8F1000F2CD04FF484632384238C9B0620
:100C0000FCD52C4B5A7A9D806FF300025A72DD801E
:100C1000002D40D0C3F80090B4F86030180430D4F0
:100C20004FF0E023D3F8F03DDA0732D43846FFF72F
:100C300019FB06EB0A0393F827206FF3000283F8F1
:100C4000272093F827206FF3820283F82720B7E745
:100C5000A4F82080238C13F02002FBD1154B597A85
:100C60009D8062F300015972DD80A5B1C3F8009048
:100C700001233846A4F86030FFF7F4FA0120BDE8FC
:100C8000F087B4F854301906CAD52046FFF7E0FCC7
:100C9000EEE700BECAE70022064B1A705A709A703F
:100CA000DA700523E5E700BF98050020208A0020C0
:100CB00018300000208B002030B51A4DAB686D68ED
:100CC0009C6E2D78032D06D8013490B1844210D942
:100CD0000138086024E008B18442FAD85B6BD5077C
:100CE00054BF03F01F03C3F304431B0983F0010344
:100CF0000BE05B6BD20754BF03F01F03C3F3044345
:100D000003F00C031A1F5342534118B933B12CB1ED
:100D1000032304E0A042FBD3002BF9D002234B6055
:100D200030BD00BFF88A00202DE9F34101F0030730
:100D3000032F80460D4607D02F4B01F00C015A6857
:100D40001278062A03D129B902B0BDE8F08109B1B1
:100D5000032AF9D11968294A9142F5D19E68736E28
:100D600001334345F0D34FF0FF3400232A46694650
:100D70004046CDE90043FFF79FFF019A346B92B9DB
:100D800015F0080F0CBF02230423A80758BFDB1976
:100D9000009955BF123306EB830306EB8303D96436
:100DA00054BF596019656B060BD5336C012F43F4A2
:100DB0008003336411D1019B24F0407444EA03643E
:100DC00011E0012F11D1022DF5D1002AF3D001221B
:100DD00069464046FFF770FFEDE724F4403444EAEB
:100DE0000244002FE7D13463AEE724F44034022DEF
:100DF00044EA0244E9D0F4E7F88A0020545047005E
:100E0000C043002200F080001146FFF7C9BEFFFF7B
:100E100010B40346064C00682246596803C20022FB
:100E2000C4E9022218785DF8044BFFF7E9BF00BF60
:100E3000F4890020F8B5038944899BB2A4B2054621
:100E40008088A34236BFC4EB400EA3EB040E9E4441
:100E50001FFA8EFE704516461ED80027BC463B463C
:100E60003A46B24228BF32460CEB020084452AD1F2
:100E7000B61AB6B23EB1B34228BF3346F81887421D
:100E800025D113449AB22989A88889B2FFF777FB44
:100E90002881F8BD1B1A9BB29842FBD9A0420FD9FA
:100EA0002F68A34207EB030C35BF0027C01AE41AD2
:100EB000A3EB0E0339BF3B46A2B282B29BB2D0E78E
:100EC000241AA4B2EAE70C780CF8014BCEE70C78B0
:100ED00007F8014BD3E7FFFF70B505460024134E1A
:100EE000E0B2FFF757FC38B94FF0E023D3F8F03DFC
:100EF000DB0700D500BE70BD436828469847013423
:100F00003278E3B29A42EBD23B220021084801F04A
:100F100023FE1022FF21074801F01EFEBDE87040AD
:100F20001422FF21044801F017BE00BF188A0020D8
:100F3000208A0020238A0020338A002070B505898A
:100F4000038942899BB292B28688934236BFC2EB34
:100F500046029B1A9B189BB29E420446ADB217D81C
:100F6000C079C00914D170BD801B80B2B042FBD2E1
:100F7000E2882368C2F30E0202FB003001F040FE5B
:100F800001222946A088FFF7FAFA20810120EAE72A
:100F90002846EBE77FB543780446023B032B12D883
:100FA000DFE803F00226151D00212C4B1A786FF3A1
:100FB00000021A701A786FF341021A7059701A7889
:100FC00061F382021A70264B2146186838E0234BE1
:100FD0001A78D5073FD51A7842F00402F2E71F4A83
:100FE0001378D80737D513786FF382031370EAE7C5
:100FF00000251C4EE8B2FFF7CDFB20B1436913B1C9
:1010000061682078984732780135EBB29A42F1D284
:10101000124A137859071ED5137801A96FF382037A
:1010200013700023CDF80630CDF80A30ADF80E303D
:1010300023788DF8043005238DF80530084B1868A7
:101040000430FFF77BFF30B94FF0E023D3F8F03DD9
:10105000DB0700D500BE04B070BD00BF208A0020B1
:101060001C8A0020188A002010B5114B9989DA8952
:1010700093F900008C1AA4B2402C28BF4024002809
:101080000DDA914211D0224699680A4801F0B8FD64
:10109000802008492246BDE81040FFF781BD9142FB
:1010A0004FF00000F5D10146F4E780200021F1E780
:1010B000F48900207088002070B50346124D006846
:1010C0002E460C465968AC6003C60021E981D988D8
:1010D0008A4228BF0A46AA81D98881B14AB144B957
:1010E0004FF0E023D3F8F03DDB0700D500BE002031
:1010F00004E0FFF7B9FF0028F2D0012070BD187896
:10110000FFF77EFEF7E700BFF489002007B58DF8F2
:1011100000208DF801301A0A1B0C8DF803300023D3
:101120008DF802208DF80410062269468DF80530EE
:10113000FFF7C2FF03B05DF804FBFFFF2DE9F04F9E
:1011400089B0FFF7F1F9FFF7F5F9B24BB3F84010AA
:10115000CA4362F478428CB292B20904A3F84020E8
:101160000CD5B3F8402012F0800FC2F3C0111A88DA
:1011700014BF42F0100261F304121A80620413D506
:101180000025052305A88DF81530CDF81650CDF8AB
:101190001A50ADF81E508DF81450FFF7FBFE9D4B12
:1011A0001A8E65F34D321A86A30416D5994E338EE6
:1011B0009F0412D50025032305A88DF81530CDF81E
:1011C0001650CDF81A50ADF81E508DF81450FFF798
:1011D000E1FE338E65F34D333386E60407D504F024
:1011E0007003202B00F0E48061D8102B7DD0200507
:1011F00032D5E10740F1FC80864BB3F8402012075E
:101200002AD54FF480425A84B3F8542003A9ADF88C
:101210000C20B3F8562006A8ADF80E20B3F85820DD
:10122000ADF81020B3F85A20ADF812204FF6F7723F
:10123000A3F840200023CDF81630CDF81A30ADF8D1
:101240001E308DF81430062308228DF8153001F079
:10125000D7FC05A8FFF79EFE670515D500226D484F
:10126000B0F84A30A0F84A20DE070DD5FFF7F0F9B4
:1012700050B14FF4E0658022674B05A89B88CDE90B
:1012800005520793FFF786FEE4050DD5614D624CCC
:10129000EB8EB5F84670BFB21F40FB439BB2A5F87A
:1012A0004630002F40F0C08009B0BDE8F08F602BC1
:1012B00004D018D804F06003402B98D10023CDF857
:1012C0001630CDF81A30ADF81E308DF814300423E6
:1012D00005A88DF81530FFF75DFE4E4A138E43F4D6
:1012E0000053138683E7702BE7E70122494B5A87A7
:1012F000DA864FF480425A8400221A851A8D12F041
:101300000F02FBD19A859A8D12F00F02FBD10123B7
:1013100094464FF400774FF48076404D40493D4865
:101320001FFA83FEA0F864E0A0F868C021F81370EB
:1013300021F8132025F823600133062BF0D1002576
:101340004FF400722846334E9FB2A6F86470A6F898
:10135000680021F8132021F8135001330A2BF3D130
:10136000982200212C4801F0F7FB338903F0070392
:10137000013B9BB2022B12D82A4ACDF81650D35CFF
:101380000122CDF81A50ADF81E508DF814508DF88A
:1013900015208DF8183005A8FFF7FCFD27E74FF062
:1013A000E023D3F8F03DDD077FF521AF00BE1EE757
:1013B000184BB3F8503013F07F033FF418AFADF87B
:1013C0000E3000234FF4A0620493CDF81630CDF810
:1013D0001A30ADF81E308DF814300623ADF80C200D
:1013E00003A9082206A88DF8153001F009FCD2E700
:1013F00014F007027FF430AF4FF4E061054B1B8C13
:10140000CDE90512C3F34013DB018DF818300792C4
:101410001FE700BF00000940208B00208C0009401E
:101420006E000940002F000097FAA7F60C23B6FAC9
:1014300086F603FB06431A7AD2091BD031462846AA
:10144000FFF73CF988B10C2303FB06439A88197A0D
:10145000DB884FF4E060D31A0022CDE9050205A82D
:101460008DF818100793FFF795FD0123B34027EA85
:10147000030716E7002E57D0B3F806B0B3B22B859A
:10148000A5F86430B5F86CA01FFA8AFA2B8D03F02A
:101490000F039E42FAD16B8D9804FCD5B5F82A80D3
:1014A0000C23C8F30B08D04528BFD046C345D94606
:1014B00028BFC1467343E058E218B9F1000F08D0C5
:1014C000537AD90721D54A4634490190FFF7B2FC37
:1014D0000198CA4584BF4FF480436B8500232B8558
:1014E0002B8D1A07FCD10C2303FB0642ABEB090141
:1014F000CA45D18001D8C345B7D800227343E1184B
:10150000E2544A708A70CA709CE70346DFF894C0C0
:1015100000EB09029CF8181003F8011B9342F9D163
:101520000C227243A350D4E7B5F85EA0B5F8228030
:101530000AF07F0AC8F30B08D04528BFD046B4F89C
:1015400006B0C146D84528BFD946B9F1000F07D02B
:10155000637A2068DB0712D54A461149FFF76AFC17
:10156000ABEB0903CA459BB213D8D845E380FFF41F
:101570007CAF002323706370A370E37063E70949B5
:1015800000EB09030A7D00F8012B9842FAD1206094
:10159000E6E74FF480426A84E380EAE718000940F6
:1015A0001400094000000940FFF7C8BD2DE9F04FC5
:1015B000B44C87B0B44B00201E6833689847B38999
:1015C000F1899BB289B230898B4236BFC1EB4002B0
:1015D0005A1AD21895B29DB1A84205D283422CBFA7
:1015E0001B1A1B1899B2F181884226D97289736837
:1015F000C2F30E0202FB013103A801F001FB012539
:10160000F1892A46308989B2FEF7B9FF3368F08143
:1016100001209847002D00F08C839DF80D30013B90
:10162000072B00F23283DFE813F00B0018003003C1
:101630008F038F0322000F039103091A89B2D3E7A6
:101640009DF80C00FFF748FC142200218F4801F0A0
:1016500083FA9DF81030A370ACE79DF80C00FFF7FB
:101660003BFC14220021894801F076FAA2E7237896
:101670009DF8107043F00103237094F82730DFF8D1
:101680000C826FF3000384F8273094F8273007F0BA
:1016900060016FF3820384F8273094F828306029C2
:1016A0006FF3000384F8283094F828309DF80C502C
:1016B0006FF3820384F828304FF00003C8F810302D
:1016C00011D14FF0E023D3F8F03DD90700D500BE8B
:1016D00000219DF80C00FEF7F5FD80219DF80C001F
:1016E000FEF7F0FD66E740290DD1694B002BEFD0E6
:1016F0000121284604AAC8F81030AFF30080002862
:101700007FF458AFE4E707F01F07012F00F0C68110
:10171000022F00F0EA81002FD3D120290FD19DF8AC
:1017200014300F2BD4D82344D878FFF733F8014670
:101730000028CDD004AA2846FFF742F8DFE70029A9
:10174000BFD19DF81120092ABBD801A151F822F080
:10175000871A0000751A0000C3160000611A000005
:10176000C31600007917000039190000C3160000E5
:1017700093170000A71700000023C8E9023323785D
:1017800006AA43F0020312E903002370C8E900012E
:1017900010E7637801228DF80A300DF10A0104A8E0
:1017A000FFF78AFC06E79DF812B063789B4500F0CE
:1017B000A6806378002B3ED02846FEF769FD0926F7
:1017C0004FF00C0E4FF001094FF0000C314F0EFBA3
:1017D00006731B7A33B3304A03F07F08DB0952F8F3
:1017E0003520190107EB0313434493F87830D08E6A
:1017F00009FA03FA80B220EA0A00D086002B3CD016
:1018000003F1370002EB4000A0F800C0A2F86430FA
:101810000EFB037339444144A2F868C083F808C042
:1018200081F878C0013ED2D12846FEF71BFDA6788C
:10183000FFF752FBA670BBF1000F60D02378DFF8F2
:101840005C9023F03003237099F801300B2B02BF1A
:1018500099F8003099F803A0994499F8013018BF1D
:101860004FF0010A042B1BD04FF0E023D3F8F03DDA
:10187000D9077FF526AF00BE23E702F16000C3E77A
:101880008146E1E7208A00201C8A0020F48900209C
:1018900000000000208B002018300000B92E00004E
:1018A0000027B84BA3EB09081FFA88F8FEB23046B0
:1018B000FEF770FF0028D7D0836842464946284685
:1018C0009847082831D980452FD3002209E099F89C
:1018D000027001323B4454FA83F3DF78FF2FC3D107
:1018E000DE70D3B29A45F2D8A74F484448450CD889
:1018F000A64B1B78B342B7D3A24B9842C0D384F80F
:1019000001B004A8FFF784FA54E699F80130052BDA
:1019100007D199F8023003F07F0207EB4202DB099E
:10192000D65499F800309944E0E7984B01371A787B
:10193000FBB29A42BAD297E7BDF812301A0AD8B26F
:10194000531E0E2B3FF6C4AE01A151F823F000BF89
:101950008D190000AF190000C7190000D116000052
:10196000D1160000491A0000AF190000D11600007E
:10197000D1160000D1160000D1160000D1160000CB
:10198000D1160000D11600009919000012228049DA
:1019900004A8FFF791FBB2E67E4B002B3FF498AE14
:1019A000AFF30080014600283FF48BAE02E0022A2C
:1019B00002D179494A88EBE7784B002B3FF488AE97
:1019C000AFF30080EEE770B902227549754801F067
:1019D00017F901204000821C734942F440730B80C8
:1019E00002F0FE02D4E705283FF672AE6F4B704D51
:1019F00053F820702B78BBB96E4E2946D6F890006C
:101A0000FEF743FFD6F8940005F10801FEF73DFF0D
:101A1000D6F8980005F11001FEF737FFD6F89C00C4
:101A200005F11801FEF731FF384601F05FF9002299
:101A30005D49C0B2D3B2984202F10102CAD95D1C1D
:101A4000FB5C21F81530F5E75B4B002B3FF440AE13
:101A5000AFF30080014600283FF43AAE027897E7E2
:101A6000BDF81230012B7FF433AE237843F0080326
:101A7000237046E7BDF81230012B7FF429AE23789E
:101A80006FF3C303F4E72378C3F340129B0803F01A
:101A9000020313430222ADF80A307EE69DF81430AB
:101AA0000F2B3FF615AE2344D878FEF773FE0146A0
:101AB00000283FF40DAE284604AAFEF781FE002858
:101AC0007FF478AD9DF8103013F060037FF400AE22
:101AD0009DF81120A2F10A0101293FF6F9AD0A2A69
:101AE000C8F810307FF40DAF54E69DF814B00BF039
:101AF0007F02092A3FF6E5AD560004EB420202EBF5
:101B0000DB12D07CFEF746FE4FEADB1A814629B194
:101B100000283FF4DDAD014604AA0CE69DF8113023
:101B200003F0FD01012907D0002B7FF4CAAD92F824
:101B30002730C3F34003ADE7BDF8121000295ED192
:101B40001E49012B02F120020F78D37969D19A073F
:101B500055D559463846FEF753FB0190002840D032
:101B6000174A384652F837200092FEF791FB4FF49F
:101B70008071019B009A1980BAF1000F22D00122D6
:101B80001A802BE0D42E0000338A0020188A00200F
:101B9000D42E000000000000B02E00000000000065
:101BA000CE2D0000F4880020F2880020982E00003E
:101BB000B08800200081000100000000980500208E
:101BC000183000006549594491F87810A2F8641063
:101BD000B2F86820C2F38132012AD0D13846FEF72C
:101BE00041FB2644564496F827306FF3410386F8AC
:101BF000273096F827306FF3000386F82730B9F1C5
:101C0000000F3FF4D7AC4946284604AAFEF7D8FD9A
:101C10000023C8F8103094F82830D8073FF5CAAC34
:101C20006FE69B07EBD42644564459463846FEF7E8
:101C300049FB96F8273043F0020386F8273096F8E0
:101C4000273043F00103D8E79DF8101001F07F051D
:101C500004EB450303EBD11393F827004FEAD11CA3
:101C60006FF3000083F8270093F827006FF38200DA
:101C700083F82700002D51D1394D9DF80C602B7849
:101C8000059FBCEBD31F18D047B14FF0E023D3F82A
:101C9000F03DDB077FF58EAC00BE8BE4314B1BB112
:101CA00029463046AFF300802B69002B3FF482AC0D
:101CB000032130462A4A98477CE495F90030A86809
:101CC000002B06DB00283FF475AC3A46264900F0AD
:101CD00097FFAA68EB893A443B44AA60EA889BB222
:101CE0009A42EB8101D03F2F15D82B6933B9287860
:101CF000FFF786F800287FF45DACC6E70221304686
:101D0000174A984701460028F1D13046FEF7DAFA23
:101D100080213046E4E4FFF7A7F9EBE7D87CFEF733
:101D200039FD48B94FF0E023D3F8F03DDA0700D58C
:101D300000BE07B0BDE8F08F0569059B9DF8112036
:101D40009DF80C00A84735E4237833E4049B002B6E
:101D50003FF430AC059898472CE400BF208B00205E
:101D6000F4890020000000007088002008B50D4CA8
:101D70000D4E2568327823685B1B632B0CD9BFF3AB
:101D80004F8F0A490A4BCA6802F4E0621343CB60E2
:101D9000BFF34F8F00BFFDE7FF2AECD0FFF706FC33
:101DA000E8E700BF648A00209805002000ED00E00D
:101DB0000400FA05A0F101000028FBD17047FFFFE5
:101DC0004FF47A734843A0FB0303064B1A68064B93
:101DD000B3FBF2F3B0FBF3F0800801D0FFF7EABFEA
:101DE000704700BFA88A002000CA9A3B73B5404BD9
:101DF000404A1E7B404BDC68944253D11A6A002A49
:101E000043D193F8304004F0FF05002C45D108225F
:101E10001E725A608DF804008DF8051083F82E505C
:101E20005A6B002A45D001AA9A610222197ADA6116
:101E3000012908D1002283F829205A6883F82A1042
:101E4000520083F828200022022183F82D2083F8F5
:101E50002F2083F8312083F8332083F82C205A6216
:101E6000196293F82D2093F82A1083F82B1012B1E1
:101E7000012283F83120B4211A69917093F830203F
:101E8000F2B951221B69DA7213E000228DF80400C6
:101E90008DF8051083F82E20C2E78DF804008DF828
:101EA0000510F7E700228DF804008DF8051083F87F
:101EB0002E204FF47A710520FFF782FF02B070BD2B
:101EC000002283F8302093F82A201969012A0CBFD8
:101ED00093F8282093F82920CA7093F82B20013A10
:101EE00083F82B2093F82C20013283F82C20E0E794
:101EF0009C05002043324953688A002070B5FEF7E4
:101F000013FB1349134B0A7C53F820600546100756
:101F1000D1F88010D3B214D41A0614D4DB0614D529
:101F200011F4405F0CBF06240724304600F018FF70
:101F30002846FEF7FFFA21463046BDE87040FEF71E
:101F4000EBBC0424F1E70524EFE70724EDE700BF2D
:101F500000E07F40A006002038B5FEF7E5FA1A4BF6
:101F600053F82040FEF7E6FA94F83450012D0CD1D6
:101F7000236BE3B100220421204600F0E5FE08B304
:101F80002046BDE8384000F0EBBE022D08D1256B9D
:101F90006DB12046BDE838400022402100F0E4BE8B
:101FA0000A4B93F8D430012B14BF0225032500F00F
:101FB000CFFE002384F8343029462046BDE838405F
:101FC000FEF7AABC38BD00BFA006002000E07F409D
:101FD000094B0A481A880A4B03EA8213094A03F597
:101FE0008033128852080263074AC0E90A2300239B
:101FF00080F8343000F0C0BE22880020B48A00206F
:102000000080FFFF208800202008002070B5137892
:10201000144603F01F02012A0D4640F00A8113F016
:10202000600019D163780A2B0DD00B2B27D1012921
:1020300024D16288804B5A70FEF7D4FB2046BDE85D
:102040007040FEF7E5BE012918D10A467B492046BB
:10205000BDE87040FFF730B8202840F0EA80637890
:10206000062B00F2E680DFE803F004321C520F1466
:102070000F00012904D12046FEF7CAFE012070BDE1
:102080000329FBD1FFF772FE0129F7D1FEF7AAFB66
:10209000F1E70129F2D10A4620466949FFF70CF819
:1020A000ECE70129EAD1644E337813F00200E6D060
:1020B000E588402D00F2BD8061882A46694306F11B
:1020C0000C0000F09DFD2A4606F10C01BFE7012936
:1020D000D4D159490B7813F00100D0D08B78022B62
:1020E00002D0052B40F0A580E388402B00F2A180B0
:1020F00001230B716388CB80E3880B81E2881AB1DE
:1021000003238B704F49A2E706238B7096E74A4A58
:102110009178032905D0062956D0012DAED1002390
:1021200009E0012D0BD113793BB153780421002B29
:1021300014BF64230023D27851E00521FBE7032D6F
:102140009CD11379002B3CD0042314899370D3883D
:102150003D4A138047F6C07203F5806312EA83128A
:102160004FEA831115D172B6384B384883F83420C2
:1021700021F40013B3F5803FB8BF21F4FF514FF0B5
:102180000102B4BF21F01F0101F4FF0100F0F0FDD6
:1021900062B62F4D2F482B8822461844294900F05B
:1021A0002FFD2B881C44A4B2B4F5004F2C8005D120
:1021B00072B6FFF70DFF62B600232B80FEF7BEFC60
:1021C0005CE70523937059E7012D0DD11379D2787F
:1021D000002B18BF07214FF0000308BF0221204643
:1021E000BDE87040FEF792BF032D7FF447AF13792F
:1021F000EBB10723937072B6FFF7EAFE62B60026D2
:10220000124CFEF79BFC6368266093F91100B04204
:1022100001DBFEF75FFB104D2E76636893F9130028
:10222000002801DBFEF756FB00232B7526E702236F
:10223000C8E7002023E700BF24880020258800206D
:10224000268800203088002022880020B48A0020C0
:10225000208800202008002000E07F408FB54FF448
:102260007002C34BC34DC3F888209D604AF20353EC
:10227000C14CC24FA4F8FE33FEF73CF8C04BC14A34
:10228000C149C3E900724FF40042DFF868C3C3E9F3
:1022900002211A61BD4AC3E905C2FEF73FF80023D7
:1022A00084F81334092384F8A23094F8803433B9C5
:1022B000012140F2C44084F88014FFF781FD00231F
:1022C000AD4884F8813484F8803484F8323090F852
:1022D0003C301E07FBD542F2017343F20212A0F814
:1022E0004830002380F84A30028580F82A3090F880
:1022F0003C309C06FBD50322A54B83F81C21A54B43
:102300000362052380F82630FEF708F8012380F8E1
:10231000303080F8523090F8743043F0400380F849
:102320007430954B93F87420D209FBD006224621D5
:1023300083F86C2083F8741083F8742093F8742069
:10234000D209FBD193F8772042F0400283F877203E
:10235000894B93F87720D209FBD0022283F86F20B3
:10236000C62283F8772093F8772002F0BF0283F823
:102370007720814B93F87770FF09FBD14FF425420A
:10238000A3F8FE232B68A3F5805383F30A888248C1
:10239000824A3946121A00F0DFFB8148814A82499D
:1023A000121A00F02DFC3E46804D814C641BA41097
:1023B000B44200F3478200257E4CFDF7AFFFC820F2
:1023C000012184F82850FFF7FBFC84F8245094F88E
:1023D0002430002BFBD194F82430764A43F00203DA
:1023E00084F8243092F824309807C3F34005F9D4D8
:1023F00082F822500120FDF7DBFF5F4B83F8BB54CE
:10240000FDF7AAFF0320FDF7D3FF2B464FF6FF7021
:10241000694A03F108010133092B22F81100F8D1B0
:102420000320FDF799FF0320FDF7C2FF6FF0FF02C5
:10243000624B634C9A64FF210C2201A800F08CFBD4
:1024400025460023012635F8022B6AB104A95A0952
:1024500001EB820252F80C1C03F01F0006FA00F098
:1024600021EA000142F80C1C0133602BEBD10199E9
:10247000524A544B1167C3F88012029903205167E6
:10248000C3F8841203999167C3F88812FDF764FFBB
:1024900000234D4A03F1C00134F8020B0133602BD5
:1024A00042F82100F6D162B6484CDFF84C9123681F
:1024B0004B4504D04648C4F80090FDF7A1FF4FF407
:1024C0007A72DFF83881D8F80030B3FBF2F3013BC1
:1024D000B3F1807F0AD24FF0E022F0215361244B08
:1024E00083F82310002393610723136123684B456E
:1024F00002BF4FF48002374B9A621F4B364AD3F823
:102500000015914240F0CE814AF20252A3F8FE2318
:102510000022C3F800254FF42542A3F8FE232F4BD9
:102520001A684A4504D02E48C3F80090FDF768FFAA
:102530002C4EDFF8CC9033684B4500F0AF804FF461
:102540008073F360284B002573600123274A33749E
:10255000B2607561C6E90655EFF3108183F3108808
:10256000234B1A6922F400021A611B694AE000BF7A
:1025700000ED00E00000000000E00140002D31010E
:10258000C405002000127A0000366E01001C4E0EB9
:1025900000C0014021120120E0050020B88B00207E
:1025A00000000020C40500205C300000C4050020AD
:1025B000C405002000300840000D084000800040A5
:1025C000122F000000E100E000600040AC8A002013
:1025D000D42F00000000084035817307188B0020BD
:1025E00010300000F88A0020F02F000000981640FC
:1025F0000040084000C2EB0B54524F50A88A002004
:102600005450470081F310884FF42542B36844F6D4
:102610004B401A604FF40003B4682A46E562E56354
:10262000A564E3624FF0004323616361A36149F64F
:1026300095036562A562E5612562A36663664FF056
:10264000FF3301A9CDE90135FEF736FB019B284692
:102650006365A365029BFF211A0642EA0342FEF767
:102660008FFA4FF4AA03A563C4F888502364F36873
:102670000004E36042F0030342F00102606323635D
:1026800028462263FEF784FA29462846FEF780FA98
:1026900029462846FEF77CFAC6F8009044F61F63E8
:1026A00044F6206271680878032898BF1A46B36818
:1026B0009A66097819B942F20F7159659965D96A14
:1026C000CC0705D45A664FF4AA021A64F268DA609D
:1026D00001210020FEF728FB33685D494B4504BF0C
:1026E000D6E902325A605B4B5B484B6000230376AD
:1026F000037581F834300123584D85F816342C6A5F
:10270000D8F80030C4F3026203FA02F2C4F3027490
:10271000E2402C6AC4F30264A340E340504CA2425E
:102720003ED9504C02F5742202F23F22B2FBF4F281
:1027300003F5742302F5F05292B203F23F23A0F89E
:10274000E420B3FBF4F343F6B85006225843B0FB41
:10275000F2F0886040F6D8605843B0FBF2F0C860F1
:102760005800B0FBF2F0086154205843B0FBF2F07F
:1027700048613D485843B0FBF2F0886144F2506034
:102780005843B0FBF2F0486238485843B0FBF2F0CF
:10279000086237484343B3FBF2F3CB61354B0B6020
:1027A0002B48354D00F0DCFA01220221284800F0C8
:1027B000D3FA2B78FF2B1FD13B2200212F4800F0AA
:1027C000CBF900222E4BDA819A812E4A13602E4BD0
:1027D00023B12E48AFF300802D4B18602B4CF8B27C
:1027E000FDF7D8FF002840F04A814FF0E023D3F8EE
:1027F000F03DD80700D500BE264F274EDFF8A08059
:102800002B78FF2B01D0FEF7D1FE3A683368D21A3D
:10281000632AF5D9D8F8004064330121204633609B
:10282000FEF782FA1D4B1A78002A00F07581B4F584
:10283000FA6F80F06C8100221A704FF4FA63C8F8C6
:102840000030DDE755F8043B98470136B0E500BF9E
:10285000B48A0020DC2F000000E07F4000E001404F
:10286000FF083D0040420F0038AF040080DE0F003B
:10287000A0F703004E45504F98050020208A002005
:10288000880500201C8A002000000000188A002013
:10289000148A0020648A0020608A00205B8A00205D
:1028A0005C8A002093F81014C90709D44AF2025137
:1028B000A3F8FE13C3F800254FF42542A3F8FE2326
:1028C0009C4D6A6A002A00F08A806B689A498B42A4
:1028D00003D09A498B4240F08280EB7B297C0B43EA
:1028E0001B067CD4964CDFF86CA2E368534576D087
:1028F0002B781F2B73D840F2FF31D940CE076ED50D
:10290000117819B192F90320002A68DA002603F53C
:10291000800303F58C531B022361AB682560636061
:102920002B7BA6632372EB6963632B6AE363EFF38C
:102930001080012383F310884FF00041814B95F8FC
:1029400000C05A6821FA0CF122EA01025A605B6861
:1029500080F31088F0222368596A23699E702369E6
:10296000DA728B78226903F003031370FA22236969
:102970009A714A7823695A700B7822699B0043F058
:102980002003DBB2D3714A7923691A72CA782369AA
:102990009A740B792269DB0043F00103DBB25372B6
:1029A000232223699A722369654A5E73697B95F9CC
:1029B0000F00FDF79FFF624A697B95F91000FDF754
:1029C00099FFC4E90666C4E9086684F82D60C4F876
:1029D0000CA084F82E6084F82F6084F83060802189
:1029E0009C20FFF703FA20219E20FFF7FFF9564AAB
:1029F0001368B3F5FA7FFBD34AF2025400204FF478
:102A000025454FF48031514AA2F8FE43C2F8000533
:102A1000A2F8FE530B6803F07F43B3F1005F7FF42D
:102A20007EADA2F8FE43EFF3108C012686F31088EA
:102A3000444B5C6844F400645C605C688CF3108810
:102A4000EFF3108C86F310885C6844F480545C606B
:102A50005B688CF31088A2F8FE5380F30A8872B684
:102A6000BFF34F8FBFF36F8F4FF0E0231861C3F8B0
:102A7000081D0B6883F308884B6898474FE5036887
:102A8000984701372278FBB29A42BFF4A8AE0023E0
:102A90002C4A2B70536823F4006353602C4B1A8824
:102AA00042F480621A801A885105FCD51A884021A8
:102AB0006FF345121A801A8800206FF386121A806D
:102AC0001A8842F001021A800522C3F8F020D3F8D8
:102AD00000246FF30412C3F80024B3F85E2061F3FE
:102AE0000602A3F85E200022A3F840204FF45D42C6
:102AF0001A8601225A87DA86B3F84020120642BFAE
:102B00001A8842F010021A80FDF7ACFB74E6A4F5B7
:102B1000FA64C8F8004073E644F61F6204F5FA64EC
:102B20009442C8F800407FF66BAE01221A7044F65A
:102B3000206384E69C050020A0860100801A060020
:102B4000688A002000400840648A002000E00140BC
:102B5000000009404332495370B586074AD0541EDD
:102B6000002A41D0CAB2034601E0013C3CD303F83D
:102B7000012B9D07F9D1032C2FD9CDB20F2C05EBDA
:102B8000052505EB054538D9A4F1100C03F1100E0D
:102B90001A462CF00F064FEA1C1CB6441560103282
:102BA00042F80C5C42F8085C42F8045C7245F5D1CE
:102BB0000CF1010214F00C0F04F00F0C03EB0212E5
:102BC00013D0ACF1040323F003030433134442F89D
:102BD000045B9A42FBD10CF003042CB1C9B21C4433
:102BE00003F8011B9C42FBD170BD64461346002CC8
:102BF000F4D1F9E703461446BDE71A46A446E0E7D8
:102C0000844641EA000313F0030349D1403A23D339
:102C10000B6803604B6843608B688360CB68C3605C
:102C20000B6903614B6943618B698361CB69C36144
:102C30000B6A03624B6A43628B6A8362CB6AC3622C
:102C40000B6B03634B6B43638B6B8363CB6BC36314
:102C500040304031403ADBD230320BD30B68036056
:102C60004B6843608B688360CB68C3601030103161
:102C7000103AF3D20C3205D351F8043B40F8043B30
:102C8000043AF9D2043208D0D2071CBF11F8013B34
:102C900000F8013B01D30B8803806046704700BFFA
:102CA000082A13D38B07B1D010F00303AED0C3F1C1
:102CB0000403D21ADB071CBF11F8013B00F8013BEB
:102CC000A4D331F8023B20F8023B9FE7043AD9D362
:102CD000013A11F8013B00F8013BF9D20B7803707F
:102CE0004B7843708B7883706046704720F0030107
:102CF00010F00300C0F1000051F8043B00F1040C97
:102D00004FEACC0C6FF000021CBF22FA0CF2134306
:102D10004FF0010C4CEA0C2C4CEA0C4CA3EB0C02CF
:102D200022EA030212EACC1204BF51F8043B043039
:102D3000F4D0C2F1000102EA0102B2FA82F2C2F159
:102D40001F0200EBD20070475FF800F0B5010020D1
:102D50005FF800F0010000205FF800F0E1040020BF
:102D60005FF800F0E10000205FF800F0750100203E
:102D70005FF800F0290400205FF800F099030020BC
:102D800000000504342E352E30004275696C742025
:102D9000776974682052656E65736173204164764B
:102DA000616E63656420466C657869626C6520536A
:102DB0006F667477617265205061636B616765202F
:102DC00076657273696F6E20342E352E30000904DB
:102DD00004000000060100000000000008040000DC
:102DE000000C011307040000000C01130005000093
:102DF000000C0113010500000000010000000000AC
:102E000000000000000000000000000000000000C2
:102E100000000000000000000000000000000000B2
:102E20000000000000000000000001030601000097
:102E300041726475696E6F00537061726B46756E96
:102E4000205468696E6720506C7573205241364D6E
:102E500035204446550040436F6465466C61736895
:102E6000202F307830303030303030302F382A3822
:102E70004B612C36332A33324B6700404461746116
:102E8000466C617368202F30783038303030303005
:102E9000302F382A314B6700CE2D0000302E000035
:102EA000382E0000B0880020562E00007B2E000037
:102EB0000902240001010080320904000000FE0123
:102EC00002040904000100FE010205092107E803CC
:102ED000400001011201000200000040412368038C
:102EE000000101020301FFFF05080000F5070000D3
:102EF0000D0800000D200000000000000000000090
:102F0000010002FF0204030404040100020008009F
:102F100010006D006E006B006C007F017D017E0172
:102F20003100300093019401000000000000000017
:102F30000000000000000000000000000000000091
:102F40000000000000000000000000000000000081
:102F50000000000000000000000000000000000071
:102F60000000000000000000000000000000000061
:102F70000000000000000000000000000000000051
:102F80000000000000000000000000000000000041
:102F90000000000000000000000000000000000031
:102FA0000000000000000000000000000000000021
:102FB0000000000000000000000000000000000011
:102FC0000000000000000000000000000000000001
:102FD0000000FFFF05000000D02D000000000000F1
:102FE000650B00000000000000000000020702085E
:102FF0000200000096980000010000004B4C000009
:1030000008FF00000000000000000000F82D000094
:1030100001000000282E0000000009400000000010
:10302000001011400400000010000000000000002B
:10303000017A5200027C0E011B0C0D0014000000EE
:1030400018000000BCFBFFFFEC00000000024D0A6E
:04305000430B00002E
:08305400ACFBFF7F010000004E
:10305C004FF42A4110B500204FF49644104AB2F8B0
:10306C008430A2F884109BB2B2F8841089B241B9B2
:10307C00012B0CD14DF60113A2F8443000F094FA58
:10308C0010BD002C08BF4FF4FA70013CECE7802B0C
:10309C00F6D10122034B5A605A68002AFCD1EFE7A3
:1030AC0000E07F40007000404FF49643B32282B0A2
:1030BC0001930C4B1A700C4AD2F880301B0408D5C3
:1030CC00137C40F2F51013F0100F08BF002002B073
:1030DC007047019B1BB1019B013B0193ECE7142052
:1030EC00F5E700BF00007E4000E07F404FF49643C0
:1030FC00502282B001930C4B1A700C4AD2F88030DB
:10310C001B0408D5137C40F2F51013F0100F08BF08
:10311C00002002B07047019B1BB1019B013B019346
:10312C00ECE71420F5E700BF00007E4000E07F4094
:10313C0073B5436805461A7842B193F9110000F053
:10314C002FFA6B6893F9130000F02AFA1C4CB4F8B0
:10315C0084309BB27BB1FFF7A7FF0646FFF7C6FF93
:10316C0004463EB3FFF774FF34460023204685F82F
:10317C00343002B070BD4FF4964301936B681A78EB
:10318C0042B193F9110000F017FA6B6893F9130030
:10319C0000F012FA4AF68023A4F88430B4F8843094
:1031AC009BB2802BD7D0019B002BD4D0019B013B31
:1031BC000193F3E7FFF74CFF002C08BF0446D4E75C
:1031CC0000E07F4030B52025836A0C4C23630C4B08
:1031DC001D70D0251D70836A0B448362036B013B09
:1031EC000363104612B930BD30B10138D4F88030C9
:1031FC001B04F9D50020F6E71420F4E700E07F402B
:10320C0000007E40F7B504460E46154622B94368C9
:10321C0093F9110000F0C4F9E821E36A204A770819
:10322C001363204BC6F34706197000211E708F42A2
:10323C0010D1D0211970002D2BD1636893F9113066
:10324C000122590903F01F0302FA03F3164A42F84C
:10325C00213022E020690190A06A00881880D2F801
:10326C00800040050AD4A06A01310230A062E06AF5
:10327C000230E062206B01382063D8E70198461ECB
:10328C0001960028EBD1142003B0F0BD002DFAD02C
:10329C00013DD2F880301B04F8D50020F4E700BFC4
:1032AC0000E07F4000007E4000E100E010B5134BD1
:1032BC0014461A7CD20606D4D3F88030194214D1A5
:1032CC0050B9002010BDD3F88020520409D4D3F893
:1032DC008030194209D168B10446FFF7E5FE20465B
:1032EC00F0E71A7C00221A74F1E70028F4D1002CC4
:1032FC00F3D1E6E740F2F514EFE700BF00E07F40C2
:10330C00402213B5836910480193104B01631A7066
:10331C0008221A7000220E4931F8024B0132082A99
:10332C001C80F9D1D0221A70D0F880301B0402D541
:10333C00002002B010BD019B1BB1019B013B01930E
:10334C00F2E71420F5E700BF00E07F4000007E406C
:10335C00760500206FEA415110B56FEA51514FF6D6
:10336C00FF74074B42EAC03242F4F0421C805C808E
:10337C00DA8099801C815C819C81DC8110BD00BF4E
:10338C00760500204FF49643002213B50193144B9D
:10339C0004461A6043681A7842B193F9110000F0A0
:1033AC00FFF8636893F9130000F0FAF84FF45943EF
:1033BC000C4AA2F844304AF60123A2F88430B2F841
:1033CC0084309BB2012B02D1002002B010BD019BB6
:1033DC001BB1019B013B0193F1E74FF4FA70F4E749
:1033EC000070004000E07F4038B50546FFF7CAFF8B
:1033FC00044660B1204638BD8021AA682846FFF7F4
:10340C0001FF18224FF4A041FFF750FF04462B6B2D
:10341C002BB9FFF71DFE002C08BF0446EAE7002C71
:10342C00EAD0FFF715FEE5E710B5104B0446D3F8CC
:10343C0090310F4803F00703DB430E2220F8023BC8
:10344C00FF2100F0B5F82046FFF79CFF2046094904
:10345C00FFF756FF18220021FFF728FF0446FFF75D
:10346C00F7FD002C18BF204610BD00BF00A00001C6
:10347C007605002090A1000138B5816202630546F3
:10348C00FFF780FF044650B90122144BA3F8E0204B
:10349C002B6BEBB9FFF7DCFD002C08BF0446204674
:1034AC0038BDAB6AD5E9072123F40013B3F5803F8F
:1034BC002ABF0A464FF400514FF400412846FFF74B
:1034CC0081FE19224FF4C041FFF7F0FE0446DFE7FE
:1034DC00002CE6D0FFF7BCFDE1E700BF00E07F4029
:1034EC002DE9F041104B0546D3F8DC600F469046B1
:1034FC00FFF748FFF60F044698B94FEA58323046AA
:10350C00790BFFF727FF09492846FFF7F9FE2146FB
:10351C001822FFF7CBFE0446FFF79AFD002C08BFDC
:10352C0004462046BDE8F08100E07F4030A1000158
:10353C00F8B506460D461746FFF724FF044630BB88
:10354C003FB1144B45F4CC45A3F8E850BDE8F84026
:10355C007EE51022FF21104800F02AF84FF6FF728A
:10356C0015F0010F47F6FF7308BF13460A4A0B49C3
:10357C003046D380FFF7C4FE21461822FFF796FE93
:10358C000546FFF765FD002D14BF2C46044620466A
:10359C00F8BD00BF00E07F407605002030A100019F
:1035AC005FF800F0D50800005FF800F0F5020000AD
:1035BC005FF800F0592B00005FF800F0AD08000038
:1035CC00000E00FF0F01FFFF0000000000000000D4
:1035DC000000000000000000D1070000E005002002
:1035EC0010000C0000000000FF00000003000000B1
:1035FC00A086010000000000010C00090A00000078
:10360C000000000000000000890800009C0500205C
:04361C007005002015
:020000040100F9
:10A10000FFFFFFFFFFFFFFFFFFFFFFFFFFFFFFFF5F
:04A11000FFFFFFFF4F
:04A13400FFFFFFFF2B
:10A20000FFFDFFFFFFFFFFFFFFFFFFFFFFFFFFFF60
:10A21000FFFFFFFFFFFFFFFFFFFFFFFFFFFFFFFF4E
:10A22000FFFFFFFFFFFFFFFFFFFFFFFFFFFFFFFF3E
:10A23000FFFFFFFFFFFFFFFFFFFFFFFFFFFFFFFF2E
:10A24000FFFFFFFFFFFFFFFFFFFFFFFFFFFFFFFF1E
:10A25000FFFFFFFFFFFFFFFFFFFFFFFFFFFFFFFF0E
:10A26000FFFFFFFFFFFFFFFFFFFFFFFFFFFFFFFFFE
:10A27000FFFFFFFFFFFFFFFFFFFFFFFFFFFFFFFFEE
:10A28000F8F8FFFFFFFFFFFFFFFFFFFFFFFFFFFFEC
:10A29000FFFFFFFFFFFFFFFFFFFFFFFFFFFFFFFFCE
:10A2A000FFFFFFFFFFFFFFFFFFFFFFFFFFFFFFFFBE
:10A2B000FFFFFFFFFFFFFFFFFFFFFFFFFFFFFFFFAE
:10A2C000FFFFFFFFFFFFFFFFFFFFFFFFFFFFFFFF9E
:040000030000225D7A
:00000001FF
