:10000000D0290020551E0000C90500009D050000F4
:100010009D0500009D0500009D0500009D05000058
:100020000000000000000000000000009D0500002E
:100030009D050000000000009D050000F90500007E
:10004000F9170000691C00000906000015060000F1
:1000500000000000000000000000000000000000A0
:100060000000000000000000000000000000000090
:100070000000000000000000000000000000000080
:100080000000000000000000000000000000000070
:10040000FFFFFFFFDFCEFFFFFCFFFF00FFFFFF004E
:10041000FCFFFF00FFFFFF00FCFFFF00FFFFFF00EE
:10042000FCFF0F20FFFF0F20FCFF7F40FFFF7F40FE
:10043000FCFF0D40FFFF0D40FFFFFFFFFFFFFFFF31
:10044000FFFFFFFFFFFFFFFFFFFFFFFFFFFFFFFFBC
:10045000FFFFFFFFFFFFFFFFFFFFFFFFFFFFFFFFAC
:10046000FFFFFFFFFFFFFFFFFFFFFFFFFFFFFFFF9C
:10047000FFFFFFFFFFFFFFFFFFFFFFFFFFFFFFFF8C
:10048000FFFFFFFFFFFFFFFFFFFFFFFFFFFFFFFF7C
:10049000FFFFFFFFFFFFFFFFFFFFFFFFFFFFFFFF6C
:1004A000FFFFFFFFFFFFFFFFFFFFFFFFFFFFFFFF5C
:1004B000FFFFFFFFFFFFFFFFFFFFFFFFFFFFFFFF4C
:1004C000FFFFFFFFFFFFFFFFFFFFFFFFFFFFFFFF3C
:1004D000FFFFFFFFFFFFFFFFFFFFFFFFFFFFFFFF2C
:1004E000FFFFFFFFFFFFFFFFFFFFFFFFFFFFFFFF1C
:1004F000FFFFFFFFFFFFFFFFFFFFFFFFFFFFFFFF0C
:100500000A4B53F83000CBB211F07F010BD0DA095F
:10051000074B03EB02130B4493F878301BB13733CE
:1005200000EB430070476030704700BFA42A000012
:1005300034110020014B01221A60704700E100E0F5
:10054000044B0122C3F88020BFF34F8FBFF36F8F9E
:10055000704700BF00E100E010B50446FFF7D0FF90
:10056000014670B12046FFF7EBFF0B8803F0030351
:1005700043F002030B8002230B80BDE81040FFF71D
:10058000D9BF10BD044AB2F8CC309BB243F080030F
:10059000A2F8CC30704700BF0000094000BE704791
:1005A000064B93F826101A6A054B53F82130C2F314
:1005B0000262D340034A1360704700BF00E001406D
:1005C000AC050020C8100020034AB2F840319BB2AD
:1005D000A2F83031704700BF00600040C030054BCA
:1005E00053F8202022F4803243F8202053F82030A2
:1005F000704700BF00600040024A13680133136077
:10060000704700BFC4100020EFF30380103840B2E1
:10061000FFF7E4BFFFF7F8BF0A4492B291424FEAF6
:10062000400001D8824201DB121A92B21046704794
:10063000074B1B78834206D9064B1B6800EB400032
:1006400003EBC00070470CBF03480020704700BF99
:1006500078100020741000201C2A0000CB6802498A
:100660000B610121184700BF5C100020034A0346BC
:1006700010780BB1FFF75EBFFFF762BFA80500203F
:10068000024B02225A8000221A7170478C0E002001
:10069000024B00221A80FFF7F3BF00BF8C0E002030
:1006A0000020FFF7F5BFFFFF8B79012B70B535D127
:1006B000CB79022B32D100238D7818468C79012C0E
:1006C00020D04B78212B22D1154B8A781A70B1F8A3
:1006D0000530402B06D94FF0E023D3F8F03DDB077F
:1006E00000D500BE093080B219E08C78AC420ED142
:1006F000CE78DCB2A6420AD10C78204480B22144E4
:100700000133DBE7CC79022CDBD19042EDD34FF003
:10071000E023D3F8F03DDA0700D500BE002070BD1D
:100720008C0E002010B501F1080400F00F02D3B2C6
:10073000092A8CBF3733303304F8013D8C424FEA2D
:100740001010F2D110BDFFFF08B50146FFF746FFBC
:10075000BFF35F8F01224B0901F01F018A40603314
:10076000014941F8232008BD00E100E0044A4109A5
:10077000012300F01F00834042F82130704700BF82
:1007800000E100E0084B1A68084B9A4209D1084B77
:10079000B3F8B20F00F08100003818BF0120C0008C
:1007A00070470720704700BFD41000204E45504FBF
:1007B00000F07E40084B00221A719A78042A02D178
:1007C00003229A707047072AFCD11A7812F0040F9E
:1007D0000CBF08220622F4E78C0E002008B503782F
:1007E000012B06D103490B881BB1FFF7E3FF002360
:1007F0000B8008BD880E0020EFF31080012383F3E7
:1008000010880A4A53889BB24BB90949B1F8FE33A4
:100810009BB243F4254343F00203A1F8FE3353880F
:1008200001339BB2538080F310887047800600200C
:1008300000E00140EFF31081012383F310880C4A9C
:1008400053889BB21BB15388013B9BB253805388A2
:100850009BB24BB9074AB2F8FE339BB223F00203B6
:1008600043F42543A2F8FE3381F31088704700BF9C
:100870008006002000E00140030143EA801040F4BC
:10088000847040F00100704710B5041E0EDB04F1C7
:10089000604303F561430901C9B283F80013FFF710
:1008A00053FF2046BDE81040FFF760BF10BDFFFFBB
:1008B00030B5184DAB686D689C6E2D78032D98BFD0
:1008C000013408B1A0421CD35B6BD20754BF03F0C4
:1008D0001F03C3F30443032D07D91B0983F001034E
:1008E00048B9A3B902234B6030BD03F00C031A1FB3
:1008F00053425341F4E7A04201D3002BF2D103232A
:10090000F1E7032D98BF00F1FF300860ECE7002C01
:10091000E8D0F4E70C1100202DE9F34101F00307C2
:10092000032F80460C4607D02B4B5A681278062AB4
:1009300001F00C0103D129B902B0BDE8F08109B181
:10094000032AF9D11968254A9142F5D19E68736E40
:1009500001334345F0D34FF0FF350023224669466B
:100960004046CDE90053FFF7A3FF019A356B8AB9E2
:1009700014F0080F14BF04230223A0075BBFDB1988
:10098000123306EB830306EB830300994ABFD96455
:1009900059601965630642BF336C43F480033364C6
:1009A000012F15D025F44035022C45EA02450BD124
:1009B00022B1012269464046FFF77AFF019B25F0EC
:1009C000407545EA036501E0002FF7D13563B3E7D1
:1009D000022CEDD0F2E700BF0C110020545047006C
:1009E000F8B5038944899BB2A4B205468088A34226
:1009F00036BFC4EB400EA3EB040E9E441FFA8EFEDE
:100A0000704516461ED80027BC463B463A46B242C1
:100A100028BF32460CEB020060452AD1B61AB6B2A6
:100A20003EB1B34228BF3346F818B84225D113442B
:100A30009AB22989A88889B2FFF7EEFD2881F8BD0E
:100A40001B1A9BB29842FBD9A0420FD92F68A34230
:100A500007EB030C2DBFC01AE41A0027A3EB0E030B
:100A600039BFA2B23B4682B29BB2D0E7241AA4B2ED
:100A7000EAE70C780CF8014BCEE70C7807F8014B4D
:100A8000D3E710B522F001030344984204D1D30701
:100A900044BF03780B7010BD30F8024B0C80F4E7B4
:100AA0002DE9F041174602894389848892B29BB2AE
:100AB0009A4236BFC3EB4405D51AAD18ADB2AC426D
:100AC000064606D2A2422CBF131B13199BB24381C8
:100AD00025462DB92C46A846284610E0121B92B296
:100AE0009442FBD99C4225D9D6F800809A4208EB63
:100AF000030022D82D1BE21A2B449CB295B2BD42B2
:100B000028BF3D467F1B2A46BFB2FFF7BAFF47B159
:100B1000A7423A46404628BF2246FFF7B2FF154497
:100B2000ADB27189B0882A4689B2FFF775FD708130
:100B3000BDE8F0811B1B9BB2D4E74FF00008444690
:100B4000DDE7FFFF2DE9F843184CE588074635B986
:100B500025706570A570E5700120BDE8F883B0F8D8
:100B60005E9009F07F094D452E4628BF4E465EB186
:100B7000637AD4F8008013F0010F3246404607F143
:100B800014010CD0FFF78CFF4E4538BF4FF40043E3
:100B9000A5EB060538BF7B84E5800020DDE7B04487
:100BA000FFF76FFFC4F80080EEE700BF34110020AC
:100BB0002DE9F84F0C22284E4A43B3180446DD882D
:100BC0000F4635B9B55401205D709D70DD70BDE8EC
:100BD000F88F8BB243F480620285A0F86430B0F8DD
:100BE0006CB01FFA8BFB238D03F00F039F42FAD1E9
:100BF000638D9B04FCD55D45A84628BFD846B8F157
:100C0000000F11D04FF00C0909FB07F906EB09039F
:100C100056F809A05B7A13F0010F4246504604F1E2
:100C2000180113D0FFF73CFFD8453CBF4FF40043F9
:100C3000638500232385208D10F00F00FBD10C234A
:100C400003FB0766A5EB0805F580C0E7C244FFF784
:100C500018FF46F809A0E7E7341100202DE9F04716
:100C60003A4B3B4F93F8009007EBD013804693F834
:100C7000275015F0010516464FEAD01A0AD04FF05A
:100C8000E023D3F8F03DDB0700D500BE0025284661
:100C9000BDE8F08793F8272042F0010283F827206F
:100CA0002C4B53F839404846FFF74AFC0CB900BEBC
:100CB000FEE7B8F1000F34D04FF484632384238C13
:100CC0009A06FCD5244B5A7A9E8022F001025A7271
:100CD000DE80A6B31960B8F1000F2BD0B4F86030F5
:100CE000180403D5B4F85430190620D44FF0E0238B
:100CF000D3F8F03DDA0700D500BE4846FFF71AFCEE
:100D0000002DC4D107EB0A0393F8272065F30002F6
:100D100083F8272093F8272065F3820283F82720A1
:100D2000ADE7A4F82080238C9B06FCD4CAE72046BC
:100D3000FFF708FF0123A4F860300125DDE71E70EE
:100D40005E709E70DE700523F5E700BFA8050020E9
:100D500080100020A42A000034110020C04300228B
:100D6000114600F08000FFF779BFFFFF10B4034683
:100D7000064C00685968224603C20022C4E90222D8
:100D800018785DF8044BFFF7E9BF00BF5C10002046
:100D900070B5144E05460024E0B2FFF749FC38B99F
:100DA0004FF0E023D3F8F03DDB0700D500BE70BD67
:100DB00043682846984701343278E3B29A42EBD22E
:100DC0003B220021084801F043FD1022FF21074883
:100DD00001F03EFDBDE8704005481422FF2101F0FE
:100DE00037BD00BF78100020801000208310002045
:100DF0009310002070B505890389428986889BB2CB
:100E000092B2934236BFC2EB46029B1A9B189BB22A
:100E10009E420446ADB202D8C079C00911D028461E
:100E2000B0420FD2E2882368C2F30E0202FB003008
:100E300001F016FDA08801222946FFF7EDFB208175
:100E4000012070BD801B80B2EAE7FFFF10B5114B97
:100E50009989DA8993F900008C1AA4B2402C28BF32
:100E6000402400280DDA914211D099680A482246A0
:100E700001F0F6FC802008492246BDE81040FFF74B
:100E8000EDBE91424FF00000F5D10146F4E780201D
:100E90000021F1E75C100020D80E002070B5034659
:100EA000124D00680C465968AC602E4603C60021FE
:100EB000E981D9888A4228BF0A46AA81D98881B1A6
:100EC0004AB144B94FF0E023D3F8F03DDB0700D539
:100ED00000BE002004E0FFF7B9FF0028F2D0012097
:100EE00070BD1878FFF73AFFF7E700BF5C100020ED
:100EF00007B58DF800208DF801301A0A1B0C8DF80B
:100F000002208DF803308DF8041000230622694674
:100F10008DF80530FFF7C2FF03B05DF804FBFFFF5B
:100F20002DE9F04FB44C87B0B44B1E6800203368F5
:100F30009847B389F18930899BB289B28B4236BF19
:100F4000C1EB40025A1AD21895B29DB1A84205D2FF
:100F500083422CBF1B1A1B1899B2F181884226D9F3
:100F600072897368C2F30E0202FB013103A801F01B
:100F700077FC0125F18930892A4689B2FFF74CFBBD
:100F80003368F08101209847002D00F08A839DF896
:100F90000D30013B072B00F23083DFE813F00B002C
:100FA00018002E038D038D0322000D038F03091AF1
:100FB00089B2D3E79DF80C00FFF7EAFE90481422AF
:100FC000002101F045FC9DF81030A370ACE79DF8BE
:100FD0000C00FFF7DDFE14220021894801F038FCE7
:100FE000A2E723789DF81070DFF814829DF80C506A
:100FF00043F00103237094F8273023F0010384F8B1
:10100000273094F8273023F0040384F8273094F82D
:10101000283023F0010384F8283094F8283007F0B2
:10102000600123F0040384F8283060294FF00003A6
:10103000C8F8103011D14FF0E023D3F8F03DD907B4
:1010400000D500BE9DF80C000021FFF785FA9DF841
:101050000C008021FFF780FA66E740290DD1694B2B
:10106000002BEFD004AA01212846C8F81030AFF3B6
:10107000008000287FF458AFE4E707F01F07012F36
:1010800000F0C681022F00F0EA81002FD3D1202981
:101090000FD19DF814300F2BD4D82344D878FFF704
:1010A000C7FA01460028CDD004AA2846FFF7D6FA91
:1010B000DFE70029BFD19DF81120092ABBD801A183
:1010C00051F822F0FB130000E91300003710000074
:1010D000D513000037100000ED100000AD12000025
:1010E00037100000071100001B110000002306AAA2
:1010F00012E90300C8E90233237843F00203C8E988
:101100000001237010E763788DF80A3001220DF199
:101110000A0104A8FFF7C2FE06E79DF812B0637843
:101120009B4500F0A6806378002B3ED02846364FC2
:10113000FFF706FA09264FF00C0E4FF001094FF0A9
:10114000000C0EFB06731B7A33B303F07F082F4AA3
:10115000DB09190107EB031352F835204344D08E05
:1011600093F8783080B209FA03FA20EA0A00D086B0
:10117000002B3BD003F1370002EB40003944A0F8CC
:1011800000C04144A2F864300EFB0373A2F868C0AB
:1011900083F808C081F878C0013ED2D12846FFF715
:1011A000C9F9A678FFF7F4FDA670BBF1000F60D077
:1011B0002378DFF85C9023F03003237099F8013036
:1011C0000B2B03BF99F8003099F803A099444FF016
:1011D000010A99F80130042B1CD04FF0E023D3F81A
:1011E000F03DD9077FF527AF00BE24E702F160008C
:1011F000C4E78146E2E700BF801000207C10002099
:101200005C1000200000000034110020A42A00001F
:10121000ED290000B74BA3EB09081FFA88F8002757
:10122000FEB23046FFF704FA0028D6D08368424663
:10123000494628469847082831D980452FD30022AF
:1012400009E099F802703B4454FA83F30132DF78E5
:10125000FF2FC2D1DE70D3B29A45F2D8A64F4844D0
:1012600048450CD8A54B1B78B342B6D3A14B984246
:10127000BFD384F801B004A8FFF778FD54E699F8CD
:101280000130052B07D199F8023003F07F0207EBFC
:101290004202DB09D65499F800309944E0E7974BB5
:1012A00001371A78FBB29A42BAD296E7BDF81230EB
:1012B0001A0AD8B2531E0E2B3FF6C4AE01A151F844
:1012C00023F000BF01130000231300003B130000B4
:1012D0004510000045100000BD130000231300005E
:1012E00045100000451000004510000045100000AA
:1012F0004510000045100000451000000D130000CF
:101300007F49122204A8FFF7C9FDB2E67D4B002BEE
:101310003FF498AEAFF30080014600283FF48BAE57
:1013200002E0022A02D178494A88EBE7774B002B8A
:101330003FF488AEAFF30080EEE770B974497548AA
:10134000022201F08DFA01204000821C724942F411
:1013500040730B8002F0FE02D4E705283FF672AE20
:101360006E4B6F4D53F820602B78BBB96D4BD3F8A3
:101370009C3103F1140758692946FFF7D3F97868BF
:1013800005F10801FFF7CEF9B86805F11001FFF784
:10139000C9F9F86805F11801FFF7C4F9304601F002
:1013A0006DFA5D49C0B20022D3B2984202F1010247
:1013B000CAD95D1CF35C21F81530F5E75A4B002BB8
:1013C0003FF440AEAFF30080014600283FF43AAE50
:1013D000027897E7BDF81230012B7FF433AE237803
:1013E00043F00803237046E7BDF81230012B7FF469
:1013F00029AE237823F00803F4E72378C3F34012DF
:101400009B0803F002031343ADF80A3002227EE684
:101410009DF814300F2B3FF615AE2344D878FFF714
:1014200007F9014600283FF40DAE04AA2846FFF74D
:1014300015F900287FF478AD9DF8103013F06003A3
:101440007FF400AE9DF81120A2F10A0101293FF6B8
:10145000F9AD0A2AC8F810307FF40DAF54E69DF8B4
:1014600014B00BF07F02092A3FF6E5AD560004EBFD
:10147000420202EBDB124FEADB1AD07CFFF7D8F80E
:10148000814629B100283FF4DDAD04AA01460CE6EF
:101490009DF8113003F0FD01012907D0002B7FF4E6
:1014A000CAAD92F82730C3F34003ADE7BDF8121080
:1014B00000295CD11D492032012B0F78D37968D1E6
:1014C0009A0754D559463846FFF71AF801460028BE
:1014D0003FD0174B384653F837300193FFF730F8B9
:1014E0004FF48072019B0A80BAF1000F22D00123D1
:1014F0000B802BE0082A00009310002078100020B9
:10150000082A000000000000E4290000000000009C
:101510000E2900005C0F00205A0F0020CC2900008B
:10152000180F002000B07F4000000000A805002038
:10153000A42A0000654A5A4492F87820A3F864204F
:10154000B3F86830C3F38133012BD0D13846FEF7AE
:10155000F1FF2644564496F8273023F0020386F81C
:10156000273096F8273023F0010386F82730B9F1A9
:10157000000F3FF4D9AC04AA49462846FFF76EF89D
:101580000023C8F8103094F82830D8073FF5CCACC9
:1015900071E69B07EBD42644564459463846FEF77D
:1015A000DBFF96F8273043F0020386F8273096F8E1
:1015B000273043F00103D8E79DF8101001F07F05B4
:1015C00004EB450202EBD1124FEAD11C92F827300E
:1015D00023F0010382F8273092F8273023F0040328
:1015E00082F82730002D51D1394D9DF80C602B78B1
:1015F000059FBCEBD31F18D047B14FF0E023D3F8C1
:10160000F03DDB077FF590AC00BE8DE4314B1BB1A4
:1016100029463046AFF300802B69002B3FF484ACA1
:101620002B4A0321304698477EE495F90030A8689C
:10163000002B06DB00283FF477AC27493A4601F03F
:101640000FF9AA68EB893A443B44AA60EA889BB246
:101650009A42EB8101D03F2F15D82B6933B92878F6
:10166000FFF77CFB00287FF45FACC6E70221184A35
:101670003046984701460028F1D13046FEF76CFF0E
:1016800080213046E6E4FFF7E1FBEBE7D07CFEF794
:10169000CFFF48B94FF0E023D3F8F03DDA0700D58B
:1016A00000BE07B0BDE8F08F0569059B9DF81120CD
:1016B0009DF80C00A84737E4237835E4049B002B01
:1016C0003FF432AC059898472EE400BF3411002057
:1016D0005C10002000000000D80E002008B50D4C62
:1016E0000D4E2568327823685B1B632B0CD9BFF342
:1016F0004F8F0A490A4BCA6802F4E0621343CB6079
:10170000BFF34F8F00BFFDE7FF2AECD0FFF708FCC7
:10171000E8E700BFC4100020A805002000ED00E0AD
:101720000400FA057FB54378023B0446032B12D828
:10173000DFE803F00226151D2C4B1A7822F0010277
:101740001A701A78002122F002021A7059701A7861
:1017500061F382021A70264B2146186838E0234B49
:101760001A78D5073FD51A7842F00402F2E71F4AEB
:101770001378D80737D5137823F004031370EAE7FA
:101780001C4E0025E8B2FEF753FF20B1436913B1A8
:1017900061682078984732780135EBB29A42F1D2ED
:1017A000124A137859071ED5137823F004031370D7
:1017B0000023CDF80630CDF80A30ADF80E3023788E
:1017C0008DF8043005238DF80530094B186801A900
:1017D0000430FFF70FFB30B94FF0E023D3F8F03DB2
:1017E000DB0700D500BE04B070BD00BF8010002034
:1017F0007C100020781000202DE9F04F89B0EFF325
:101800000380103840B2FEF7E9FEB24BB3F8401047
:10181000CA4362F478428CB292B20904A3F8402021
:101820000CD5B3F8402012F0800FC2F3C0111A8813
:1018300014BF42F0100261F304121A80620413D53F
:101840000025052305A88DF81530CDF81650CDF8E4
:101850001A50ADF81E508DF81450FFF763FF9D4BE2
:101860001A8E65F34D321A86A30416D5994E338E1F
:101870009F0412D50025032305A88DF81530CDF857
:101880001650CDF81A50ADF81E508DF81450FFF7D1
:1018900049FF338E65F34D333386E60407D504F0F4
:1018A0007003202B00F0E48061D8102B7DD0200540
:1018B00032D5E10740F1FC80864BB3F84020120797
:1018C0002AD54FF480425A84B3F85420ADF80C2046
:1018D000B3F85620ADF80E20B3F85820ADF810201C
:1018E000B3F85A20ADF812204FF6F772A3F8402053
:1018F0000023CDF81630CDF81A30ADF81E308DF833
:1019000014300822062303A906A88DF8153000F02C
:10191000A7FF05A8FFF706FF670515D56D48B0F8C6
:101920004A300022DE07A0F84A200DD5FFF70AF959
:1019300050B1694B4FF4E0659B880793802205A85E
:10194000CDE90552FFF7EEFEE4050DD5614D624C81
:10195000EB8EB5F84670BFB21F40FB439BB2A5F8B3
:101960004630002F40F0C08009B0BDE8F08F602BFA
:1019700004D018D804F06003402B98D10023CDF890
:101980001630CDF81A30ADF81E308DF8143005A899
:1019900004238DF81530FFF7C5FE4E4A138E43F42D
:1019A0000053138683E7702BE7E74A4B01225A87DF
:1019B000DA864FF480425A8400221A851A8D12F07A
:1019C0000F02FBD19A859A8D12F00F02FBD1434D85
:1019D00043494048012394464FF400774FF4807602
:1019E0001FFA83FEA0F864E0A0F868C021F8137025
:1019F00021F8132025F823600133062BF0D10025B0
:101A0000344E28464FF400729FB2A6F86470A6F8D0
:101A1000680021F8132021F8135001330A2BF3D169
:101A20002D489822002100F013FF338903F00703AB
:101A3000013B9BB2022B12D82A4ACDF81650D35C38
:101A4000CDF81A500122ADF81E508DF814508DF8C3
:101A500015208DF8183005A8FFF764FE27E74FF032
:101A6000E023D3F8F03DDD077FF521AF00BE1EE790
:101A7000184BB3F8503013F07F033FF418AF4FF416
:101A8000A062ADF80E300023ADF80C200493CDF821
:101A90001630CDF81A30ADF81E308DF8143008220B
:101AA000062303A906A88DF8153000F0D9FED2E769
:101AB00014F007027FF430AF064B1B8C0792C3F380
:101AC00040134FF4E061DB01CDE905128DF81830C9
:101AD0001FE700BF00000940341100208C000940BE
:101AE0006E000940342A000097FAA7F6B6FA86F687
:101AF0000C2303FB06431A7AD2091BD03146284631
:101B0000FFF756F888B10C2303FB06434FF4E0605F
:101B10009A88197ADB88D31A0022CDE9050205A834
:101B20008DF818100793FFF7FDFD0123B34027EA56
:101B3000030716E7002E57D0B3F806B0B3B22B85D3
:101B4000A5F86430B5F86CA01FFA8AFA2B8D03F063
:101B50000F039E42FAD16B8D9804FCD5B5F82A800C
:101B6000C8F30B08D04528BFD0460C237343D84593
:101B7000C14628BFD946E058E218B9F1000F08D095
:101B8000537AD90721D5354901904A46FEF728FFF7
:101B90000198CA4584BF4FF480436B8500232B8591
:101BA0002B8D1A07FCD10C2303FB0642ABEB09017A
:101BB000CA45D18001D8D845B7D37343E118002274
:101BC000E2544A708A70CA709CE7DFF898C000EB54
:101BD000090203469CF8181003F8011B9342F9D13F
:101BE0000C227243A350D4E7B5F85EA0B5F822806A
:101BF000B4F806B0C8F30B080AF07F0AD04528BF36
:101C0000D046D845C14628BFD946B9F1000F07D004
:101C1000637A2068DB0716D511494A46FEF7E0FED5
:101C2000CA4584BF4FF480436B84ABEB0903CA45BC
:101C3000E38002D8D845FFF478AF002323706370A7
:101C4000A370E3705FE7074900EB09030A7D00F822
:101C5000012B8342FAD12360E2E700BF180009405C
:101C60001400094000000940FFF7C6BDA0F10100C3
:101C70000028FBD17047FFFF064B07481A68074B47
:101C8000B3FBF2F3B0FBF3F0800801D0FFF7EEBF37
:101C9000704700BFC8100020400D030000CA9A3BE7
:101CA0002DE9F74F524D534E04464FF0000823885C
:101CB00098452BD3EFF31080012383F310884E4B0C
:101CC000196819B94D4AD1704021D1701A68013292
:101CD0001A6080F310884A4D0020218882B2914218
:101CE00067D8EFF31081012282F310881A6812B1CD
:101CF0001A68013A1A601A681AB9404BDA708022E1
:101D0000DA7081F3108803B0BDE8F08F3D4B01938A
:101D10004FEAC80A00276368019803EB0A0130F80C
:101D2000022B89880190914227D153F80A3095F807
:101D3000BB14012203F0B853BA40B3F1807F5FFABD
:101D400082F907F1200B1ED111EA090F09D1FEF724
:101D500053FD95F8BB1441EA090285F8BB24FEF750
:101D600069FD16F81B20D20907D116F81B2042F096
:101D7000800206F81B20FFF77FFF0137032FCAD12F
:101D800008F1010893E711EA090F09D0FEF734FDC5
:101D900095F8BB1421EA090285F8BB24FEF74AFD39
:101DA00016F81B20D209E8D016F81B2022F080027A
:101DB000DFE7666882B206EBC20156F832608988B6
:101DC00016F4803F4FEA11224FEA0212C9B20AD03C
:101DD000571855F827C02CF4803C45F827C026F446
:101DE000803C45F827C00A44013045F8226074E77A
:101DF00000E001400040044070100020000D04404D
:101E000000080440382A000010B5104B4AF6802222
:101E1000A3F8B22F0E4B81680446062000F03CFD6B
:101E200093F8A0309B070CBF1020502000F040FD1D
:101E300063681A784AB193F911402046FEF784FC92
:101E40002046BDE81040FEF791BC10BD00F07E407A
:101E500000E001408FB5BD4BBD48BE4E4FF470024F
:101E6000C3F888209E604AF20253A0F8FE33012393
:101E700080F81F3490F8B134DD06FBD54FF42543CC
:101E8000A0F8FE334AF20353A0F8FE33B24BB34935
:101E9000B34C0022A3F80021B24BC3E900414FF438
:101EA0000041C3E902121A61FEF77AFB012380F8B0
:101EB000803490F8A030A3B190F83620A44B1AB922
:101EC00093F83C20D107FBD593F8A020C2F3001172
:101ED000D206F9D49E4A83F8A01092F8A030DB060F
:101EE000FBD49B48002380F8363090F83C30DF0765
:101EF000FBD501249C4B80F831400362002380F81D
:101F00002630FEF74DFB4FF4254380F8D040A0F873
:101F1000FE33914BA3F80441B3F80441A4B2002C62
:101F2000FAD10125A3F800518DF807409DF807303C
:101F3000FEF762FCEFF3108285F310888B4FD7F821
:101F4000043123F00043C7F80431D7F8043182F399
:101F50001088874B1A68C2F300028DF807201A68B0
:101F6000C2F300028DF807201B68C3F300038DF84D
:101F70000730EFF3108285F31088D7F8043143F06F
:101F80000043C7F80431D7F8043182F31088FEF714
:101F900051FC784B78489C804FF425421A80326877
:101FA000764EA2F500619960DA60754A4FF480516F
:101FB000A2F82011734A9D80121A214600F048FCB5
:101FC0007148724A7249734D121A00F049FCAD1BF8
:101FD000AD10A54200F3AA81FEF7E2FA6E4B002491
:101FE00083F82840FEF708FC594B83F8BB44FEF702
:101FF00021FC6A4A6249234603F1C000013312F80A
:10200000014B41F82040202BF6D162B6644D654C5F
:102010002B68A34203D064482C60FFF741FEDFF831
:10202000A8814FF47A72D8F80030B3FBF2F3013B89
:10203000B3F1807F0AD24FF0E022F0215361434B8D
:1020400083F8231000239361072313612B68A342B5
:1020500002BF564B4FF000629A623D4B544AD3F890
:102060000015914240F067814AF20252A3F8FE2324
:102070000022C3F800254FF42542A3F8FE234D4B60
:102080001A68A24203D04C481C60FFF709FE4B4E71
:10209000DFF8389133684B4500F0A7800823F360E0
:1020A000474B484A7360002501233374B260756161
:1020B000C6E90655EFF3108283F31088D7F808318C
:1020C00023F04003C7F80831D7F8083182F31088AD
:1020D000B3684FF425421A60B4684FF08073E5622C
:1020E000E563A564E3624FF0004323616361A3618C
:1020F00049F6950365622A46A56202A9E56144F6A0
:102100004B402562A36663664FF0FF33CDE902358D
:10211000FEF7CEFB029B6365A365039B28461A0668
:1021200042EA0342FEF7A8FB4FF4AA03A563C4F8F2
:1021300088502364F368E36042F0030342F0010235
:102140006063FF212363284642E000BF00ED00E00A
:1021500000E001400000000000C0014000127A00D1
:10216000006CDC02AC05002000010110006F04408F
:1021700000080440000D0040C0050020AC05002010
:1021800000600040CC11002000000020AC050020C1
:10219000DC2A0000AC050020004004403E2A00007C
:1021A000CC10002054524F50602A00000000044020
:1021B000358173072C1100209C2A00000C1100208F
:1021C0007C2A000000830740C810002054504700BC
:1021D0002263FEF759FB29462846FEF755FB2946A0
:1021E0002846FEF751FBC6F800907168087844F65F
:1021F0001F6344F62062032898BF1A46B3689A66A4
:10220000097819B942F20F7159659965D96ACC07F5
:1022100005D45A664FF4AA021A64F268DA60002103
:102220000846FEF779FB3368984C994D4B4504BF3F
:10223000D6E902325A602368AB4273D0954B636093
:102240009548D8F80010002384F83430026AC2F3AD
:10225000026301FA03F3C2F30272D3408F4AE360D0
:10226000934209D88E4A934206D08E4A934203D0B5
:102270008D4A934240F0BD80026A89488B4EC2F37A
:1022800002629140D14003F5742303F23F2301F52C
:102290007421B3FBF0F3E36040F2835301F23F217A
:1022A000B1FBF0F106204B43B3FBF0F3236140F2A6
:1022B00076334B43B3FBF0F3636158234B43B3FBDB
:1022C000F0F3A3617A4BA1604B43B3FBF0F3E361FE
:1022D000784B4B43B3FBF0F32362774B4B43B3FB99
:1022E000F0F36362754B002283F8C02F96F89030AC
:1022F000012B04D0012386F8903000F0CDFA63481A
:10230000FFF782FDE368D6F8D8216048013B03F06F
:102310001F0363F30502C6F8D82100F0B9FA0028BC
:1023200064D12560594800F0BFFA62E056F8043BDA
:10233000984701344DE693F81014CD0709D44AF2BA
:102340000251A3F8FE13C3F800254FF42542A3F869
:10235000FE235B4A1368B3F5FA7FFBD34E4B4AF278
:10236000025600214FF425454FF48042A3F8FE6346
:10237000C3F80015A3F8FE53106800F07F40B0F1D9
:10238000005F7FF47CAEA3F8FE63EFF3108C0126B0
:1023900086F31088D7F8000140F40060C7F8000108
:1023A000D7F800018CF31088EFF3108C86F31088B7
:1023B000D7F8000140F48050C7F80001D7F80001B9
:1023C0008CF31088A3F8FE533E4B998072B6BFF38E
:1023D0004F8FBFF36F8F4FF0E0231961C3F8082DC3
:1023E000136883F308885368984748E62368AB422C
:1023F00098D0354D2B78FF2B1FD13B22334800213D
:1024000000F026FA324B0022DA819A81314A1360B9
:10241000314B23B13148AFF30080314B18602F4E60
:102420000024E0B2FEF704F9002861D14FF0E02368
:10243000D3F8F03DD80700D500BEFEF7A3F8204F33
:10244000284EDFF8A8802B78FF2B01D0FEF768FD1F
:102450003A683368D21A632AF5D9D8F80040643351
:10246000002120463360FEF757FA1F4B1A78002AE6
:1024700000F08B80B4F5FA6F80F0828000221A7031
:102480004FF4FA63C8F80030DDE700BFD410002035
:102490004E45504F682A000000E00140FF083D0013
:1024A00040420F0080841E00C0C62D0000C07E4048
:1024B000B86A0500D066050068ED220000F07E4095
:1024C000C4100020000D0040A8050020801000204E
:1024D000980500207C1000200000000078100020EB
:1024E00074100020C0100020BB100020BC10002081
:1024F0000368984701343278E3B29A4291D20023BC
:102500002B70D7F8003123F40063C7F80031264B55
:102510001A8842F480621A801A885105FCD51A88FC
:1025200022F020021A801A8822F040021A801A88AB
:1025300042F001021A800522C3F8F020D3F80024EB
:1025400022F01002C3F80024B3F85E20402161F3AA
:102550000602A3F85E200022A3F840204FF45D425B
:102560001A8601225A87DA86B3F84020120642BF43
:102570001A8842F010021A800020FDF7DBFF5CE7AA
:10258000A4F5FA64C8F800405DE704F5FA6444F67F
:102590001F629442C8F800407FF655AF01221A70BE
:1025A00044F620636EE700BF0000094010B5104BF1
:1025B0001988FEF7E7F80346C0B90E4A02EA81120D
:1025C000A2F56E3101396FF47E3081420ED30A4993
:1025D0000A48B1F5802F80F8343007D9BDE81040A3
:1025E0004FF4006302F5804200F05AB910BD00BFFD
:1025F0008A0E002000F8FFFF88060020D41000207B
:1026000070B51378144603F01F02012A0D4640F0FE
:102610000B8113F0600019D163780A2B0DD00B2BBE
:1026200027D1012924D1814B62885A70FEF728F8FE
:102630002046BDE87040FEF799BB012918D10A4633
:102640007B492046BDE87040FEF728BC202840F0BA
:10265000EB806378062B00F2E780DFE803F00432BA
:102660001C520F140F00012904D12046FEF77EFBF7
:10267000012070BD0329FBD1FFF730F80129F7D104
:10268000FDF7FEFFF1E70129F2D10A46204669492C
:10269000FEF704FCECE70129EAD1644E337813F02D
:1026A0000200E6D0E588402D00F2BE8061882A460F
:1026B000694306F10C0000F0D3F82A4606F10C013C
:1026C000BFE70129D4D159490B7813F00100D0D0CC
:1026D0008B78022B02D0052B40F0A680E388402B9C
:1026E00000F2A28001230B716388CB80E3880B8109
:1026F000E2881AB103238B704F49A2E706238B703F
:1027000096E74A4A9178032905D0062950D0012D31
:10271000AED1002309E0012D0BD113793BB15378E1
:10272000002B14BF642300230421D2784BE0052141
:10273000FBE7032D9CD11379002B36D00423D188DD
:1027400093703E4B1489198001F58071890111F451
:10275000F86F12D172B6FEF715F8034660B9384823
:10276000B1F5802F80F8343006DA4FF4006301228F
:102770006FF30A0100F0A0F862B6324D32482B88A0
:102780002D492246184400F06BF82B881C44A4B253
:10279000B4F5006F2C8005D172B6FFF707FF62B663
:1027A00000232B80FEF706F862E7052393705FE7AE
:1027B000012D0DD11379D278002B18BF07214FF0CE
:1027C000000308BF02212046BDE87040FEF790BB21
:1027D000032D7FF44DAF137923B30723937072B6A3
:1027E000FFF7E4FE62B6FDF7E5FFFDF7CBFF00283B
:1027F0007FF43EAF124B18605B6893F9113013F110
:10280000210F3FF435AF5A09012103F01F0399400E
:1028100002F120030D4A42F82310BFF34F8FBFF39C
:102820006F8F25E70223C1E7002022E78C0E0020EE
:102830008D0E00208E0E0020980E00208A0E0020A3
:10284000D4100020880E00208806002000E100E05F
:1028500002440346934200D1704703F8011BF9E795
:102860000A44914200F1FF3300D1704710B511F8CE
:10287000014B03F8014F9142F9D110BD034613F803
:10288000012B002AFBD1181A01387047FFFFFFFF08
:102890005FF800F0B90000205FF800F07D00002034
:1028A0005FF800F03D0400205FF800F039010020DF
:1028B0005FF800F08F0000205FF800F011030020A7
:1028C00000000404342E342E30004275696C7420EC
:1028D000776974682052656E657361732041647610
:1028E000616E63656420466C657869626C6520532F
:1028F0006F667477617265205061636B61676520F4
:1029000076657273696F6E20342E342E30000904A0
:10291000040000000B010000000000000A0100009C
:102920000000011307040000000001130E0900005D
:10293000000001130F09000001000000000000006A
:102940000000000000000000000000000000000087
:102950000000000000000000000000000000000077
:102960000000000000000000000001030B01000057
:1029700041726475696E6F00554E4F205234204D80
:10298000696E696D61204446550040436F64654639
:102990006C617368202F3078303030303030303018
:1029A0002F382A324B612C3132302A324B670040AB
:1029B00044617461466C617368202F307830383020
:1029C00030303030302F382A314B67000E2900006C
:1029D0007029000078290000180F00208A290000C3
:1029E000AF2900000902240001010080320904001F
:1029F0000000FE0102040904000100FE01020509B5
:102A00002107E8034000010112010002000000401C
:102A100041236903000101020301FFFFA106000039
:102A200091060000A9060000012600000000000039
:102A300000000000010002FF020403040404333418
:102A40003132000000000000000000000000000023
:102A50000000000000000000000000000000FFFF78
:102A6000050000001029000000000000DD07000044
:102A70000000000000000000020702080200000041
:102A800096980000020000004B4C000003FF00007D
:102A900000000000000000003829000001000000D4
:102AA000682900000000094000000000100000003C
:102AB00000000000017A5200027C0E011B0C0D0088
:102AC0001000000018000000B4FDFFFF100000001F
:042AD0000000000002
:082AD400A8FDFF7F01000000D6
:102ADC0010B5431E19440B4B93F8044124F0010428
:102AEC0083F80441040C80B2A3F81041D2B2A3F8CD
:102AFC000801080C89B2C3F82001A3F8181183F857
:102B0C00142110BD00C07E4082B00F4B0190D3F851
:102B1C002C2151060FD5002283F814210190D3F8F3
:102B2C002C21C2F38010520608D5019A2AB1019AC1
:102B3C00013A0192F3E7019A12B9142002B07047DE
:102B4C00019A013A0192E2E700C07E404843032813
:102B5C0004D98008A0F101000028FBD17047094B73
:102B6C00A522C3F88021C243D2B283F8000183F8B6
:102B7C00002183F8000193F80031834200D100BF9B
:102B8C00704700BF00C07E4073B51D4EB6F8B24F03
:102B9C00A4B24FF49643012C0546019309D192201F
:102BAC00FFF7DDFF0320A968FFF7D0FF1220FFF726
:102BBC00D6FF0820FFF7D3FFA96806204FF42A435D
:102BCC00FFF7C4FFA6F8B23FB6F8B23F9BB27BB991
:102BDC00012C0AD10B4BA3F80441B3F8042192B297
:102BEC00002AFAD10122A3F80021002002B070BD06
:102BFC00019B1BB1019B013B0193E5E71420F5E719
:102C0C0000F07E4000C0014010B5002380F8343045
:102C1C000C4BB3F8B23F9BB204460BB900F020FA50
:102C2C00094BD3F8242142F00102C3F82421D3F834
:102C3C00242122F00102C3F824212046BDE81040D3
:102C4C00A2E700BF00F07E4000C07E40F8B505460C
:102C5C00084616461F46FFF757FF1428044604D1B2
:102C6C002846FFF7D1FF2046F8BD054BD3F8F041BD
:102C7C003440F8D02846FFF7C7FF3C46F3E700BFC7
:102C8C0000C07E4010B50023934200D110BDCC5C37
:102C9C00C4540133F8E738B51D4B0022A3F80021CA
:102CAC0043681A7804467AB193F9113001215A0914
:102CBC0003F01F03994002F12003164A42F8231037
:102CCC00BFF34F8FBFF36F8F134B4AF60122A3F85C
:102CDC00B22F1220FFF743FF104BA1680320FFF720
:102CEC0035FF93F8A03003F00303002B15BFC2216E
:102CFC008221D220922014BF04250625FFF72FFF36
:102D0C000846FFF72CFFA1682846BDE838401DE7B0
:102D1C0000C0014000E100E000F07E4000E0014016
:102D2C0082B00F4B0190D3F82C2111060FD5002245
:102D3C00C3F8DC210190D3F82C21C2F3C010120689
:102D4C0008D5019A2AB1019A013A0192F3E7019A46
:102D5C0012B9142002B07047019A013A0192E2E7CD
:102D6C0000C07E4038B50546406AFFF7D9FF1428ED
:102D7C00044604D12846FFF747FF204638BD054BD3
:102D8C00D3F8F04114F01204F7D02846FFF73CFFBB
:102D9C001824F2E700C07E40F8B5054614460F46ED
:102DAC001E46FFF778FF214683223846FFF790FE38
:102DBC000334A969A4084FF4FC731022614328461C
:102DCC00FFF744FF48B9054BD3F82831C3F3C003D0
:102DDC0033702846BDE8F840D6E6F8BD00C07E400A
:102DEC002DE9F041044616460F469846FFF753FF6F
:102DFC000D4B93F8045125F0010583F804518422FE
:102E0C0008FB06F13846FFF763FEE169192311222E
:102E1C0071432046FFF71AFF18B92046BDE8F04170
:102E2C00B2E6BDE8F08100BF00C07E402DE9F84F4E
:102E3C00894680469246FFF72EFF214C4D4683274C
:102E4C004FF6FF7B94F8043143F0010384F804310E
:102E5C00BAF1000F1DD1C4F830B1C4F838B1C4F8C0
:102E6C00DC714046FFF77EFF94F8043123F0010338
:102E7C00013784F80431064618B9872F05F104058B
:102E8C00E0D14046FFF780FE002E18BF3046BDE86B
:102E9C00F88F6A782B7843EA0223C4F83031BB00F0
:102EAC00B3F5067F0DBFB9F80E30EA78AB784AEA75
:102EBC00030318BF43EA0223C4F83831CFE700BF3D
:102ECC0000C07E4013B5104C0B0C89B2A4F8103125
:102EDC000822A4F8081101466846FFF7D3FEBDF896
:102EEC000030C4F83031BDF80230C4F83831BDF8C8
:102EFC000430C4F84031BDF80630C4F844318123A5
:102F0C0084F8143102B010BD00C07E40F8B5044600
:102F1C0017460E461D46FFF7BEFEC4E90A67154A62
:102F2C00ED08256392F8043123F0010382F8043193
:102F3C000025236B13B9C5B12846F8BD002DFBD174
:102F4C00D4E90A01FFF7BEFFA36A21690833A36223
:102F5C00E36A0833E362236B013B236312221823D9
:102F6C002046FFF773FE0546E3E72046FFF70CFE0D
:102F7C00E2E700BF00C07E400C4B5AB9C0F38F2073
:102F8C00C1F38F21C3F830018222C3F83811C3F882
:102F9C00DC21704740F47E404FF6FF7240F0FF009A
:102FAC00C3F83821C3F830018122F0E700C07E401D
:102FBC00F8B5174606460C46154DFFF76CFE6FB17B
:102FCC00D5F8D83164F38713C5F8D83100243046CE
:102FDC00FFF7DAFD002C18BF2046F8BD95F8043138
:102FEC00E44343F0010304F0010485F804312002AA
:102FFC0001223946FFF7C0FF3046FFF7B3FE95F8C4
:10300C00043167F30003044685F80431DFE700BFA1
:10301C0000C07E40F8B5114E05460C461746FFF72A
:10302C003AFE96F8043143F0010386F8043100228D
:10303C0039462046FFF7A0FF2846FFF793FE96F887
:10304C00043123F00103044686F804312846FFF7C7
:10305C009BFD002C18BF2046F8BD00BF00C07E4071
:10306C005FF800F0091E00006D060000C00500208E
:0C307C0010000C0000000000FF0000002D
:020000040101F8
:10001800FFFFFFFFFFFFFFFFFFFFFFFFFFFFFFFFE8
:0C002800FFFFFFFFFFFFFFFFFFFFFFFFD8
:0400000300001E5586
:00000001FF
