:10000000789300202D210000A50700005107000073
:100010005107000051070000510700005107000080
:100020000000000000000000000000005107000078
:100030005107000000000000510700009508000073
:100040006D080000890800008D080000910800007C
:1000500071190000A91D0000AD1D0000191E00004F
:10006000B11D0000000000000000000000000000C2
:100070000000000000000000000000000000000080
:100080000000000000000000000000000000000070
:100090000000000000000000000000000000000060
:1000A0000000000000000000000000000000000050
:10050000044A138D03F00F038342FAD1538D9B04E9
:10051000FCD570470010114030B5044622F00103AD
:1005200003449C4209D1D30706D522F00102825C24
:10053000CB7862F30703CB7030BD34F8025B4D809B
:10054000EFE70244904200D170470B7800F8013B7E
:10055000F8E7FFFF2DE9F04F98460C23154603FB03
:1005600008F3164E85B0894606EB030A01A9F35835
:1005700007469847BDF804404946AC4228BF2C4680
:10058000DAF808B022460298D8472C1B0AD0BDF8EA
:1005900006A04946A24528BFA24603985246D8471E
:1005A000A4EB0A040C2303FB0866291B3846736876
:1005B00089B2984705B0BDE8F08F00BF202C00003D
:1005C0002DE9F041184CE58835B90120257065709A
:1005D000A570E570BDE8F081DFF854802E46B8F8CC
:1005E0005E7007F07F07BD4228BF3E4646B1637A82
:1005F0002068DB0710D5012332460C49FFF7AAFF1C
:10060000BE4238BF4FF40043A5EB060538BFA8F83B
:1006100022300020E580DDE732460449FFF77CFF09
:1006200030442060ECE700BFDC8A00201410114049
:10063000001011402DE9F0474FF00C0808FB00F8BE
:10064000214D814605EB0801CC883CB9012005F815
:1006500008404C708C70CC70BDE8F0871B4F83B2A3
:1006600043F480623A85A7F86430B7F86CA0FFF7CE
:1006700047FF1FFA8AFA5445264628BF56464EB110
:100680004B7A55F80800DB0715D50123324610498F
:10069000FFF760FF56453CBF4FF400437B850023C6
:1006A0003B853B8D13F00F00FBD10C2303FB095559
:1006B000A41BEC80D0E732460549FFF72DFF3044FC
:1006C00045F80800E6E700BFDC8A00200010114072
:1006D00018101140012807D11022044BC3F88020C4
:1006E000BFF34F8FBFF36F8F704700BF00E100E093
:1006F0001022014B1A60704700E100E011F07F0208
:1007000008B51BD00F4BC90903EB0113134493F831
:1007100078309BB10C495B001944FFF7DBFF0B8875
:10072000012803F0030343F002030B804FF00203A0
:100730000B8005D1BDE80840FFF7DABF0349ECE7BD
:1007400008BD00BFDC8A00206E101140601011400F
:1007500000BE70470123074AA2F80431B2F8043101
:100760009BB2002BFAD10123A2F80031024A936018
:100770001360704700C0014000700040064B93F8C2
:1007800026101A6A054BC2F3026253F82130D34097
:10079000034A1360704700BF00E00140C405002019
:1007A0006C8A0020034AB2F840319BB2A2F8303183
:1007B000704700BF0060004010B5EFF310810123C7
:1007C00083F310880F4A32F810309BB22BB132F805
:1007D0001030013B9BB222F8103032F810309BB23F
:1007E00063B9094A094CB2F8FE3334F810009BB2E1
:1007F00043F4254323EA0003A2F8FE3381F3108873
:1008000010BD00BF8A88002000E001401C2B0000C2
:1008100030B5EFF31084012383F310880D4A32F8CA
:1008200010309BB263B90C490C4DB1F8FE3335F86A
:1008300010509BB22B4343F425439BB2A1F8FE33E7
:1008400032F8103001339BB222F8103084F3108854
:1008500030BD00BF8A88002000E001401C2B000052
:10086000EFF30380103840B27047FFFF08B5FFF781
:10087000F7FF044BC03053F820206FF3104243F8C9
:10088000202008BD00600040FFF7F0BFFFF7EEBF7B
:10089000FFF7ECBF024A136801331360704700BFD3
:1008A000648A002010B501F1080400F00F02D3B2F1
:1008B000092A8CBF3733303304F8013D8C424FEAAC
:1008C0001010F2D110BDFFFF0B4B00F1C00253F826
:1008D00022106FF3104143F82210012200F01F0391
:1008E0009A4043099B0003F1604303F56143C3F859
:1008F00080211A60704700BF006000400122064955
:10090000430900F01F008240203341F82320BFF349
:100910004F8FBFF36F8F704700E100E037B5C36BB7
:1009200004460A466D468BB193E8030085E8030050
:100930001A70226C18465A60A26B9047E36B1BB189
:1009400095E8030083E8030003B030BD2B46EFE7D2
:10095000C38911FA83F19AB289B28A4202D8838993
:100960008B4202D24389194489B2C1817047038AFC
:1009700011FA83F19AB289B28A4202D883898B42F2
:1009800002D24389194489B20182704730B5C489C3
:10099000038AA4B29BB29C4238BF4589A4EB0302F0
:1009A00092B238BF521B858838BF92B2954221D28D
:1009B000A54212D92A4643892B44E31A9BB20382EB
:1009C000038A9BB29D4220D90568A3421D444D6015
:1009D0001ED200230A804B800FE08289631B9BB2EA
:1009E0009A423CBF42899B1A2A4638BF9BB2038277
:1009F000038A9BB232B9C1E9002200238B6030BD6B
:100A0000641BA4B2A542FBD9DCE75B1B9BB2D9E710
:100A10008488121BE51A13440D804B800368EDE7B0
:100A200070B5C389048A9BB2A4B2A34238BF468979
:100A3000A3EB040292B238BF921B858838BF92B2F2
:100A4000AA1A92B232B9C1E9002200238B6070BDAC
:100A50005B1B9BB2AB42FBD2AC4209D205689C4205
:100A60001D444D6007D9E41A00230C804B80ECE74D
:100A7000641BA4B2F0E78488121BE51A13440D80AE
:100A80004B800368E2E7FFFF094B63B1094B1B781A
:100A9000834206D9084B00EB40001B6803EBC00003
:100AA0007047C01AC0B20028044818BF0020704721
:100AB00000000000A08800209C880020042B00007B
:100AC000CB6802490B610121184700BF74880020E0
:100AD000054B1B7818B1012B04D1FFF709BE18464E
:100AE000FFF7F8BD704700BFC00500200222024B8F
:100AF0005A8000221A717047A48600200022024BFF
:100B00001A80FFF7F3BF00BFA48600200020FFF784
:100B1000F5BFFFFF0023184670B58D788C79012C46
:100B200020D04B78212B22D1154B8A781A70B1F83E
:100B30000530402B06D94FF0E023D3F8F03DDB071A
:100B400000D500BE093080B219E08C78AC420ED1DD
:100B5000CE78DCB2A6420AD10C780133204480B2B0
:100B60002144DBE7CC79022CDBD19042EDD34FF06E
:100B7000E023D3F8F03DDA0700D500BE002070BDB9
:100B8000A48600200022084B1A719A78042A02D108
:100B900003229A707047072AFCD11A7812F0040FCA
:100BA0000CBF08220622F4E7A486002008B50378CB
:100BB000012B06D103490B881BB1FFF7E3FF00238C
:100BC0000B8008BD88880020030143EA801040F4B0
:100BD000847040F001007047031E0DDB090103F132
:100BE0006042C9B202F5614282F80013034A044927
:100BF00042F82310FFF768BE704700BFE48800206A
:100C0000BC8A00202DE9F8433E4B3F4E93F800800C
:100C100006EBD013154693F827200746D2074FEA74
:100C2000D01908D54FF0E023D3F8F03DDB0700D50D
:100C300000BE00204EE093F82720404642F001021B
:100C400083F82720314CFFF745FD6FB34FF48463E1
:100C50002384238C9F06FCD52D4B5A7A9D806FF3FD
:100C600000025A72DD80002D3FD01960B4F8603068
:100C7000180431D44FF0E023D3F8F03DDA0732D432
:100C8000B8F1010F01D1FFF733FD06EB090393F82B
:100C900027206FF3000283F8272093F827206FF3B3
:100CA000820283F82720BDE72784238C13F02002DB
:100CB000FBD1174B587A9D8062F300005872DD809B
:100CC0009DB119600123A4F86030984501D1FFF768
:100CD0000FFD0120BDE8F883B4F854301906C9D5DA
:100CE000FFF76EFCEEE700BECAE70022084BB8F142
:100CF000010F1A705A709A70DA704FF00503A4F859
:100D00006030E3E7C0050020A888002000101140F3
:100D1000DC8A002030B51A4DAB686D685C6E2D78AA
:100D2000032D06D8013490B1844210D901380860EF
:100D300024E008B18442FAD85B6BD50754BF03F0B6
:100D40001F03C3F304431B0983F001030BE05B6B38
:100D5000D20754BF03F01F03C3F3044303F00C0393
:100D60001A1F5342534118B933B12CB1032304E085
:100D7000A042FBD3002BF9D002234B6030BD00BF53
:100D8000BC8A00202DE9F34101F00307032F8046C0
:100D90000D4607D02B4B01F00C0259680978062943
:100DA00003D122B902B0BDE8F081002AFAD1196856
:100DB000254A9142F6D19E68736E01334345F1D3C3
:100DC00000234FF0FF302A46CDE900036946404634
:100DD000FFF7A0FF019B346B83B1012F0BD024F4EC
:100DE0004034022D44EA034427D10122694640469B
:100DF000FFF790FF1BE0022D19D1F6E715F0080F61
:100E00000CBF02230423A90758BFDB19009A55BF62
:100E1000123306EB830306EB8303DA6454BF5A6094
:100E20001A65012F03D0022D24F4403405D1019B13
:100E300024F0407444EA036401E0002FF7D13463E6
:100E4000B0E700BFBC8A002054504700C0430022D6
:100E500000F080001146FFF7D5BEFFFF10B4034637
:100E6000064C00682246596803C20022C4E90222E7
:100E700018785DF8044BFFF7E9BF00BF74880020C5
:100E800070B505460024134EE0B2FFF7FDFD38B9FA
:100E90004FF0E023D3F8F03DDB0700D500BE70BD76
:100EA00043682846984701343278E3B29A42EBD23D
:100EB0003B220021084801F054FD1022FF21074881
:100EC00001F04FFDBDE870401422FF21044801F0FD
:100ED00048BD00BFA0880020A8880020AB88002063
:100EE000BB88002038B5C589028AADB292B2AA4249
:100EF000A5EB020388BF42899BB288BF9B1A8288F8
:100F000088BF9BB29A42044619D1007AB8B938BD5D
:100F1000801A80B29042FBD22368E28802FB003044
:100F200001F012FD6B1C9BB29D4202D8A2899A422D
:100F300002D2628913449BB20120E381E7E728468D
:100F4000E8E7FFFF10B5114B9989DA8993F90000A2
:100F50008C1AA4B2402C28BF402400280DDA9142FC
:100F600011D0224699680A4801F0EEFC8020084919
:100F70002246BDE81040FFF745BE91424FF0000009
:100F8000F5D10146F4E780200021F1E774880020C4
:100F9000F086002070B50346124D00682E460C46C0
:100FA0005968AC6003C60021E981D9888A4228BF0C
:100FB0000A46AA81D98881B14AB144B94FF0E023E9
:100FC000D3F8F03DDB0700D500BE002004E0FFF7BA
:100FD000B9FF0028F2D0012070BD1878FFF736FF66
:100FE000F7E700BF7488002007B58DF800208DF862
:100FF00001301A0A1B0C8DF8033000238DF80220F3
:101000008DF80410062269468DF80530FFF7C2FFFF
:1010100003B05DF804FBFFFF2DE9F04F894C87B06A
:10102000894B00201D682B6898476B8AA98A9BB260
:1010300089B28B4238BFE889A3EB010296B238BF70
:10104000321A288938BF96B2B04224D2834218D2CD
:10105000EA8902449B1A9BB2AB82884239D96A89D9
:101060006B6803A802FB013101F06EFCAA8A01261D
:1010700092B2531C9BB29A4211D9EA8913449BB293
:1010800010E006462A8A1B1A9BB29A423EBFEA89A2
:101090009B1A9BB2AB82002EDFD1AB8A9BB22A8A0D
:1010A0009A42EAD3AB8201202B689847002E00F0C9
:1010B00090839DF80D30013B072B00F23783DFE86A
:1010C00013F00B001800350393039303220014035D
:1010D0009503091A89B2C0E79DF80C00FFF7D0FE0E
:1010E00014220021594801F03CFC9DF81030A370F7
:1010F00096E79DF80C00FFF7C3FE14220021534829
:1011000001F02FFC8CE72378DFF8409143F00103D6
:10111000237094F827309DF810806FF3000384F853
:10112000273094F827309DF80C506FF3820384F831
:10113000273094F828306FF3000384F8283094F8AF
:1011400028306FF3820384F828300023C9F8103068
:1011500008F06003602B11D14FF0E023D3F8F03D8D
:10116000D90700D500BE00219DF80C00FFF7C6FA94
:1011700080219DF80C00FFF7C1FA51E7402B0DD1FB
:10118000334B002BEFD00121284604AAC9F81030B8
:10119000AFF3008000287FF443AFE4E708F01F08B6
:1011A000B8F1010F00F0EA81B8F1020F00F00D82F2
:1011B000B8F1000FD0D1202B0FD19DF814300F2B98
:1011C000D1D82344D878FFF75FFC01460028CAD065
:1011D00004AA2846FFF774FCDCE7002BBCD19DF87D
:1011E0001130092BB8D801A151F823F01B150000CC
:1011F0000915000059110000F514000059110000F4
:1012000015120000CD130000591100002F1200002C
:101210005512000006AB13E903000023C9E90233AD
:101220002378C9E9000143F002032370F8E66378EC
:1012300001228DF80A300DF10A0104A8FFF7AAFE79
:10124000EEE600BFA8880020A48800207488002053
:10125000000000009DF812B063789B4500F0998073
:101260006378002B40D02846FFF734FA4FF001098D
:1012700009204FF00C0E4FF0000CAD4EAD4F0EFBA1
:1012800000631B7A2BB303F07F08DB091A0106EB1E
:1012900003130192434493F87830F98E09FA03FA64
:1012A00089B221EA0A01F986002B3FD0A24A591ED1
:1012B00002EB4101A1F800C0A7F86430A7F868C0AC
:1012C0000EFB0363019A83F808C03244424482F85B
:1012D00078C00138D3D1012D01D1FFF709FAA678E2
:1012E0002846FFF7CDFDA670BBF1000F51D0237843
:1012F000DFF8849223F03003237099F801300B2B30
:1013000002BF99F8003099F803A0994499F8013088
:1013100018BF4FF0010A042B0CD04FF0E023D3F894
:10132000F03DDA077FF518AF00BE15E78349C1E746
:101330008146E2E70027824BA3EB09081FFA88F8F1
:10134000FEB23046FFF7A0FB0028E6D08368424695
:10135000494628469847082831D980452FD300228E
:1013600009E099F8027001323B4454FA83F3DF78C4
:10137000FF2FD2D1DE70D3B29A45F2D8714F4844D4
:1013800048450CD8704B1B78B342C6D36C4B98427F
:10139000CED384F801B004A8FFF760FD40E699F8C9
:1013A0000130052B07D199F8023003F07F0207EBDB
:1013B0004202DB09D65499F800309944E0E7624BC9
:1013C00001371A78FBB29A42BAD2A6E7BDF81230BA
:1013D0001A0AD8B2531E0E2B3FF6C5AE01A151F822
:1013E00023F000BF21140000431400005B14000030
:1013F0006711000067110000DD14000043140000B5
:1014000067110000671100006711000067110000FC
:101410006711000067110000671100002D14000023
:1014200012224A4904A8FFF7B5FDB3E6484B002B4A
:101430003FF499AEAFF30080014600283FF48CAE34
:1014400002E0022A02D143494A88EBE7424B002BD3
:101450003FF489AEAFF30080EEE770B902223F4956
:101460003F4801F071FA01204000821C3D4942F4DE
:1014700040730B8002F0FE02D4E705283FF673AEFE
:10148000394B3A4D53F820702B78BBB9384E29466A
:10149000D6F89000FFF706FAD6F8940005F1080197
:1014A000FFF700FAD6F8980005F11001FFF7FAF9F6
:1014B000D6F89C0005F11801FFF7F4F9384601F061
:1014C00058FA00222749C0B2D3B2834202F1010286
:1014D000CAD25D1CFB5C21F81530F5E7254B002BCB
:1014E0003FF441AEAFF30080014600283FF43BAE2D
:1014F000027897E7BDF81230012B7FF434AE2378E1
:1015000043F00803237046E7BDF81230012B7FF447
:101510002AAE23786FF3C303F4E72378C3F34012B2
:101520009B0803F0020313430222ADF80A3082E65F
:10153000DC8A002000101140701011406010114032
:10154000F02A0000BB880020A0880020F02A0000BC
:1015500000000000CC2A0000000000000E2A00005D
:101560007487002072870020B42A00003087002092
:101570000081000100000000D52A00009DF8143011
:101580000F2B3FF6F0AD2344D878FFF77DFA0146E4
:1015900000283FF4E8AD284604AAFFF791FA002896
:1015A0007FF43EAD9DF8103013F060037FF4DBADA7
:1015B0009DF81120A2F10A0101293FF6D4AD0A2AB3
:1015C000C9F810307FF4E7AE32E69DF8141001F050
:1015D0007F02092A3FF6C0AD04EB420707EBD117A3
:1015E000F87C0193FFF750FA019B82464FEAD11B2A
:1015F00056002BB100283FF4B6AD014604AAE8E539
:101600009DF8113003F0FD00012807D0002B7FF476
:10161000A3AD97F82730C3F3400385E7BDF8120068
:1016200000283FD17548012B07F120070078FB798E
:101630004AD19B0736D5A2B1714B03EB0B13134470
:1016400093F878306BB16F4F5B001F44FFF742F89F
:101650004FF480733B80BBF1000F04D001233B802B
:101660000EE0694FF2E7664B0B4493F87820674B26
:10167000A3F86420B3F86830C3F38133012BEDD1B4
:10168000012801D1FFF734F826445E4496F827304C
:101690006FF3410386F8273096F827306FF3000385
:1016A00086F82730BAF1000F3FF4BAAC514628460D
:1016B00004AAFFF705FA0023C9F8103094F828307F
:1016C000D8073FF5ADAC66E69F07EBD426445E44F1
:1016D000FFF714F896F8273043F0020386F8273016
:1016E00096F8273043F00103DAE79DF8101001F077
:1016F0007F0504EB450303EBD11393F827004FEA72
:10170000D11C6FF3000083F8270093F827006FF3D4
:10171000820083F82700002D50D13D4D9DF80C70BC
:101720002B78059EBCEBD31F18D046B14FF0E023B9
:10173000D3F8F03DDB077FF573AC00BE70E4354BAA
:101740001BB129463846AFF300802B69002B3FF4CC
:1017500067AC032138462E4A984761E495F900307A
:10176000A868002B06DB00283FF45AAC32462A4911
:1017700001F0EAF8AA68EB8932443344AA60EA88A7
:101780009BB29A42EB8101D03F2E14D82B6933B91A
:101790002878FFF75BFB00287FF442ACC6E7022104
:1017A00038461B4A984701460028F1D13846FEF7D3
:1017B000A5FF8021DFE4FFF7C5FBECE7D87CFFF74E
:1017C00063F948B94FF0E023D3F8F03DDA0700D5CC
:1017D00000BE07B0BDE8F08F0569059B9DF811209C
:1017E0009DF80C00A8471BE4237819E4049B002B08
:1017F0003FF416AC0598984712E400BFC0050020DE
:10180000DC8A00206E101140601011400010114061
:101810007488002000000000F086002008B50D4C00
:101820000D4E2568327823685B1B632B0CD9BFF300
:101830004F8F0A490A4BCA6802F4E0621343CB6037
:10184000BFF34F8F00BFFDE7FF2AECD0FFF7E4FBAB
:10185000E8E700BF648A0020C005002000ED00E03A
:101860000400FA057FB543780446023B032B12D8E7
:10187000DFE803F00226151D00212C4B1A786FF3C8
:1018800000021A701A786FF341021A7059701A78B0
:1018900061F382021A70264B2146186838E0234B08
:1018A0001A78D5073FD51A7842F00402F2E71F4AAA
:1018B0001378D80737D513786FF382031370EAE7EC
:1018C00000251C4EE8B2FFF7DFF820B1436913B1E1
:1018D00061682078984732780135EBB29A42F1D2AC
:1018E000124A137859071ED5137801A96FF38203A2
:1018F00013700023CDF80630CDF80A30ADF80E3065
:1019000023788DF8043005238DF80530084B1868CE
:101910000430FFF7E7FA30B94FF0E023D3F8F03D99
:10192000DB0700D500BE04B070BD00BFA888002052
:10193000A4880020A0880020A0F101000028FBD18D
:101940007047FFFF4FF47A734843A0FB0303064B35
:101950001A68064BB3FBF2F3B0FBF3F0800801D03A
:10196000FFF7EABF704700BF6C8A002000CA9A3BAD
:101970002DE9F04F8BB0FEF773FFBD4BC03053F82D
:101980002020BC4C6FF3104243F82020B4F84020D4
:10199000D34363F4784395B29BB21204A4F8403069
:1019A00014D5B4F8403013F0800FC3F3C01223886D
:1019B00000F0A28043F4807323804FF47A710A20F0
:1019C000FFF7C0FF238843F0100323806B0412D578
:1019D0000026052307A88DF81D30CDF81E60CDF830
:1019E0002260ADF826608DF81C60FFF73BFF238E68
:1019F00066F34D332386AF0415D5238E9E0412D58E
:101A00000026032307A88DF81D30CDF81E60CDF801
:101A10002260ADF826608DF81C60FFF723FF238E4F
:101A200066F34D332386E80407D505F07003202BB9
:101A300000F0C78063D8102B7ED02A0531D5EB0784
:101A400040F1DE80B4F840301F072AD54FF48043C0
:101A50006384B4F854300822ADF81430B4F856302A
:101A600005A9ADF81630B4F8583008A8ADF818300C
:101A7000B4F85A30ADF81A304FF6F773A4F8403086
:101A80000023CDF81E30CDF82230ADF826308DF889
:101A90001C3006238DF81D3000F056FF07A8FFF715
:101AA000E1FE6E0514D50022B4F84A30A4F84A20AD
:101AB000D8070DD5FEF784FD50B14FF4E0618022C8
:101AC0006D4B07A89B88CDE907120993FFF7CAFE63
:101AD000EA050ED5E38EB4F846704FF00C0ABFB29B
:101AE0001F40FB43644D9BB2A4F84630002F40F0EA
:101AF00097800BB0BDE8F08F62F3041365E7602BAD
:101B000004D017D805F06003402B96D10023CDF800
:101B10001E30CDF82230ADF826308DF81C3004236D
:101B200007A88DF81D30FFF79DFE238E43F4005368
:101B3000238682E7702BE8E701236387E3864FF46F
:101B40008043638400232385238D13F00F03FBD18F
:101B5000A385A28D12F00F02FBD101234FF4007771
:101B60004FF48076454846491FFA83FCA4F864C0C8
:101B7000A4F8682021F8137021F8132020F82360BE
:101B80000133062BF0D100264FF4007298B2A4F86E
:101B90006400A4F8686021F8132021F81360013371
:101BA0000A2BF3D100219822334800F0DAFE4FF4DB
:101BB00080710223CDE90713099607A8FFF752FEAB
:101BC0003BE7B4F85030DBB2002B3FF436AFADF852
:101BD000163000234FF4A0620693CDF81E30CDF8E6
:101BE0002230ADF826308DF81C300623ADF81420D5
:101BF00005A9082208A88DF81D3000F0A5FEDCE735
:101C000015F007027FF44DAF4FF4E061238CCDE96E
:101C10000712C3F34013DB018DF8203009923DE732
:101C200097FAA7F6B6FA86F60AFB06F3EA18117ACF
:101C30000193C90902F1080324D03046FEF7FAFCEB
:101C400080B10AFB06529388117AD2884FF4E06083
:101C50009B1A0022CDE9070207A88DF820100993EE
:101C6000FFF700FE0123B34027EA03073EE700BF6A
:101C70000060004000101140DC8A00208C101140F0
:101C80006E1011400393002E50D0B2F806B0B2B2DD
:101C900022853046A4F86420B4F86C90FEF730FC3E
:101CA000628D1FFA89F9C2F30B024A45134628BF19
:101CB0004B465B45029328BF5B469846019BE8581C
:101CC000B8F1000F0AD0039B5B78DB0723D50B46E6
:101CD000424633490190FEF73DFC0198C14584BF5F
:101CE0004FF48043638500232385238D1A07FCD19D
:101CF0000AFB0653ABEB0802C145DA8002D8029B0F
:101D00009B45AFD800230AFB06F16A186B54537049
:101D10009370D37094E7424621490390FEF711FC7B
:101D20000398019A00EB0803AB50D7E7B4F85E9034
:101D3000B5F806B009F07F09CB45D84628BFC8469C
:101D4000638CC3F30B03984528BF9846B8F1000F86
:101D500008D06B7A2868DB0713D533464246114911
:101D6000FEF7F8FBABEB0803C1459BB212D8C345A5
:101D7000EB807FF477AF00232B706B70AB70EB7050
:101D80005FE7424607490190FEF7DBFB01984044BC
:101D90002860E7E74FF480426284EB80EBE700BF06
:101DA0001810114014101140FFF7E2BDFFF7E0BD1D
:101DB00070B5FEF755FD1549154B0A7C53F82060A8
:101DC00004461007D1F88010D3B219D41A0619D4DA
:101DD000DB0619D511F4405F0CBF062507253046F8
:101DE00000F0DAFD0B4BC03453F8242029466FF382
:101DF000104243F824203046BDE87040FEF78EBD07
:101E00000425ECE70525EAE70725E8E700E07F4041
:101E1000E48800200060004038B5FEF721FD1D4B2E
:101E200053F820401C4BC03053F820206FF3104271
:101E300043F8202094F83450012D0CD1236BE3B1EA
:101E400000220421204600F0ABFD08B32046BDE887
:101E5000384000F0A1BD022D08D1256B6DB12046A0
:101E6000BDE838400022402100F092BD0B4B93F8B2
:101E7000D430012B14BF0225032500F099FD002367
:101E800084F8343029462046BDE83840FEF746BD88
:101E900038BD00BFE48800200060004000E07F40C3
:101EA000094B0A481A880A4B03EA8213094A03F5C8
:101EB0008033128852080263074AC0E90A230023CC
:101EC00080F8343000F070BDA0860020788A0020B1
:101ED0000080FFFF88880020A006002070B51378DE
:101EE000144603F01F02012A0D4640F00A8113F048
:101EF000600019D163780A2B0DD00B2B27D1012953
:101F000024D16288804B5A70FEF7F0FD2046BDE870
:101F10007040FEF7A3BF012918D10A467B4920462D
:101F2000BDE87040FFF736B8202840F0EA806378BB
:101F3000062B00F2E680DFE803F004321C520F1497
:101F40000F00012904D12046FEF788FF012070BD53
:101F50000329FBD1FFF762FC0129F7D1FEF7C6FD8B
:101F6000F1E70129F2D10A4620466949FFF712F844
:101F7000ECE70129EAD1644E337813F00200E6D091
:101F8000E588402D00F2BD8061882A46694306F14C
:101F90000C0000F0D9FC2A4606F10C01BFE701292C
:101FA000D4D159490B7813F00100D0D08B78022B93
:101FB00002D0052B40F0A580E388402B00F2A180E1
:101FC00001230B716388CB80E3880B81E2881AB10F
:101FD00003238B704F49A2E706238B7096E74A4A8A
:101FE0009178032905D0062956D0012DAED10023C2
:101FF00009E0012D0BD113793BB153780421002B5B
:1020000014BF64230023D27851E00521FBE7032DA0
:102010009CD11379002B3CD0042314899370D3886E
:102020003D4A138047F6C07203F5806312EA8312BB
:102030004FEA831115D172B6384B384883F83420F3
:1020400021F40013B3F5803FB8BF21F4FF514FF0E6
:102050000102B4BF21F01F0101F4FF0100F0ACFC4C
:1020600062B62F4D2F482B8822461844294900F08C
:102070006BFC2B881C44A4B2B4F5004F2C8005D116
:1020800072B6FFF70DFF62B600232B80FEF77AFDD4
:102090005CE70523937059E7012D0DD11379D278B0
:1020A000002B18BF07214FF0000308BF0221204674
:1020B000BDE87040FEF798BF032D7FF447AF13795A
:1020C000EBB10723937072B6FFF7EAFE62B6002603
:1020D000124CFEF757FD6368266093F91100B04279
:1020E00001DBFEF70BFC104D2E76636893F91300AD
:1020F000002801DBFEF702FC00232B7526E70223F4
:10210000C8E7002023E700BFA4860020A5860020A2
:10211000A6860020B0860020A0860020788A0020B5
:1021200088880020A006002000E07F408FB54FF493
:102130007002C14BC14CC3F88820C14AC14E9A609D
:102140004AF20353A4F8FE33FEF704FBBE4BBF4A2A
:10215000BF49C3E900624FF40042BE4FC3E9022108
:102160001A61BD4AC3E90572FEF708FB002384F833
:102170001334092384F8A23094F8803433B9012150
:1021800040F2C44084F88014FFF7DCFB0023AB4826
:1021900084F8813484F8803484F8323090F83C300C
:1021A0001D07FBD542F2017343F20212A0F848303A
:1021B000002380F84A30028580F82A3090F83C30BD
:1021C0009C06FBD50322A54B83F81C21052380F830
:1021D0002630A34B0362FEF7D1FA012380F830309A
:1021E00080F8523090F8743043F0400380F8743037
:1021F000924B93F87420D209FBD00622462183F833
:102200006C2083F8741083F8742093F87440E40908
:10221000FBD14FF42542A3F8FE23924B83F30A88A7
:102220009148924A2146121A00F09BFB9048914A2D
:102230009149121A00F088FB904E914DAD1BAD10E4
:10224000A54200F383820320FEF798FAFEF7E0FA36
:1022500000234FF6FF718B4C03F108020133092B69
:1022600024F81210F8D10320FEF7A6FA0320FEF797
:10227000CFFA6FF0FF02844B844D9A64FF210C2249
:1022800001A800F06EFB2E460023012736F8022B32
:102290006AB104A95A0901EB820252F80C1C03F03E
:1022A0001F0007FA00F021EA000142F80C1C01337C
:1022B000602BEBD10199744A754B1167C3F88012FA
:1022C000029903205167C3F8841203999167C3F8F8
:1022D0008812FEF771FA00236E4A03F1C00135F847
:1022E000020B0133602B42F82100F6D100266A4D23
:1022F00037462846B4464FF00109684B684A1A60D1
:102300000021B0F80480DFF8B0E13EF8023B9845C8
:102310000AD1026809FA01F302F0B852DBB2B2F155
:10232000807F0CBF1F431E4301310329EDD10CF107
:10233000010CBCF1030F00F10800E1D10120FEF710
:1023400067FA3E4A92F8BB343B4323EA060382F81D
:10235000BB34FEF731FAEFF31081012383F31088C9
:10236000504A136813B9E3704023E37013680133D4
:10237000136081F3108800264B48A9882F680B0A48
:1023800017F4803FC9B24FEA03130BD003EB010CE3
:1023900050F82CE06FF3104E40F82CE027F4803E0C
:1023A00040F82CE001360B44032E40F8237005F171
:1023B0000805E2D1EFF31081012383F3108813683D
:1023C00013B11368013B1360136813B9E3708023E2
:1023D000E37081F310884AF202531849334FA1F891
:1023E000FE33334B5A6822F400625A605A6822F472
:1023F00080525A604FF425434FF47A72A1F8FE33AD
:102400003B68B3FBF2F3013BB3F1807F0AD24FF09C
:10241000E022F0215361084B83F8231000239361DD
:1024200007231361054B234AD3F8001591424AF262
:102430000251A3F8FE1341E000ED00E000E001408E
:1024400000000000002D3101C405002000127A00B8
:1024500000366E0100C2EB0B001C4E0E00C00140A6
:1024600021120120788F0020E0050020748B0020CD
:1024700000000020C4050020382C0000C405002006
:10248000C4050020000D084000800040242B0000FF
:1024900000E100E000600040102A0000708A002087
:1024A00054524F50688A0020000808406C8A00206F
:1024B0000040084035817307E42B000040F0808124
:1024C0000022C3F800254FF42542A3F8FE23A24DB5
:1024D000DFF8E8822B6843455ED04023EB609F4BDA
:1024E00000266B6001239E4A2B74AA606E61C5E9C9
:1024F0000666EFF3108183F310889A4B1A6922F075
:1025000000721A611B6981F310884FF42542AB6891
:1025100044F64B401A604FF40003AC683246E66262
:10252000E663A664E3624FF0004323616361A36145
:1025300049F695036662A662E6612662A366636653
:102540004FF0FF3301A9CDE90136FEF7E3FB019B14
:1025500030466365A365029BFF211A0642EA0342E7
:10256000FEF732FB4FF4AA03A663C4F88860236425
:10257000EB68E36042F0030342F00102606323630F
:1025800030462263FEF728FB3146FEF725FB314635
:10259000FEF722FBC5F8008044F61F6344F6206274
:1025A00069680878032898BF1A46AB689A66097864
:1025B00019B942F20F7159659965D96AC80705D4EE
:1025C0005A664FF4AA021A64EA68DA6000210846E3
:1025D000FEF7D8FB2B686449434504BFD5E90232B6
:1025E0005A60624B62484B6000230376037581F8A2
:1025F000343001235F4D85F816342C6A3B68C4F3F0
:10260000026203FA02F2C4F30274E2402C6AC4F3D9
:102610000264A340E340584CA2423ED9574C02F515
:10262000742202F23F22B2FBF4F203F5742302F5A6
:10263000F05292B203F23F23A0F8E420B3FBF4F38C
:1026400043F6B85006225843B0FBF2F0886040F6DB
:10265000D8605843B0FBF2F0C8605800B0FBF2F00D
:10266000086154205843B0FBF2F048614448584395
:10267000B0FBF2F0886144F250605843B0FBF2F0D6
:10268000486240485843B0FBF2F008623E4843437A
:10269000B3FBF2F3CB613D4B0B6033483C4D00F094
:1026A0007BF901220221304800F06EF92B78FF2BD4
:1026B00027D13B220021374800F053F90023364A46
:1026C0005382938213895B009BB2591E5B42D38174
:1026D000324B11821A60324B23B13248AFF3008083
:1026E000314B186000242F4EE0B2FEF7CDF90028E0
:1026F00040F0B4804FF0E023D3F8F03DD90700D587
:1027000000BEDFF8B480294F294E2B78FF2B01D073
:10271000FEF782FCD8F800203B68D21A632AF4D96D
:1027200034686433002120463B60FEF72BFB214BCD
:102730001A78002A00F0F280B4F5FA6F80F0EA808F
:1027400000221A704FF4FA633360DEE756F8043B58
:102750009847013474E500BFBC8A0020002C0000BB
:102760000096164000400840788A0020EC2B0000BC
:1027700000E07F4000E00140FF083D0040420F00C4
:1027800038AF040080DE0F00A0F703004E45504F25
:10279000C0050020A8880020A8050020A4880020EB
:1027A00000000000A08800209C880020988800205D
:1027B0009488002092880020648A002054504700AA
:1027C000C3F800254FF42542A3F8FE235A4A1368A4
:1027D000B3F5FA7FFBD34AF2025200254FF42546A7
:1027E0004FF480345548A0F8FE23C0F80055A0F8F7
:1027F000FE63236803F07F43B3F1005F7FF467AEAD
:10280000A0F8FE23EFF3108C012181F310884C4BCC
:102810005A6842F400625A605A688CF31088EFF3E9
:10282000108C81F310885A6842F480525A605B68B9
:102830008CF31088A0F8FE6385F30A8872B6BFF3A4
:102840004F8FBFF36F8F4FF0E0231D61C3F8084D2A
:10285000236883F308886368984738E603689847D5
:1028600001343278E3B29A42BFF43EAF0120354CD6
:10287000287023884FF47A7143F080032380E38F1C
:102880006FF30003E387FFF75DF8E38F6FF3410316
:10289000E38723886FF345132380238843F00103E4
:1028A0002380B4F8023143F48043A4F80231E38872
:1028B000DA07FCD50123228C402163F38B2222848A
:1028C000228D63F38B222285A28D63F38B22A28556
:1028D0000022A4F84020B4F85E2061F30602A4F8B8
:1028E0005E204FF45D4222866387E386B4F8403071
:1028F0001B060CD523884FF47A7143F48073238030
:102900000A20FFF71FF8238843F010032380FDF708
:10291000EFFEF6E6A4F5FA643460F6E644F61F62CC
:1029200004F5FA64944234607FF6EFAE01221A7027
:1029300044F6206308E700BF648A002000E00140FD
:1029400000400840001011400A44431E914200D14B
:10295000704710B511F8014B914203F8014FF9D1BE
:1029600010BD02440346934200D1704703F8011B97
:10297000F9E7034613F8012B002AFBD1181A013896
:102980007047FFFFFFFFFFFF5FF800F0B504002076
:102990005FF800F0750100205FF800F0E100002012
:1029A0005FF800F0B50100205FF800F06D03002033
:1029B0005FF800F0010000205FF800F0FD03002048
:1029C00000000603332E362E30004275696C7420E9
:1029D000776974682052656E65736173204164760F
:1029E000616E63656420466C657869626C6520532E
:1029F0006F667477617265205061636B61676520F3
:102A000076657273696F6E20332E362E300009049E
:102A1000000C011301050000000C0114010B000063
:102A2000000001030004000001000000000000009D
:102A30000000000000000000000000000000000096
:102A40000000000000000000000000000000000086
:102A5000000000000000000041726475696E6F00A4
:102A6000506F7274656E746120483333204446554C
:102A70000040436F6465466C617368202F30783086
:102A8000303030303030302F382A384B612C3633EC
:102A90002A33324B67004044617461466C6173684D
:102AA000202F307830383030303030302F382A31E5
:102AB0004B6700FF0E2A0000582A0000602A000021
:102AC00030870020712A0000962A000009022400A5
:102AD00001010080320904000000FE010204090423
:102AE000000100FE010205092107E8034000010181
:102AF00012010002000000404123680300010102AE
:102B00000301FFFF0D0B0000FD0A0000150B000084
:102B1000DD1E0000000000000000000001000200B7
:102B2000080010006D006E006B006C007F017D01DD
:102B30007E013100300000000000000000000000B5
:102B40000000000000000000000000000000000085
:102B50000000000000000000000000000000000075
:102B60000000000000000000000000000000000065
:102B70000000000000000000000000000000000055
:102B80000000000000000000000000000000000045
:102B90000000000000000000000000000000000035
:102BA0000000000000000000000000000000000025
:102BB0000000000000000000000000000000000015
:102BC0000000000000000000000000000000000005
:102BD00000000000000000000000000000000000F5
:102BE00000000000020403040404FFFF00000000D2
:102BF000AD0B00000000000000000000020702080A
:102C00000200000096980000010000004B4C0000FC
:102C100006FF00000000000000000000282A00005D
:102C2000210A000051090000430500008D09000041
:082C30006F0900001905000006
:102C38004FF42A4110B500204FF49644104AB2F8D8
:102C48008430A2F884109BB2B2F8841089B241B9DA
:102C5800012B0CD14DF60113A2F8443000F0A8FA6C
:102C680010BD002C08BF4FF4FA70013CECE7802B34
:102C7800F6D10122034B5A605A68002AFCD1EFE7CB
:102C880000E07F40007000404FF49643B32282B0CA
:102C980001930C4B1A700C4AD2F880301B0408D5EB
:102CA800137C40F2F51013F0100F08BF002002B09B
:102CB8007047019B1BB1019B013B0193ECE714207A
:102CC800F5E700BF00007E4000E07F404FF49643E8
:102CD800502282B001930C4B1A700C4AD2F8803003
:102CE8001B0408D5137C40F2F51013F0100F08BF31
:102CF800002002B07047019B1BB1019B013B01936F
:102D0800ECE71420F5E700BF00007E4000E07F40BC
:102D180073B5436805461A7842B193F9110000F07B
:102D28004FFA6B6893F9130000F04AFA1C4CB4F898
:102D380084309BB27BB1FFF7A7FF0646FFF7C6FFBB
:102D480004463EB3FFF774FF34460023204685F857
:102D5800343002B070BD4FF4964301936B681A7813
:102D680042B193F9110000F027FA6B6893F9130048
:102D780000F022FA4AF68023A4F88430B4F88430AC
:102D88009BB2802BD7D0019B002BD4D0019B013B59
:102D98000193F3E7FFF74CFF002C08BF0446D4E784
:102DA80000E07F4030B52025836A0C4C23630C4B30
:102DB8001D70D0251D70836A0B448362036B013B31
:102DC8000363104612B930BD30B10138D4F88030F1
:102DD8001B04F9D50020F6E71420F4E700E07F4053
:102DE80000007E400346F7B5E82510461A4CDA6A1B
:102DF8004E082263194AC1F347011570117000216A
:102E08008E4208D1D0231370F8B1D4F880301B0457
:102E18001DD5002019E01D6901959D6A2D88158032
:102E2800D4F880506D050AD49D6A013102359D623F
:102E3800DD6A0235DD621D6B013D1D63E0E7019D22
:102E48006F1E0197002DEBD1142003B0F0BD0028B0
:102E5800FAD00138D9E700BF00E07F4000007E408B
:102E680010B5134B14461A7CD20606D4D3F880301A
:102E7800194214D150B9002010BDD3F88020520453
:102E880009D4D3F88030194209D168B10446FFF754
:102E9800FBFE2046F0E71A7C00221A74F1E70028AE
:102EA800F4D1002CF3D1E6E740F2F514EFE700BFC8
:102EB80000E07F40402213B5836910480193104B0E
:102EC80001631A7008221A7000220E4931F8024B69
:102ED8000132082A1C80F9D1D0221A70D0F880302B
:102EE8001B0402D5002002B010BD019B1BB1019B41
:102EF800013B0193F2E71420F5E700BF00E07F40B3
:102F080000007E40980500206FEA415110B56FEA35
:102F180051514FF6FF74074B42EAC03242F4F04277
:102F28001C805C80DA8099801C815C819C81DC81BA
:102F380010BD00BF980500204FF49643002213B53A
:102F48000193144B04461A6043681A7842B193F906
:102F5800110000F035F9636893F9130000F030F9B7
:102F68004FF459430C4AA2F844304AF60123A2F818
:102F78008430B2F884309BB2012B02D1002002B019
:102F880010BD019B1BB1019B013B0193F1E74FF47D
:102F9800FA70F4E70070004000E07F4038B505465D
:102FA800FFF7CAFF044660B1204638BD8021AA68F1
:102FB8002846FFF717FF18224FF4A041FFF750FFEC
:102FC80004462B6B2BB9FFF733FE002C08BF0446D1
:102FD800EAE7002CEAD0FFF72BFEE5E710B5104B27
:102FE8000446D3F890310F4803F00703DB430E2261
:102FF80020F8023BFF2100F0D7F82046FFF79CFF9E
:1030080020460949FFF756FF18220021FFF728FF3D
:103018000446FFF70DFE002C18BF204610BD00BF68
:1030280000A000019805002090A1000138B5816238
:1030380002630546FFF780FF044650B90122144B8E
:10304800A3F8E0202B6BEBB9FFF7F2FD002C08BFCB
:103058000446204638BDAB6AD5E9072123F400139E
:10306800B3F5803F2ABF0A464FF400514FF40041A0
:103078002846FFF797FE19224FF4C041FFF7F0FEEC
:103088000446DFE7002CE6D0FFF7D2FDE1E700BFFA
:1030980000E07F402DE9F041104B0546D3F8DC6095
:1030A8000F469046FFF748FFF60F044698B94FEAD7
:1030B80058323046790BFFF727FF09492846FFF7B2
:1030C800F9FE21461822FFF7CBFE0446FFF7B0FDB4
:1030D800002C08BF04462046BDE8F08100E07F4090
:1030E80030A10001F8B506460D461746FFF724FF44
:1030F800044630BB3FB1144B45F4CC45A3F8E85027
:10310800BDE8F84094E51022FF21104800F04CF883
:103118004FF6FF7215F0010F47F6FF7308BF13460D
:103128000A4A0B493046D380FFF7C4FE21461822CD
:10313800FFF796FE0546FFF77BFD002D14BF2C46D2
:1031480004462046F8BD00BF00E07F4098050020F7
:1031580030A10001F8B506460F461546FFF7ECFE0C
:103168000446D0B90F4BE118CDB13A590434102CAC
:103178000A60F8D115B1DA891543DD814AF2501198
:103188003046FFF797FE18220021FFF769FE044634
:10319800FFF74EFD002C08BF04462046F8BD4FF04F
:1031A800FF32E3E7980500205FF800F0632900008C
:1031B8005FF800F0550700005FF800F0C90800004C
:1031C8005FF800F0FD080000FFFF000000000000AD
:1031D8000000000000000000D10A0000E005002007
:1031E80010000C000000E0FF1F00000000000000BD
:0431F800FF000000D4
:040000030000212DAB
:00000001FF
