:10000000289C0020C50F000039120000C10F00001D
:10001000C10F0000C10F0000C10F0000C10F0000A0
:10002000000000000000000000000000C10F000000
:10003000C10F000000000000C10F000025160000E5
:100040007D1500009D150000A1150000A5150000FC
:10005000511500007515000079150000FD1D000008
:10006000911D0000000000000000000000000000E2
:100070000000000000000000000000000000000080
:100080000000000000000000000000000000000070
:100090000000000000000000000000000000000060
:1000A0000000000000000000000000000000000050
:1005000018B143000248184470470248704700BFC2
:100510006E10114060101140044A138D03F00F0358
:100520008342FAD1538D9B04FCD5704700101140D3
:10053000034670B522F001040519AB4209D122F03F
:100540000103A2421FBFC25CCB7862F30703CB70EA
:1005500070BD33F8026B4E80EFE70244904200D149
:1005600070470B7800F8013BF8E7FFFF2DE9F04FEB
:1005700098460C23154603FB08F3164E85B08946B2
:1005800006EB030A01A9F35807469847BDF8044053
:100590004946AC4228BF2C46DAF808B022460298F9
:1005A000D8472C1B0AD0BDF806A04946A24528BF53
:1005B000A24603985246D847A4EB0A040C2303FB37
:1005C0000863291B38465B6889B2984705B0BDE8C7
:1005D000F08F00BFA84C00002DE9F041184CE588D1
:1005E00035B9012025706570A570E570BDE8F08112
:1005F000DFF854802E46B8F85E7007F07F07BD42E2
:1006000028BF3E4646B1637A2068DB0710D5012338
:1006100032460C49FFF7AAFFBE4238BF4FF40043F1
:10062000A5EB060538BFA8F822300020E580DDE7FD
:1006300032460449FFF77CFF30442060ECE700BFFE
:100640000806002014101140001011402DE9F04759
:100650004FF00C0808FB00F8214D814605EB08011E
:10066000CC883CB9012005F808404C708C70CC70E7
:10067000BDE8F0871B4F83B243F480623A85A7F848
:100680006430B7F86CA0FFF747FF1FFA8AFA5445A9
:10069000264628BF56464EB14B7A55F80800DB0770
:1006A00016D5012332461049FFF760FF56453CBF7F
:1006B0004FF400437B8500233B853B8D13F00F03F4
:1006C000FBD10C2202FB0950A41BC4801846CFE7C3
:1006D00032460549FFF72CFF304445F80800E5E7AE
:1006E0000806002000101140181011402DE9F041BB
:1006F000064611F07F001C4638D1484D01B34FF437
:1007000084632B842B8C9B06FCD5454B587A9C80AC
:1007100066F300005872DC80FCB11A60C9B1B5F80C
:1007200060301E0403D5B5F854301C060FD44FF0CA
:10073000E023D3F8F03DD80707D40020BDE8F081CE
:1007400029842B8C9F06FCD4DFE700BEF5E7FFF77A
:1007500043FF0120A5F86000F0E71C705C709C70FE
:10076000DC700523A5F860300120E7E72C4FC909AC
:1007700007EB0113034493F8780038B94FF0E023F6
:10078000D3F8F03DD907D8D500BED7E70C254543AF
:100790007B1993F809C07A5166F3000C83F809C0FD
:1007A0009C80DC8081B114B1FFF750FFDCE71B496E
:1007B00083B20B85FFF7B0FE4FF400434B850C85E9
:1007C0000B8D1A07FCD1CFE7451E042DCCD8134B57
:1007D00082B2A3F86420B3F86C80FFF791FE03881F
:1007E000104E9B074FF480731FFA88F818BF0180E2
:1007F00026F8253008F1FF332344B3FBF8F3024613
:1008000001209BB206EB85077B8036F8253043F448
:10081000007326F82530108090E700BF00101140CB
:100820000806002090101140012802D11022014B2F
:100830001A60704700E100E0012807D11022044B44
:10084000C3F88020BFF34F8FBFF36F8F704700BF97
:1008500000E100E07047FFFF10B5074C4FF47A71DC
:1008600023880A2043F48073238000F0BFFC238890
:1008700043F01003238010BD0010114038B5244C04
:10088000054623884FF47A7143F080032380E38F79
:1008900001206FF30003E38700F0A8FCE38F6FF300
:1008A0004103E38723886FF345132380238843F0B4
:1008B00001032380B4F8023143F48043A4F80231E9
:1008C000E388DA07FCD50123228C402163F38B22D5
:1008D0002284228D63F38B222285A28D63F38B22E7
:1008E000A2850022A4F84020B4F85E2061F306023D
:1008F000A4F85E204FF45D4222866387E386B4F855
:1009000040301B0602D52846FFF7A6FF38BD00BFC2
:1009100000101140024B1A886FF304121A807047BE
:10092000001011402DE9F843CD78B1F8049005F09E
:100930000305012D0646C9F30A0904D1B9F5807FE4
:1009400017D900205CE0032D62D0022DF9D13A4B7B
:1009500093F82C20002A55D093F83820002A53D041
:1009600093F84420002A51D01B7D002BE9D10124AB
:1009700008E0314B1A7D002AF9D093F82030002B83
:10098000DFD102240C222C4B897802FB0432CF09E0
:1009900001F07F0803EB071343441172304683F8DC
:1009A0007840FFF749FF254AA3B2A2F864302046F9
:1009B000A2F86C90FFF7A4FD4FF44073038000236E
:1009C0003901022D038041EA08032DD143F4854308
:1009D000012101FA04F49BB2A4B2A2F8683084F4B5
:1009E000FF734B40A2F84630D38E9BB21C43D48693
:1009F0000FB9022D00D001803046FFF715FF01200E
:100A0000BDE8F8830324BDE70424BBE70524B9E768
:100A100006240C22084B02FB0430007A0028B1D0D7
:100A200001340A2CF7D18CE7032D0CBF43F40043AB
:100A300043F44243CCE700BF0806002000101140F9
:100A4000012038B5CA0901F07F030F490F4D01EBB2
:100A500002121A4492F87840EB8EA0409BB223EA2F
:100A60000003EB862046FFF74BFD00230380A0B276
:100A7000A5F864000C2000FB0411A5F868300B7287
:100A800082F8783038BD00BF080600200010114001
:100A9000F8B5FFF7D1FE04460A250C27084E013DA4
:100AA00004D12046BDE8F840FFF7BEBE07FB056352
:100AB000197A0029F3D02046FFF7C2FFEFE700BF05
:100AC0000806002013B50446CDE90032FFF7B4FE56
:100AD000DDE900320020FFF709FE01462046FFF75E
:100AE000A3FE084602B010BD024611F07F0008B513
:100AF00019D00E4BC90903EB0113034493F8780096
:100B0000FFF7FEFC014680B11046FFF795FE0B880B
:100B100003F0030343F002030B8002230B80BDE8C4
:100B20000840FFF781BE0249EEE708BD0806002035
:100B30006010114011F07F0270B505464FEAD116E2
:100B400013D0144B03EB0613134493F87800FFF70C
:100B5000D7FC0446E8B12846FFF76EFE4FF48073D9
:100B6000238026B1012323800EE00B4CF3E7094BD1
:100B70000B4493F87820094BA3F86420B3F868304D
:100B8000C3F38133012BEDD12846BDE87040FFF758
:100B90004BBE70BD080600206010114000101140CF
:100BA0002DE9F04FB94C0646B4F840208BB0D34342
:100BB00063F478439BB2A4F84030130495B206D591
:100BC000B4F840301F0640F19D80FFF745FE6804F1
:100BD00010D500270523012107A8CDE9077709973C
:100BE0008DF81D308DF81C6001F09AFF238E67F39D
:100BF0004D332386A90413D5238E9A0410D50027DC
:100C00000323012107A8CDE9077709978DF81D3047
:100C10008DF81C6001F084FF238E67F34D3323862B
:100C2000EB0408D505F07003202B00F0D0806CD8C1
:100C3000102B00F085802F052FD5E80740F1E480C8
:100C4000B4F84030190728D54FF480436384B4F8D2
:100C500054300822ADF81430B4F8563005A9ADF878
:100C60001630B4F8583008A8ADF81830B4F85A3037
:100C7000ADF81A304FF6F773A4F840300023CDE9F1
:100C80000733099306238DF81C608DF81D3002F0A0
:100C9000EDFF012107A801F043FF6A051AD50027DF
:100CA000B4F84A30A4F84A70DB0713D5FFF794FC78
:100CB00080B10722764B01219B88CDE907778DF81B
:100CC0001D20802207A88DF81C608DF82020099334
:100CD00001F026FFE80512D5E38EB4F846806C4D8E
:100CE0001FFA88F808EA03086FEA0803DFF8ACB1D6
:100CF0009BB2A4F84630B8F1000F40F098800BB0DA
:100D0000BDE8F08FFFF706FE61E7602B04D015D831
:100D100005F06003402B8ED10023CDE90733099302
:100D20000423012107A88DF81D308DF81C6001F007
:100D3000F7FE238E43F4005323867CE7702BEAE70B
:100D400001236387E3864FF4804363840023238574
:100D5000238D13F00F03FBD1A385A28D12F00F0298
:100D6000FBD101234FF4007C4FF4807749484A4976
:100D70001FFA83FEA4F864E0A4F8682021F813C0E9
:100D800021F8132020F823700133062BF0D100271F
:100D90004FF4007298B2A4F86400A4F8687021F8C7
:100DA000132021F8137001330A2BF3D1002198226C
:100DB000374802F068FF0121CDE9077709978DF8E0
:100DC0001C608DF81D1007A801F0AAFE33E7B4F8E7
:100DD000503013F07F033FF42EAFADF816300023F0
:100DE0004FF4A062CDE90633CDE908330623ADF810
:100DF000142005A9082208A88DF81C608DF81D3064
:100E000002F034FF0121DEE715F007027FF445AF61
:100E10000721238CCDE90722C3F340138B408DF8C3
:100E20001C608DF81D108DF82030099231E798FA7A
:100E3000A8F74FF00C0AB7FA87F70AFB07FA05EB99
:100E40000A02137A02F10801DB0929D03846FFF7BC
:100E5000FDFBA8B10C2303FB07539A88197ADB88A2
:100E600007A8D31A0022CDE9072207228DF8201007
:100E700001218DF81C608DF81D20099301F050FEB2
:100E80000123BB4028EA030835E700BF00101140EA
:100E9000080600208C1011406E10114018101140EF
:100EA0000393002F52D0D388BAB200932285A4F8BE
:100EB0006420B4F86C20384693B20193FFF72CFB02
:100EC000628D019BC2F30B029A4228BF1A46009B17
:100ED0000292934228BF134655F80A0099464BB137
:100EE0004A78D10727D5039B4A4659460390FFF716
:100EF0003DFB0398019B4B4584BF4FF480436385C2
:100F000000232385238D1A07FCD10C2303FB0752F2
:100F10000099A1EB0901D180019A4A4503D8029AB0
:100F200000998A42ACD300227B43E918EA544A7004
:100F30008A70CA708DE71A4659460390FFF70DFB79
:100F4000039800EB090345F80A30D3E7B4F85E9044
:100F5000B5F806A009F07F09CA45524628BF4A469F
:100F6000638CC3F30B039A4228BF1A464AB16B7ACB
:100F70002868DB0718D53B4610490092FFF7F6FAC0
:100F8000009A914584BF4FF480436384AAEB020327
:100F90009145EB8002D892457FF472AF00232B700D
:100FA0006B70AB70EB7055E7044901920090FFF74E
:100FB000D4FADDE9000210442860E2E71410114081
:100FC00000BE704708B500F005F800F065FCFEE7CC
:100FD0007047FFFF4FF47002224B70B5C3F88820B2
:100FE000214A00209A60FFF7F3FF00F065F8012026
:100FF000FFF7EEFF1D4B83F30A881D481D4A0021B1
:10100000121A02F040FE1C481C4A1D49121A02F036
:101010002DFE00261B4D1C4C641BA410A6421CDB9D
:1010200000F036F8032000F09BF900234FF6FF7024
:10103000164A03F108010133092B22F81100F8D1F7
:10104000032000F061F90220FFF7C2FF00F010F961
:10105000BDE87040002000F071BA55F8043B984795
:101060000136DBE700ED00E00000000028980020DA
:10107000080600202494002000000020EC05002039
:1010800057500000EC050020EC050020000D084042
:10109000064B93F826101A6A054BC2F3026253F806
:1010A0002130D340034A1360704700BF00E0014085
:1010B000EC050020A00600204AF2035238B53E4B52
:1010C000A3F8FE230122A3F50053A3F80421B3F8EB
:1010D0000451ADB2002DFAD10120A3F80001374B25
:1010E00037499860374A1860374B384CC3E90012CB
:1010F0004FF4004236491A61C3E90221354AC3E977
:101100000542FFF7C5FF09232B4C84F8135484F8DC
:10111000A23094F8803433B9014684F8800440F258
:10112000C44000F063F80023234884F8813484F835
:10113000803484F8323090F83C301A07FBD542F204
:10114000017343F20212A0F84830002380F84A30BD
:10115000028580F82A3090F83C309B06FBD50322AC
:101160001D4B83F81C21052380F826301B4B03629E
:10117000FFF78EFF012380F8303080F8523090F86E
:10118000743043F0400380F874300B4B93F87420B4
:10119000D209FBD00622462183F86C2083F8741014
:1011A00083F8742093F87420D209FBD14FF42542C0
:1011B000A3F8FE2338BD00BF00E0014000700040EE
:1011C000002D310100127A00EC05002000C2EB0B6B
:1011D00000366E01001C4E0E00C00140211201209D
:1011E000A0F101000028FBD17047FFFF10B4104BA5
:1011F000104A1B684843B2FBF3F24FF47A73A0FB2A
:1012000003143CB9B1FBF2F3980868B15DF8044BE4
:10121000FFF7E6BF9200B0FBF2F0A0FB0303002B48
:10122000F3D04FF0FF30F1E75DF8044B704700BF9B
:10123000A006002000CA9A3B70B500240A4B0B4E52
:10124000B3F84051ADB225FA04F3DB07E0B203D5A1
:1012500056F8243003B198470134102CF3D1024BD7
:10126000A3F8305170BD00BF00600040A40600200C
:101270007FB5032000F074F86FF0FF021E4B1F4C87
:101280009A64FF210C2201A802F0FDFC25460023F0
:10129000012635F8022B6AB104A95A0901EB820232
:1012A00052F80C1C03F01F0006FA00F021EA0001BE
:1012B00042F80C1C0133602BEBD101990E4A104B04
:1012C0001167C3F88012029903205167C3F8841292
:1012D00003999167C3F8881200F016F80023094AB1
:1012E00003F1C00134F8020B0133602B42F82100F6
:1012F000F6D104B070BD00BF00800040284D000052
:1013000000E100E00060004010B5EFF31081012320
:1013100083F310880F4A32F810309BB22BB132F8A9
:101320001030013B9BB222F8103032F810309BB2E3
:1013300063B9094A094CB2F8FE3334F810009BB285
:1013400043F4254323EA0003A2F8FE3381F3108817
:1013500010BD00BF6808002000E00140C04C000044
:1013600030B5EFF31084012383F310880D4A32F86F
:1013700010309BB263B90C490C4DB1F8FE3335F80F
:1013800010509BB22B4343F425439BB2A1F8FE338C
:1013900032F8103001339BB222F8103084F31088F9
:1013A00030BD00BF6808002000E00140C04C0000D4
:1013B00008B50B4A0346116809B90A49116010685B
:1013C0000333094923F0030303448B4206D902F097
:1013D00047FC0C2303604FF0FF3008BD1360FCE7AF
:1013E000700800202894002028980020EFF3108037
:1013F000012383F31088064B196819B9054AD17087
:101400004021D1701A6801321A6080F31088704749
:10141000E4060020000D0840EFF31081012383F360
:101420001088074B1A6812B11A68013A1A601A68D4
:101430001AB9044BDA708022DA7081F31088704791
:10144000E4060020000D0840030A11F4803F30B587
:10145000094AC0B24FEA03130AD01C1852F82450AC
:101460006FF3104542F8245021F4803542F824509F
:10147000034442F8231030BD000808402DE9F8432A
:1014800000254FF001082C462B46B0F800E09E45A1
:101490000FD80120FFF764FF144B012093F8BB2401
:1014A000144324EA050483F8BB44BDE8F843FFF77E
:1014B0002BBF00224168DFF838C001EBC301B1F84F
:1014C00004903CF8026BB1450AD10F6808FA02F6A5
:1014D00007F0B857F6B2B7F1807F0CBF34433543FD
:1014E0000132032AEDD10133D1E700BF00E0014012
:1014F000C84C000038B505460024FFF7BFFFFFF7D2
:1015000075FF2A88A3B29A4203D8BDE83840FFF796
:1015100083BF6B68A2B203EBC20053F8321080881D
:10152000FFF792FF0134ECE708B5034B0360084670
:10153000FFF7E0FF002008BD54524F5070470846A7
:10154000114600F06DB80846114600F067B8FFFF7D
:10155000EFF30383103B064A5BB2C03352F823100B
:1015600000206FF3104142F82310FFF719BB00BFB2
:1015700000600040FFF7ECBFFFF7EABFEFF3038323
:10158000103B054A5BB2C03352F823106FF3104191
:1015900042F82310704700BF00600040FFF7EEBF25
:1015A000FFF7ECBFFFF7EABF08B516491648FFF78B
:1015B000BBFF4AF202531549A1F8FE33144B5A6897
:1015C00022F400625A605A6822F480525A604FF442
:1015D00025434FF47A72A1F8FE330E4B1B68B3FB20
:1015E000F2F3013BB3F1807F0AD24FF0E022F02109
:1015F0005361094B83F82310002393610723136180
:1016000008BD00BFD04C00007408002000E001407D
:1016100000400840A006002000ED00E000207047D8
:1016200000207047024A136801331360704700BFFF
:101630007C080020014B1868704700BF7C08002020
:1016400010B50378012B07D1044C238823B1002067
:1016500002F0ECFA0023238010BD00BF8288002036
:101660004AF20253174930B4A1F8FE33EFF3108564
:10167000012484F31088144B5A6842F400625A60C3
:101680005A6885F31088EFF3108584F310885A6840
:1016900042F480525A605B6885F310884FF425430A
:1016A000A1F8FE33002383F30A8872B6BFF34F8F8D
:1016B000BFF36F8F054B9860036883F30888436816
:1016C00030BC184700E001400040084000ED00E059
:1016D0007047704770477047042904D100280CBF39
:1016E00000206420704700207047FFFF064B074A28
:1016F0001B88074902EA8312064B07481B8802F53C
:10170000803200F0BFBA00BF800800200080FFFFD9
:1017100082080020828800208888002070B5164644
:1017200047F6C0721C46144B198001F5806312EA1B
:1017300083124FEA831105D172B601220F4800F0DF
:10174000D9FA62B60E4D0F482B882246184431460E
:1017500002F08CFA2B881C44A4B2B4F5004F2C8004
:1017600005D172B6FFF7C2FF62B600232B800020BE
:10177000BDE8704002F05ABA800800208888002036
:10178000828800208208002008B5074802F084FA09
:1017900072B6FFF7ABFF62B6002002F047FABDE871
:1017A0000840024800F060B9E84D00008888002039
:1017B00010B51C46104659431A4602F057FA204607
:1017C00010BDFFFF014802F067BA00BF124E0000D3
:1017D00010B50F4802F060FAFFF72CFF0446FFF740
:1017E00029FF031B632B0CD9BFF34F8F09490A4B09
:1017F000CA6802F4E0621343CB60BFF34F8F00BFAF
:10180000FDE700214FF0FF3001F0F6FAE7E700BFF7
:101810002A4E000000ED00E00400FA0510B5114B5F
:10182000114C1A682168114800F0B0FB104A137877
:101830005BB12368B3F5FA6F3DBF002313704FF41B
:10184000FA63A3F5FA63236010BD44F61F612368B1
:1018500003F5FA638B422360F6D90123137044F633
:101860002063F0E740050020CC880020D0880020CD
:101870008488002008B5FFF7DDFE064A1368C01A09
:10188000632805D964331360BDE80840FFF7C6BF7D
:1018900008BD00BFF088002010B5244CFFF784FE7F
:1018A000D4F8482F224B9A422BD10023C4F8483F4A
:1018B0002049214800F020FC44F620611E4800F039
:1018C000D9FB1E4B00211A681B4800F05FFB1A4829
:1018D00000F0F2FA1A491B4800F092F9194800F09A
:1018E000CFF901220221174800F050FA012001F03F
:1018F000CFF800214FF0FF3001F07EFAFFF7BAFF7A
:10190000F7E7C4F8483FFFF795FEB0F5FA7FFAD342
:1019100000234FF48030C4F8483F036803F07F434E
:10192000B3F1005FC4D1FFF79BFEC1E70080012047
:1019300035817307984E0000D088002040050020B4
:10194000544E00008888002010B501F1080400F012
:101950000F02D3B2092ACCBF3733303304F8013D2C
:10196000A1424FEA1010F2D110BDFFFF00487047AE
:101970007B4F000000487047154F000070B568B9F4
:101980001F4B022219681F4802F070F9012301332E
:101990001D485B0043F44073038070BD05282DD8BB
:1019A000174B1A4C53F820602378BBB9184D2146C9
:1019B000D5F89000FFF7C8FFD5F8940004F10801AE
:1019C000FFF7C2FFD5F8980004F11001FFF7BCFF44
:1019D000D5F89C0004F11801FFF7B6FF304602F07D
:1019E00073F90022C3B20848D1B28B4202F101025E
:1019F000CDD94C1C715C20F81410F5E70020CCE721
:101A000044050020F6880020F4880020F489002096
:101A1000008100010B4B00F1C00253F822106FF35C
:101A2000104143F82210012200F01F039A4043099D
:101A30009B0003F1604303F56143C3F880211A6002
:101A4000704700BF0060004001220649430900F0D2
:101A50001F008240203341F82320BFF34F8FBFF394
:101A60006F8F704700E100E070B5002643680660A4
:101A7000044693F91100B04201DBFFF7E5FF064D84
:101A80002E76636893F91300002801DBFFF7DCFF73
:101A90000020287570BD00BF00E07F4037B5C36BE4
:101AA00004460A466D468BB193E8030085E80300BF
:101AB0001A70226C18465A60A26B9047E36B1BB1F8
:101AC00095E8030083E8030003B030BD2B46EFE741
:101AD0004FF4964313B50193436804461A7842B114
:101AE00093F91100FFF796FF636893F91300FFF76E
:101AF00091FF4AF680230A4AA2F88430B2F8843073
:101B00009BB2802B02D1002002B010BD019B1BB103
:101B1000019B013B0193F1E74FF4FA70F4E700BF3A
:101B200000E07F400123002130B52D4D80F83410B6
:101B300085F816342B4B2C6A1B68C4F3026203FA37
:101B400002F2C4F30274E2402C6AC4F30264A340BC
:101B5000E340254CA2423FD9244C02F5742202F204
:101B60003F22B2FBF4F203F5742303F23F23B3FBED
:101B7000F4F302F5F0521E4C92B2A4F8E42043F6BE
:101B8000B85406225C43B4FBF2F4846040F6D86497
:101B90005C43B4FBF2F4C4605C00B4FBF2F4046197
:101BA00054245C43B4FBF2F44461124C5C43B4FB38
:101BB000F2F4846144F250645C43B4FBF2F4446296
:101BC0000D4C5C43B4FBF2F404620C4C6343B3FB76
:101BD000F2F3C361084630BD4FF4FB70FBE700BF72
:101BE00000E00140A0060020FF083D0040420F0039
:101BF00000E07F4038AF040080DE0F00A0F7030054
:101C00002DE9F04141600B7804460D46184E63B350
:101C10004B68184F8363CB68DFF860800364002350
:101C2000C363012333760B7C91F911001B013A1831
:101C3000DBB282F8003348F82040FFF7EBFE982330
:101C40003375AB7C95F913001B01DBB2074487F8B1
:101C5000003348F82040FFF7DDFE2046FFF762FF23
:101C600008B9054B2360BDE8F08133763375F4E79E
:101C700000E07F4000E100E04E45504FE8060020C4
:101C800002F0D6BF5B0870B503630023B2F1006FAA
:101C90000546C0E90A1280F8343003D2BDE870402E
:101CA00002F0D6BFFFF714FF0446F0B96B681B784B
:101CB000EBB10123064685F834303246042128462C
:101CC00002F0AEFF6B6804461B7873B918224FF41C
:101CD000805102F0B1FF2B6B04460BB10028ECD011
:101CE00002F0AEFF002C08BF0446204670BDEE682F
:101CF000E3E7FFFF0023B1F1006F70B5044680F801
:101D0000343010D2BDE8704021F40013B3F5803FA9
:101D100035BF21F4FF5121F4FF4121F01F0121F0D3
:101D20007F0102F081BF21F03F0181620263FFF772
:101D3000CFFE064628BB63681B7803B3022384F8F2
:101D400034300122104BA3F8E020324640212046D7
:101D500002F062FF636805461B7873B919224FF4DD
:101D6000005102F069FF236B05460BB10028ECD04F
:101D700002F066FF002D08BF0546284670BDE668E4
:101D8000DFE74FF4FA75F8E700E07F4002F05CBF50
:101D900070B5EFF303841649164B0A7C103C64B20D
:101DA000100753F82460D1F88010D3B219D41A0662
:101DB00019D4DB0619D511F4405F14BF0725062599
:101DC000304602F035FF0C4BC03453F8242029462E
:101DD0006FF3104243F824203046BDE87040FFF70F
:101DE0005DBE0425ECE70525EAE70725E8E700BF27
:101DF00000E07F40E80600200060004038B5EFF3C7
:101E000003831E4A103B5BB252F823401C4AC03386
:101E100052F823106FF3104142F8231094F8345015
:101E2000012D0CD1236BE3B100220421204602F0E6
:101E3000F7FE08B32046BDE8384002F0F9BE022D97
:101E400008D1256B6DB12046BDE838400022402105
:101E500002F0E2BE0B4B93F8D430012B0CBF0325EC
:101E6000022502F0EDFE002384F834302946204696
:101E7000BDE83840FFF712BE38BD00BFE8060020BD
:101E80000060004000E07F40094B00F1C00253F8C1
:101E900022106FF3104143F8221001224309054933
:101EA00000F01F008240603341F82320704700BFDC
:101EB0000060004000E100E040B10268054B9A423A
:101EC00006D1D0E9023200205A60704701207047E5
:101ED00007207047545047004FF000438268136159
:101EE00082685361826893610023826853628268CA
:101EF0009362704738B5041E11DB094D09012B1997
:101F0000C9B283F80013074B43F82420FFF7BCFF46
:101F10000123620904F01F04A34045F8223038BDB4
:101F200000E100E0E806002030B5856840686C6E8E
:101F30000078032898BF013409B18C421DD813F0F2
:101F4000010F6B6B0CBF03F01F03C3F304430328A3
:101F500007D91B0983F0010349B9A3B902235360D0
:101F600030BD03F00C03181F43424341F4E78C4299
:101F700001D8002BF2D10323F1E7032898BF01F128
:101F8000FF311160ECE7002CE8D0F4E72DE9FF41C8
:101F90001646044602F0030800285FD0B8F1030F8C
:101FA0005CD002F00C0342681278062A02D11BB9F9
:101FB000052050E0002BFBD122682D4B9A424FD1D7
:101FC000A7687B6E01338B424CD34FF0FF30002368
:101FD00002AACDE90203204633460191FFF7A4FF90
:101FE00003983D6B0199A0B916F0080F0CBF0223AE
:101FF0000423B207DDF808C020D503F1120207EB75
:102000008202C2F804C0A268133302EB8302C2F852
:1020100004C0B8F1010F27D025F44035022E45EA5F
:10202000004512D120B10123204602AAFFF77CFF10
:10203000039B25F0407545EA036509E043441233EC
:1020400007EB8307C7F804C0E3E7B8F1000FEFD14F
:102050000020A3681D6304B0BDE8F0810120FAE709
:102060000720F8E70320F6E7022EDBD0E0E700BF09
:102070005450470028B30268144B9A4223D1436856
:102080001B78032B88BF0A46836898BF01F1FF3293
:102090009A6643681B782BB98368490801395965EA
:1020A000836899658168CB6A13F0010307D14A669A
:1020B0004FF4AA0182681164D0E90221D1600020A6
:1020C0007047012070470720704700BF54504700F9
:1020D0000B01022843EA81130AD003280AD80029F9
:1020E00014BF0922062243EA020040F480707047C0
:1020F0000922F8E70322F6E72DE9F34704460D46E7
:1021000019B9012002B0BDE8F087CB69002BF8D0E7
:102110000028F6D00B7A072BF3D0092BF1D00A2B2D
:10212000EFD8DFF830A20368534500F0088101239F
:102130000A7C9340C3F30902C360002A00F00181C6
:102140004A6912B90978012904D195F912100029B8
:10215000C0F2FA80E969896A29B191F90110002970
:1021600001DB002ACDD013F00F0F0CBF0123002399
:10217000656023742A7C754B13441B02A3606B6952
:102180006361AB69E3610023A361EE69EFF310873C
:10219000012282F310884FF000406D4A95F810C07C
:1021A000116920FA0CF021EA00011161126987F32C
:1021B00010884FF42541A26820461160A268D362BE
:1021C000A268D363A26893642A782B7A032A4FEA21
:1021D000C35388BF43EA0243A2686968D36298BFC9
:1021E00001F1FF31FFF778FEA368B269DA61A368F5
:1021F000F2691A62A3684FF0FF329966A3685966C4
:102200000023CDE900232A78D6F82C80002A40F05C
:1022100087806B685B08013B0093A268009B536555
:10222000A2689365019B4FEA036949EA0349F36A8F
:102230007BB933782BB171782878FFF749FF48EAEA
:102240000008B3782BB1F1782878FFF741FF48EA0E
:102250000048B76AA268002F6CD0BB78F9781B06DB
:1022600043EA0173397943EA01439363A268BB6887
:10227000C2F88C30002B5BD1FA68003A18BF0122FB
:10228000F36A33B93B7FF97E5B0643EA412348EAB0
:102290000308A368C3F88820F36A43B996F821308D
:1022A00096F820205B0743EA423348EA03084FF4DC
:1022B000AA02A3681A642B78012B04D10023A26818
:1022C000D364A2681365D4E90232DA60A36849F0E6
:1022D0000302C3F83480A3681A63A26849F00103BB
:1022E0001363697C224695F91200FFF703FE22462C
:1022F00096F8221096F92400FFF7FCFD224696F886
:10230000231096F92500FFF7F5FD2FB12246397805
:1023100097F90100FFF7EEFD0020C4F800A0F1E6F8
:10232000012A3FF47AAF6A46E968FFF7FDFD74E7DA
:102330000122A5E79763A368C3F88870ACE70E2075
:10234000E0E640F27A50DDE60B20DBE69016400036
:10235000004008405450470000F092BB037813F04F
:10236000010309D10278520704D4037843F004032F
:1023700003700123184670470023FBE70378C3F37B
:1023800080015B0708D5037813F0010211BF00211B
:10239000037862F382030370084670478388C0782D
:1023A000C3F30A0300F00300022815D003281DD050
:1023B00001280FD1022940F2FF3208BF4FF480629A
:1023C0009A420FD24FF0E023D3F8F00D10F0010045
:1023D00008D000BE00207047022904D1B3F5007F69
:1023E000F0D101207047402BFBD9EBE702290CBF4D
:1023F0004FF4806240229A42F3D2E3E730B50A44B8
:10240000914200D330BD4C78052C06D18C7804F075
:102410007F0500EB4505E4092B550C782144EFE7D7
:102420000A4492B28A4202D38389934202D24389F8
:102430001A4492B210467047828810B58A4204D876
:1024400084898B1A9BB29C4203D243891A44891A0D
:102450008BB2038210BDF8B59A42A2EB03041D466D
:1024600038BF4389A4B238BFE41A878838BFA4B202
:10247000A7420E46114602D2FFF7DEFF3C461CB9CA
:1024800020460BE0ED1BADB2AF42FBD9C28801681C
:10249000304602FB051101F0E9FB0120F8BD13B540
:1024A0000446930801EB830399420BD112F0030217
:1024B00006D0002301A8019301F0D8FB019B236003
:1024C00002B010BD51F8040B2060EDE72DE9F04398
:1024D00085B0BDF830508846AB42A3EB05091946DC
:1024E00038BF43891FFA89F938BFA9EB03038488F1
:1024F00038BF1FFA83F94C450746164604D2A14659
:10250000FFF79AFF058AADB2B9F1000F1ED0B145B1
:1025100028BFB146AC421DD9FA88661BA9EB04045A
:102520003B682C4414FB02F4B0B216FB02F602FB2B
:1025300005319DF83430B6B2012BA4B216D08145D6
:102540000BD8404602FB09F201F090FB484605B06B
:10255000BDE8F0832D1BADB2DCE73246404601F00A
:1025600085FB2246396808EB0600EDE7814506D871
:1025700019FB02F292B24046FFF791FFE6E726F020
:10258000030295B22A4640460191FFF788FF16F0F4
:10259000030627D00023019903934A19C6F10401C9
:1025A00089B2A14228BF214603AB1846641AA4B2DF
:1025B0009519AA420CD13B68013E821919448B42FD
:1025C0000BD1039BC8F80030002CBFD02246D2E7C5
:1025D00012F801CB03F801CBEBE713F8010B02F87B
:1025E000010FECE73968EFE713B5930800EB8303BD
:1025F000984209D112F0030204D00B6801A901939B
:1026000001F034FB02B010BD0C6840F8044BEFE75A
:102610002DE9F0430746B0F80E901646048A8588E7
:10262000C288007A85B01FFA89F9A4B288BBA14597
:10263000A9EB040038BF7C8980B23CBF001B80B28C
:10264000281A80B2864228BF06464C46AC4228D2A1
:10265000A5EB0408751B254415FB02F51FFA88FC41
:1026600018FB02F83868012B02FB04001FFA88F8F7
:10267000ADB222D0664517D8724301F0F7FA324660
:1026800049463846FFF7CCFEF881304605B0BDE834
:10269000F083AE4221BF761B02FB0611A1462E46F7
:1026A000D3E7641BA4B2D1E74246009101F0DEFA01
:1026B00000992A4638684144DFE7664505D816FB8D
:1026C00002F292B2FFF790FFD9E728F00304A4B218
:1026D0002246CDE90001FFF787FF18F003080199B2
:1026E00029D0C8F104039BB2AB420A68009828BF06
:1026F0002B46013C0DF10C0C03920444624640460B
:10270000ED1AADB21CF801EB013810F0FF0004F82F
:1027100001EFF7D13868904408EB0304421EA0454E
:1027200004D11844002DAAD02A46CBE718F801CBD3
:1027300002F801CFF3E73868F4E7B2F5004F10D89C
:102740008280C38052009DF8003092B20372531E03
:10275000838100235242C3810160428103820120B0
:10276000704700207047C189028A89B292B29142B3
:10277000A1EB020338BF42899BB280883CBF9B1A01
:102780009BB2984228BF18467047C289038A92B20A
:102790009BB2D31A58425841704710B5C189028A7A
:1027A00089B292B29142A1EB020338BF42899BB237
:1027B00038BF9B1A848838BF9BB2E01A80B210BD24
:1027C00038B5C289038A04469BB292B2FFF743FE32
:1027D000218A054682B289B22046FFF721FE208277
:1027E000284638BD73B50026C389058A0446ADB2B4
:1027F000CDE900569BB2FFF769FE218A05460246E5
:1028000089B22046FFF70CFE2082284602B070BD38
:1028100038B5C589028AADB292B2AA42A5EB0203CD
:1028200088BF42899BB288BF9B1A828888BF9BB2AF
:102830009A42044614D1007A90B938BD801A80B209
:102840009042FBD2E288236802FB003001F00EFACE
:10285000012229462046FFF7E3FDE0810120ECE755
:102860002846EDE712B10023FFF7D2BE10467047AD
:102870000023C381038283885B009BB25A1E5B42A4
:10288000828143810120704701720120704710B599
:102890000A46C189044689B2FFF7C2FDE08110BD36
:1028A00010B50A46018A044689B2FFF7B9FD2082B5
:1028B00010BD70B5C689028AB6B292B296420C4675
:1028C000A6EB020338BF41899BB238BF5B1A8588EB
:1028D00038BF9BB29D4205D23146FFF7ADFD2B4676
:1028E000028A92B22BB9C4E90033A36070BD761B93
:1028F000B6B2B542FBD9954208D90568B242154433
:10290000656006D2238000236380EEE7521B92B2FB
:10291000F1E781885B1A8D1A1A442580628003686A
:10292000E3E770B5C289048A92B2A4B2A24238BF6A
:102930004689A2EB04039BB238BF9B1B858838BF36
:102940009BB2EB1A9BB22BB9C1E900338B6070BD0F
:10295000521B92B2AA42FBD2AC4209D20568944201
:1029600015444D6007D90023A41A0C804B80EDE775
:10297000641BA4B2F0E784881B1BA51A1A440D80BF
:102980004A800368E2E7FFFF0B4B63B10B4B1B78F8
:10299000834206D90A4B00EB40001B6803EBC000E2
:1029A0007047C01AC0B2012803D8064B00EB4000A4
:1029B000F4E70020704700BF000000003C8A0020C0
:1029C000388A0020904F000037B505460C46C8688D
:1029D000019200F06FFD01212846E368019A03B0DF
:1029E000BDE830401847FFFF70B505460024134E80
:1029F0002046FFF7C9FF38B94FF0E023D3F8F03D88
:102A0000DB0700D500BE70BD436828469847337881
:102A10000134E4B20133A342EADA3B220021084840
:102A200001F031F91022FF21064801F02CF9BDE830
:102A300070401422FF21044801F025B93C8A00208F
:102A40003D8A0020408A0020508A00200346034A25
:102A500010780BB1FDF7E8BEFDF7EEBE840500204F
:102A6000024B5878003818BF012070473D8A00207B
:102A7000024B1878C0F38000704700BF3D8A0020E9
:102A8000024B1878FF3818BF0120704784050020DA
:102A9000F8B51C4E05463378FF2B2FD11A4C3B223C
:102AA00000211A4801F0EFF8201DFFF7E1FE184B56
:102AB0001C60184B23B11848AFF30080174B186007
:102AC0000024154F2046FFF75FFF40B94FF0E02389
:102AD000D3F8F03D13F0010312D000BEF8BD036837
:102AE00098473B780134E4B20133A342EADA28463E
:102AF0003570FDF7C3FE2846FDF796FE0120EDE791
:102B00001846EBE7840500206C0500203D8A002074
:102B1000788A0020000000003C8A0020388A0020CB
:102B2000F0B543780546023B0C4685B0032B12D81E
:102B3000DFE803F0026319210021314B1A786FF3AB
:102B400000021A701A786FF341021A7059701A78DD
:102B500061F382021A702B4B1E6814B92046336849
:102B60009847294637E0264B1A78D60743D51A7876
:102B700042F00402EEE7224A1378D8073BD51378D7
:102B80006FF382031370E6E7FFF7FEFE20B143699F
:102B900013B169682878984701363B78F0B2013361
:102BA0008342F1DA164A1378590724D513786FF364
:102BB000820313700023CDE9013303932B788DF842
:102BC000043005238DF805300E4B1E6814B92046DD
:102BD0003368984701A9301DFFF71AFE054614B95E
:102BE00001203368984735B94FF0E023D3F8F03D22
:102BF000DB0700D500BE05B0F0BD0026024FCCE7D4
:102C00003D8A0020788A00203C8A002038B50F4B8E
:102C10000C461D788B7803F07F03092B08D94FF001
:102C2000E023D3F8F03DDB0700D500BE002038BD1F
:102C3000074B20469978FFF7B1FB0028EFD02146DB
:102C40002846BDE83840FDF76DBE00BF8405002072
:102C50003D8A00202DE9F0478146DDE908560C4603
:102C600090469A460027B84501DC01200EE06378C3
:102C7000052B04D1E37803F0030353450AD04FF04A
:102C8000E023D3F8F03DDA0702D40020BDE8F08756
:102C900000BEFAE721464846FFF7B8FF38B94FF0C3
:102CA000E023D3F8F03DDB07EFD500BEEEE7A378D5
:102CB0000137DA0914BF33702B7023781C44D2E734
:102CC000CB0901F07F020448273303EB42030021C4
:102CD0001844FFF743BB00BF3D8A0020CB0901F039
:102CE0007F020448273303EB420300211844FFF717
:102CF00045BB00BF3D8A002070B5184C01F07F062F
:102D000004EB460404EBD11494F827501448ED0763
:102D100004F12004007809D54FF0E023D3F8F03D0A
:102D2000DA0701D4002070BD00BEFBE7E57945F06D
:102D30000105E571FDF7C6FE0028F4D1E37960F3E3
:102D40000003E371E37960F38203E3714FF0E02362
:102D5000D3F8F03DDB07E5D500BEE4E73D8A00206F
:102D60008405002010B50C4C01F07F0204EB4204F6
:102D700004EBD11494F8273020349B070BD4074B75
:102D80001878FDF7B1FEE37943F00203E371E379CC
:102D900043F00103E37110BD3D8A0020840500204B
:102DA00010B50C4C01F07F0204EB420404EBD1148B
:102DB00094F8273020349B070BD5074B1878FDF784
:102DC000B9FEE3796FF34103E371E3796FF3000335
:102DD000E37110BD3D8A002084050020054B01F001
:102DE0007F0203EB420303EBD11191F82700C0F3FC
:102DF000400070473D8A00202DE9F04F87B0FFF773
:102E0000ABFA002800F08F82B44B00201D682C46DE
:102E100054F8043B9847204603A9FFF7D1FC044629
:102E20002B6801209847002C00F07D829DF80D3022
:102E3000013B072B00F2A482DFE813F00800130027
:102E4000A20280028F021F004C029B029DF80C0020
:102E5000FFF7CAFD00F026FB9DF81020A04B9A70EA
:102E6000D2E79DF80C00FFF7BFFD00F01BFB9D4B68
:102E7000002BC9D0FEF72DFCC6E7994C0020237823
:102E80009DF80C5043F00103237094F827306FF342
:102E9000000384F8273094F827306FF3820384F816
:102EA000273094F828306FF3000384F8283094F822
:102EB00028306FF3820384F8283000F0FBFA9DF885
:102EC000106006F06002602A11D14FF0E023D3F8C1
:102ED000F03DDC0700D500BE9DF80C000021FDF799
:102EE00003FE80219DF80C00FDF7FEFD8CE7402AD3
:102EF0000DD17D480028EFD000F0DCFA01212846F2
:102F000004AAAFF3008000287FF47EAFE4E706F068
:102F10001F06012E00F07381022E00F09A81002E10
:102F2000D3D1202A0FD19DF814300F2BD4D82344AD
:102F3000D878FFF729FD01460028CDD004AA2846FD
:102F4000FFF742FDDFE7002ABFD19DF81130092BC2
:102F5000BBD801A252F823F0E9310000D7310000BC
:102F6000CB2E0000C3310000CB2E0000812F0000CB
:102F700003310000CB2E00009B2F0000B12F00007A
:102F800004A800F09DFA28469DF81210FDF762FC97
:102F9000237843F00203237036E763788DF80A3014
:102FA000012328460DF10A0204A900F047FA2BE795
:102FB0009DF812A063789A4537D063783BB12846D4
:102FC000FDF766FDA6782846FFF70EFDA670BAF15C
:102FD000000F2AD00AF1FF30C0B2FEF7CBFC10B1CF
:102FE0004378022B08D04FF0E023D3F8F03DDF0701
:102FF0007FF56BAF00BE68E7C37900F10906C3F344
:103000008012C3F340131B0143EA4213227822F0DB
:103010003002134323704388C3180093009BB342CC
:103020000AD8324B0BB1FEF753FB84F801A02846B7
:1030300004A900F0F1F9E7E673780B2B02BF3378AF
:1030400096F80380F618737818BF4FF00108042B28
:10305000C9D14FF0000B009B9B1B9BB20193244BEB
:103060005FFA8BF71B780133BB42BCDB3846FFF7B6
:103070008BFC81460028B6D08368019A31462846E9
:1030800098470828024639D9019B834236D3B8F1C4
:10309000010F06D1D9F8083016498B4208BF4FF00E
:1030A00002080021CBB298450DD83B463146124864
:1030B0000192FFF7A3F90E4B019A1B7816440133D6
:1030C0009F42ABDD8FE7B0780131034454FA83F3BC
:1030D000D878FF2887D1DF70E4E700BF788A002026
:1030E0003D8A0020D316000000000000D116000029
:1030F0003C8A0020F9360000508A00200BF1010BB9
:10310000ADE7BDF81200030A5A1EC0B20E2A3FF600
:10311000E3AE01A151F822F0553100007F310000EB
:10312000A1310000D92E0000D92E0000B5310000D9
:103130007F310000D92E0000D92E0000D92E0000CA
:10314000D92E0000D92E0000D92E0000D92E000063
:1031500067310000FEF70AFC12230246284604A944
:1031600000F06CF9CFE68B4B002B3FF4B5AEAFF31C
:103170000080024600283FF4A8AE4388EEE7022B09
:1031800007D1FEF7F7FB00283FF49FAE02464388C5
:10319000E4E7814B002B3FF49FAEAFF30080F2E7F2
:1031A000BDF81410FEF7EAFB024600283FF494AE87
:1031B0000378D3E7794B002B3FF48EAEAFF300805A
:1031C000F2E7BDF81230012B7FF486AE237843F08E
:1031D000080323702BE7BDF81230012B7FF47CAE7F
:1031E00023786FF3C303F4E72378C3F340129B08FB
:1031F00003F002031343ADF80A300223D1E69DF831
:1032000014300F2B3FF668AE2344D878FFF7BCFB91
:10321000014600283FF460AE284604AAFFF7D4FB1D
:1032200000287FF4F1AD9DF8103013F060047FF4B6
:1032300053AE9DF811300A3B012B3FF64DAE00F026
:1032400039F99DF811300A2B7FF4F1AE8DF80A4060
:10325000A6E69DF8141001F07F03092B3FF635AE6A
:1032600004EB430303EBD113D87CFFF78DFB074638
:103270002AB100283FF430AE014604AA5FE69DF86B
:10328000113003F0FD02012A08D0002B7FF41DAE9F
:103290002846FFF7A3FDADF80A00AEE7BDF81220FF
:1032A00022B9012B284612D1FFF77AFD002F3FF4F7
:1032B000ABAD394604AA2846FFF786FB002000F094
:1032C000F9F894F82830DE073FF59EADAFE6FFF73A
:1032D00049FDEBE79DF81010314B01F07F0403EB43
:1032E000440303EBD11393F827006FF3000083F836
:1032F000270093F827006FF3820083F827003CB97A
:10330000059B9DF811209DF80C0000F0E7F87BE587
:10331000D87CFFF739FB48B94FF0E023D3F8F03DF4
:10332000D80700D500BE07B0BDE8F08F0469059B43
:103330009DF811209DF80C00A04765E5184B1A7800
:10334000D1077FF561AD174A002A3FF45DAD1878CB
:10335000C0F3C000FEF7BEF956E5114B1B78DA0743
:103360007FF552AD104B002B3FF44EADFEF7B3F995
:103370004AE5049B002B3FF447AD0598984743E589
:103380004FF0E023D3F8F03DDB077FF53DAD00BE05
:103390003AE500BF0000000000000000000000004F
:1033A0003D8A0020D5160000D716000037B5144915
:1033B0000446CA89888991F90050831A9BB2402B30
:1033C00028BF4023002D10DA904214D01A46896895
:1033D0000C48019300F04AFC80210A4A019B2046D8
:1033E00003B0BDE83040FFF787BC90424FF00001CA
:1033F00003D10022F3E78021FBE7024AEFE700BF99
:103400003C8B0020508B0020C943002301F0800139
:103410001A46FFF771BCFFFF30B4074C0546224641
:1034200008680B46496803C20022C4E90222284604
:1034300030BC1978FFF7E8BF3C8B0020F8B5184E78
:103440000C463746054608684968B26003C7002144
:10345000F181E1888B4228BF0B46B381E18889B1B5
:1034600053B14AB94FF0E023D3F8F03DDA0701D465
:103470000020F8BD00BEFBE72846FFF797FF30B1FC
:103480000120F6E728462178FFF7BEFFF7E74FF067
:10349000E023D3F8F03DDB07EAD500BEE9E700BF43
:1034A0003C8B002014220021014800F0ECBB00BF3F
:1034B0003C8B0020014B1861704700BF3C8B002003
:1034C00010B50246044C00682346516803C300232C
:1034D000C4E9023310BD00BF3C8B002070B52D4CF9
:1034E0001E462378C909B1EBD31F054618D04EB14B
:1034F0004FF0E023D3F8F03DDA0701D4002070BD8F
:1035000000BEFBE7244B13B12146AFF300802369D3
:103510000BB90120F3E7032128461E4A9847F8E734
:1035200094F90030A068002B05DB0028E6D0324675
:103530001A4900F09BFBA268E38932443344A2603D
:10354000E2889BB29A42E38101D03F2E1ED82369C4
:103550006BB928462178FFF757FF0028D9D14FF0E3
:10356000E023D3F8F03DDB07C8D500BEC7E7022152
:103570002846084A984701460028EAD12846FDF720
:10358000B3FA80212846FDF7AFFAC2E72846FFF7D5
:103590000DFFE2E73C8B002000000000508B002074
:1035A00070B500F1100504462846FFF7F6F8B0F5AF
:1035B000007F19D30020E178FFF782FBA0B12846F5
:1035C000FFF7EBF8B0F5007FE17808D304F58762E8
:1035D0004FF40073BDE870400020FFF78DBB002062
:1035E000BDE87040FFF77ABB70BDFFFF2DE9F041E9
:1035F0000446FFF735FA10B90020BDE8F081FFF767
:1036000037FA06460028F7D140F638035C43174DD9
:1036100004F12408A8444046FFF7A5F80028EBD0A1
:103620002F193046B978FFF74BFB0028E4D004F59A
:10363000C764254429464FF400724046FFF7D2F88C
:10364000B978044668B103462A463046FFF754FB72
:1036500048B94FF0E023D3F8F03DDB07CCD500BEEE
:10366000CBE7FFF73BFB2046C7E700BF908B00206E
:1036700037B5144C40F638020021204600F003FB19
:10368000FF234FF4424201256371E28000230822A8
:1036900063812273009304F138012B464FF40072CA
:1036A00004F110002581FFF748F82B464FF4007213
:1036B000009504F50E7104F12400FFF73EF803B005
:1036C00030BD00BF908B002010B50A4C00210522B0
:1036D000204600F0D8FA04F110002434FFF7C8F8AF
:1036E0002046FFF7C5F82046BDE810400121FFF74E
:1036F000CBB800BF908B0020F7B54B790646022B64
:1037000003D00025284603B0F0BD8B79022BF8D1F9
:10371000204FBB787BBB8B7809253B700B78CC188E
:1037200003E023781D44ADB21C446378242B1BD1E5
:103730009542F6D96378042B12D163790A2B0FD105
:10374000154B2778019301330093022330461A4624
:10375000E119FFF77FFA70B10E3517FA85F5ADB2B2
:103760000C48FFF71DFFCDE7052BE3D1214630467E
:10377000FFF74CFA38B94FF0E023D3F8F03DDB0700
:10378000BFD500BEBDE7A3787B7023781D44ADB2E2
:103790001C44CFE7908B0020928B002070B50B4625
:1037A0001146127802F06002202A47D1244E8A88FE
:1037B0003478944242D14A78203A032A3ED8DFE84E
:1037C00002F002141731012B05D107231D4AFFF720
:1037D00035FE012070BD032BFBD11B4B002BF8D015
:1037E00000201849AFF30080F3E7012BF1D1ECE79B
:1037F000012B02D1FFF710FEEBE7032BE9D14C8838
:10380000124804F0010585F001013471FFF73CF81E
:103810000F4B002BDDD029460020C4F34002AFF34C
:103820000080D6E7012BE5D0032BD2D1094B002B2A
:10383000CFD000204988AFF30080CAE70020C9E755
:10384000908B0020968B002000000000B48B00209D
:1038500000000000000000002DE9F047374D1C4635
:10386000EB7807468B420E4607D0AB788B4258D197
:10387000AB78B34232D001245CE0A2B205F5876197
:1038800005F11000FEF7EEFF2D4B2BB92D4BEBB9D8
:103890002A48FFF785FEEBE76B79FF2BF6D04FF058
:1038A000000805F2374905F1100AA045EED06A7903
:1038B00019F8013F9A4206D15046FEF766FF10B94B
:1038C0006979AFF3008008F10108EEE71E48FEF7C2
:1038D0005CFF0028DCD1AFF30080D9E71B4B13B1AC
:1038E0000020AFF300800020FFF780FE0028C2D147
:1038F0001748FEF738FF0028BDD1002CBBD0C4F319
:103900000806002EB7D13846A978FFF7D9F9044642
:103910000028B0D0334632463846A978FFF7ECF994
:1039200008E04FF0E023D3F8F04D14F0010401D08B
:1039300000BE00242046BDE8F08700BF908B002029
:103940000000000000000000A08B0020000000002C
:10395000B48B00200222024B5A8000221A71704759
:10396000C893002013B5049C8DF80030230A8DF80D
:10397000023000238DF801408DF804208DF80530C9
:103980006A460623240C8DF80340FFF757FD02B06A
:1039900010BDFFFF0022024B1A80FFF7DBBF00BF04
:1039A000C89300200020FFF7F5BFFFFF0023184653
:1039B00070B58D788C79012C20D04B78212B22D1B9
:1039C000164B8A7809301A70B1F8053080B2402B56
:1039D00022D94FF0E023D3F8F03DDB071CD500BE21
:1039E0001AE08C78AC420ED1CE78DCB2A6420AD175
:1039F0000C780133204480B22144DBE7CC79022CDF
:103A0000DBD19042EDD34FF0E023D3F8F00D10F06E
:103A1000010001D000BE002070BD00BFC89300208F
:103A20002DE9F3411378064603F01F04012C1546D7
:103A300040F0EC8013F060031ED152780A2A10D0B7
:103A40000B2A40F0E380012940F0BA806A88704B6D
:103A500029465A70FFF77EFF02B0BDE8F041FFF73C
:103A6000DBBC012940F0AC800B462946694A02B014
:103A7000BDE8F041FFF7E2BC202B40F0C78053784F
:103A8000062B00F2C380DFE803F004462C6613180F
:103A90002000012904D129463046FFF7BDFC05E08E
:103AA000032903D15C4B0BB1FDF792FE012487E0A3
:103AB0000129FBD1FFF74EFFEDE70129F6D10B46B7
:103AC000564A2946FFF7BAFCF0E70129F2D003294C
:103AD000ECD1534B002BE9D04D4B5878FDF772FEDB
:103AE000E4E70129E2D14A4F3C7814F0020467D0A0
:103AF0004C4C002C64D0EB88402B00F2878007F1FF
:103B00000C0269887878FDF753FE034607F10C0232
:103B100029463046ABE70129C8D13D4A147814F054
:103B200001044DD09378022B01D0052B6ED1EB8888
:103B3000402B6BD8012313716B88D380EB881381E2
:103B4000EB881BB103219170374AE1E70623294630
:103B50003046937080E7DFF8B88098F80220032A97
:103B600006D0062A34D00129A0D1002300930BE00F
:103B7000012913D198F8040070B1042198F80100CC
:103B8000FDF7AAFD042200902946304698F803303C
:103B9000FFF7E8FE044613E00522F4E7032985D188
:103BA00098F8044084B10423B8F8061088F802306D
:103BB00098F80100B8F8083008F10C02FDF7AEFDE6
:103BC000204602B0BDE8F081052388F802306DE799
:103BD00001290BD198F8040030B1072198F80100B1
:103BE000FDF77AFD0722CEE70222CCE703297FF416
:103BF0005DAF98F804403CB1072398F8010088F8BD
:103C00000230FDF7C1FDDBE70223DEE70024D7E742
:103C1000C8930020C9930020D1170000CA93002048
:103C2000C5170000B1170000D493002000220B4BF1
:103C30001A7170B99A78042A02D103229A707047D7
:103C4000072A09D11A7812F0040F14BF062208229D
:103C5000F4E70A22D8709A70704700BFC89300201A
:103C6000014B1868704700BF880500200A44431EB6
:103C7000914200D1704710B511F8014B914203F801
:103C8000014FF9D110BD02440346934200D1704761
:103C900003F8011BF9E7FFFF0FB40A4B13B51C68CB
:103CA00024B1A36913B9204600F06EF805AB049A5D
:103CB000A1682046019300F0C5F902B0BDE81040AC
:103CC00004B0704788050020034613F8012B002A32
:103CD000FBD1181A01387047002310B504468360E1
:103CE000818119464366C28108228361C0E900339D
:103CF000C0E904335C30FFF7C6FF054B2462636202
:103D0000044BA362044BE362044B236310BD00BF6A
:103D1000C1420000E34200001B4300003F4300009B
:103D2000014900F0AFB800BF1546000070B5682328
:103D30004D1E0E465D4305F1740100F0E5F80446A2
:103D400040B1002105F16802C0E900160C30A06006
:103D5000FFF799FF204670BD014800F0B3B800BFDF
:103D600015940020014800F0AEB800BF1594002063
:103D7000014800F0A7B800BF16940020014800F0E9
:103D8000A2B800BF1694002010B50446FFF7F0FF5C
:103D9000A3691BB1BDE81040FFF7F0BFC4E91233BF
:103DA00023652046124B134A1B68A262A34204BF3C
:103DB0000123A36100F020F86060204600F01CF8A9
:103DC000A060204600F018F800220421E06060683E
:103DD000FFF782FF01220921A068FFF77DFF022281
:103DE0001221E068FFF778FF0123A361D2E700BF4B
:103DF000C04F0000213D0000F8B50746FFF7ACFFBB
:103E00001E4B1E68B36913B93046FFF7BDFF483635
:103E1000D6E90134013B03D533680BB33668F7E7C5
:103E2000B4F90C50D5B9164B04F158006566E3603F
:103E300000F047F8FFF796FF0822294604F15C00DE
:103E40002560A561C4E90155C4E90455FFF71BFFCE
:103E5000C4E90D55C4E912552046F8BD6834D9E7C8
:103E600004213846FFF762FF044630600028D5D1B0
:103E7000FFF778FF0C233B60EEE700BFC04F000068
:103E80000100FFFF2DE9F8430646884600F148048B
:103E90000027D4E90195B9F1010905D52468002C62
:103EA000F7D13846BDE8F883AB89012B07D9B5F9BE
:103EB0000E30013303D029463046C04707436835EA
:103EC000E9E770477047704770B50E4E0C460546DF
:103ED000316811B900F0E4F930602146284600F05D
:103EE000DFF9431C0AD0C41C24F00304A04207D00D
:103EF000211A284600F0D4F9013001D14FF0FF34E7
:103F0000204670BD1C9400202DE9F041CD1C0746D1
:103F100025F0030508350C2D38BF0C25002D01DBDD
:103F2000A94205D90C2300263B603046BDE8F0814C
:103F30002E4E00F031FC33681C4634BB294638460F
:103F4000FFF7C2FF431C04464DD134682646002EBD
:103F500040D123683146384604EB030800F0A0F94D
:103F600080453AD1236803353846ED1A25F003051C
:103F700008350C2D38BF0C252946FFF7A5FF013069
:103F80002BD023682B4423600EE02268521B1ED4E2
:103F90000B2A16D96119A342256018BF59606368BE
:103FA00008BF316062514B6004F10B06384600F0E7
:103FB000F9FB231D26F00706F21AB6D09B1BA3506F
:103FC000B3E76268A3420CBF32605A60ECE7234655
:103FD0006468B2E734467668B9E70C2338463B603C
:103FE00000F0E0FBA1E72560DEE700BF18940020A9
:103FF0009368013B002B936010B408DA9469A342E4
:1040000001DB0A2903D15DF8044B00F09DB9136868
:10401000581C1060084619705DF8044B7047F8B5DD
:1040200006460F461446D518AC4201D1002007E0E1
:104030003A4614F8011B3046FFF7DAFF431CF3D170
:10404000F8BDFFFF2DE9F04F0D469DB01446984690
:10405000064618B183690BB9FFF796FE884B9D425F
:104060001BD175686B6ED90705D4AB899A0502D44C
:10407000A86DFFF727FFAB891B0701D52B69EBB9AB
:104080002946304600F0C4F9C0B16B6EDC070ED58E
:104090004FF0FF301DB0BDE8F08F7A4B9D4201D14B
:1040A000B568DFE7784B9D4208BFF568DAE7AB8972
:1040B0009805EDD4A86DFFF706FFE9E70023CDF8DA
:1040C0000C804FF00109DFF8C481099320238DF89B
:1040D000293030238DF82A3023469A4613F8012BD5
:1040E0000AB1252AF9D1BAEB040B0BD05B46224664
:1040F00029463046FFF793FF013000F0A980099A66
:104100005A4409929AF80030002B00F0A180002355
:104110004FF0FF320AF1010A049307938DF85330F0
:104120001A93CDE9052354460522584814F8011B7B
:1041300000F024FB049AD8B9D10644BF20238DF89F
:104140005330130744BF2B238DF853309AF80030B7
:104150002A2B15D0079A544600204FF00A0C21460E
:1041600011F8013B303B092B4DD9B0B1079214E057
:10417000A0EB0803A24609FA03F313430493D2E722
:10418000039B191D1B68002B0391BBBF5B4242F0D0
:10419000020207930793B8BF049223782E2B0CD109
:1041A00063782A2B34D1039B02341A1D1B68002B21
:1041B0000392B8BF4FF0FF330593DFF8E0A003226E
:1041C0002178504600F0DAFA38B1A0EB0A0040221C
:1041D000049B013482401343049314F8011B06220C
:1041E0002B488DF8281000F0C9FA00283FD0294B41
:1041F0001BBB039B073323F0070308330393099B7F
:104200003B44099368E70CFB02320C460120A6E709
:10421000002301344FF00A0C19460593204610F88C
:10422000012B303A092A03D9002BC6D00591C4E7E7
:104230000CFB012104460123F0E703AB2A4604A945
:1042400030460093144BAFF300800746781CD6D15C
:104250006B6ED90705D4AB899A0502D4A86DFFF718
:1042600032FEAB895B063FF513AF099812E703AB4B
:104270002A4604A930460093074B00F057FBE4E7B9
:10428000E44F000004500000C44F00002450000020
:104290002E500000000000001F4000002A500000C7
:1042A00038B50023054D044608462B60FDF780F81D
:1042B000431C02D12B6803B1236038BD2094002039
:1042C00010B50C46B1F90E1000F050FC0028ABBF41
:1042D000636DA3891B1823F48053ACBF6365A3816E
:1042E00010BD2DE9F0411F468B8905460C46DB05C4
:1042F000164605D502230022B1F90E1000F0C6F9CA
:10430000A3893246B4F90E10284623F48053A381C2
:104310003B46BDE8F04100F069B810B50C46B1F974
:104320000E1000F0B3F9431CA38915BF606523F498
:10433000805343F48053A38118BFA38110BDB1F90A
:104340000E1000F0D3B8FFFFF8B50E461446054630
:1043500018B183690BB9FFF717FD214B9C422BD194
:104360006C68A369A360A3891A072FD523696BB36F
:104370002369F6B220683746C01A6369834204DCB9
:104380002146284600F046F930BBA3680130013BC6
:10439000A36023685A1C22601E706369834204D0A4
:1043A000A389DB0706D50A2E04D12146284600F052
:1043B00031F988B93846F8BD0A4B9C4201D1AC6846
:1043C000CFE7094B9C4208BFEC68CAE72146284664
:1043D00000F01EF80028CBD04FF0FF37EAE700BF0F
:1043E000E44F000004500000C44F000038B50446FC
:1043F000064D0846114600222A601A46FDF79FF82E
:10440000431C02D12B6803B1236038BD20940020E7
:10441000324B70B51D6806460C4625B1AB6913B921
:104420002846FFF7B1FC2E4B9C420FD16C68A38944
:10443000B4F90C2019072CD4DD0611D409233360FC
:1044400042F040034FF0FF30A3813EE0254B9C42F9
:1044500001D1AC68EBE7244B9C4208BFEC68E6E76F
:10446000580712D5616B41B104F14403994202D05F
:10447000304600F09DF900236363A38923F02403F1
:10448000A3810023636023692360A38943F00803A9
:10449000A38123694BB9A38903F42073B3F5007F8B
:1044A00003D02146304600F029F9A089B4F90C2048
:1044B00010F001030AD00023A36063695B42A3618B
:1044C000236943B910F08000BAD170BD810758BF8D
:1044D0006369A360F4E70020F7E700BF88050020C8
:1044E000E44F000004500000C44F000038B5002322
:1044F000054D044608462B6000F06CFB431C02D1BE
:104500002B6803B1236038BD209400208A892DE9EF
:10451000F041054610070C4658D44B68002B05DCCB
:104520000B6C002B02DC0020BDE8F081E66A002E57
:10453000F9D0002312F480522F68216A2B6032D008
:10454000606DA3895A0705D56368C01A636B0BB108
:10455000236CC01A00230246E66A2846216AB04747
:10456000431CA38906D129681D292BD8284A0A4152
:10457000D60727D40022D90462602269226004D5BC
:10458000421C01D12B6803B96065616B2F60002963
:10459000C9D004F14403994202D0284600F008F93A
:1045A00000206063C0E701232846B047411CC8D102
:1045B0002B68002BC5D01D2B01D0162B01D12F60ED
:1045C000B1E7A38943F04003A381ADE70F69002F52
:1045D000A9D093070E680F600CBF4B690023A6EBB0
:1045E00007088B60B8F1000F9DDD43463A46216A0B
:1045F0002846A66AB047002806DCA3894FF0FF30A2
:1046000043F04003A3818FE70744A8EB0008E9E7E4
:10461000FEFFBFDF38B50B6905460C4613B9002510
:10462000284638BD18B183690BB9FFF7ADFB144BB1
:104630009C421BD16C68B4F90C30002BEFD0626E39
:10464000D00704D4990502D4A06DFFF73BFC28469F
:104650002146FFF75BFF636E0546DA07E0D4A389C6
:104660009B05DDD4A06DFFF72EFCD9E7054B9C42DE
:1046700001D1AC68DFE7044B9C4208BFEC68DAE785
:10468000E44F000004500000C44F000038B5044659
:10469000064D0846114600222A601A4600F0B2FA7A
:1046A000431C02D12B6803B1236038BD2094002045
:1046B00070B50C46B1F90E1096B0154600291E468D
:1046C0000CDAA389002113F0800F0CBF4FF4806334
:1046D0004023002031602B6016B070BD6A4600F0A8
:1046E00057FA0028EDDB019901F47041A1F5005360
:1046F000594259414FF48063EBE7FFFF8B8973B553
:104700009D0706460C4607D504F147032360236145
:104710000123636102B070BD01AB6A46FFF7C8FFB9
:10472000009905463046FFF7EFFB48B9B4F90C3065
:104730009A05EFD423F0030343F00203A381E3E7D8
:104740000D4BB362A389206043F080032061A381F5
:10475000009B6361019B5BB1B4F90E10304600F021
:1047600029FA28B1A38923F0030343F00103A381AD
:10477000A3891D43A581CDE7213D0000C9B20244B4
:1047800010B59042034601D1002303E01C780130AC
:104790008C42F6D1184610BD0148FFF793BB00BF0D
:1047A000149400200148FFF78EBB00BF1494002032
:1047B00037B5002943D051F8043C0C1F0190002B61
:1047C000B8BFE418FFF7E8FF1E4A0198136833B931
:1047D0006360146003B0BDE83040FFF7E3BFA3425D
:1047E00008D9256861198B4201BF19685B684919AE
:1047F0002160EDE71A465B680BB1A342FAD9116854
:104800005518A5420BD12468214454181160A342C5
:10481000E0D11C685B680C4453601460DAE702D98D
:104820000C230360D6E7256861198B4202BF196823
:104830005B684919636008BF21605460CAE703B030
:1048400030BD00BF189400202DE9F0471646994668
:104850008A6807460B690C46DDF820809342B8BF92
:104860001346336091F843200AB101333360236863
:10487000990642BF336802333360256815F0060598
:1048800006D104F1190AE36832689B1AAB422BDCAB
:1048900094F84320131E226818BF0123920630D4D7
:1048A00004F1430249463846C047013023D023680B
:1048B0001A3454F80A2C03F00603042B0ABF54F8E8
:1048C0000E5C002533684FF0000608BFED1A54F85F
:1048D000123C08BF25EAE5759342C4BF9B1AED1848
:1048E000B5421AD1002008E0012352464946384615
:1048F000C047013003D14FF0FF30BDE8F0870135EC
:10490000C1E7E1185A1C30200233224481F84300E9
:1049100094F8451082F84310C2E701232246494625
:104920003846C0470130E6D00136D9E72DE9FF47C8
:104930000F7E914680460C46782F9A460C9D01F1D9
:10494000430207D8622F0AD8002F00F0D380582FD7
:1049500000F0BF8004F1420584F842703AE0A7F10C
:104960006303152BF6D801A151F823F0C5490000C7
:10497000D94900005549000055490000554900003B
:1049800055490000D949000055490000554900002B
:104990005549000055490000DB4A0000054A000067
:1049A000974A00005549000055490000FD4A0000A3
:1049B00055490000054A00005549000055490000CE
:1049C0009F4A00002B681A1D1B682A6004F14205EB
:1049D00084F8423001239EE020682B68070603F12B
:1049E0000401296001D51E6803E04606FBD5B3F932
:1049F0000060002E03DA2D23764284F843305948B4
:104A00000A2312E02B682068191D2960050601D5CC
:104A10001E6802E04106FBD51E886F2F51480CBF6F
:104A200008230A23002184F843106568002DA5603F
:104A3000A2BF216821F0040121600EB9002D4AD0E7
:104A40001546B6FBF3F103FB1167C75D05F8017D61
:104A500037460E46BB42F4D9082B0BD12368DE073C
:104A600008D5236961689942DEBF302305F8013C0F
:104A700005F1FF35521B22614B4603AA21464046F1
:104A8000CDF800A0FFF7E0FE013049D14FF0FF3034
:104A900004B0BDE8F087236843F020032360782743
:104AA0003148236884F845701F06296851F8046B63
:104AB00002D45F0648BFB6B2DF07296044BF43F0A7
:104AC000200323601EB9236823F0200323601023F2
:104AD000A8E72448E5E71546BEE72B682668181DB9
:104AE0006169286035061B6801D5196002E070060F
:104AF000FBD51980002315462361BDE72B680021F3
:104B00001A1D2A601D6862682846FFF737FE08B143
:104B1000401B606063682361002384F84330ABE787
:104B200023692A4649464046D0470130AED0236823
:104B30009B0713D4E068039B9842B8BF1846A7E7C9
:104B40000123324649464046D04701309ED00135C8
:104B5000E36803995B1AAB42F2DCEBE7002504F152
:104B60001906F5E7355000004650000038B50446F8
:104B7000064D0846114600222A601A46FCF7E3FC5F
:104B8000431C02D12B6803B1236038BD2094002060
:104B900038B50023064D0446084611462B6000F048
:104BA00021F8431C02D12B6803B1236038BD00BF3C
:104BB0002094002038B50023054D044608462B609C
:104BC00000F018F8431C02D12B6803B1236038BDF4
:104BD00020940020024B58224FF0FF301A6070479B
:104BE00020940020024B58224FF0FF301A6070478B
:104BF00020940020024B582200201A60704700BF0A
:104C000020940020024B58224FF0FF301A6070476A
:104C100020940020FFFFFFFF5FF800F0510100200B
:104C20005FF800F0910100205FF800F0BD03002064
:104C30005FF800F0FD0000205FF800F00D0200209A
:104C40005FF800F0010000205FF800F06D04002024
:104C50005FF800F0350300204275696C74207769B5
:104C600074682052656E6573617320416476616E6D
:104C700063656420466C657869626C6520536F6675
:104C80007477617265205061636B6167652076653A
:104C90007273696F6E20332E362E3000332E362E0F
:104CA0003000000000000603232900008F280000C8
:104CB0005B050000B3280000A128000031050000BA
:104CC0000100020008001000020403040404FFFFB6
:104CD0000A000000D84C0000000001130704000087
:104CE000000C011300050000000C01130105000079
:104CF000000C0114010B000000000103040200007D
:104D0000040000000600000004000000080000008D
:104D10000400000007000000000000000400000084
:104D200000000000050000006D006E006B006C00CC
:104D30007F017D017E013100300000000000000095
:104D40000000000000000000000000000000000063
:104D50000000000000000000000000000000000053
:104D60000000000000000000000000000000000043
:104D70000000000000000000000000000000000033
:104D80000000000000000000000000000000000023
:104D90000000000000000000000000000000000013
:104DA0000000000000000000000000000000000003
:104DB00000000000000000000000000000000000F3
:104DC00000000000000000000000000000000000E3
:104DD00000000000000000000000000000000000D3
:104DE0000000000000000000446F776E6C6F61648B
:104DF00020636F6D706C657465642C20656E7465DE
:104E000072206D616E69666573746174696F6E0D91
:104E10000A00486F73742061626F72746564207455
:104E200072616E736665720D0A00486F7374206458
:104E300065746163682C2077652073686F756C6496
:104E40002070726F6261626C79207265626F6F743C
:104E50000D0A00FF000000004116000000000000E5
:104E6000000000000207020800000100000000002E
:104E70000000000000000000000000000000000032
:104E80000000000000000000000000000000000022
:104E900000000000000000000200000096980000E2
:104EA000010000004B4C000004FF00000000000067
:104EB00000000000684E000041726475696E6F006A
:104EC000506F7274656E74612048333320444655C8
:104ED0000040436F6465466C617368202F30783002
:104EE000303030303030302F382A384B612C363368
:104EF0002A33324B67004044617461466C617368C9
:104F0000202F307830383030303030302F382A3160
:104F10004B6700090409026600030100803209049E
:104F2000000000FE0102040904000100FE01020568
:104F3000092107E80340000101080B0102020200F9
:104F400000090401000102020004052400200105FB
:104F5000240100020424020205240601020705813F
:104F60000308001009040200020A000000070502FD
:104F7000024000000705820240000012010002EF1B
:104F800002014041236803000101020301FFFFFF0A
:104F900071360000C9360000F93600009D37000068
:104FA0005938000000000000A539000095390000C4
:104FB000AD390000213A00000000000000000000B0
:104FC0008C05002000000000000000000000000030
:104FD00000000000000000000000000000000000D1
:104FE00000000000000000000000000000000000C1
:104FF00000000000000000000000000000000000B1
:1050000000000000000000000000000000000000A0
:105010000000000000000000000000000000000090
:1050200000000000232D302B2000686C4C006566CA
:1050300067454647003031323334353637383941E9
:1050400042434445460030313233343536373839FF
:075050006162636465660004
:105057004FF42A4110B500204FF49644164AB2F88F
:105067008430A2F884109BB2B2F8841089B2A1B937
:10507700012B18D14DF60111A2F844100F4AA2F8DE
:105087000431B2F804319BB2002BFAD10123A2F804
:1050970000310B4A9360136010BD002C08BF4FF41A
:1050A700FA70013CE0E7802BF6D10122044B5A60ED
:1050B7005A68002AFCD1EFE700E07F4000C00140BA
:1050C700007000404FF49643B32282B001930C4B1B
:1050D7001A700C4AD2F880301B0408D5137C40F2B2
:1050E700F51013F0100F08BF002002B07047019BA6
:1050F7001BB1019B013B0193ECE71420F5E700BFCF
:1051070000007E4000E07F404FF49643502282B07B
:1051170001930C4B1A700C4AD2F880301B0408D547
:10512700137C40F2F51013F0100F08BF002002B0F7
:105137007047019B1BB1019B013B0193ECE71420D6
:10514700F5E700BF00007E4000E07F4038B54368C8
:1051570005461A7842B193F9110000F011FA6B680D
:1051670093F9130000F00CFA0C4BB3F884309BB2A0
:1051770013B9284600F008FAFFF7A4FF0446FFF723
:10518700C3FF002C08BF0446FFF762FF00239C42C1
:1051970018BF204685F8343038BD00BF00E07F4097
:1051A70030B52025836A0C4C23630C4B1D70D0252A
:1051B7001D70836A1944036B8162013B03631046C8
:1051C70012B930BD30B10138D4F880301B04F9D59D
:1051D7000020F6E71420F4E700E07F4000007E405F
:1051E7000346F7B5E82510461A4CDA6A4E082263DB
:1051F700194AC1F347011570117000218E4208D179
:10520700D0231370F8B1D4F880301B041DD50020CB
:1052170019E01D6901959D6A2D881580D4F8805085
:105227006D050AD49D6A013102359D62DD6A02353A
:10523700DD621D6B013D1D63E0E7019D6F1E019758
:10524700002DEBD1142003B0F0BD0028FAD00138AF
:10525700D9E700BF00E07F4000007E4010B50E4B4D
:105267001C7CE40609D5D3F88040640402D51C7C75
:1052770000241C7440F2F51400E00024D3F88030B9
:105287000B4218BF144620B90CB1FFF71BFF20468D
:1052970010BD0446F9E700BF00E07F40402213B588
:1052A700836910480193104B01631A7008221A7022
:1052B70000220E4931F8024B0132082A1C80F9D12D
:1052C700D0221A70D0F880301B0402D5002002B01B
:1052D70010BD019B1BB1019B013B0193F2E7142019
:1052E700F5E700BF00E07F4000007E405C0500203E
:1052F7006FEA415110B56FEA51514FF6FF74074BF2
:1053070042EAC03040F4F0401C805C80D88099802D
:105317001C815C819C81DC8110BD00BF5C05002085
:105327004FF49643002213B50193144B04461A60B9
:1053370043681A7842B193F9110000F021F96368C4
:1053470093F9130000F01CF94FF459430C4AA2F8E3
:1053570044304AF60123A2F88430B2F884309BB275
:10536700012B02D1002002B010BD019B1BB1019B94
:10537700013B0193F1E74FF4FA70F4E70070004046
:1053870000E07F4038B50546FFF7CAFF044668B11D
:10539700204638BD6CB98021AA682846FFF720FF50
:1053A70018224FF4A041FFF759FF04462B6B002B3F
:1053B700F0D1FFF74DFE002C08BF0446E8E710B513
:1053C7000F4B0446D3F890310E4803F00703DB4335
:1053D7000E2220F8023BFF2100F0CEF82046FFF70F
:1053E7009FFF20460849FFF759FF18220021FFF7C2
:1053F70035FF0446FFF72CFE002C18BF204610BDD2
:1054070000A000015C05002090A1000138B5816271
:1054170002630546FFF784FF044650B90122124B89
:10542700A3F8E0202B6B33B9FFF712FE002C08BF5F
:105437000446204638BD002CF6D1D5E90712AB6AE1
:10544700284623F40013B3F5803F36BF0A464FF4CE
:1054570000414FF40051FFF7A3FE19224FF4C0415A
:10546700FFF7FCFE0446DDE700E07F402DE9F04151
:10547700104B0546D3F8DC600F469046FFF750FF08
:10548700F60F044698B94FEA58323046790BFFF7C2
:105497002FFF09492846FFF701FF21461822FFF78A
:1054A700DDFE0446FFF7D4FD002C08BF0446204666
:1054B700BDE8F08100E07F4030A10001F8B5074664
:1054C7000D461646FFF72CFF044650B95EB1124B46
:1054D70045F4CC45A3F8E850FFF7BAFD002C08BF08
:1054E70004462046F8BD1022FF210C4800F044F87E
:1054F70047F6FF7215F0010F4FF6FF7318BF1346FB
:10550700064A0749D3803846FFF7C8FE21461822C6
:10551700FFF7A4FE0446DFE700E07F405C050020BC
:1055270030A10001F8B506460F461546FFF7F8FE0D
:105537000446D0B90F4B1919CDB13A590434102C80
:105547000A60F8D115B1DA891543DD814AF25011A5
:105557003046FFF7A3FE18220021FFF77FFE04461F
:10556700FFF776FD002C08BF04462046F8BD4FF034
:10557700FF32E3E75C0500205FF800F0873C00009E
:105587005FF800F0491A00005FF800F0D11A000038
:1055970001000000134F0000B84E0000C04E00008D
:1055A700F4890020D14E0000F64E0000FFFF0000F6
:1055B7000000000000000000000000004D2A00006D
:1055C7007C8A002010000C000000E0FF1F00000094
:1055D70000000000FF0000008C0500200000000014
:1055E700E44F000004500000C44F0000000000001A
:1055F70000000000000000000000000000000000A4
:105607000000000000000000000000000000000093
:105617000000000000000000000000000000000083
:105627000000000000000000000000000000000073
:0C56370000000000000000000000000067
:020000040100F9
:10A10000FFFFFFFFFFFFFFFFFFFFFFFFFFFFFFFF5F
:10A11000FFFFFFFFFFFFFFFFFFFFFFFFFFFFFFFF4F
:10A12000FFFFFFFFFFFFFFFFFFFFFFFFFFFFFFFF3F
:08A13000FFFFFFFFFFFFFFFF2F
:10A20000FFFDFFFFFFFFFFFFFFFFFFFFFFFFFFFF60
:10A21000FFFFFFFFFFFFFFFFFFFFFFFFFFFFFFFF4E
:10A22000FFFFFFFFFFFFFFFFFFFFFFFFFFFFFFFF3E
:10A23000FFFFFFFFFFFFFFFFFFFFFFFFFFFFFFFF2E
:10A24000FFFFFFFFFFFFFFFFFFFFFFFFFFFFFFFF1E
:10A25000FFFFFFFFFFFFFFFFFFFFFFFFFFFFFFFF0E
:10A26000FFFFFFFFFFFFFFFFFFFFFFFFFFFFFFFFFE
:10A27000FFFFFFFFFFFFFFFFFFFFFFFFFFFFFFFFEE
:10A28000F8F8FFFFFFFFFFFFFFFFFFFFFFFFFFFFEC
:10A29000FFFFFFFFFFFFFFFFFFFFFFFFFFFFFFFFCE
:10A2A000FFFFFFFFFFFFFFFFFFFFFFFFFFFFFFFFBE
:10A2B000FFFFFFFFFFFFFFFFFFFFFFFFFFFFFFFFAE
:0CA2C000FFFFFFFFFFFFFFFFFFFFFFFF9E
:0400000300000FC525
:00000001FF
