:10000000C0710020A91C000011060000DD050000E1
:10001000DD050000DD050000DD050000DD05000058
:10002000000000000000000000000000DD050000EE
:10003000DD05000000000000DD0500005D06000099
:1000400071060000730600006F0600006D060000D8
:1000500071060000730600006F0600006D060000C8
:10006000691700005D1C0000000000000000000097
:100070000000000000000000000000000000000080
:100080000000000000000000000000000000000070
:100090000000000000000000000000000000000060
:1000A0000000000000000000000000000000000050
:10040000FFFFFFFFDFCEFFFFFCFF0F00FFFF0F002E
:10041000FCFF0F00FFFF0F00FCFF0F00FFFF0F00AE
:10042000FCFF0F20FFFF0F20FCFF7F40FFFF7F40FE
:10043000FCFF0D40FFFF0D40FFFFFFFFFFFFFFFF31
:10044000FFFFFFFFFFFFFFFFFFFFFFFFFFFFFFFFBC
:10045000FFFFFFFFFFFFFFFFFFFFFFFFFFFFFFFFAC
:10046000FFFFFFFFFFFFFFFFFFFFFFFFFFFFFFFF9C
:10047000FFFFFFFFFFFFFFFFFFFFFFFFFFFFFFFF8C
:10048000FFFFFFFFFFFFFFFFFFFFFFFFFFFFFFFF7C
:10049000FFFFFFFFFFFFFFFFFFFFFFFFFFFFFFFF6C
:1004A000FFFFFFFFFFFFFFFFFFFFFFFFFFFFFFFF5C
:1004B000FFFFFFFFFFFFFFFFFFFFFFFFFFFFFFFF4C
:1004C000FFFFFFFFFFFFFFFFFFFFFFFFFFFFFFFF3C
:1004D000FFFFFFFFFFFFFFFFFFFFFFFFFFFFFFFF2C
:1004E000FFFFFFFFFFFFFFFFFFFFFFFFFFFFFFFF1C
:1004F000FFFFFFFFFFFFFFFFFFFFFFFFFFFFFFFF0C
:10050000044A138C1B071B0F8342FAD1538C9B04A4
:10051000FCD5704700000940030040F2FF0CF0B525
:100520008518EC1A012C09D8012314009C430019EA
:10053000D30702D503780A780B70F0BD1C88664695
:1005400027003740240A0E780F704F7802334C7022
:10055000E7E78218904200D170470B7803700130B2
:10056000F8E7FFFF38B940F20012034BDA67BFF338
:100570004F8FBFF36F8F704704E100E040F200122D
:10058000014B1A607047C04600E100E07F230A007B
:1005900070B51A400400194218D00D4BC909090161
:1005A000C918891878310D7885B10A4B6D00ED189E
:1005B0002000FFF7D7FF03222B881340013A134393
:1005C0002B802A800CB9FFF7D9FF70BD024DEFE7F1
:1005D000D80500206E0009406000094000BE704749
:1005E000064B0749DA1DD27F1B6A920052585B0105
:1005F0005B0FDA401300034A1360704700E00140CC
:10060000A4050020B805002001380028FCD170475F
:1006100040F24012024B9A5AFE3392B25A86704709
:1006200000600040030010B50949C0339B005A58D0
:10063000084C22405A501F22012302409340400997
:10064000054A8000801840F280128350036010BD7C
:1006500000600040FFFFFEFF00E100E0024A136877
:10066000013313607047C046BC11002070477047CB
:100670007047704770B50F26CB1D02003240D5B2CF
:100680002C0000093034092A00DD07341C705A1E82
:10069000994200D170BD1300EFE7FFFF70B503254D
:1006A00083082840A840FC352E00074A9B009B1871
:1006B00040F2003289018640294081409C58B44371
:1006C0002143995070BDC04600E100E0C38959182C
:1006D00089B28B4202D883898B4202D24389C918DE
:1006E00089B2C1817047038A591889B28B4202D8F6
:1006F00083898B4202D24389C91889B2018270472B
:1007000070B5C689058AB4B2721BABB292B2AE4262
:1007100002D24589521B92B2858895420ED2A542DB
:1007200004D8631B82899BB29A4203D24389EB1897
:10073000E31A9BB22A000382038A9BB22AB90A6099
:100740004A608A6070BD641BA4B2A542FBD99D4279
:1007500009D90568ED184D60A34207D200230A802D
:100760004B808B60EEE75B1B9BB2F0E78488121B2B
:10077000E51A9A180D804A800368F2E7F0B5C78938
:10078000038A8688FA1ABCB29DB292B29F4202D204
:100790004389D21A92B2B21A93B22BB90B604B6052
:1007A0008B60F0BDA41BA4B2B442FBD2B54209D207
:1007B000026812194A60A54207D900232C1B0C803D
:1007C0004B80EDE7AD1BADB2F0E782889B1AE318D2
:1007D000151B0D804B800368E2E7FFFF094A030009
:1007E0005AB1094A1078984205D91820074A43435C
:1007F0001068C01870471B1ADBB20020002BF9D11B
:100800000348F7E700000000C0050020BC050020F9
:100810005C2A000010B5CB6802490B6101219847A2
:1008200010BDC046C405002010B5054B1B7818B19B
:100830000BB9FFF7A3FE10BD1800FFF793FEFAE710
:10084000A00500200222024B5A8000221A71704734
:1008500070070020002210B5024B1A80FFF7F2FF4C
:1008600010BDC0467007002010B50020FFF7F2FF52
:1008700010BDFFFF0023180030B58D788C79012C56
:1008800009D04A780020212A04D109338A7898B205
:100890000B4B1A7030BDCC79022CF2D193420CD2A2
:1008A0008C78AC4209D1CC78844206D10C780130E6
:1008B0001B19C0B29BB20919E0E70020EAE7C04665
:1008C000700700200022084B1A719A78042A02D17E
:1008D000013A9A707047072AFCD11978013A490702
:1008E000F7D40232F5E7C04670070020037810B550
:1008F000012B06D1034C23881BB1FFF7E3FF002334
:10090000238010BDFE10002083010001034340F24C
:10091000091018437047FFFF10B5041E05DB034A9A
:10092000FFF7BCFE2000FFF77DFE10BD98110020F0
:10093000F0B5194DAB686D685C6E2D78032D00D84D
:100940000134464246410EB9A0421BD35B6BD2072D
:100950000BD4DB06DB0E032D09D91A0901239343BF
:1009600060B9ABB902234B60F0BDDB02F2E70C22A9
:100970001340043B5A425341DBB2F1E7002BF1D163
:100980000323F0E7032D01D90860EDE70138FBE709
:10099000002CE7D0F4E7C04698110020F0B50C25F4
:1009A00089B001926A43174B05AE0C00D358310051
:1009B000039098473688A64200D92600019B320052
:1009C0005D43104B1049ED18AB680698029305AFD4
:1009D0009847A51BB44209D07E88AE4200D92E00AC
:1009E00032000949B868029B9847AD1B0C22019B55
:1009F000611B5A43034B0398D218536889B2984736
:100A000009B0F0BD602B000014000940F7B5214C7F
:100A1000E579A3792D021D432DB90120257065705C
:100A2000A570E570FEBD1C4B2F001B885B065B0E9E
:100A300001939D4200D91F008FB163782278A67878
:100A40001B021A43360416430122E3781B061E4399
:100A5000637A134210D039003000FFF79FFF019BEB
:100A60009F4202D20D4B0E4A5A84ED1BABB21B0AB9
:100A70000020A571E371D5E730003A00F619094965
:100A8000FFF74AFD330A26706370330C360EA370ED
:100A9000E670E4E7D80500205E0009400000094048
:100AA0000080FFFF140009400C22F0B5424385B0DE
:100AB000019033481318DC79997924020C4334B936
:100AC000145401205C709C70DC7005B0F0BD6B4666
:100AD00040F200429B882B491A430A842A4A260086
:100AE00013802A4B01981B889BB20293FFF708FDE5
:100AF000029B9C4200D91E00C6B10C23019A5A43A6
:100B000003921F4B03999A5CCF187B78BD781B0228
:100B10001A432D0415430122FB781B061D437B7AE3
:100B200013421DD031002800FFF738FF029B9E4280
:100B300002D2174B134A53840023124A1384114BD9
:100B40001B8C1B07180F002BF9D1019A0C33534350
:100B50000B4AA41B9B18A2B2120A9C71DA71B4E76B
:100B6000320028000B49FFF7D7FC054B039AAD195B
:100B70009D542B0A7B702B0C2D0EBB70FD70D5E79E
:100B8000D805002000000940640009406C000940BD
:100B90000080FFFF14000940F7B51400344AC30970
:100BA00001939B180833DA7F0600D2070D00D70F98
:100BB000002A47D12F4AD97F1278009201220A4396
:100BC000DA770098FFF7CEFC2B4B66B340F2204259
:100BD0001A842022198C1142FCD00121274B5A7A09
:100BE0008A435A72FF22210A22401A7159719A715E
:100BF000D971F4B12A0A1D705A702A0C2D0E9A7000
:100C0000DD704EB11E4B1B88DB0BEBB11D4B1B88FF
:100C10001B0619D5FFF7FAFE0123194A1380009B22
:100C20006BB1012721E020221E84198C1142FCD1D6
:100C3000D3E71C705C709C70DC700523EDE7FFF758
:100C40009DFCEEE7002710E0009B0BB9FFF796FC38
:100C5000074A01219446019B63440833DA7F8A43A3
:100C6000DA77DA7F03318A43DA773800FEBDC0468F
:100C7000FC070020A005002000000940D805002046
:100C800060000940540009400323F0B50B4085B0D3
:100C900007000D000093032B07D00C23304E0B40B0
:100CA00072681278062A02D123B905B0F0BD0BB1E3
:100CB000032AFAD12B4B32689A42F6D1B3685B6EA5
:100CC0000133BB42F1D301235B42029300232A008C
:100CD000380002A90393FFF72BFEB268039B146B45
:100CE000019373B940F2020C61462B0701D504232E
:100CF0001900634602981D4221D08B00D318D86496
:100D000018656B0604D58023106CDB030343136462
:100D1000009B012B20D0144B1C40019B1B041C4347
:100D2000022D13D1019B23B10122380002A9FFF744
:100D3000FFFD0E4B1C40039B1B061C4309E0009B60
:100D40005B1812339B00D3185860DAE7009B002B26
:100D5000EFD1B3681C63A8E7022DE3D0E9E7C046F2
:100D60009811002054504700FFFFFCFFFFFFFFFCDD
:100D700040B2C043002210B5C00F1100C001FFF700
:100D80000BFF10BD70B5074D0100040008222800BC
:100D900001F080FD0023AB60EB602078FFF7E8FFF7
:100DA00070BDC046C405002070B5050000242000B9
:100DB000FFF714FDC8B14368280098470B4B013476
:100DC0001B78E4B2A342F2D2094C3B22002120005E
:100DD00001F069FD1022FF21E01C01F064FD2000FC
:100DE0001422FF21133001F05EFD70BDC00500200C
:100DF000FC07002010B5114B9889D989421A141CA0
:100E000092B2402A00D940241A78A4B27F2A09D984
:100E100088420FD022009968094801F03BFD8020EC
:100E2000074903E0884207D1002000212200FFF794
:100E3000B3FE10BD8020F8E70020F1E7C4050020D4
:100E4000BC070020F8B5124E04000D001700010089
:100E50000822300001F01EFD0023B560F381E37924
:100E6000A2791B0213431A1CBB4200D93A1CB2815F
:100E7000E37991B2A2791B0213432BB109B1280087
:100E80000DB1FFF7B7FFF8BD2078FFF771FFFAE764
:100E9000C405002013B56C46227063701A0A1B0C3F
:100EA000E3700023A2702171062269466371FFF787
:100EB000C9FF16BD70B50400C289008A95B2131A25
:100EC0009BB2824202D262899B1A9BB2A2889A424A
:100ED00018D1237AB3B970BD801A80B29042FBD288
:100EE000E28823685043181801F0D4FC6B1C9BB2B5
:100EF0009D4202D8A2899A4202D262899B189BB273
:100F0000E381E8E72800E9E7F0B58DB0C04B0020A9
:100F10001C6823689847658AA28AA8B2AB1A91B266
:100F20009BB2954202D2E2899B1A9BB222899A42D5
:100F30000CD2904204D3831A258A9BB29D4203D2DD
:100F4000E389D318C31A9BB2A38213001D0013BBFD
:100F5000A28A53199BB29A4202D8228A9A4202D29A
:100F6000E2899B189BB2A382012023689847002D39
:100F700000D16CE309AC607801380728C6D801F0CD
:100F8000ABFC15002100C5FF5C035C032A00F702DF
:100F90005F03891A89B28A42FBD962896368514327
:100FA00009A8591801F076FC0125D1E72078FFF750
:100FB000FBFE14220021974801F075FC2279964B24
:100FC0009A70A3E72078FFF7EFFE142200219148E2
:100FD00001F069FC9AE701208F4F04213B788D4E88
:100FE00003433B703B000833DA7F8243DA77DA7FD2
:100FF0008A43DA773B0028331A7882431A701A78CA
:101000008A431A70237832000093002333612579D4
:1010100060332B400193602B26D0402B0BD17F4BAC
:1010200013B301000AAA0098336100E000BF002852
:1010300000D06BE718E0ED06ED0E012D00D1A8E120
:10104000022D00D1CBE17DB9019B202B16D1237A53
:101050000F2B09D8704A9B18D878FFF7BFFB0AAA54
:101060000100002800D0D8E109AC00212078FFF76A
:101070008DFA80212078FFF789FA47E7019B002B42
:10108000F2D160790928EFD801F026FC74016C01D7
:10109000EEFF6301EEFF0A00E200EEFF15001B0009
:1010A0000AAB03CB03C200233A78B360F360023388
:1010B00013433B702AE77B7808AA911C0B7001222E
:1010C00063E1A37901937B78019A9A4205D1019B50
:1010D0007B700AA8FFF756FE18E77B7883B100986B
:1010E000FFF740FA0A2140F20C0C013969BB009B62
:1010F0000BB9FFF743FABC780098FFF755FEBC70B8
:10110000019B002BE3D030223B78454C93433B704E
:101110000123093402936378042BA5D10025404EA6
:101120002436361BB6B22800FFF758FB00289BD0A8
:1011300083683200210000989847082800D87FE093
:10114000864200D27CE0002238E063464B43354AB9
:101150009B181B7A002BC8D07F2601241E40DB0978
:101160001B019A189219783212782F4D9440E88E0C
:10117000A043E886A2B12D48540024180020208006
:1011800094B225002A4C25802A4C20806446624374
:10119000244C1B199B191219783310721870A4E78C
:1011A000254CEBE7A3781C49D318DBB25B18D97840
:1011B000FF2900D058E70132DD70D2B2029B9A427B
:1011C000F0D12018A04214D81C4B1B78AB4200D29F
:1011D0004AE7134B2433984200D378E7012243783F
:1011E00002920B2B03D1C37802930378C01804003A
:1011F00091E76378052B08D1A2787A33134006492A
:101200005B005B181333D2099D542378E418D9E7A7
:1012100038080020C4050020FC0700200000000062
:10122000742A0000D8050020000009406E00094023
:10123000640009406800094060000940C0050020C2
:10124000B84B01351B78EDB2AB4200D36BE70BE72F
:10125000E3881A0A501EDBB20E2800D904E701F019
:101260003BFB0F001E002B0003FF03FF6C001E0062
:1012700003FF03FF03FF03FF03FF03FF03FF15004B
:101280001222A9490AA8FFF7DDFDD0E6A74B002BE3
:1012900000D1E9E600E000BF010018B9E4E6022A47
:1012A00002D1A3494A88EDE7A24A002A00D1DBE631
:1012B000180000E000BFEFE77BB902229E499F487B
:1012C00001F0E8FA012040F20033FF224000023032
:1012D0009B4903430B800240D4E7052B00D9C3E6AA
:1012E000984A994C9B009F582378ABB9974B2100A3
:1012F0001B6858691D00FFF7BDF92100A869083176
:10130000FFF7B8F92100E8691031FFF7B3F92100C0
:10131000286A1831FFF7AEF9380001F0CCFA884A94
:10132000C0B2019B9842CED9019B019C01333C5D28
:101330005900DBB28C520193F3E7854B002B00D1AF
:1013400092E600E000BF0100002800D18CE60278A0
:1013500098E7E388012B00D086E63A7807331343F9
:101360003B70B6E6E388012B00D07DE608223B788F
:101370009343F5E708AA911C01223B7858091040D5
:101380009B089218134003430B800AA8FFF75AFDED
:10139000BCE5237A0F2B00D966E66E4A9B18D878F5
:1013A000FFF71CFA0100002800D15DE600980AAAA8
:1013B000FFF730FA002800D0A8E5602360212279E9
:1013C00013400A4200D04FE6627911000A39012920
:1013D00000D949E633610A2A00D07AE66CE6237A1E
:1013E00004937F23049A1A400292092A00D93BE60B
:1013F000049BDB0903935300564A07939B18039AF7
:101400009B18D87C0693FFF7E9F9019B059043B13F
:10141000002800D128E601000AAA0098FFF7FAF98F
:1014200005E663791A00AA43012A0CD0002B00D0EC
:101430001AE6069F08AA0837FB7F911C9B07DB0F63
:101440002A000B80A1E7E288002A42D1424A15789F
:10145000069A0832012B4ED1D37F9B0739D5029BC8
:10146000B3B1039B3D4A1B019B18029A9B1878332A
:101470001C786CB13A4B6400E4182800FFF772F84E
:1014800040F200132380039B23B1012323800EE04D
:10149000344CF2E7314A049B9446634478331A781B
:1014A000314B1A80314B1B889B0B012BEDD10DB9B1
:1014B000FFF764F80221029B264A5B009B18039AFF
:1014C0009B180833DA7F8A43DA77DA7F01398A4357
:1014D000DA77059B002B00D118E5190000980AAABD
:1014E000FFF798F9002333613B0028331B78DB07B3
:1014F00000D50BE5EDE5D37F9B07EAD404992800DE
:10150000FFF744F8134A079B9446039A63449B18D9
:1015100002220833D97F0A430121DA77DA7F0A43AE
:10152000D6E7C046C0050020982A00000000000051
:10153000742A0000000000005A2A000072060020F1
:1015400070060020982B0000501100209CB17F40B5
:1015500000000000FC070020A0050020D8050020A6
:101560006E000940600009406400094068000940BD
:101570007F22257937492A4053005B18EF09DB1990
:10158000190001260831C87FB043C877C87F0336E9
:10159000B043C877002A44D12578A6682E4C23781A
:1015A000DA09BA4211D0002E00D0AFE42B4B1BB1A8
:1015B0002100280000E000BF2369002B00D1A5E432
:1015C00003212800244A9847A0E47F2B07D8A0686D
:1015D000002800D19AE43200214901F05BF9A268A9
:1015E000E38992199B19A260E2889BB2E3819A4237
:1015F00001D03F2E12D823691BB92078FFF7B8FB22
:1016000084E402212800144A984701000028F4D1FC
:101610002800FEF7BBFF802128002CE5FFF7EAFB3E
:1016200074E4D87CFFF7DAF8030080B11E69290062
:1016300062792078A368B04768E4064B1B7865E4BC
:101640006368002B00D161E4A06898475EE40DB0A8
:10165000F0BDC046FC070020C405002000000000CB
:10166000BC07002070B50B4C25680B4B1A7823681B
:101670005B1B632B08D9BFF34F8F084B084ADA6016
:10168000BFF34F8FC046FDE7FF2AF0D0FFF73CFCC9
:10169000EBE7C046BC110020A005002000ED00E0F3
:1016A0000400FA0530B50400407885B002380328FC
:1016B0001FD801F007F9025016220121274B1A7892
:1016C0008A431A701A7849188A431A7000225A708D
:1016D00004211A788A431A70214B18684018210097
:1016E00036E01E4B1A78D2070BD5042219780A432C
:1016F0001A701B4B18680430F1E7184B1A78D207A0
:10170000E6D405B030BD2800FFF768F820B1436982
:1017100013B12078616898470135EDB2114B1B7801
:10172000AB42F0D20D4B1A785207EAD504211A7851
:1017300001A88A431A7000210C2201F0B4F86A460D
:10174000237801A9137105235371054B18680430E0
:10175000FFF7B0FBD5E70025E0E7C046FC07002017
:1017600038080020C0050020F0B58DB0EFF30383EA
:10177000103B5BB2BC49C0339B005A58BB48BC4EBF
:1017800002405A50F38FDA0AD202D14308220A43A8
:101790009CB292B21BB2F287002B08DAF28F1023B0
:1017A000B449120600D48CE00A8813430B8063040A
:1017B0000FD509AD0C220021280001F074F8052393
:1017C00028006B70FFF76EFFAA49AB4A0B8E1340DF
:1017D0000B86A30413D5A74B1B8E9B040FD509AD15
:1017E0000C220021280001F05EF8032328006B7012
:1017F000FFF758FF9F49A04A0B8E13400B86E30466
:1018000008D570232340202B00D1CDE05DD8102BCC
:1018100000D177E023052AD5E30700D4E0E00827CC
:10182000F38F3B4223D044F20003924A07AD538426
:10183000924B0C221B8800212B80914B1B886B80C4
:10184000904B1B88AB80904B1B88EB8009235B423D
:10185000F38709AE300001F026F806233A0029008C
:1018600073700AA801F016F83000FFF71BFF63053C
:1018700016D50021854B1A881980D30710D5FFF79C
:10188000C5F868B1824A09A81179537940F200720B
:10189000099280221B020B430A920B93FFF702FF6F
:1018A000E3050CD57B4A734BDB8ED18F1940CB43BC
:1018B0009BB20191D387019B002B00D0A6E00DB015
:1018C000F0BD0A889A430A8071E7602B05D016D8CC
:1018D00060232340402B00D09CE709AD0C2200215F
:1018E000280000F0E0FF042328006B70FFF7DAFE09
:1018F00042F200035F490A8E13430B868AE7702B7E
:10190000EBD087E701235B4A5387D38644F2000379
:10191000538400231384574B1B8C1B071A0F002B77
:10192000F9D1544B1A84534B1B8C1B07190F002BF6
:10193000F9D1594A013394460F1C58489A0012189D
:10194000574800925A00121856489DB205806546C5
:101950002F8040F200251580118040F20012009D7A
:1019600001332A80062BE8D1002140F200254C4F9C
:101970005A00D2199FB2078067460133398015801B
:1019800011800A2BF3D109AD98220021404800F0C4
:101990008AFF0C220021280000F085FF0123280087
:1019A0006B70FFF77FFE35E73F4B1B88DBB2002BE8
:1019B00000D12FE70021052207AD09AF29706A7019
:1019C0006B80A980E9800732380000F06CFF0623A5
:1019D000082229007B700AA800F05CFF3800E0E7CD
:1019E000072627003740344200D040E7214B082229
:1019F0001D8C3900AD06ED0FB54009A800F053FF6E
:101A000006AB5E731D7409A80B972EE7019800F0D2
:101A10006DFF0C2343431E4C00901B191A7AD20908
:101A2000002A43D0FFF740F8002800D1A7E00C239C
:101A3000009A5343164A9B185A79DC799879197998
:101A400012022402114304430C1B0822002109A89E
:101A50001D7A00F028FF072306AA5373157409A8FE
:101A60000B94FFF71FFE8AE000600040FFFFFEFFBF
:101A70000200094000000940FFDFFFFF5400094059
:101A800056000940580009405A0009404A000940E0
:101A9000D805002008000940680009408C00094072
:101AA0006E0009406400094050000940009A002A75
:101AB0007BD09A79DB79634D1B02134303936B460A
:101AC000614A1B882B841380604B00981B889BB253
:101AD0000493FEF715FD6B8C049A1B051B0D0293F6
:101AE000934200D90292039D029A954200D91500B3
:101AF0000C23009A5343564A05939E187278E15C72
:101B0000B378F778120211431B040B433F061F43BF
:101B10003DB1737ADB0739D5002229003800FEF782
:101B20003DFF049BAB4203D944F20003454A538472
:101B30000023444A1384434B1B8C1B07002BFAD110
:101B4000039B009A591B0C235343414A9B188AB2AA
:101B5000120A9971DA71049BAB4203D8039B029A73
:101B600093420CD80C23002200994B433849E2548D
:101B70005B185A709A70DA70002F00D057E7012373
:101B8000009A9340019A9A43019294E62A00380001
:101B90003049FEF7DEFC059A7B19A3541A0A7270CD
:101BA0001A0C1B0EB270F370BBE7E379A2791B022B
:101BB00013430293284B029E1F88224B7F065B8CA7
:101BC0007F0E1B051B0DBE4200D93E009E4200D970
:101BD0001E008EB1637822781B02A5781A43E37841
:101BE0002D041B0615431D43637ADB071BD500221A
:101BF00031002800FEF7D2FEB74203D944F20003B9
:101C0000104A5384029B9A1B93B21B0AA271E37180
:101C1000B74202D8029BB342B1D100232370637054
:101C2000A370E37003E728003200AD190949FEF7FD
:101C300090FC2B0A257063702B0C2D0EA370E570A1
:101C4000DAE7C04600000940640009406C00094022
:101C5000D8050020140009405E00094010B5FFF7C8
:101C600083FD10BD43F6B27310B50C4A0C49040055
:101C7000D1528168062000F073FE0A4B10201B78B9
:101C80009B0703B1502000F05BFE63681A781AB11D
:101C900011201856FEF7C6FC10BDC04600C07E409D
:101CA00080AAFFFFA0E00140E54BE64AF0B5936053
:101CB00040F2FE330021E44FE44AE54CFA52E54B92
:101CC000E54A61801A60E54AD9605A6048F200022C
:101CD00089B09A601A61FEF783FC40F21343082230
:101CE000FA54DF4B01321A7040F28043FA5C6AB951
:101CF0000132FA54DB4BDC481B68B0FBF3F3DB48E2
:101D0000B0FBF3F0800808B1FEF77EFC002340F240
:101D10008142BB54013ABB54D54BD6491A78002AAC
:101D200000D01AE30023D44A0B701378DB07FCD5EC
:101D300001250022D14B1D70D14BDA77D14B3B628C
:101D4000FEF74EFC40F2FE334AF20052FA52E580B2
:101D5000E3889AB20192002BFAD10133638004AA7E
:101D60000199073211701178EFF3108483F3108812
:101D7000C54B598831B940F2FE304AF20255395A02
:101D8000294339525988013189B2598084F3108826
:101D9000EFF31084012181F31088BC4EBC4DB06874
:101DA0002840B060B06884F31088BA4D2868C00736
:101DB000C00F10702868C007C00F10702868C007D7
:101DC000C00F1070EFF3108081F310888022B46888
:101DD00052052243B260B26880F31088EFF310829C
:101DE00081F31088598819B15988013989B259800D
:101DF0005B8843B940F2FE3102207B5A8343A648F8
:101E000003439BB27B5282F3108800244AF20053B2
:101E100041F20002A149A2488C800B80A14B8B604B
:101E2000A14BCB60A14B5A840123A14A8B80121A8B
:101E3000210000F038FD9F489F4AA049121A00F087
:101E400029FD9F4A9F4BD31A9B100293029BA342EA
:101E500000DD92E2FEF7C4FB00239B4C9B491A0075
:101E6000185DC032920001335050202BF7D1984BAF
:101E7000984A1A60EFF31081012383F31088964A81
:101E8000106818B9954BD8704030D870136801337A
:101E9000136081F31088924CFF20A188236802937D
:101EA0000B0A01408C4680211B010393029B4902CF
:101EB0000B420AD06146039B581880002B58894971
:101EC0000B402B50029B0B402B50039B0299634409
:101ED0009B00E950019B083401339BB201930A2B0C
:101EE000DAD1EFF31081093B83F31088136813B143
:101EF0001368013B136012681AB9784BDA708032AC
:101F0000DA7081F3108840F2FE32774C7749BC5288
:101F1000736808200B4073604AF20053BB52FEF70F
:101F200081FB40F2E8324F4B1B68B3FBF2F3802297
:101F3000013B520493420DD2C0216D4A4148536087
:101F4000036A09061B021B0A0B430362002393600A
:101F50000733136040F2FE33664A67491068FC524B
:101F6000884200D010E2002111604AF20052FA5279
:101F7000624D634B2A689A4200D1CCE002230024D0
:101F80000121EB605F4B29746B605F4B6C61AB6050
:101F9000EC61AC61EFF3108281F31088F3683F319C
:101FA0008B43F360F36882F310884AF20052AB6807
:101FB00006A81A608022AB685204DC62DC639C6471
:101FC000DA62802212061A615A619A6149F6950214
:101FD0005C629C62DC611C629A665A6601230100A5
:101FE0005B42220044F64B4006930794FEF7A0FCA8
:101FF000AE68069B20007365B365079B1A041B0639
:102000001A430192FEF780FC3200AA238832DB03D8
:10201000B4630121146033640323EA68F260019A17
:10202000706313430A43336320003263FE31FEF7CB
:1020300073FC21002000FEF76FFC210066E0C04623
:102040000000000000ED00E000E0014003A5FFFFFC
:10205000FEC00140A4050020006CDC0200127A00E2
:10206000A2E00140B805002000CA9A3BA09D1200E2
:10207000A0E0014036E001403CE0014031E0014099
:1020800007E001400001001044110020FC6F0440F3
:10209000FFFFFFEF0008044000A5FFFF000D004018
:1020A000B8050020C0510020C0710020FE60004033
:1020B000C011002000000020A4050020B02B00006B
:1020C000A4050020A4050020102B000000600040A3
:1020D0003C11002054524F504C110020000D044080
:1020E000AC2A0000FFFFFEFF02A5FFFFFFF7FFFF86
:1020F00010E000E0F07F0020358173079811002088
:1021000054504700782B0000008107402000FEF764
:1021100003FCCB4B2B6003236A6811788B429B41F5
:1021200044F61F615B425B18A9688B6612781AB986
:1021300042F20F724A658A65CA6AD20705D44B66B5
:10214000AA23DB030B64EB68CB6000210800FEF7D9
:102150009BFD2B68BA4A934202D1AB68EA685A6089
:10216000B84CB94B00226360230034331A70B74B6C
:10217000072019683A6A0D00130E03409D402B009A
:10218000120F0240D340B248B24AE360834207D8FC
:10219000934205D0B048834202D0B04883424FD129
:1021A000386AAF4D4001400F81405B19C140B3FB1D
:1021B000F2F34919B1FBF2F1E36040F283530620D8
:1021C0004B43B3FBF0F3236140F276334B43B3FB55
:1021D000F0F3636158234B43B3FBF0F3A361A14BCE
:1021E00000224B43B3FBF0F3E3619F4B9F4D4B4306
:1021F000B3FBF0F323629E4BA1604B43B3FBF0F3C0
:10220000636243F6C073EA549A4B1A78012A03D0EA
:1022100001221A7000F0A4FB8A48FFF723FD40F268
:10222000D8111F20E3685A1E6B58024020308343A8
:10223000134384486B5000F07BFB08B98E4B23603E
:102240008E4E804800F09CFB3378FF2B61D13B22FF
:1022500000218B4800F027FB00238A4A5382938297
:1022600013895B009BB2591E5B42D381864B11825E
:102270001A60864B23B1864800E000BF854B18608A
:1022800000242000FEF7AAFA002842D003689847ED
:102290007F4B01341B78E4B2A342F2D2002340F218
:1022A000004233707C4B19880A431A801A88520501
:1022B000FCD52021012005241A8840F200458A43DC
:1022C0001A801A8849188A431A801A8802431A8089
:1022D000724A146010225C5994435C518024704D02
:1022E0002F883C437F272C806E4D2C88BC43214394
:1022F00029806D4919865887D88619881143198015
:102300006A49C98F090602D519880A431A80FEF75F
:1023100035F944F61F673378FF2B01D0FEF7F4FD43
:10232000634B64491A680B68D21A632AF3D9624D69
:1023300064332C680B6020000021FEF7A5FC5F4B86
:102340001A78002A70D040F2CF72944268D80022E6
:102350001A7040F2D0732B60DDE70A781AB958483A
:102360000278D207FCD51A78D206D00F002AFADB01
:1023700018701A78D206FCD4D4E4524AA3009B18F1
:102380001B689847013461E511604AF20051F95227
:1023900040F2F313464801689942FCD940F2FE33FB
:1023A0000021FC5211604AF20052FA5244F200023B
:1023B0001068000E202800D0DAE5FC52EFF31085FB
:1023C0001F3880F310887068844640F60000644629
:1023D00020437060706885F31088EFF3108501204A
:1023E00080F3108841F200007468204370607068C8
:1023F00085F310884AF20050F852334B998072B638
:10240000BFF34F8FBFF36F8F304B1960304B9A6023
:10241000136883F3088844F204031B689847A7E510
:102420002C4BE4182C6076E740F2D072A4182C6094
:10243000BC4200D86FE701221A7044F620638AE795
:102440005450470004110020FC2A0000B805002069
:10245000FF083D0040420F0080841E00C0C62D00D2
:102460003F420F00B86A0500D066050000C07E40FC
:1024700068ED220090C07E404E45504FA0050020E0
:10248000FC0700208805002038080020000000001C
:10249000C0050020BC05002000000940F0000940F4
:1024A000CC0009405E00094000DDFFFF020009404A
:1024B000BC110020B8110020941100200011002050
:1024C0003CE00140A4050020000D004010E000E0C9
:1024D00000ED00E030F8FFFFF8B52F4B2F4C1A88C5
:1024E00044F200035209D202D218230000203433F0
:1024F000187080202A49C002824205D240F60003AB
:10250000200000F035FAF8BDE26240F600022263D6
:102510006268A16212780AB101221A701F48FFF79F
:10252000A1FB01221F4D204E6B79204F93436B710D
:10253000E36A1F4A9B181A0C9BB272827381A36ACA
:102540001B787B6381236B7563681B78002BDAD162
:10255000182312226169114800F01AFAC0B9A16A61
:102560004B1CA362E36A5A1CE262226B013A2263AB
:1025700052B1104A9B181A0C9BB2728273814B782D
:102580007B6381236B75E3E7044800F0D1F9BAE778
:102590000828DDD0B7E7C046FC0800200411002061
:1025A000FE080020FFC07E40FEC07E40FCC07E4092
:1025B0000000F0BD0100F0BDF7B5160013781F2232
:1025C0000F001A40012A00D051E11C005F32144074
:1025D00013421CD173780A2B0FD00B2B00D0E7E0ED
:1025E000012901D00124E3E0B278A24B5A70FEF732
:1025F00029F93000FEF7C6FB07E00129F2D13A00C5
:102600009C4901313000FEF71DFC0400D0E0202C75
:1026100000D02CE17078062800D928E100F052F9AA
:10262000043C1C6B0E130E00012903D13000FEF791
:10263000A9FBD7E70329D5D1FFF714F80129D1D198
:10264000FEF700F9F2E70129CCD18A493A003000BF
:102650000231FEF7F7FBC5E70129C3D1854A022302
:1026600011780C001C40194200D1A1E0F579B37932
:102670002D0200241D43402D00D999E00C32140096
:10268000F178B078090201432A006943200000F084
:1026900001F92A002100B5E70129A3D175490B787A
:1026A0001C003C403B4200D182E08B78022B03D0DF
:1026B0000024052B00D07BE0F379B2791B020024C3
:1026C0001343402B74D801230B71F378B2781B02AB
:1026D0001343CB80F379B2791B0213430B81F27958
:1026E000B37912021A431AB103238B700C3189E7B4
:1026F00006238B707DE75F4DA978032906D0062954
:1027000000D182E0012F00D06CE784E0012F0DD1D1
:102710002A790521130022B16A780139130002B128
:102720006423EA783000FEF7B5FB6EE7032F00D094
:1027300058E72C790523002C00D196E00423E98882
:10274000AB704D4B2E8919800131FF31890140F268
:10275000C0730A001A40194211D172B6474F3B00AC
:1027600034331A708022D202914223D2C90A40F631
:10277000000301223800C90200F0EAF862B629001D
:102780003F4F404B38883200C0180C3100F082F8BF
:102790003B88F61840F60003B6B23E809E4205D153
:1027A00072B6FFF799FE62B600233B80FEF78AF807
:1027B0002000FEBD890A8A0201927A6812780AB165
:1027C00002221A702D48FFF74DFA01222E494B794B
:1027D00093434B712D4B01989C463A63604440F201
:1027E00000418332B86200F0DBF87B681B78002B75
:1027F000C4D11122396A2148193300F0C9F80028E0
:10280000BCD11E4800F094F8B8E7012F06D12B790F
:10281000022103B105310023EA7883E7032F00D0BA
:10282000E0E62C79022304B30723AB7072B6FFF7FE
:1028300053FE62B6FEF746F80022104B1A601122D2
:102840005B689A561300213300D1CBE61F21530950
:102850000A401E3991400A0020330D499B005A500E
:10286000BFF34F8FBFF36F8FA2E7AB70BAE60024C0
:102870009EE7C04670070020FC08002004110020DD
:10288000FE100020FE080020FFC07E400000F0BDCA
:1028900000E100E0002310B59A4200D110BDCC5CED
:1028A000C4540133F8E703008218934200D1704703
:1028B00019700133F9E70023C25C0133002AFBD110
:1028C000581E704702B4714649084900095C490026
:1028D0008E4402BC7047C04603B4714649084000AC
:1028E0004900095E49008E4403BC704741420840DC
:1028F0001C2101231B04984201D3000C10391B0A30
:10290000984201D3000A08391B09984201D30009F3
:10291000043902A2105C401A7047C0461B1C1D1DE2
:102920001E1E1E1E1F1F1F1F1F1F1F1FFFFFFFFF3B
:1029300001B40248844601BC604700BFB1000020DA
:1029400001B40248844601BC604700BF89000020F2
:1029500001B40248844601BC604700BF090300205F
:1029600001B40248844601BC604700BF79000020E2
:1029700001B40248844601BC604700BF290400201E
:1029800001B40248844601BC604700BF2D0100200D
:1029900001B40248844601BC604700BF69010020C1
:1029A00001B40248844601BC604700BF010000201A
:1029B00000000004342E302E30004275696C742003
:1029C000776974682052656E65736173204164761F
:1029D000616E63656420466C657869626C6520533E
:1029E0006F667477617265205061636B6167652003
:1029F00076657273696F6E20342E302E300041720E
:102A00006475696E6F0041726475696E6F5F6361B2
:102A1000707269204446550040436F6465466C619E
:102A20007368202F307830303030303030302F38ED
:102A30002A324B612C3132302A324B6700404461DC
:102A40007461466C617368202F30783038303030D4
:102A50003030302F382A314B6700090469080000F4
:102A60005508000075080000B925000000000000AE
:102A70000000000009022400010100803209040066
:102A80000000FE0102040904000100FE0102050924
:102A90002107E8034000010112010002000000408C
:102AA00041236D01000101020301FFFF000001133A
:102AB0000E090000000001130F09000000000105CD
:102AC00000000000000001000801000000000105F6
:102AD00009010000000001000003000000000104E3
:102AE00007040000000001040804000000000103C6
:102AF00000040000040000000103000000000000CA
:102B0000ED080000000000000000000002070208BD
:102B1000717273747C7D7E7F2526000000000000AA
:102B200000000000000000000000000000000000A5
:102B30000100000000000000000000000000000094
:102B40000000000000000000000000000000000085
:102B50000000000000000000000000000000000075
:102B60007D070000CD0600005305000001070000AE
:102B7000E70600001905000002000000969800001A
:102B8000020000004B4C000001FF000000000000AC
:102B900000000000302B00005A2A0000FE2900002F
:102BA000062A000050110020182A00003D2A0000CB
:102BB000431E59180A4B70B51C000126FF34657975
:102BC000D2B2B54365711D00060CFE3580B26E822F
:102BD000FC336881080C89B258626983627570BDE4
:102BE00000C07E4082B00E4A0190136B5B060ED58A
:102BF00000210C4B59750190136B5B06D80F002B0D
:102C000008DA019B2BB1019B013B0193F4E7019B87
:102C100013B9142002B07047019B013B0193E4E714
:102C2000FCC07E40FFC07E404143032903D9890890
:102C300001390029FCD1704740F28013A521064AD2
:102C4000D150C243054BD2B258705A7058705B785D
:102C5000834200D1C046704700C07E40FFC07E4026
:102C600043F6B27344F6003273B5194E0400F35ABA
:102C700001929DB2012B09D19220FFF7DDFF0320C5
:102C8000A168FFF7D1FF1220FFF7D6FF0820FFF75A
:102C9000D3FF0620A168FFF7C7FF43F6B2720D4BC2
:102CA000B352B35A98B253B9012D07D10A4BDD8004
:102CB000DA8890B2002AFBD101325A8076BD019B9E
:102CC0001BB1019B013B0193EBE71420F6E7C046E3
:102CD00000C07E4000AAFFFFFEC0014003000022AA
:102CE000343310B51A7043F6B273094A0400D35A4C
:102CF0000BB900F019FA0121064B20009A6A0A4329
:102D00009A629A6A8A439A62FFF7AAFF10BDC04688
:102D100000C07E40FCC07E40F8B5050008001600EB
:102D20001F00FFF75FFF0400142804D12800FFF7FD
:102D3000D5FF2000F8BD40F2F0133400044AD35808
:102D40001C401E42F5D02800FFF7C8FF3C00F0E70A
:102D500000C07E40002310B5934200D110BDCC5C72
:102D6000C4540133F8E7002270B51C4B04005A80AC
:102D700043681A787AB111221F219A5653090A40E2
:102D80001E3991400A00203315499B005A50BFF369
:102D90004F8FBFF36F8F43F6B273124A124912205E
:102DA000D152FFF749FF0320A168FFF73DFF0F4B0A
:102DB0001B789B076BB10426C225D220C0B2FFF757
:102DC0003BFFE8B2FFF738FF3000A168FFF72CFFA8
:102DD00070BD062682259220F0E7C046FEC0014065
:102DE00000E100E000C07E4001AAFFFFA0E001403A
:102DF00013B50F4A0190136B1B0610D540F2DC137C
:102E000000240C49CC500190136B1B06D80F002BEB
:102E100008DA019B2BB1019B013B0193F4E7019B75
:102E20000BB9142016BD019B013B0193E3E7C0469B
:102E3000FCC07E4000C07E4070B50500406AFFF7D0
:102E4000D7FF0400142804D12800FFF747FF200013
:102E500070BD40F2F013064AD258DF3B1400FF3B2E
:102E60001C401A42F3D02800FFF738FF1824EEE781
:102E700000C07E40F8B514000F0005001E00FFF7EB
:102E800072FF210083223800FFF792FE0334AB6902
:102E9000A1085943102240F2F8132800FFF73CFF25
:102EA00038B9044B2800DB6A1B07DB0F3370FFF7D0
:102EB000D7FEF8BDFCC07E40F8B5040016000F0038
:102EC0001D00FFF750FF01210A4A380053798B4358
:102ED0002900537171438422FFF76AFEE1691923C7
:102EE000112220007143FFF717FF10B92000FFF7F0
:102EF000B7FEF8BDFFC07E40F0B585B00600029178
:102F00000392FFF730FF8323029C019301221E4F9F
:102F10001E497B7913437B71039B03BB4FF6FF7301
:102F20004B63CB6340F2DC13194A01993000D15056
:102F3000019B01330193FFF77FFF01227B7905009D
:102F400093437B7118B9019B0434872BDED1300089
:102F5000FFF786FE05B90500280005B0F0BD6278D0
:102F60002378120213434B63029BE31A0C2B07D105
:102F7000029B039A987BDB7B1B0203431343D0E73E
:102F8000E278A3781202F9E7FFC07E40FCC07E40E1
:102F900000C07E4013B50F4C0A0C2300FE3389B2EB
:102FA0005A825981082201006846FFF7D3FE6B461A
:102FB0001A882300FC335A636A465288FF34DA6366
:102FC0006A4692885A646A46D2889A6481236375F5
:102FD00013BDC04600C07E40F8B51D0004000E00C1
:102FE0001700FFF7C0FE0121ED0825630025134AF5
:102FF000E762A66253798B435371236BBBB10DB16A
:103000002800F8BDE16AA06AFFF7C4FFA36A122294
:103010000833A362E36A20000833E362236B21696B
:10302000013B23631823FFF777FE0500E5E7002D3A
:10303000E6D12000FFF714FEE2E7C046FFC07E4065
:1030400030B50C4D0C4C52B940F2DC13800A890AA1
:1030500080B289B260638232E163EA5030BD4FF6DC
:10306000FF73E363013BFF3B1843812240F2DC1313
:103070006063F2E700C07E40FCC07E40F8B51700F8
:1030800005000C00FFF76FFE9FB140F2D812C02080
:103090000321124E2140B358002783431C008901AD
:1030A0000C43B4502800FFF7DBFD07B907003800D8
:1030B000F8BD0126344063425C412002084C3900CF
:1030C0006379320033436371FFF7BAFF2800FFF7DB
:1030D000B3FE63790700B3436371E3E700C07E404A
:1030E000FFC07E40F7B501270E0004000C4D019291
:1030F000FFF739FE6B7930003B436B710022019979
:10310000FFF79EFF2000FFF797FE06006B79200077
:10311000BB436B71FFF7A4FD06B906003000FEBD8E
:10312000FFC07E400000000001B40248844601BC9C
:10313000604700BF651C0000290800003C08002013
:1031400010000C000000E0FF1F0000000000000065
:04315000FF0000007C
:0400000300001CA934
:00000001FF
