:10000000C0710020F51C000005060000D9050000A5
:10001000D9050000D9050000D9050000D905000068
:10002000000000000000000000000000D9050000F2
:10003000D905000000000000D905000051060000AD
:100040006506000067060000630600006106000008
:1000500065060000670600006306000061060000F8
:1000600091170000A11C000000000000000000002B
:100070000000000000000000000000000000000080
:100080000000000000000000000000000000000070
:100090000000000000000000000000000000000060
:1000A0000000000000000000000000000000000050
:10040000FFFFFFFFDFCEFFFFFCFF0F00FFFF0F002E
:10041000FCFF0F00FFFF0F00FCFF0F00FFFF0F00AE
:10042000FCFF0F20FFFF0F20FCFF7F40FFFF7F40FE
:10043000FCFF0D40FFFF0D40FFFFFFFFFFFFFFFF31
:10044000FFFFFFFFFFFFFFFFFFFFFFFFFFFFFFFFBC
:10045000FFFFFFFFFFFFFFFFFFFFFFFFFFFFFFFFAC
:10046000FFFFFFFFFFFFFFFFFFFFFFFFFFFFFFFF9C
:10047000FFFFFFFFFFFFFFFFFFFFFFFFFFFFFFFF8C
:10048000FFFFFFFFFFFFFFFFFFFFFFFFFFFFFFFF7C
:10049000FFFFFFFFFFFFFFFFFFFFFFFFFFFFFFFF6C
:1004A000FFFFFFFFFFFFFFFFFFFFFFFFFFFFFFFF5C
:1004B000FFFFFFFFFFFFFFFFFFFFFFFFFFFFFFFF4C
:1004C000FFFFFFFFFFFFFFFFFFFFFFFFFFFFFFFF3C
:1004D000FFFFFFFFFFFFFFFFFFFFFFFFFFFFFFFF2C
:1004E000FFFFFFFFFFFFFFFFFFFFFFFFFFFFFFFF1C
:1004F000FFFFFFFFFFFFFFFFFFFFFFFFFFFFFFFF0C
:10050000044A138C1B071B0F8342FAD1538D9B04A3
:10051000FCD5704700000940030040F2FF0CF0B525
:100520008518EC1A012C07D8D30704D501239A4368
:10053000835C0A780B70F0BD1C8866462700374044
:10054000240A0E780F704F7802334C70E9E7821856
:10055000904200D170470B7803700130F8E7FFFF3D
:1005600038B940F20012034BDA67BFF34F8FBFF385
:100570006F8F704704E100E040F20012014B1A60F7
:100580007047C04600E100E07F230A0070B51A40C2
:100590000400194218D00D4BC9090901C91889185E
:1005A00078310D7885B10A4B6D00ED182000FFF70A
:1005B000D7FF03222B881340013A13432B802A8054
:1005C0000CB9FFF7D9FF70BD024DEFE724110020F1
:1005D0006E0009406000094000BE7047064B0749A5
:1005E000DA1DD27F1B6A920052585B015B0FDA4022
:1005F0001300034A1360704700E001409C0500208F
:10060000C010002040F24012024B9A5AFE3392B2C0
:100610005A86704700600040030010B50949C03396
:100620009B005A58084C22405A501F220123024076
:1006300093404009054A8000801840F280128350A0
:10064000036010BD00600040FFFFFEFF00E100E01E
:10065000024A1368013313607047C04664100020DB
:10066000704770477047704770B50F26CB1D02006A
:100670003240D5B22C0000093034092A00D90734A1
:100680001C705A1E994200D170BD1300EFE7FFFFA6
:1006900070B5032583082840A840FC352E00074A82
:1006A0009B009B1840F2003289018640294081401E
:1006B0009C58B4430C439C5070BDC04600E100E020
:1006C000C389591889B28B4202D883898B4202D2DE
:1006D0004389C91889B2C1817047038A591889B200
:1006E0008B4202D883898B4202D24389C91889B2CE
:1006F0000182704770B5C689048AB5B2321BA3B2B5
:1007000092B2A64202D24489121B92B284889442C9
:1007100020D2AC4212D922004389E318EB1A9BB2D3
:100720000382038A9BB29C421FD90468E4184C6080
:10073000AB421DD200230A804B800EE02B1B828926
:100740009BB29A4202D242899B1A9BB22200038238
:10075000038A9BB232B90A604A6000238B6070BD85
:100760002D1BADB2AC42FBD9DDE71B1B9BB2DAE718
:100770008488121BE51A9B180D804B800368EDE7F7
:10078000F0B5C789038A8688FA1ABCB29DB292B2C4
:100790009F4202D24389D21A92B2B21A93B233B9AB
:1007A0000B604B6000238B60F0BDA41BA4B2B4426D
:1007B000FBD2B54209D2026812194A60A54207D994
:1007C00000232D1B0D804B80ECE7AD1BADB2F0E795
:1007D00082889B1AE318151B0D804B800368E2E7A3
:1007E000094B5BB1094B1B78834205D91823084A92
:1007F00043431068C0187047C01AC0B208B1002047
:10080000F9E70448F7E7C046000000007810002030
:1008100074100020502B000010B5CB6802490B610A
:100820000121984710BDC0464410002010B5054B6B
:100830001B7818B10BB9FFF79FFE10BD1800FFF72A
:100840008FFEFAE7980500200222024B5A80002210
:100850001A717047740E0020002210B5024B1A80E6
:10086000FFF7F2FF10BDC046740E002010B5002047
:10087000FFF7F2FF10BDFFFF0023180030B58D78A1
:100880008C79012C09D04A780020212A04D109331F
:100890008A7898B20B4B1A7030BDCC79022CF2D109
:1008A00093420CD28C78AC4209D1CC78844206D1E8
:1008B0000C780130E318C0B29BB20919E0E70020C0
:1008C000EAE7C046740E00200022084B1A719A789D
:1008D000042A02D1013A9A707047072AFCD119788C
:1008E00001324907F7D5023AF5E7C046740E0020F9
:1008F000037810B5012B06D1034C23881BB1FFF7F9
:10090000E3FF0023238010BD581000208301000165
:10091000034340F2091018437047FFFF10B5041E4F
:1009200005DB034AFFF7B4FE2000FFF775FE10BD9C
:1009300004110020F0B5454245411B4EEDB2B368AD
:1009400076685C6E3678032E13D80134A04200D24C
:1009500035B35B6BD20718D4DB060C22DB0E1340D9
:10096000043B5A425341DBB298B9B3B1ACB1032353
:1009700014E0A04200D2A5B15B6BD20707D4DB061E
:10098000DB0E1A0901239343EEE7DB02E5E7DB0206
:10099000F6E7A042EBD3002BE9D002234B60F0BD79
:1009A00001380860FBE7C04604110020F0B50C25B3
:1009B00089B001926A43174B05AE0C00D358310041
:1009C000039098473688A64200D92600019B320042
:1009D0005D43104B1049ED18AB680698029305AFC4
:1009E0009847A51BB44209D07E88AE4200D92E009C
:1009F00032000949B868029B9847AD1B0C23019A45
:100A0000611B5343034A03989B185B6889B298475C
:100A100009B0F0BD902A000014000940F7B5214C40
:100A2000E579A3792D021D432DB90120257065704C
:100A3000A570E570FEBD1C4B2F001B885B065B0E8E
:100A400001939D4200D91F008FB162782378120272
:100A50001A43A378E6781B041343012236061E438B
:100A6000637A134210D039003000FFF79FFF019BDB
:100A70009F4202D20D4B0E4A5A84ED1BABB21B0AA9
:100A80000020A571E371D5E730003A00F619094955
:100A9000FFF742FD330A26706370330C360EA370E5
:100AA000E670E4E7241100205E00094000000940E0
:100AB0000080FFFF140009400C22F0B5424385B0CE
:100AC000019035481318DC79997924020C4334B924
:100AD000145401205C709C70DC7005B0F0BD6B4656
:100AE00040F200429B882D491A430A842C4A260072
:100AF00013802C4B01981B889BB20293FFF700FDDB
:100B0000029B9C4200D91E00CEB10C23019A5A438D
:100B100003920399204A039B8F18D35C7A78FD785F
:100B200012021A43BB782D061B04134301221D43F6
:100B30007B7A134220D031002800FFF737FF029B59
:100B40009E4202D2184B154A53850023134A138440
:100B5000124B1B8C1B071B0FD8B20028F8D10C229C
:100B60000199A41B4A430C495218A1B2090A1C431B
:100B70000B439471D371B0E7320028000B49FFF7A3
:100B8000CBFC054B039AAD199D542B0A7B702B0CA3
:100B90002D0EBB70FD70D2E724110020000009402B
:100BA000640009406C0009400080FFFF1400094008
:100BB000F7B515003B4AC3099B1801930833DA7F48
:100BC00007000C00D20738D4374AD97F16780122A3
:100BD00030000A43DA77FFF7C3FC344B7FB340F2AF
:100BE00020421A842022198C1142FCD00121304B62
:100BF0005A7A8A435A72FF22290A2A401A71597175
:100C00009A71D971002D43D0220A1C705A70220C9F
:100C1000240E9A70DC70274B1B88DB0B002B2DD128
:100C20000EB9FFF7A9FC0121019B0833DA7F8A4343
:100C3000DA77DA7F03318A43DA7700201DE0202259
:100C40001F84198C1142FCD10121194B5A7A8A4315
:100C50005A72FF22290A2A401A7159719A71D97160
:100C6000B5B1220A1C705A70220C240E9A70DC70E6
:100C70000122104B1A8046B10120FEBD0E4B1B888D
:100C80001B06CDD5FFF7CAFEF2E7FFF775FCF3E7C9
:100C90000022074B1A705A709A70DA70054B0532B1
:100CA000E8E7C046801000209805002000000940B9
:100CB000241100206000094054000940F0B50326CB
:100CC00085B00D0001900E40032E07D00C232A4A58
:100CD0000B4051680978062902D11BB905B0F0BD57
:100CE000002BFBD1254B11689942F7D19768019AE7
:100CF0007B6E01339342F1D301235B4202930023C5
:100D00002A00019802A90393FFF714FE039B3C6B92
:100D100083B1012E0BD01A4A1B0414401C43022D30
:100D200026D10122019802A9FFF704FE14E0022D4A
:100D300012D1F6E702210B002A0700D54B18029AC0
:100D40000D420FD09B00FB18DA641A65012E03D008
:100D50000B4B1C40022D0BD10A4B2340039C240655
:100D60001C4307E0F31812339B00FB185A60EDE7B1
:100D7000002EF1D13C63B1E704110020545047002C
:100D8000FFFFFCFFFFFFFFFC8023002210B5834321
:100D900018001100FFF70CFF10BDFFFF70B5074DE5
:100DA000010004000822280001F086FD0023AB604A
:100DB000EB602078FFF7E8FF70BDC04644100020CC
:100DC00070B5050000242000FFF70AFDB8B14368A4
:100DD000280098470A4B01341B78E4B2A342F2D2B0
:100DE0003B220021074801F070FD1022FF21064838
:100DF00001F06BFD1422FF21044801F066FD70BD77
:100E00007810002080100020831000209310002014
:100E100070B5114B9E89DD89721B141C92B2402A59
:100E200000D940241A78A4B27F2A09D9AE420FD043
:100E300022009968094801F03FFD8020074903E03E
:100E400000200100AE42F9D12200FFF7B1FE70BDD3
:100E500080200021F8E7C04644100020C00E00208A
:100E6000F8B5124E04000D001700010008223000F2
:100E700001F022FD0023B560F381E379A2791B0222
:100E800013431A1CBB4200D93A1CB281E37991B2D8
:100E9000A2791B0213432BB109B128000DB1FFF752
:100EA000B7FFF8BD2078FFF76FFFFAE74410002086
:100EB00013B56C46227063701A0A1B0CE370002392
:100EC000A2702171062269466371FFF7C9FF16BD42
:100ED00070B50400C289008A95B2131A9BB282428F
:100EE00002D262899B1A9BB2A2889A4218D1237AB5
:100EF000B3B970BD801A80B29042FBD2E2882368F9
:100F00005043181801F0D8FC6B1C9BB29D4202D8CC
:100F1000A2899A4202D262899B189BB2E381E8E7D8
:100F20002800E9E7F0B58DB0BB4B00201C682368B2
:100F30009847608AA28A83B2851A91B2ADB2904274
:100F400002D2E289AD1AADB22289AA4223D29342DB
:100F500017D2E08910181B1A9BB2A3828A4237D994
:100F600062896368514309A8591801F0A5FCA28A57
:100F70000125531C9BB29A4211D9E2899B189BB25E
:100F800010E09B1A208A9BB2984202D2E0891B1A79
:100F90009BB21500A382002DE0D1A38A9BB2228AC6
:100FA0009A42EAD3A382012023689847002D00D1FA
:100FB00061E309AC607801380728B5D801F09EFCE0
:100FC0000B001700B4FF510351032000EC0254033F
:100FD000891A89B2C2E72078FFF7F2FE14220021B5
:100FE0008E4801F072FC22798D4B9A709CE7207834
:100FF000FFF7E6FE14220021884801F066FC93E723
:101000000120874F04213B78844E03433B703B0013
:101010000833DA7F8243DA77DA7F8A43DA773B0074
:1010200028331A7882431A701A788A431A70237800
:101030003200009300233361257960332B40019304
:10104000602B26D0402B0BD1764B13B301000AAA9C
:101050000098336100E000BF002800D064E718E08A
:10106000ED06ED0E012D00D1A1E1022D00D1C4E16C
:101070007DB9019B202B16D1237A0F2B09D8684A02
:101080009B18D878FFF7ACFB0AAA0100002800D013
:10109000D1E109AC00212078FFF776FA8021207891
:1010A000FFF772FA40E7019B002BF2D16079092823
:1010B000EFD801F023FC71016901EEFF6001EEFF42
:1010C0000A00E100EEFF15001E000AAB11CB11C2B1
:1010D00000233A78B360F360023313433B7023E795
:1010E0007B7808AA911C01220B700AA8FFF7B8FEB2
:1010F0001AE7A37901937B78019A9A4205D1019B63
:101100007B700AA8FFF74AFE0EE77B78CBB3009806
:10111000FFF726FA092140F20C0C434D63464B437E
:10112000424A9B181B7A03B37F2601241E40DB0929
:101130001B019A18921978321278E88E9440A043D5
:10114000E886002A47D03A4854002418002020801E
:10115000384C2280384C208064466243334C1B1943
:101160009B19121978331072187001390029D5D1E2
:10117000009B0BB9FFF700FABC780098FFF720FE40
:10118000BC70019B002BBAD030223B782B4C934390
:101190003B700122637802920B2B03D1E378029318
:1011A0002378E4186378042B00D072E70025244EDE
:1011B000361BB6B22800FFF713FB002800D168E702
:1011C0008368320021000098984708284DD986424C
:1011D0004BD300220DE01B4CB8E7A3781049D3187D
:1011E000DBB25B18D978FF2900D052E70132DD70FD
:1011F000D2B2029B9A42F0D17F21134E2018A04216
:1012000026D8124B1B78AB4200D242E70C4B9842D7
:1012100000D374E70400BCE77C10002044100020D9
:101220008010002000000000000009402411002070
:101230006E0009406400094068000940212B00004D
:101240003C2B000060000940931000207810002023
:101250006378052B06D1A27813000B405B009B1925
:10126000D2099D542378E418C9E7B54B01351B78A2
:10127000EDB2AB429ED20CE7E3881A0A501EDBB2F5
:101280000E2800D905E701F039FB0F0020002D00E2
:1012900004FF04FF6A00200004FF04FF04FF04FFB2
:1012A00004FF04FF04FF15001222A6490AA8FFF755
:1012B000D7FDD1E6A44B002B00D1EAE600E000BF49
:1012C0000100002800D1E4E602E0022A02D19F4991
:1012D0004A88EBE79E4A002A00D1DAE6180000E0CF
:1012E00000BFEDE77BB902229A489B4901F0E4FA7E
:1012F000012040F20033FF224000023097490343AF
:101300000B800240D2E7052B00D9C2E6944A9549EA
:101310009B009D580B788BB9934B1B681C00586938
:10132000FFF7A2F99149A069FFF79EF99049E0699A
:10133000FFF79AF98F49206AFFF796F9280001F024
:10134000CCFA864AC0B2019B9842D2D9019B019C3B
:1013500001332C5D5900DBB28C520193F3E7864BCD
:10136000002B00D195E600E000BF0100002800D16D
:101370008FE602789AE7E388012B00D089E63A7875
:10138000073313433B70BCE6E388012B00D080E6B3
:1013900008223B789343F5E708AA911C02223B7888
:1013A00098069B08C00F134003430B809DE6237AE9
:1013B0000F2B00D96DE6714A9B18D878FFF710FA09
:1013C0000100002800D164E600980AAAFFF724FA79
:1013D000002800D0A8E560236021227913400A424A
:1013E00000D056E6627911000A39012900D950E689
:1013F00033610A2A00D084E673E6237A04937F23BC
:10140000049A1A400292092A00D942E6049BDB0999
:1014100003935300594A07939B18039A9B18D87C4F
:101420000693FFF7DDF9019B059043B1002800D139
:101430002FE601000AAA0098FFF7EEF90CE663799F
:101440001A00AA43012A0CD0002B00D021E6069EE8
:1014500008AA0836F37F911C9B07DB0F2A000B803C
:1014600043E6E288002A42D1454A1578069A0832B6
:10147000012B4ED1D37F9B0739D5029BB3B1039B80
:10148000404A1B019B18029A9B1878331C786CB158
:101490003D4B6400E4182800FFF762F840F20013A7
:1014A0002380039B23B1012323800EE0374CF2E716
:1014B000344A049B9446634478331A78344B1A8038
:1014C000344B1B889B0B012BEDD10DB9FFF754F862
:1014D0000221029B294A5B009B18039A9B18083340
:1014E000DA7F8A43DA77DA7F01398A43DA77059B34
:1014F000002B00D118E5190000980AAAFFF78CF913
:10150000002333613B0028331B78DB0700D50BE554
:10151000F7E5D37F9B07EAD404992800FFF734F856
:10152000164A079B9446039A63449B180222083389
:10153000D97F0A43DA770122D97F0A43D6E7C0462A
:10154000781000203C2B000000000000182B000049
:1015500000000000440F00201E2A0000420F00205F
:10156000002B0000000F00209CB17F40080F0020DE
:10157000100F0020180F0020000000008010002035
:1015800098050020241100206E00094060000940E9
:1015900064000940680009407F262579374A2E40BB
:1015A00073009B18E8091B181A0001270832D17F25
:1015B000B943D177D17F0337B943D177002E44D1D6
:1015C0002578A6682E4C2378DA09824211D0002EA5
:1015D00000D0A9E42B4B1BB12100280000E000BF84
:1015E0002369002B00D19FE403212800244A984757
:1015F0009AE4A0687F2B06D8002800D194E432003A
:10160000214901F059F9A268E38992199B19A26056
:10161000E2889BB2E3819A4201D03F2E12D823691F
:101620001BB92078FFF7B0FB7EE402212800144AA2
:10163000984701000028F4D12800FEF7A5FF80217B
:1016400028002DE5FFF7E4FB6EE4D87CFFF7C8F82F
:10165000030080B11E69290062792078A368B04731
:1016600062E4064B1B785FE46368002B00D15BE407
:10167000A068984758E40DB0F0BDC0468010002027
:101680004410002000000000C00E002070B50B4C7C
:1016900025680B4B1A7823685B1B632B08D9BFF3B3
:1016A0004F8F084B084ADA60BFF34F8FC046FDE703
:1016B000FF2AF0D0FFF736FCEBE7C04664100020AD
:1016C0009805002000ED00E00400FA0530B50400A4
:1016D000407885B0023803281FD801F005F90228A8
:1016E00016220121274B1A788A431A701A78491852
:1016F0008A431A7000225A7004211A788A431A7099
:10170000214B18684018210038E01E4B1A78D20788
:101710000BD5042219780A431A701B4B1868043041
:10172000F1E7184B1A78D207E6D405B030BD002592
:101730002800FFF755F820B1436913B1207861689C
:101740009847124B01351B78EDB2AB42F0D20D4BEE
:101750001A785207E9D504211A788A431A706B4621
:101760000A220021981D01F0B0F86A46237801A9E9
:10177000137105235371044B18680430FFF7A8FB5D
:10178000D3E7C046801000207C1000207810002095
:10179000F0B58FB0EFF30383103B5BB2C149C033A8
:1017A0009B005A58C048C14E02405A50F38F08223D
:1017B000D90AC902C9430A439CB292B21BB2BC4FB8
:1017C000F287002B07DAF28F1023120600D494E080
:1017D0003A8813433B80630412D50E2008AB0A22DB
:1017E0000021C01801F071F8002308AA1373053313
:1017F00053730BA8FFF76AFF3B8EAE4A13403B863C
:10180000A30415D53B8E9B0412D50E2008AB0A22EB
:101810000021C01801F059F8002308AA13730333FC
:1018200053730BA8FFF752FF3B8EA24A13403B862F
:10183000E30408D570232340202B00D1D5E060D8E5
:10184000102B00D17DE023052ED501210C4200D1C3
:10185000EAE00822F38F134226D044F200037B848F
:10186000954B09AD1B880E202B80944B00211B88C3
:1018700002326B80924B1B88AB80924B1B88EB80B3
:1018800009235B42F38708ABC01801F01EF8002360
:1018900008AA137306335373290008220CA801F019
:1018A0000BF80BA8FFF712FF630516D50021864A37
:1018B00013881180DB0710D5FFF7B0F868B1834BB0
:1018C0000BA81A795B791B02134340F200720B924A
:1018D00080220D930C92FFF7F9FEE4050BD57C4AAC
:1018E000FB8ED18F1940CB439BB20291D387029BD1
:1018F000002B00D0AAE00FB0F0BD3A889A433A809E
:1019000069E7602B05D019D860232340402B00D015
:1019100099E70E2008AB0A220021C01800F0D5FF7D
:10192000002308AA1373043353730BA8FFF7CEFEEA
:1019300042F200033A8E13433B8684E7702BE8D0D3
:1019400081E701237B87FB8644F200037B8400232D
:101950003B843B8C1B071A0F002BFAD1BA85BB8D39
:101960001B07180F002BFAD1012540F2002C594912
:10197000AB005B18584901936B005B18A9B20A00D1
:10198000564901350A80002255490A8062461A806C
:10199000188040F20013019A1380062DE7D140F21F
:1019A00000204D4A4D496B009B18AAB20A800022C4
:1019B0004B4901350A8018801A800A2DF1D19822EE
:1019C0000021424800F081FF0E2008AB2A00C01819
:1019D000002100F07AFF002208AB1A73012308AA45
:1019E00053730BA8FFF772FE2DE73E4B1B88DBB24B
:1019F000002B00D127E7002540F200520E2008A955
:101A0000CB8008AB8A80C01829000A220A9500F012
:101A10005CFF08AB1D73062308AA537309A90822AB
:101A20000CA800F049FFDCE7072322001A401C4203
:101A300000D039E740F200703B8C0B905B090B4003
:101A40000BA8DB010C92037182602BE7029800F077
:101A50005FFF0C2343431D4C01901B191A7AD209D6
:101A6000002A41D0FFF728F8002800D1A8E00C2276
:101A7000019B5A43154BD218537910791B02117AE6
:101A800003439079D279120202439B1A40F200720A
:101A90000B9200220BA80C9201718360FFF716FED7
:101AA0008EE0C04600600040FFFFFEFF02000940DC
:101AB00000000940FFDFFFFF5400094056000940C5
:101AC000580009405A0009404A00094024110020EA
:101AD000080009408C0009406E000940640009407C
:101AE0006800094050000940019A002A00D17EE0B8
:101AF0009A79DB791B02134304936B46634A9B88F4
:101B00003B841380624B01981B889BB20593FEF7C0
:101B1000F7FC7B8D059A1B051B0D0393934200D99F
:101B20000392049E039A964200D916000C23019A50
:101B3000584953430793079AE35C55186A78120291
:101B40001A43AB781B041343EA7812061A43069231
:101B50003EB16B7ADB073AD5002231000698FEF7DA
:101B600025FF059BB34202D944F200037B85002385
:101B70003B843B8C1B07180F002BFAD1049B019A66
:101B8000991B0C235343434A9B188AB2120A014300
:101B900002439971DA71059BB34203D8049B039AFF
:101BA00093420DD80C23002201994B433949E2544A
:101BB0005B185A709A70DA70069B002B00D056E7BB
:101BC0000123019A9340029A9A4302928FE63200CF
:101BD00031490698FEF7BBFC069B079A9B19A35454
:101BE0001A0A6A701A0C1B0EAA70EB70B9E7E37937
:101BF000A2791B0213430393284B039E1B885B06A9
:101C00005B0E04937B8C04991B051B0D8E4200D93F
:101C10000E009E4200D91E008EB162782378120217
:101C20001A43A378E5781B0413432D061D43637AFA
:101C3000DB0716D5002231002800FEF7B7FE039B14
:101C400004999B1B9BB21A0AB14218D8A371039B3B
:101C5000E271B342B4D1002323706370A370E370C8
:101C600005E728003200AD190B49FEF770FC2B0A7E
:101C7000257063702B0C2D0EA370E570DFE744F226
:101C800000017984A371E271E5E7C0466400094070
:101C90006C00094024110020140009405E00094036
:101CA00010B5FFF775FD10BD01380028FCD1704755
:101CB00043F6B27310B50C4A0C490400D152816846
:101CC000062000F07DFE0A4B10201B789B0703B115
:101CD000502000F06DFE63681A781AB11120185672
:101CE000FEF79AFC10BDC04600C07E4080AAFFFFF0
:101CF000A0E00140E44BE54AF0B5936040F2FE33CA
:101D00000021E34FE34AE44CFA52E44BE44A618099
:101D10001A60E44A89B05A6048F20002D9609A60B9
:101D20001A61FEF75BFC40F213430822FA54DE4BC3
:101D300001321A7040F28043FA5C6AB90132FA54F7
:101D4000DA4BDB481A68DB4BB3FBF2F3B0FBF3F082
:101D5000800808B1FFF7A8FF002340F28142BB547E
:101D6000013ABB54D44BD5491A78002A00D01BE362
:101D70000023D34A0B701378DB07FCD50125002222
:101D8000D04B1D70D04BDA77D04B3B62FEF726FC70
:101D900040F2FE334AF20052FA52E580E3889AB2EA
:101DA0000192002BFAD10133638004AA0199073212
:101DB00011701178EFF3108483F31088C44B5988A5
:101DC00031B940F2FE304AF20255395A29433952AC
:101DD0005988013189B2598084F31088EFF3108556
:101DE000012181F31088BB4CBB4EA0683040A0603D
:101DF000A06885F31088B94E3068C007C00F107016
:101E00003068C007C00F10703068C007C00F107076
:101E1000EFF3108081F310888022A56852052A43D1
:101E2000A260A26880F31088EFF3108281F310881B
:101E3000598819B15988013989B259805B8843B9E9
:101E400040F2FE3102207B5A8343A54803439BB2F4
:101E50007B5282F3108800254AF2005341F20002BF
:101E6000A049A1488D800B80A04B8B60A04BCB601C
:101E7000A04B5A840123A04A8B80121A290000F03B
:101E800024FD9E489E4A9F49121A00F015FD9E4A65
:101E90009E4BD31A9B100293029BAB4200DD93E250
:101EA000FEF79CFB00239A499A4A9A1810781A0068
:101EB000C032920001335050202BF5D1964B974AF7
:101EC0001A60EFF31081012383F31088944A10689D
:101ED00018B9944BD8704030D87013680133136030
:101EE00081F31088904DFF20A9882B6802930B0A7C
:101EF00001408C4680211B010393029B49020B4247
:101F00000AD06146039B58188000335887490B401C
:101F10003350029B0B403350039B029963449B0058
:101F2000F150019B083501339BB20193082BDAD1A4
:101F3000EFF31081073B83F31088136813B1136824
:101F4000013B136012681AB9764BDA708032DA708E
:101F500081F3108840F2FE32754D7649BD526368B8
:101F600008200B4063604AF20053BB52FEF754FB5B
:101F700040F2E8324D4B1B68B3FBF2F38022013B89
:101F8000520493420DD2C0216B4A40485360036A09
:101F900009061B021B0A0B430362002393600733ED
:101FA000136040F2FE33654A65491068FD5288426D
:101FB00000D010E2002111604AF20052FA52614E44
:101FC000614A3368934200D1CCE008230025012107
:101FD000F3605E4B317473605D4B7561B360F561A6
:101FE000B561EFF3108281F31088E3683F318B43D2
:101FF000E360E36882F310884AF20052B36844F663
:102000004B401A608023B4685B04E562E563A56415
:10201000E36280231B0623616361A36149F6950394
:102020006562A562E5612562A366636601235B4282
:10203000069306AB19002A000795FEF77BFC069B6A
:102040006365A365079B1A0410001B0618430190E3
:102050002800FEF75BFC23008833A5631D60AA23DC
:10206000DB032364F3680121E360032360630198C9
:102070000343236303000B4323632800FE31FEF771
:102080004DFC2900280065E00000000000ED00E0A4
:1020900000E0014003A5FFFFFEC001409C050020B9
:1020A000006CDC0200127A00A2E00140C0100020A7
:1020B000A09D120000CA9A3BA0E0014036E001401A
:1020C0003CE0014031E0014007E001400001001028
:1020D0005A100020FC6F0440FFFFFFEF000804408F
:1020E00000A5FFFF000D0040B0050020C0510020FA
:1020F000C0710020FE600040BC11002000000020E4
:102100009C050020BC2B00009C0500209C050020A5
:1021100000600040682B0000C410002054524F5053
:10212000BC100020000D0440202A0000FFFFFEFF2D
:1021300002A5FFFFFFF7FFFF10E000E0F07F0020A7
:102140003581730704110020545047009C2B000078
:1021500000830740FEF7E2FB29002800FEF7DEFBC4
:10216000C74A3260032371680A7893429B4144F660
:102170001F625B429B18B2689366097819B942F2F4
:102180000F7151659165D16AC90705D45366AA23B9
:10219000DB031364F368D36000210800FEF78EFDB3
:1021A0003368B74A934202D1B368F2685A60B54CBB
:1021B000B54B00226360230034331A70B34B072001
:1021C00019683A6A0D00130E03409D402B00120F50
:1021D0000240D340AE48AF4AE360834207D89342FF
:1021E00005D0AD48834202D0AC4883424FD1386A13
:1021F000AB4D4001400F81405B19C140B3FBF2F38E
:102200004919B1FBF2F1E36040F2835306204B43DE
:10221000B3FBF0F3236140F276334B43B3FBF0F3AF
:10222000636158234B43B3FBF0F3A3619D4B002242
:102230004B43B3FBF0F3E3619B4B9C4D4B43B3FB30
:10224000F0F323629A4BA1604B43B3FBF0F363625C
:1022500043F6C073EA54974B1A78012A03D001223F
:102260001A7000F0ADFB8748FFF722FD40F2D8114D
:102270001F20E2686B58013A024020308343134329
:1022800080486B5000F064FB08B98B4B23608B4E89
:102290007C4800F065FB3378FF2B61D13B220021A5
:1022A000874800F012FB0023864A538293821389E9
:1022B0005B009BB2591E5B42D381834B11821A6033
:1022C000824B23B1824800E000BF824B186000249B
:1022D0002000FEF785FA002842D0036898477C4B1F
:1022E00001341B78E4B2A342F2D2002340F2004250
:1022F0003370794B19880A431A801A885205FCD525
:102300002021012005241A8840F200458A431A80C2
:102310001A8849188A431A801A8802431A806F4A19
:10232000146010225C5994435C5180246C4D2F88BA
:102330003C437F272C806B4D2C88BC432143298054
:10234000694919865887D8861988114319806749C1
:10235000C98F090602D519880A431A80FEF70CF9BD
:1023600044F61F673378FF2B01D0FEF7DBFD604B8F
:1023700060491A680B68D21A632AF3D95E4D643338
:102380002C680B6020000021FEF798FC5B4B1A784C
:10239000002A68D040F2CF72944260D800221A70AE
:1023A00040F2D0732B60DDE70A781AB954480278FE
:1023B000D207FCD51A78D206D00F002AFADB1870A3
:1023C0001A78D206FCD4D3E44E4AAB009B181B68A3
:1023D0009847013560E511604AF20051F952002139
:1023E000FD5211604AF20052FA5244F200021068A3
:1023F000000E202800D0E2E5FD52EFF310861F38D2
:1024000080F310886068844640F6000065462843E3
:102410006060606886F31088EFF31086012080F317
:10242000108841F20000656828436060606886F3A8
:1024300010884AF20050F852334B998072B6BFF3BD
:102440004F8FBFF36F8F314B1960314B9A60136818
:1024500083F3088844F204031B689847AFE52D4BCB
:10246000E4182C607EE740F2D072A4182C60BC42C5
:1024700000D877E701221A7044F6206392E7C0463D
:1024800054504700CC100020882B0000C0100020C2
:10249000FF083D0040420F0080841E00C0C62D0092
:1024A0003F420F00B86A0500D066050000C07E40BC
:1024B00068ED220090C07E404E45504F98050020A8
:1024C00080100020800500207C100020000000000B
:1024D000781000207410002000000940F00009402E
:1024E000CC0009405E00094000DDFFFF020009400A
:1024F00064100020701000206C1000206810002074
:102500003CE001409C050020000D004010E000E090
:1025100000ED00E030F8FFFFF8B52E4B2E4C1A8886
:1025200044F200035209D202D218230000203433AF
:10253000187080202949C002824205D240F600036B
:10254000200000F02DFAF8BDE26240F6000222639E
:102550006268A162127820001A70FFF7A9FB0122BD
:102560001F4D20496B79204E93436B71E36AA26A39
:102570005B18190C9BB27182738113781B4F7B63BC
:1025800081236B7563681B78002BDCD11823122222
:102590006169114800F0ECF9A0B9A16A4B1CA36273
:1025A000E36A5A1CE262226B013A22636AB1104A62
:1025B0009B181A0C9BB2728273814B787B638123C8
:1025C0006B75E3E70828E1D0BDE7034800F0C0F9E8
:1025D000B9E7C046700E0020CC1000207006002025
:1025E000FFC07E400000F0BDFEC07E40FCC07E40CB
:1025F0000100F0BD0B001F2170B5140012781140CE
:10260000012900D03FE110005F3108400A4217D194
:1026100062780A2A0CD00B2A11D1012B22D1A27880
:102620009A4B5A70FEF710F92000FEF7B7FB06E050
:10263000012B17D11A0096492000FEF711FC70BD3E
:10264000202800D01FE16078062800D91BE100F0A7
:102650004BF904391C660F140F00012B04D1200024
:10266000FEF79CFB0120EAE7032BFBD1FFF70EF8F6
:10267000012BF7D1FEF7E8F8F1E7012BF2D11A00B0
:1026800020008449FEF7ECFBECE7012BEAD17F4BFD
:102690001A780223100018401A42D0D0E579A379A5
:1026A0002D0200201D43402DC9D8E178A3787A4E31
:1026B000090219432A006943300000F0FDF82A009E
:1026C0003100B9E7012BCDD170490A7810001840CC
:1026D0001A42B4D08B78022B02D00020052BAED149
:1026E000E379A2791B0200201343402BA7D80123D2
:1026F0000B71E378A2781B021343CB80E379A279B4
:102700001B0213430B81E279A37912021A431AB117
:1027100003238B7060498FE706238B7084E75B4A45
:102720009178032905D0062900D17BE0012B99D1AE
:102730007EE0012B0DD110790521030010B15378F3
:102740002BB90421D2782000FEF7B2FB77E764238F
:10275000F7E7032B86D11379002B60D00423D488AC
:1027600093704E4B16891C800134FF34A40140F253
:10277000C073210019401C4211D172B6484D80230C
:102780002A0034321170DB029C4221DAE10A40F661
:10279000000301222800C90200F0F2F862B6414CA1
:1027A000414B20883200C0183B4900F085F823884F
:1027B000F61840F60003B6B226809E4205D172B6E6
:1027C000FFF7AAFE62B600232380FEF77DF849E7F3
:1027D0006B6828001B785B001370FFF769FA012211
:1027E0003249A00A4B79800293434B71304B2A63E4
:1027F000C01840F200418332A86200F0C9F86B684B
:102800001B78002BCAD111222800296A193300F045
:10281000AFF80028C2D1280000F09AF8BEE70523DF
:1028200093701FE7012B06D11379072103B90539EE
:102830000023D27887E7032B00D013E7137903B383
:102840000723937072B6FFF767FE62B6FEF73CF897
:102850000022134B1A6011225B689A561300213331
:1028600000D1FFE61F2153090A401E3991400A009A
:10287000203310499B005A50BFF34F8FBFF36F8F27
:10288000F0E60223CCE70020D9E6C046740E002013
:10289000750E0020760E0020800E0020700E0020A5
:1028A000CC1000205810002070060020FFC07E4091
:1028B0000000F0BD00E100E0002310B59A4200D115
:1028C00010BDCC5CC4540133F8E703008218934276
:1028D00000D1704719700133F9E70023C25C01335E
:1028E000002AFBD1581E704702B4714649084900BE
:1028F000095C49008E4402BC7047C04603B471466F
:10290000490840004900095E49008E4403BC7047F5
:10291000414208401C2101231B04984201D3000CB2
:1029200010391B0A984201D3000A08391B09984242
:1029300001D30009043902A2105C401A7047C04656
:102940001B1C1D1D1E1E1E1E1F1F1F1F1F1F1F1FA6
:1029500001B40248844601BC604700BFB1000020BA
:1029600001B40248844601BC604700BF2901002031
:1029700001B40248844601BC604700BF65010020E5
:1029800001B40248844601BC604700BF0503002033
:1029900001B40248844601BC604700BF010000202A
:1029A00001B40248844601BC604700BF1D040020FA
:1029B00001B40248844601BC604700BF8900002082
:1029C00001B40248844601BC604700BF7900002082
:1029D00000000603332E362E30004275696C7420D9
:1029E000776974682052656E6573617320416476FF
:1029F000616E63656420466C657869626C6520531E
:102A00006F667477617265205061636B61676520E2
:102A100076657273696F6E20332E362E300009048E
:102A2000000001130E090000000001130F0900004F
:102A30000000010500000000000001000801000086
:102A40000000010509010000000001000003000072
:102A50000000010407040000000001040804000055
:102A60000100000000000000000000000000000065
:102A70000000000000000000000000000000000056
:102A80000000000000000000000000000000000046
:102A900081070000C10600004F050000F506000098
:102AA000DB0600001905000041726475696E6F0055
:102AB00053616E746961676F204446550040436FEF
:102AC0006465466C617368202F3078303030303068
:102AD0003030302F382A324B612C3132302A324B91
:102AE00067004044617461466C617368202F3078E0
:102AF00030383030303030302F382A314B6700FFDB
:102B00001E2A0000A82A0000B02A0000000F0020A2
:102B1000BD2A0000E22A0000090224000101008011
:102B2000320904000000FE0102040904000100FE55
:102B3000010205092107E80340000101120100021A
:102B40000000004041236903000101020301FFFF6F
:102B50006D0800005908000079080000F525000004
:102B60000000000000000000717273747C7D7E7FA5
:102B7000252600000000000000000000000000000A
:102B8000000000000000000000000000F10800004C
:102B90000000000000000000020702080200000020
:102BA00096980000020000004B4C000003FF00005C
:0C2BB0000000000000000000602A00008F
:102BBC00431E59180A4B70B51C000126FF34657969
:102BCC00D2B2B54365711D00060CFE3580B26E8223
:102BDC00FC336881080C89B258626983627570BDD8
:102BEC0000C07E4082B00E4A0190136B5B060ED57E
:102BFC0000210C4B59750190136B5B06D80F002B01
:102C0C0008DA019B2BB1019B013B0193F4E7019B7B
:102C1C0013B9142002B07047019B013B0193E4E708
:102C2C00FCC07E40FFC07E404143032903D9890884
:102C3C0001390029FCD1704740F28013A521064AC6
:102C4C00D150C243054BD2B258705A7058705B7851
:102C5C00834200D1C046704700C07E40FFC07E401A
:102C6C0043F6B27344F6003273B5184D0400EB5AB8
:102C7C0001929EB2012B09D19220FFF7DDFF0320B8
:102C8C00A168FFF7D1FF1220FFF7D6FF0820FFF74E
:102C9C00D3FF0620A168FFF7C7FF43F6B2720C4BB7
:102CAC00AB52AB5A53B9012E06D10A4BDE80DA88EF
:102CBC00002AFCD101325A80002076BD019B1BB149
:102CCC00019B013B0193ECE71420F6E700C07E402A
:102CDC0000AAFFFFFEC0014003000022343310B5F0
:102CEC001A7043F6B273094A0400D35A0BB900F0B8
:102CFC0017FA0121064B20009A6A0A439A629A6AD3
:102D0C008A439A62FFF7ACFF10BDC04600C07E40FC
:102D1C00FCC07E40F8B50500080016001F00FFF748
:102D2C0061FF0400142804D12800FFF7D5FF200010
:102D3C00F8BD40F2F0133400044AD3581C401E4234
:102D4C00F5D02800FFF7C8FF3C00F0E700C07E403C
:102D5C00002310B5934200D110BDCC5CC454013398
:102D6C00F8E7002270B51C4B04005A8043681A78AF
:102D7C007AB111221F219A5653090A401E399140EB
:102D8C000A00203315499B005A50BFF34F8FBFF3F5
:102D9C006F8F43F6B273124A12491220D152FFF7C9
:102DAC004BFF0320A168FFF73FFF0F4B1B789B07DE
:102DBC006BB9062682259220C0B2FFF73DFFE8B220
:102DCC00FFF73AFF3000A168FFF72EFF70BD042615
:102DDC00C225D220F0E7C046FEC0014000E100E071
:102DEC0000C07E4001AAFFFFA0E0014013B50F4ACE
:102DFC000190136B1B0610D540F2DC1300240C4918
:102E0C00CC500190136B1B06D80F002B08DA019BDA
:102E1C002BB1019B013B0193F4E7019B0BB91420EF
:102E2C0016BD019B013B0193E3E7C046FCC07E400D
:102E3C0000C07E4070B50500406AFFF7D7FF040064
:102E4C00142804D12800FFF747FF200070BD40F282
:102E5C00F013064AD258DF3B1400FF3B1C401A42C9
:102E6C00F3D02800FFF738FF1824EEE700C07E40AF
:102E7C00F8B514000F0005001E00FFF772FF2100CB
:102E8C0083223800FFF794FE0334A969A40840F2AA
:102E9C00F813102228006143FFF73CFF38B9044BAC
:102EAC002800DB6A1B07DB0F3370FFF7D9FEF8BD78
:102EBC00FCC07E40F8B5040016000F001D00FFF7A3
:102ECC0050FF01210A4A380053798B432900537172
:102EDC0071438422FFF76CFEE16919231122200053
:102EEC007143FFF717FF10B92000FFF7B9FEF8BDCB
:102EFC00FFC07E40F0B50D0085B0029003922C000F
:102F0C00FFF72FFF832601221C4F7B7913437B7124
:102F1C00039B1B4AF3B94FF6FF735363D36340F221
:102F2C00DC13184AD6500298FFF784FF0122019057
:102F3C007B79013693437B71019B13B90434872E43
:102F4C00E1D10298FFF78CFE019B03B90190019827
:102F5C0005B0F0BD6178237809020B435363631B02
:102F6C000C2B06D1EB7BA97B1B020B4303990B4368
:102F7C00D4E7E178A3780902F9E7C046FFC07E40A8
:102F8C00FCC07E4000C07E4013B50F4C0A0C2300E1
:102F9C00FE3389B25A825981082201006846FFF734
:102FAC00D7FE6B461A882300FC335A636A46528854
:102FBC00FF34DA636A4692885A646A46D2889A6405
:102FCC008123637513BDC04600C07E40F8B51D005B
:102FDC0004000E001700FFF7C4FE0121ED08256365
:102FEC000025134AE762A66253798B435371236B16
:102FFC0013B9C5B12800F8BD002DFBD1E16AA06A58
:10300C00FFF7C2FFA36A12220833A362E36A20000F
:10301C000833E362236B2169013B23631823FFF719
:10302C0079FE0500E3E72000FFF71AFEE2E7C04651
:10303C00FFC07E4030B50C4D0C4C52B940F2DC1345
:10304C00800A890A80B289B260638232E163EA50F5
:10305C0030BD4FF6FF73E363013BFF3B03436363F8
:10306C00812240F2DC13F2E700C07E40FCC07E40BF
:10307C00F7B504000F000192FFF773FE019B73B1CB
:10308C0040F2D8110322C02512483A40435892010D
:10309C00AB43134343502000FFF7E2FDFEBD012676
:1030AC0030000D4DB8436B79320033436B7101998D
:1030BC000002FFF7BFFF2000FFF7BCFE07006B7993
:1030CC002000B3436B71FFF7CBFD002FE6D0380027
:1030DC00E4E7C04600C07E40FFC07E40F7B5012744
:1030EC000E0004000C4D0192FFF73BFE6B79300093
:1030FC003B436B7100220199FFF79CFF2000FFF707
:10310C0099FE06006B792000BB436B71FFF7A8FD9D
:10311C0006B906003000FEBDFFC07E400000000076
:10312C0001B40248844601BC604700BFB11C0000DA
:10313C002D080000B005002010000C000000E0FF7E
:0C314C001F00000000000000FF00000059
:0400000300001CF5E8
:00000001FF
