:10000000C0710020791D0000D10500009D05000091
:100010009D0500009D0500009D0500009D05000058
:100020000000000000000000000000009D0500002E
:100030009D050000000000009D05000091060000E5
:10004000ED170000191D0000000000000000000076
:1000500000000000000000000000000000000000A0
:100060000000000000000000000000000000000090
:100070000000000000000000000000000000000080
:100080000000000000000000000000000000000070
:10040000FFFFFFFFDFCEFFFFFCFF0F00FFFF0F002E
:10041000FCFF0F00FFFF0F00FCFF0F00FFFF0F00AE
:10042000FCFF0F20FFFF0F20FCFF7F40FFFF7F40FE
:10043000FCFF0D40FFFF0D40FFFFFFFFFFFFFFFF31
:10044000FFFFFFFFFFFFFFFFFFFFFFFFFFFFFFFFBC
:10045000FFFFFFFFFFFFFFFFFFFFFFFFFFFFFFFFAC
:10046000FFFFFFFFFFFFFFFFFFFFFFFFFFFFFFFF9C
:10047000FFFFFFFFFFFFFFFFFFFFFFFFFFFFFFFF8C
:10048000FFFFFFFFFFFFFFFFFFFFFFFFFFFFFFFF7C
:10049000FFFFFFFFFFFFFFFFFFFFFFFFFFFFFFFF6C
:1004A000FFFFFFFFFFFFFFFFFFFFFFFFFFFFFFFF5C
:1004B000FFFFFFFFFFFFFFFFFFFFFFFFFFFFFFFF4C
:1004C000FFFFFFFFFFFFFFFFFFFFFFFFFFFFFFFF3C
:1004D000FFFFFFFFFFFFFFFFFFFFFFFFFFFFFFFF2C
:1004E000FFFFFFFFFFFFFFFFFFFFFFFFFFFFFFFF1C
:1004F000FFFFFFFFFFFFFFFFFFFFFFFFFFFFFFFF0C
:100500000B4BC00030B5C4587F220D002000CBB289
:100510001540603011420AD0064ADB091B019B18C6
:100520005B1978331B7813B137335800201830BD6E
:10053000142C0000D00500200122014B1A607047E6
:1005400000E100E00122034BDA67BFF34F8FBFF3F6
:100550006F8F704704E100E070B50500FFF7D0FF32
:10056000040060B12800FFF7EDFF03222388280074
:100570001340013A134323802280FFF7DDFF70BD53
:10058000054B80221900CC31088802430A801022D2
:1005900019880A431A8070470000094000BE70475E
:1005A000064B0749DA1DD27F1B6A920052585B0145
:1005B0005B0FDA401300034A1360704700E001400C
:1005C0009C050020B005002001380028FCD17047B0
:1005D00040F24012024B9A5AFE3392B25A8670474A
:1005E00000600040F7B50190EFF31084012383F31E
:1005F0001088234A116819B9224BD9704031D9703B
:1006000013680133136084F3108800241E4E019B8D
:100610001B88A34212D8EFF31081012383F31088C3
:10062000136813B11368013B136012681AB9154BB4
:10063000DA708032DA7081F31088F7BD0199E30037
:100640004968CB189D881F682B0A0093FF231D4023
:1006500080235B021F420AD0009B0C4819014919F4
:10066000890073580340735003003B407350009B54
:1006700001341B015B199B00F750A4B2C7E7C046C9
:100680003C110020000D044000080440FFFFFEFF65
:10069000024A1368013313607047C046BC11002042
:1006A0008A1892B24000914201D8824201DB121AAC
:1006B00092B210007047FFFF074A0300127882428F
:1006C00005D91820054A43431068C0187047002018
:1006D0009A42FBD10248F9E7B8050020B405002092
:1006E000082B000010B5CB6802490B610121984727
:1006F00010BDC046BC050020030010B5044A1078A8
:1007000013B1FFF719FF10BDFFF71CFFFBE7C04651
:10071000980500200222024B5A8000221A7170476D
:1007200068070020002210B5024B1A80FFF7F2FF85
:1007300010BDC0466807002010B50020FFF7F2FF8B
:1007400010BDFFFF8B79002030B5012B21D1CB7973
:10075000022B1ED103008D78CC79022C10D19A4245
:1007600018D98C78AC4215D1CC78844212D10C784F
:10077000013009191B198C79C0B29BB2012CEBD046
:100780004A780020212A04D109338A7898B2024B92
:100790001A7030BD0020FCE76807002070B50F26F6
:1007A000CB1D02003240D5B22C0000093034092A9A
:1007B00000DD07341C705A1E994200D170BD130031
:1007C000EFE7FFFF030010B5094AC0339B009958BB
:1007D000084C214099509B58BFF35F8F1F2243095B
:1007E00010401E3A8240044960339B005A5010BDAD
:1007F00000600040FFFFFEFF00E100E0F8B5FF26CB
:100800000F4A83089B009B1804000322370040F224
:1008100000302240D20089019740314091401D585C
:10082000BD43294319502000FFF7CCFF1F200122B0
:1008300063090440A24002499B005A50F8BDC046DB
:1008400000E100E00022084B1A719A78042A02D1D4
:10085000013A9A707047072AFCD11978013A490782
:10086000F7D40232F5E7C04668070020037810B5D8
:10087000012B06D1034C23881BB1FFF7E3FF0023B4
:10088000238010BDF610002083010001034340F2D5
:10089000091018437047FFFF10B5002802DB024A19
:1008A000FFF7ACFF10BDC04698110020F0B5194D00
:1008B000AB686D689C6E2D78032D00D801344642DC
:1008C00046410EB9A0421BD35B6BD2070BD4DB06AB
:1008D000DB0E032D09D91A090123934360B9ABB983
:1008E00002234B60F0BDDB02F2E70C221340043B15
:1008F0005A425341DBB2F1E7002BF1D10323F0E779
:10090000032D01D90860EDE70138FBE7002CE7D0A3
:10091000F4E7C04698110020F0B514008618351B86
:10092000012C07D853085B00C0189A4201D0037805
:100930000B70F0BD6B782F781B023B430B80023CA1
:10094000EDE7FFFF0323F0B50B4085B007000D0076
:100950000093032B07D00C23304E0B4072681278A3
:10096000062A02D123B905B0F0BD0BB1032AFAD192
:100970002B4B32689A42F6D1B3685B6E0133BB42AF
:10098000F1D301235B42029300232A00380002A91D
:100990000393FFF78BFFB268039B146B019373B94A
:1009A00040F2020C61462B0701D50423190063466F
:1009B00002981D4221D08B00D318D86418656B06AD
:1009C00004D58023106CDB0303431364009B012BCD
:1009D00020D0144B1C40019B1B041C43022D13D13F
:1009E000019B23B10122380002A9FFF75FFF0E4BE4
:1009F0001C40039B1B061C4309E0009B5B18123341
:100A00009B00D3185860DAE7009B002BEFD1B36846
:100A10001C63A8E7022DE3D0E9E7C0469811002047
:100A200054504700FFFFFCFFFFFFFFFCF7B5040039
:100A30000191008917006289A18883B295B2904222
:100A400025D3581B80B2814227D8002632003300BC
:100A50003500381CAF4200D9281C85B22800013867
:100A600030D27F1BBFB257B13A1C9F4200D91A1C2B
:100A700092B210003300013829D2AD18ADB22189ED
:100A80002A00A08889B2FFF70BFE2081F7BD48003D
:100A9000401B1818D6E75B1A9BB29942FBD9A942B2
:100AA00008D92668F218AB4207D20026ED1AADB27B
:100AB0003300CEE76D1AADB2F1E7CD1A1B1AADB215
:100AC0009BB2C6E70199097811700132C7E7019915
:100AD0000E781E700133CEE7F7B504000191009245
:100AE00000896289A58881B293B2904232D3CA1A32
:100AF00092B2954206D24B1BA94200D24B192A0052
:100B00009BB26381160017001000002A28D16B46A3
:100B10001D88009B934200D9151CADB22A00019993
:100B2000FFF7FAFE009B5A1B92B25AB1131CB24255
:100B300000D9331C9EB2320038000199FFF7ECFE59
:100B4000AD19ADB261892A00A08889B2FFF7A8FD6E
:100B50006081F7BD6A00D21A8A18C9E7491B89B2B9
:100B60008D42FBD99D4209D92768F818994208D8C7
:100B7000561BE91A9E19B6B28AB2C8E75B1B9BB234
:100B8000F0E700273E00C2E7F7B5224C0190E57977
:100B9000A3792D021D432DB9012025706570A57024
:100BA000E570FEBD019B2F1C5E331B885B065B0E50
:100BB00000939D4201D96B461F88BFB297B16378FD
:100BC00022781B02A6781A43E378360416431B06E4
:100BD0001E430199637A3A0030001431DB070ED5C9
:100BE000FFF77AFF009B9F4202D20B4B019A53847E
:100BF000ED1BABB21B0A0020A571E371D1E7F6191A
:100C0000FFF78AFE330A26706370330C360EA3702A
:100C1000E670E7E7D00500200080FFFF0C23F0B569
:100C20004B43414A85B09B189A79DB7905001B023A
:100C300013430E000193A3B939B10B0044F2000233
:100C400037335B00595B1142FCD10C21002301209A
:100C50004E43354AB354B6187370B370F37005B091
:100C6000F0BD40F200428BB21A43028402006432AB
:100C7000138003006C331B889BB202932B8C1B07E1
:100C80001B0F9E42FAD16B8C9B04FCD56B46029ADB
:100C90009F88019B934201D96B461F89BFB2EFB178
:100CA0000C237343039303991F4B8C462900039A2B
:100CB0001431D25C634400935B781B021A43009B9F
:100CC0009C78DB78240414431B061C43009B3A00E9
:100CD0005B7A2000DB0718D5FFF7FEFE029B9F42E0
:100CE00001D2124B6B8400232B842B8C1B07180F13
:100CF000002BFAD10C21019B4E43DF1B0A4BF61847
:100D0000BBB21B0AB771F371A9E7FFF705FE064BEB
:100D1000039AE4199C54009A230A5370230C240E5E
:100D20009370D470DAE7C046D00500200080FFFF42
:100D3000F0B51500384A85B0C30903939B1800909D
:100D400001910833DA7F0024D20753D4334AD97F84
:100D5000177801220A43DA77314BFA003800D65867
:100D6000FFF7F0FB009B002B47D040F22043338479
:100D70002023328C1A42FCD001242A4B290A5A7AA9
:100D80005971A2435A72FF222A401A719A71320095
:100D90006032D9710292002D36D0019A1A70120A6F
:100DA0005A70019A120C9A70019A110ED970009B18
:100DB00063B1029B1C88E40B5CB1330054331B8885
:100DC00000241B0605D53000FFF7DEFE0124029B40
:100DD0001C803800FFF7B0FB64B90F4A012194462C
:100DE000039B63440833DA7F8A43DA77DA7F03317F
:100DF0008A43DA77200005B0F0BD009B33842023BE
:100E0000328C1A42FCD1B7E71D705D709D70DD70A9
:100E10000523029A1380DCE7F407002098050020E0
:100E2000142C0000D005002040B2C043002210B5B1
:100E3000C00F1100C001FFF77BFF10BD70B5074D5B
:100E4000010004000822280001F07AFD0023AB60B5
:100E5000EB602078FFF7E8FF70BDC046BC050020BE
:100E600070B5050000242000FFF726FCC8B14368D8
:100E7000280098470B4B01341B78E4B2A342F2D20E
:100E8000094C3B220021200001F063FD1022FF21CC
:100E9000E01C01F05EFD20001422FF21133001F060
:100EA00058FD70BDB8050020F407002010B5114BA7
:100EB0009889D989421A141C92B2402A00D9402438
:100EC0001A78A4B27F2A09D988420FD022009968E3
:100ED000094801F035FD8020074903E0884207D129
:100EE000002000212200FFF723FF10BD8020F8E73B
:100EF0000020F1E7BC050020B4070020F8B5124E31
:100F000004000D00170001000822300001F018FD58
:100F10000023B560F381E379A2791B0213431A1C05
:100F2000BB4200D93A1CB281E37991B2A2791B028B
:100F300013432BB109B128000DB1FFF7B7FFF8BD7E
:100F40002078FFF771FFFAE7BC05002013B56C4667
:100F5000227063701A0A1B0CE3700023A2702171C7
:100F6000062269466371FFF7C9FF16BDF8B505890A
:100F70000789468904008288ADB2BBB2B0B2B742DD
:100F800007D31B1A9BB29A421AD8E379DB09BBB983
:100F9000F8BD5600301A1B18F4E7801A80B2904250
:100FA000FBD2E28823685204520C5043181801F017
:100FB000C7FC01222900A088FFF772FB2081E7E728
:100FC0002800ECE7F0B58DB0C14B00201C68236809
:100FD0009847A589E3892289A8B299B29D4232D364
:100FE000431A9BB21D0093B19A4204D290422ED371
:100FF000811A89B2E1818A422CD9628963685204DC
:10100000520C514309A8591801F09AFC0125E189B5
:10101000208989B2AAB2FFF743FB2368E08101204F
:101020009847002D00D159E309AC607801380728B2
:10103000CAD801F0A7FC12001E00C9FF49034903EA
:101040002700BF024C0353005B1AC318C9E780187E
:1010500081B2CFE7891A89B2CDE72078FFF700FF88
:10106000142200219B4801F074FC22799A4B9A705B
:10107000AAE72078FFF7F4FE14220021954801F03A
:1010800068FCA1E70120944F04213B7860260343CC
:101090003B703B000833DA7F8243DA77DA7F8A439A
:1010A000DA773B0028331A7882431A701A788A4319
:1010B0001A702378874A01930023136125792E4003
:1010C000602E25D0402E0BD1844B0BB30100136151
:1010D00001980AAA00E000BF002800D074E717E0DA
:1010E000ED06ED0E012D00D1A2E1022D00D1C6E1E9
:1010F00075B9202E16D1237A0F2B09D8764A9B1862
:10110000D878FFF7D9FA0AAA0100002800D0D3E165
:1011100009AC00212078FFF71FFA80212078FFF723
:101120001BFA51E7002EF3D160790928F0D801F0BD
:1011300029FC70016801EFFF5F01EFFF0A00DF008B
:10114000EFFF16001C000AAB03CB03C20023614A69
:101150009360D3603A78023313433B7034E77B7873
:1011600008AA911C0B7001225EE1A37902937B789F
:10117000029A9A4205D1029B7B700AA8FFF75EFE95
:1011800022E77B787BB10198FFF7DCF90A2140F276
:101190000C0C013951BB0198FFF7CEF9BC780198CE
:1011A000FFF75EFEBC70029B002BE4D030223B7840
:1011B0004B4C93433B700123093403936378042B16
:1011C000A6D10025464E2436361BB6B22800FFF7BE
:1011D00073FA00289CD08368320021000198984758
:1011E00008286DD986426BD300223FE063464B430B
:1011F0003C481B181E7A002ECBD07F250124019B72
:101200003540394AF609DB0036019A5833185B1924
:1012100078331B7803959C40D08EA0431400D08671
:1012200060341BB11C003734640014190020208086
:101230009CB2250014006832643425801080624618
:101240005343284A9B181872039BB618F618783631
:1012500030709EE7A3782049D318DBB25B18D978A9
:10126000FF2900D054E70132DD70D2B2039B9A42CD
:10127000F0D12018A04214D81C4B1B78AB4200D2EE
:1012800046E7174B2433984200D374E70122437892
:1012900003920B2B03D1C37803930378C018040087
:1012A0008CE76378052B08D1A2787A3313400A497A
:1012B0005B005B181333D2099D542378E418D9E7F7
:1012C0000A4B01351B78EDB2AB4200D37EE71FE736
:1012D00030080020BC050020F407002000000000BA
:1012E000402B0000D0050020142C0000B805002081
:1012F000E3881A0A501EDBB20E2800D908E701F075
:1013000041FB0F001E002E0007FF07FF6B001E00B1
:1013100007FF07FF07FF07FF07FF07FF07FF15008E
:101320001222C9490AA8FFF7E9FDD5E6C74B002BF1
:1013300000D1EDE600E000BF010018B9E8E6022A9E
:1013400005D1C349CA788B7812021A43EAE7C14A29
:10135000002A00D1DCE6180000E000BFECE77BB912
:101360000222BD49BD4801F0EBFA012040F20033F2
:10137000FF2240000230BA4903430B800240D1E70C
:10138000052B00D9C4E6B74AB74C9B009F58237879
:10139000ABB9B64B21001B6858691D00FFF7FEF979
:1013A0002100A8690831FFF7F9F92100E869103137
:1013B000FFF7F4F92100286A1831FFF7EFF9380038
:1013C00001F0CFFAA64AC0B2B042CFD9BC5D731CBF
:1013D00059008C52DEB2F7E7A54B002B00D197E6FF
:1013E00000E000BF0100002800D191E6027899E7F3
:1013F000E388012B00D08BE63A78073313433B7028
:10140000BBE6E388012B00D082E608223B789343B9
:10141000F5E708AA911C01223B78580910409B0867
:101420009218134003430B800AA8FFF767FDCBE532
:10143000237A0F2B00D96BE68E4A9B18D878FFF7DA
:101440003BF90100002800D162E601980AAAFFF7E3
:1014500049F9002800D0B7E56023602122791340C4
:101460000A4200D054E6627911000A39012900D9F4
:101470004EE681490B610A2A00D07EE670E6237AA7
:1014800002937F23029A1A400592092A00D93FE667
:10149000029BDB0903935300764A07939B18039A38
:1014A0009B18D87C0693FFF707F9049046B10028F3
:1014B00000D12DE601000AAA0198FFF713F90BE607
:1014C00063791A00AA43012A0CD0002B00D01FE632
:1014D000069F08AA0837FB7F911C9B07DB0F2A0099
:1014E0000B80A1E7E288E2BB644A1578069A0832CD
:1014F000012B49D1D37F9B0733D528000299FEF7F2
:10150000FFFF0400F0B15E4BEA002800D658FFF759
:1015100019F840F200132380039B13B101232380A9
:101520000DE0584A029B9446634478331A7833009E
:1015300064331A80683633889B0B012BEED1280068
:10154000FEF7FAFF0221059B4A4A5B009B18039AAB
:101550009B180833DA7F8A43DA77DA7F01398A43C6
:10156000DA77049B002B00D12EE519000AAA019816
:10157000FFF7B8F80023404A13613B0028331B787B
:10158000DB0700D520E5F8E5D37F9B07E9D4029976
:101590002800FEF7E1FF374A079B9446039A63440D
:1015A0009B1802220833D97F0A430121DA77DA7FB8
:1015B0000A43D5E77F2225792E492A4053005B183C
:1015C000EF09DB19190001260831C87FB043C8773D
:1015D000C87F0336B043C877002A69D12578A6684A
:1015E000254C2378DA09BA4211D0002E00D0EBE462
:1015F000254B1BB12100280000E000BF2369002B10
:1016000000D1E1E4032128001B4A9847DCE47F2B4A
:1016100007D8A068002800D1D6E432001B4901F0A9
:101620008FF9A268E38992199B19A260E2889BB2A4
:10163000E3819A4201D03F2E37D8236943BB2078FB
:10164000FFF7F2FBC0E4C046642B0000000000007E
:10165000402B000000000000062B00006A0600205E
:10166000680600201C2C0000401100209CB17F4027
:1016700000000000F4070020BC05002098050020B1
:10168000142C0000D005002000000000B40700204A
:1016900002212800124A984701000028CFD12800D3
:1016A000FEF75AFF8021280039E5FFF7FFFB8BE4A6
:1016B000D87CFFF701F8030080B11E692900627928
:1016C0002078A368B0477FE4064B1B787CE463680E
:1016D000002B00D178E4A068984775E40DB0F0BD08
:1016E000BC050020F407002070B50B4C25680B4B9F
:1016F0001A7823685B1B632B08D9BFF34F8F084B05
:10170000084ADA60BFF34F8FC046FDE7FF2AF0D0EA
:10171000FFF758FCEBE7C046BC11002098050020FD
:1017200000ED00E00400FA0530B50400407885B013
:10173000023803281FD801F01BF90250162201219C
:10174000274B1A788A431A701A7849188A431A70F4
:1017500000225A7004211A788A431A70214B1868A3
:101760004018210036E01E4B1A78D2070BD5042210
:1017700019780A431A701B4B18680430F1E7184BAC
:101780001A78D207E6D405B030BD2800FEF794FFE2
:1017900020B1436913B12078616898470135EDB2F3
:1017A000114B1B78AB42F0D20D4B1A785207EAD599
:1017B00004211A7801A88A431A7000210C2201F032
:1017C000C8F86A46237801A9137105235371054BA4
:1017D00018680430FFF7CAFBD5E70025E0E7C046EC
:1017E000F407002030080020B8050020F0B58DB0C7
:1017F000EFF30383103B5BB2C04AC0339B009958A0
:10180000BF48014099509B58BE4EBF4FF38FDA0A34
:10181000D202D14308220A439CB292B21BB2F28791
:10182000002B07DAF28F1023120600D488E03A88E2
:1018300013433B8063040ED509AD0C220021280020
:1018400001F087F8052328006B70FFF76DFF3B8ED2
:10185000AE4A13403B86A30411D53B8E9B040ED5A4
:1018600009AD0C220021280001F073F803232800A1
:101870006B70FFF759FF3B8EA44A13403B86E3048D
:1018800008D570232340202B00D1D3E05CD8102B47
:1018900000D175E0230529D5E30700D4E6E008224E
:1018A000F38F134222D044F200037B84984B07ADA0
:1018B0001B8800212B80974B04321B886B80964B32
:1018C0001B88AB80954B1B88EB8009235B42F38719
:1018D00009AE300001F03DF806230822290073709C
:1018E0000AA801F02DF83000FFF71EFF630517D599
:1018F00000218B4B1A881980D30711D58248FFF736
:1019000043F968B1874A09A81179537940F2007206
:10191000099280221B020B430A920B93FFF704FFEC
:10192000E3050BD5804AFB8ED18F1940CB439BB288
:101930000291D387029B002B00D0AEE00DB0F0BD2A
:101940003A889A433A8075E7602B05D015D8602312
:101950002340402B00D09DE709AD0C220021280038
:1019600000F0F7FF042328006B70FFF7DDFE42F262
:1019700000033A8E13433B868CE7702BECD089E74B
:1019800001237B87FB8644F200037B8400233B8496
:101990003B8C1B071A0F002BFAD13A843B8C1B0798
:1019A000190F002BFAD1614A0133944660489A001E
:1019B0001218604801925A0012185F489DB20580C3
:1019C00000206546288040F200201080118040F2FF
:1019D0000012019801330280062BE7D100215548FF
:1019E0005A00554D121898B228806046018040F286
:1019F00000200133108011800A2BF0D198220021A1
:101A0000484800F0A6FF07223B891340013B9BB2E8
:101A1000022B00D93EE7494A0021D55C09A80C22D7
:101A200000F097FF012306AA5373157409A8FFF766
:101A30007BFE2FE7424B1B885B065A0E002B00D122
:101A400028E70021052307AD29706B706A80A98003
:101A5000E9800C2209A800F07CFF062306AA537334
:101A6000290008220AA800F06BFFDFE70726230001
:101A700033400193344200D038E73D8C1900AD0665
:101A8000ED0FB540082209A800F063FF06AB5E73B6
:101A90001D74019B09A80B9326E7029800F07CFFB8
:101AA0000C2343431F4C01901B191A7AD209002AB8
:101AB00048D001001448FFF7B1F8002800D1B0E089
:101AC0000C23019A09A85343164A9A18537911799D
:101AD000D4791B021943937924021C43157A0C1BF9
:101AE0000822002100F035FF072306AA537315745E
:101AF00009A80B94FFF718FE93E0C0460060004071
:101B0000FFFFFEFF0200094000000940FFDFFFFF6A
:101B10005400094056000940580009405A00094045
:101B20004A000940D005002008000940680009402B
:101B30008C0009406E00094064000940032B00003E
:101B400050000940019A002A00D187E09A79DB7998
:101B50001B02134303936B466A4A9B883B841380A2
:101B6000694B1B889BB204933B8C019A1B071B0F8C
:101B70009A42F9D17B8C9B04FCD57B8C04991B0584
:101B80001A0D8A4201D96B461A8A93B205936B46A5
:101B90009D89039B91B28B4200D9151C0C23019A9D
:101BA000ADB25343594AE15C9B185A789E781202B1
:101BB0001143DA7836040E43120616433DB15B7AC0
:101BC000DB0735D52A0030005149FEF72FFF049B73
:101BD000AB4202D944F200037B8400233B843B8C5C
:101BE0001B07002BFBD1019A0C3303995A43481B66
:101BF0004649521881B2090A9071D171049AAA42D9
:101C000003D8039A05998A420BD8019A3F49534356
:101C10000022E2545B185A709A70DA70002E00D0DD
:101C20004EE70123019A9340029A9A43029281E679
:101C300032002B00013B0DD20C23019A3348534351
:101C40007219E254110A1B185970110C120E997076
:101C5000DA70BCE7397D11700132EBE7E279A379E4
:101C600012021A432B4B03921E887B8C76061B05AF
:101C7000760E1A0DB24200D9321C93B204936B4611
:101C80009D89039B91B28B4200D9151CADB285B1E1
:101C9000637822781B02A0781A43E37800041B06BD
:101CA00010431843637ADB071AD52A001849FEF758
:101CB000BDFEAE4202D944F200037B84039B5A1B53
:101CC00093B21B0AA271E371AE4203D8039B049A3C
:101CD0009342A6D8002323706370A370E370EFE6ED
:101CE00002002B00013B08D24019030A20706370E8
:101CF000030C000EA370E070DBE7397D1170013238
:101D0000F0E7C046640009406C000940D00500209F
:101D1000140009405E00094010B5FFF767FD10BDD3
:101D200043F6B27310B5104A10490400D1528168CD
:101D3000062000F071FE0E4B10201B789B0703B1AC
:101D4000502000F079FE63681A7862B111241C57A4
:101D50002000FEF737FD1F22630914401E3AA240FF
:101D600004499B005A5010BD00C07E4080AAFFFF6E
:101D7000A0E0014000E100E0F0B5DC4BDC4D0021CB
:101D80009D6040F2FE33DB4EDB4ADC4CF252DC4B12
:101D9000DC4A61801A60DC4AD9605A6048F200026D
:101DA00087B09A601A61FEF7FBFB40F213430822EA
:101DB000F254D64B01321A7040F28043F25C6AB999
:101DC0000132F254D24BD3481B68B0FBF3F3D24834
:101DD000B0FBF3F0800808B1FEF7F6FB002340F2F9
:101DE0008142C4498B54013A8B54CC4BCC491A786C
:101DF00072B10A781AB9CB480278D207FCD51A78A2
:101E0000D206D00F002AFADB18701A78D206FCD45A
:101E10000023C44A0B701378DB07FCD5012600228F
:101E2000C14BB44F1E70C14B3B62C14BDA77FEF71A
:101E3000B7FB40F2FE334AF20052FA52E680E388E2
:101E400099B2002BFBD102AA0732013363801170D3
:101E50001178EFF3108483F31088B64B598839B9A1
:101E600040F2FE304AF20256A24F395A31433952FB
:101E70005988013189B2598084F31088EFF31084B6
:101E8000012181F31088AC4FAC4EB8683040B86087
:101E9000B86884F31088AA4C2068C007C00F10707F
:101EA0002068C007C00F10702068C007C00F1070F6
:101EB000EFF3108081F310888022BC685205224322
:101EC000BA60BA6880F31088EFF3108281F310884B
:101ED000598819B15988013989B259805B884BB941
:101EE00040F2FE310220834C635A834395480343FA
:101EF0009BB2635282F3108800244AF20053924E40
:101F0000924AB48033802B6891489A18B26041F2AB
:101F10000002F3608F4B21005A8401238E4AB38064
:101F2000121A00F016FD8D488D4A8E49121A00F0E3
:101F300007FD8D4D8D4BED1AAD10A54200DD61E220
:101F40000024FEF72DFB8A4B72481C70704B1B68F7
:101F5000B0FBF3F38748B0FBF3F0800808B1FEF75D
:101F600033FB854AD477D37FD9B20091002BFAD1C5
:101F7000D17F02330B43D377D17F8907CB0F002961
:101F8000FADB7E4A7E4C7F49D3771A00185DC03257
:101F9000920001335050202BF7D162B67A4B7B4A26
:101FA0007B481A60FEF71EFB40F2E832584B1B6874
:101FB000B3FBF2F38022013B520493420DD2C021C5
:101FC000744A4A485360036A09061B021B0A0B4302
:101FD0000362002393600733136002226E4B6F4944
:101FE0009A6044F200026E4B9A606E4A13688B420C
:101FF00000D00EE240F2FE336B493E48C152002150
:1020000011604AF20051C152684B604A684D6948FC
:102010001A60FEF7E7FA2A68674B9A4200D1D1E0CE
:10202000042300240121EB60644B29746B60644B32
:102030006C61AB60EC61AC61EFF3108281F31088EE
:10204000FB683F318B43FB60FB6882F310884AF2E8
:102050000052AB6804A81A608022AB685204DC62AC
:10206000DC639C64DA62802212061A615A619A610A
:1020700049F695025C629C62DC611C629A665A6653
:10208000012301005B42220044F64B400493059477
:10209000FEF70CFCAE68049B20007365B365059BDE
:1020A0001A041B061A430192FEF7EEFB3200AA2324
:1020B0008832DB03B4630121146033640323EA68CC
:1020C000F260019A706313430A4333632000326362
:1020D000FE31FEF7E1FB21002000FEF7DDFB2100D1
:1020E0002000FEF7D9FB344B2B606BE000ED00E0E5
:1020F0000000000000E0014003A5FFFFFEC001401A
:102100009C050020006CDC0200127A00A2E0014075
:10211000B005002000CA9A3BA09D1200A0E001403B
:1021200036E001403CE0014031E001400001001098
:1021300007E0014034110020FC6F0440FFFFFFEF77
:102140000008044000A5FFFF000D004000E0FFFF75
:10215000B0050020FE600040C011002000000020FB
:102160009C050020342C00009C0500209C050020CC
:1021700028400440400D0300054004400340044053
:102180009C2B0000006000408C11002054524F50E6
:10219000802B000010E000E06000044035817307F0
:1021A00000000440F07F002002A5FFFF8411002002
:1021B00098110020EC2B000054504700F42B000035
:1021C0000082074003236A6811788B429B4144F6E2
:1021D0001F615B425B18A9688B6612781AB942F2DC
:1021E0000F724A658A65CA6AD20705D44B66AA236C
:1021F000DB030B64EB68CB6000210800FEF7A2FB59
:102200002B68BA4A934202D1AB68EA685A60B84C6C
:10221000B84B00226360230034331A70B64B07209A
:102220001A6AB64B1968130E0D0003409D402B002F
:10223000120F0240D340B248B24AE360834207D84B
:10224000934205D0B048834202D0B048834250D177
:10225000A948AF4D006A5B194001400F8140C14061
:10226000B3FBF2F34919B1FBF2F1E36040F283539F
:1022700006204B43B3FBF0F3236140F276334B432C
:10228000B3FBF0F3636158234B43B3FBF0F3A3615B
:10229000A04B00224B43B3FBF0F3E3619E4B9F4DF9
:1022A0004B43B3FBF0F323629D4BA1604B43B3FB65
:1022B000F0F3636243F6C073EA549A4B1A78012A2A
:1022C00003D001221A7000F0A7FB8948FFF728FD10
:1022D00040F2D8111F20E3685A1E6B58024020308C
:1022E0008343134382486B5000F086FB08B98E4B42
:1022F00023608E4E7E4800F087FB3378FF2B5BD146
:102300003B2200218A4800F024FB0022894BDA811D
:102310009A81894A1360894B23B1894800E000BF44
:10232000884B18600098FEF7C7F9002844D003686E
:102330009847009B0133DBB20093814B009A1B78D6
:102340009342EFD2002333707B687F4A134040F200
:1023500000427B607D4B19880A431A801A88520517
:10236000FCD52021012005241A8840F200458A432B
:102370001A801A8849188A431A801A887F270243CC
:102380001A80734A146010225C5994435C51714D59
:102390002C88BC432143002429806F49CC876F4C93
:1023A0001C865887D886C98F090602D519880A4322
:1023B0001A800020FEF7C0F8FEF7E2F844F61F6727
:1023C0003378FF2B01D0FEF7FDFD654B65491A6898
:1023D0000B68D21A632AF3D9634D64332C680B60FF
:1023E00020000021FEF7AEFA604B1A78002A70D068
:1023F00040F2CF72944268D800221A7040F2D07333
:102400002B60DDE75A4AA3009B181B6898470134EC
:1024100093E540F210433848C35CDB0708D440F230
:10242000FE335448344CE0524AF200501160E052FE
:1024300040F2F3134A4801689942FCD940F2FE3356
:1024400000212D4C4B48E052116022004AF200540A
:10245000D45244F200021468240E202C00D0D3E59C
:10246000254CE052EFF310800124019084F3108892
:102470007868844640F600006546284378607868AE
:10248000019880F31088EFF3108584F3108841F2EF
:1024900000007C6820437860786885F310884AF2F1
:1024A00000541548C452B18072B6BFF34F8FBFF3CA
:1024B0006F8F314B1960314B9A60136883F3088832
:1024C00044F204031B6898479EE52D4BE4182C60EA
:1024D00076E740F2D072A4182C60BC4200D86FE7B7
:1024E00001221A7044F620638AE7C0465450470020
:1024F000FC100020882B000000E00140B005002007
:10250000FF083D0040420F0080841E00C0C62D0021
:102510003F420F00B86A0500D066050000C07E404B
:1025200068ED220090C07E404E45504F9805002037
:10253000F40700208805002030080020000000007B
:10254000B8050020B4050020FFF7FFFF0000094098
:10255000F00009405E0009400200094000DDFFFF75
:10256000BC110020B811002094110020F8100020A8
:102570009C05002002A5FFFF10E000E000ED00E058
:1025800030F8FFFFF8B52F4B2F4C1A8844F20003A8
:102590005209D202D2182300002034331870802050
:1025A0002A49C002824205D240F60003200000F012
:1025B0003BFAF8BDE26240F6000222636268A16263
:1025C00012780AB101221A701F48FFF7A9FB0122F5
:1025D0001F4D204E6B79204F93436B71E36A1F4A66
:1025E0009B181A0C9BB272827381A36A1B787B635F
:1025F00081236B7563681B78002BDAD118231222B4
:102600006169114800F020FAC0B9A16A4B1CA362AD
:10261000E36A5A1CE262226B013A226352B1104A09
:102620009B181A0C9BB2728273814B787B63812357
:102630006B75E3E7044800F0DFF9BAE70828DDD05E
:10264000B7E7C046F4080020FC100020F608002080
:10265000FFC07E40FEC07E40FCC07E400000F0BD5A
:102660000100F0BDF7B5160013781F220F001A40C5
:10267000012A00D051E11C005F32144013421CD1EA
:1026800073780A2B0FD00B2B00D0E7E0012901D083
:102690000124E3E0B278A24B5A70FEF73BF8300019
:1026A000FEF7CCFB07E00129F2D13A009C49013149
:1026B0003000FEF723FC0400D0E0202C00D02CE1F9
:1026C0007078062800D928E100F052F9043C1C6B10
:1026D0000E130E00012903D13000FEF7AFFBD7E740
:1026E0000329D5D1FFF700F80129D1D1FEF712F85F
:1026F000F2E70129CCD18A493A0030000231FEF7D5
:10270000FDFBC5E70129C3D1854A022311780C00DE
:102710001C40194200D1A1E0F579B3792D020024C3
:102720001D43402D00D999E00C321400F178B078A7
:10273000090201432A006943200000F001F92A0040
:102740002100B5E70129A3D175490B781C003C4055
:102750003B4200D182E08B78022B03D00024052B72
:1027600000D07BE0F379B2791B0200241343402BA5
:1027700074D801230B71F378B2781B021343CB801A
:10278000F379B2791B0213430B81F279B379120208
:102790001A431AB103238B700C3189E706238B701F
:1027A0007DE75F4DA978032906D0062900D182E094
:1027B000012F00D06CE784E0012F0DD12A7905218B
:1027C000130022B16A780139130002B16423EA7858
:1027D0003000FEF7BBFB6EE7032F00D058E72C79E3
:1027E0000523002C00D196E00423E988AB704D4B03
:1027F0002E8919800131FF31890140F2C0730A002E
:102800001A40194211D172B6474F3B0034331A7047
:102810008022D202914223D2C90A40F6000301224B
:102820003800C90200F0E0F862B629003F4F404B83
:1028300038883200C0180C3100F082F83B88F61856
:1028400040F60003B6B23E809E4205D172B6FFF755
:1028500099FE62B600233B80FDF7F4FF2000FEBD29
:10286000890A8A0201927A6812780AB102221A70E1
:102870002D48FFF755FA01222E494B7993434B71AE
:102880002D4B01989C463A63604440F200418332EC
:10289000B86200F0A1F87B681B78002BC4D111222C
:1028A000396A2148193300F0CFF80028BCD11E48FE
:1028B00000F0A2F8B8E7012F06D12B79022103B16D
:1028C00005310023EA7883E7032F00D0E0E62C7976
:1028D000022304B30723AB7072B6FFF753FE62B650
:1028E000FDF7B0FF0022104B1A6011225B689A5668
:1028F0001300213300D1CBE61F2153090A401E39B2
:1029000091400A0020330D499B005A50BFF34F8F6E
:10291000BFF36F8FA2E7AB70BAE600249EE7C04614
:1029200068070020F4080020FC100020F6100020AA
:10293000F6080020FFC07E400000F0BD00E100E08E
:10294000002310B59A4200D110BDCC5CC4540133B1
:10295000F8E703008218934200D1704719700133E1
:10296000F9E70023C25C0133002AFBD1581E7047EF
:1029700002B4714649084900095C49008E4402BC12
:102980007047C04603B47146490840004900095EDB
:1029900049008E4403BC7047414208401C2101237A
:1029A0001B04984201D3000C10391B0A984201D332
:1029B000000A08391B09984201D30009043902A210
:1029C000105C401A7047C0461B1C1D1D1E1E1E1E9B
:1029D0001F1F1F1F1F1F1F1F01B40248844601BC79
:1029E000604700BF0100002001B40248844601BCDA
:1029F000604700BF0903002001B40248844601BCBF
:102A0000604700BFB100002001B40248844601BC09
:102A1000604700BF2D01002001B40248844601BC7C
:102A2000604700BF7900002001B40248844601BC21
:102A3000604700BF2904002001B40248844601BC5D
:102A4000604700BF8900002001B40248844601BCF1
:102A5000604700BF6901002000000504342E352EB8
:102A600030004275696C7420776974682052656E15
:102A70006573617320416476616E63656420466CA2
:102A8000657869626C6520536F6674776172652042
:102A90005061636B6167652076657273696F6E2044
:102AA000342E352E300041726475696E6F005363A9
:102AB00069656E6365204B69742052332044465526
:102AC0000040436F6465466C617368202F30783036
:102AD000303030303030302F382A324B612C3132A8
:102AE000302A324B67004044617461466C61736800
:102AF000202F307830383030303030302F382A3195
:102B00004B67000100020904390700002507000097
:102B100045070000652600000000000000000000DE
:102B2000040000000E00000004000000010300008B
:102B3000000001130E090000000001130F0900003E
:102B40000902240001010080320904000000FE0196
:102B500002040904000100FE010205092107E8033F
:102B600040000101120100020000004041236C01FD
:102B7000000101020301FFFF000001030103000047
:102B800004000000202B0000000000006D08000081
:102B900000000000000000000207020825260000D7
:102BA0000000000000000000000000000000000025
:102BB0000000000000000000000000000100000014
:102BC0000000000000000000000000000000000005
:102BD00000000000000000000000000000000000F5
:102BE00000000000000000000000000001000000E4
:102BF000782B000002000000969800000200000000
:102C00004B4C000002FF000000000000000000002C
:102C1000BC2B00000000094000000000062B000053
:102C2000A62A0000AE2A000040110020C12A0000A0
:042C3000E62A000090
:102C3400431E59180A4B70B51C000126FF346579F0
:102C4400D2B2B54365711D00060CFE3580B26E82AA
:102C5400FC336881080C89B258626983627570BD5F
:102C640000C07E4082B00E4A0190136B5B060ED505
:102C740000210C4B59750190136B5B06D80F002B88
:102C840008DA019B2BB1019B013B0193F4E7019B03
:102C940013B9142002B07047019B013B0193E4E790
:102CA400FCC07E40FFC07E404143032903D989080C
:102CB40001390029FCD1704740F28013A521064A4E
:102CC400D150C243054BD2B258705A7058705B78D9
:102CD400834200D1C046704700C07E40FFC07E40A2
:102CE40043F6B27344F6003273B5194E0400F35A36
:102CF40001929DB2012B09D19220FFF7DDFF032041
:102D0400A168FFF7D1FF1220FFF7D6FF0820FFF7D5
:102D1400D3FF0620A168FFF7C7FF43F6B2720D4B3D
:102D2400B352B35A98B253B9012D07D10A4BDD807F
:102D3400DA8890B2002AFBD101325A8076BD019B19
:102D44001BB1019B013B0193EBE71420F6E7C0465E
:102D540000C07E4000AAFFFFFEC001400300002225
:102D6400343310B51A7043F6B273094A0400D35AC7
:102D74000BB900F019FA0121064B20009A6A0A43A4
:102D84009A629A6A8A439A62FFF7AAFF10BDC04604
:102D940000C07E40FCC07E40F8B505000800160067
:102DA4001F00FFF75FFF0400142804D12800FFF779
:102DB400D5FF2000F8BD40F2F0133400044AD35884
:102DC4001C401E42F5D02800FFF7C8FF3C00F0E786
:102DD40000C07E40002310B5934200D110BDCC5CEE
:102DE400C4540133F8E7002270B51C4B04005A8028
:102DF40043681A787AB111221F219A5653090A405E
:102E04001E3991400A00203315499B005A50BFF3E4
:102E14004F8FBFF36F8F43F6B273124A12491220D9
:102E2400D152FFF749FF0320A168FFF73DFF0F4B85
:102E34001B789B076BB10426C225D220C0B2FFF7D2
:102E44003BFFE8B2FFF738FF3000A168FFF72CFF23
:102E540070BD062682259220F0E7C046FEC00140E0
:102E640000E100E000C07E4001AAFFFFA0E00140B5
:102E740013B50F4A0190136B1B0610D540F2DC13F7
:102E840000240C49CC500190136B1B06D80F002B67
:102E940008DA019B2BB1019B013B0193F4E7019BF1
:102EA4000BB9142016BD019B013B0193E3E7C04617
:102EB400FCC07E4000C07E4070B50500406AFFF74C
:102EC400D7FF0400142804D12800FFF747FF20008F
:102ED40070BD40F2F013064AD258DF3B1400FF3BAA
:102EE4001C401A42F3D02800FFF738FF1824EEE7FD
:102EF40000C07E40F8B514000F0005001E00FFF767
:102F040072FF210083223800FFF792FE0334AB697D
:102F1400A1085943102240F2F8132800FFF73CFFA0
:102F240038B9044B2800DB6A1B07DB0F3370FFF74B
:102F3400D7FEF8BDFCC07E40F8B5040016000F00B3
:102F44001D00FFF750FF01210A4A380053798B43D3
:102F54002900537171438422FFF76AFEE169192342
:102F6400112220007143FFF717FF10B92000FFF76B
:102F7400B7FEF8BDFFC07E40F0B585B006000291F3
:102F84000392FFF730FF8323029C019301221E4F1B
:102F94001E497B7913437B71039B03BB4FF6FF737D
:102FA4004B63CB6340F2DC13194A01993000D150D2
:102FB400019B01330193FFF77FFF01227B79050019
:102FC40093437B7118B9019B0434872BDED1300005
:102FD400FFF786FE05B90500280005B0F0BD62784C
:102FE4002378120213434B63029BE31A0C2B07D181
:102FF400029B039A987BDB7B1B0203431343D0E7BA
:10300400E278A3781202F9E7FFC07E40FCC07E405C
:1030140000C07E4013B50F4C0A0C2300FE3389B266
:103024005A825981082201006846FFF7D3FE6B4695
:103034001A882300FC335A636A465288FF34DA63E1
:103044006A4692885A646A46D2889A648123637570
:1030540013BDC04600C07E40F8B51D0004000E003C
:103064001700FFF7C0FE0121ED0825630025134A70
:10307400E762A66253798B435371236BBBB10DB1E5
:103084002800F8BDE16AA06AFFF7C4FFA36A122210
:103094000833A362E36A20000833E362236B2169E7
:1030A400013B23631823FFF777FE0500E5E7002DB6
:1030B400E6D12000FFF714FEE2E7C046FFC07E40E1
:1030C40030B50C4D0C4C52B940F2DC13800A890A1D
:1030D40080B289B260638232E163EA5030BD4FF658
:1030E400FF73E363013BFF3B1843812240F2DC138F
:1030F4006063F2E700C07E40FCC07E40F8B5170074
:1031040005000C00FFF76FFE9FB140F2D812C020FB
:103114000321124E2140B358002783431C00890128
:103124000C43B4502800FFF7DBFD07B90700380053
:10313400F8BD0126344063425C412002084C39004A
:103144006379320033436371FFF7BAFF2800FFF756
:10315400B3FE63790700B3436371E3E700C07E40C5
:10316400FFC07E40F7B501270E0004000C4D01920C
:10317400FFF739FE6B7930003B436B7100220199F4
:10318400FFF79EFF2000FFF797FE06006B792000F3
:10319400BB436B71FFF7A4FD06B906003000FEBD0A
:1031A400FFC07E400000000001B40248844601BC18
:1031B400604700BF211D0000F9060000340800200C
:0C31C40010000C0000000000FF000000E4
:020000040101F8
:10001800FFFFFFFFFFFFFFFFFFFFFFFFFFFFFFFFE8
:0C002800FFFFFFFFFFFFFFFFFFFFFFFFD8
:0400000300001D7963
:00000001FF
