:10000000D8190020211D00006107000035070000FD
:1000100035070000350700003507000035070000F0
:100020000000000000000000000000003507000094
:1000300035070000000000003507000075070000CC
:100040004D1800009D1C0000A11C0000A51C000014
:1000500000000000000000000000000000000000A0
:100060000000000000000000000000000000000090
:100070000000000000000000000000000000000080
:100080000000000000000000000000000000000070
:10050000044A138D03F00F038342FAD1538D9B04E9
:10051000FCD570470000094022F0010330B50344C8
:1005200004469C4209D1D30706D522F001020B787C
:10053000825C62F307030B7030BD34F8025B0D8000
:10054000EFE70244904200D170470B7800F8013B7E
:10055000F8E7FFFF2DE9F04F98460C23174E03FBF9
:1005600008F385B0894606EB030A01A9F35815463E
:1005700007469847BDF80440DAF808B00298AC4244
:1005800028BF2C4622464946D8472C1B0AD0BDF826
:1005900006A00398A24528BFA24652464946D8471E
:1005A000A4EB0A040C2303FB0866291B736889B2B9
:1005B0003846984705B0BDE8F08F00BF9C2A000080
:1005C000F8B5174CE5882DB925706570A570E570F4
:1005D0000120F8BD134BB3F85E7007F07F07BD42F2
:1005E0002E4628BF3E4646B1637A2068DB0710D509
:1005F0000D4901233246FFF7ADFFBE423CBF094B18
:100600004FF40042A5EB060538BF5A840020E58070
:10061000DFE705493246FFF77FFF30442060ECE713
:100620004011002000000940140009402DE9F84362
:10063000204D0C274743E9198046CC8834B9EC5546
:1006400001204C708C70CC70BDE8F8831A4B82B2DC
:1006500042F480661E85A3F86420B3F86C901FFAFC
:1006600089F9FFF74DFF4C45264628BF4E4646B157
:100670004B7AE859DB0716D5104901233246FFF7BC
:1006800069FF0D4A4E453CBF4FF40043538500239C
:100690001385138D13F00F00FBD10C2303FB0855BA
:1006A000A41BEC80D0E705493246FFF735FF304404
:1006B000E851E6E740110020000009401800094019
:1006C00038B9044B0122C3F88020BFF34F8FBFF32A
:1006D0006F8F704700E100E0014B01221A60704704
:1006E00000E100E011F07F0208B519D00E4BC909F6
:1006F00003EB0113134493F878308BB10B495B0083
:100700001944FFF7DDFF0B8803F0030343F00203F6
:100710000B8002230B8028B9BDE80840FFF7DCBF3F
:100720000349EEE708BD00BF401100206E000940FC
:100730006000094000BE7047064B93F826101A6A05
:10074000054B53F82130C2F30262D340034A1360D1
:10075000704700BF00E00140B4050020DC1000201D
:10076000034AB2F840319BB2A2F83031704700BF63
:1007700000600040024A136801331360704700BFF5
:10078000D410002010B501F1080400F00F02D3B21C
:10079000092A8CBF3733303304F8013D8C424FEACD
:1007A0001010F2D110BDFFFF00F1604303F561436B
:1007B0000901C9B283F8001300F1C0020A4B53F8D3
:1007C00022106FF3104143F8221000F01F0240097D
:1007D000800000F1604000F5614001239340C0F8C3
:1007E00080310360704700BF00600040C38911FA88
:1007F00083F19AB289B28A4202D883898B4202D2AB
:100800004389194489B2C1817047038A11FA83F17F
:100810009AB289B28A4202D883898B4202D2438932
:10082000194489B20182704730B5C489038AA4B2E1
:100830009BB29C4238BF4589A4EB030292B238BFF9
:10084000521B858838BF92B2954220D2A54212D958
:1008500043892B44E31A9BB20382038A2A469BB244
:100860009D421FD90568A3421D444D601DD200233F
:100870000A804B800EE08289631B9BB29A423EBF86
:1008800042899B1A9BB20382038A2A469BB232B9E1
:10089000C1E9002200238B6030BD641BA4B2A542D5
:1008A000FBD9DDE75B1B9BB2DAE78488121BE51AF4
:1008B00013440D804B800368EDE770B5C389048A4B
:1008C00085889BB2A4B2A34238BF4689A3EB040239
:1008D00092B23CBF921B92B2AA1A92B232B9C1E94B
:1008E000002200238B6070BD5B1B9BB2AB42FBD22E
:1008F000AC4209D205689C421D444D6007D9E41AF8
:1009000000230C804B80ECE7641BA4B2F0E78488E2
:10091000121BE51A13440D804B800368E2E7FFFFCA
:10092000094B63B1094B1B78834206D9084B1B68FE
:1009300000EB400003EBC0007047C01AC0B20028B3
:10094000044818BF002070470000000090100020ED
:100950008C100020282A0000CB6802490B6101217D
:10096000184700BF6C100020044B1B7810B123B94E
:10097000FFF7B2BE1846FFF7A3BE7047B0050020D0
:10098000024B02225A8000221A7170479C0E0020EE
:10099000024B00221A80FFF7F3BF00BF9C0E00201D
:1009A0000020FFF7F5BFFFFF70B500238D781846D4
:1009B0008C79012C20D04B78212B22D1154B8A78B1
:1009C0001A70B1F80530402B06D94FF0E023D3F868
:1009D000F03DDB0700D500BE093080B219E08C780D
:1009E000AC420ED1CE78DCB2A6420AD10C782044BB
:1009F00080B221440133DBE7CC79022CDBD1904279
:100A0000EDD34FF0E023D3F8F03DDA0700D500BE78
:100A1000002070BD9C0E0020084B1A68084B9A42BB
:100A200009D1084BB3F8B20F00F08100003818BFAD
:100A30000120C00070470720704700BFE810002069
:100A40004E45504F00F07E40084B00221A719A78B4
:100A5000042A02D103229A707047072AFCD11A781F
:100A600012F0040F0CBF08220622F4E79C0E0020AF
:100A700008B50378012B06D103490B881BB1FFF79A
:100A8000E3FF00230B8008BD80100020EFF31080EF
:100A9000012383F310880A4A53889BB24BB9094952
:100AA000B1F8FE339BB243F4254343F00203A1F8AF
:100AB000FE33538801339BB2538080F31088704714
:100AC0009006002000E00140EFF31081012383F342
:100AD00010880C4A53889BB21BB15388013B9BB2D0
:100AE000538053889BB24BB9074AB2F8FE339BB28E
:100AF00023F0020343F42543A2F8FE3381F3108868
:100B0000704700BF9006002000E00140030143EA67
:100B1000801040F4847040F001007047002802DB30
:100B2000014AFFF741BE7047201100202DE9F04136
:100B30003B4B3C4D1F7805EBD013144693F8272010
:100B4000D20706464FEAD01808D54FF0E023D3F875
:100B5000F03DDB0700D500BE00204CE093F82720D5
:100B6000384642F0010283F82720FFF7A9FD2E4BFB
:100B70005EB34FF484621A841A8C9606FCD52B4A15
:100B8000507A94806FF300005072D480002C3DD0D6
:100B90001160B3F8602010042FD44FF0E023D3F895
:100BA000F03DDA0730D40FB9FFF796FD05EB0803E7
:100BB00093F827206FF3000283F8272093F827206B
:100BC0006FF3820283F82720BFE71E841A8C12F08D
:100BD0002002FBD1154B587A9C8062F300005872BA
:100BE000DC809CB11960104B0122A3F860200FB982
:100BF000FFF772FD0120BDE8F081B3F8543019060B
:100C0000CBD5FFF7DDFCEEE700BECCE7074B0022BB
:100C10001A705A709A70DA70034B0522E5E700BF2C
:100C2000B00500209810002000000940401100206D
:100C300030B51A4DAB686D685C6E2D78032D06D803
:100C4000013490B1844210D90138086024E008B121
:100C50008442FAD85B6BD50754BF03F01F03C3F37C
:100C600004431B0983F001030BE05B6BD20754BF05
:100C700003F01F03C3F3044303F00C031A1F534292
:100C8000534118B933B12CB1032304E0A042FBD384
:100C9000002BF9D002234B6030BD00BF2011002093
:100CA0002DE9F34101F00307032F80460D4607D0DD
:100CB0002A4B01F00C0259680978062903D122B9A0
:100CC00002B0BDE8F081002AFAD11968244A9142A5
:100CD000F6D19E68736E01334345F1D300234FF084
:100CE000FF30CDE900032A4669464046FFF7A0FFE2
:100CF000019B346B83B1012F0BD024F44034022DBF
:100D000044EA034426D1012269464046FFF790FF9A
:100D10001AE0022D18D1F6E715F0080F0CBF0223D8
:100D20000423A9075BBFDB19123306EB830306EB31
:100D30008303009A4ABFDA645A601A65012F03D010
:100D4000022D24F4403405D1019B24F0407444EA80
:100D5000036401E0002FF7D13463B1E720110020D4
:100D600054504700C0430022114600F08000FFF7B6
:100D7000DDBEFFFF10B40346064C006859682246EA
:100D800003C20022C4E9022218785DF8044BFFF781
:100D9000E9BF00BF6C10002070B5144E054600245A
:100DA000E0B2FFF7BDFD38B94FF0E023D3F8F03DD6
:100DB000DB0700D500BE70BD436828469847013464
:100DC0003278E3B29A42EBD23B220021084801F08C
:100DD00049FD1022FF21074801F044FDBDE87040A5
:100DE00005481422FF2101F03DBD00BF90100020F6
:100DF000981000209B100020AB10002038B5C5894A
:100E0000028AADB292B2AA42A5EB020388BF428920
:100E10009BB288BF9B1A828888BF9BB29A420446C5
:100E200019D1007AB8B938BD801A80B29042FBD28D
:100E30002368E28802FB003001F006FD6B1C9BB2C8
:100E40009D4202D8A2899A4202D2628913449BB27F
:100E5000E3810120E7E72846E8E7FFFF10B5114BE3
:100E60009989DA8993F900008C1AA4B2402C28BF22
:100E7000402400280DDA914211D099680A48224690
:100E800001F0E2FC802008492246BDE81040FFF74F
:100E90004DBE91424FF00000F5D10146F4E78020AD
:100EA0000021F1E76C100020E80E002070B5034629
:100EB000124D00680C465968AC602E4603C60021EE
:100EC000E981D9888A4228BF0A46AA81D98881B196
:100ED0004AB144B94FF0E023D3F8F03DDB0700D529
:100EE00000BE002004E0FFF7B9FF0028F2D0012087
:100EF00070BD1878FFF736FFF7E700BF6C100020D1
:100F000007B58DF800208DF801301A0A1B0C8DF8FA
:100F100002208DF803308DF8041000230622694664
:100F20008DF80530FFF7C2FF03B05DF804FBFFFF4B
:100F30002DE9F04F8A4C87B08A4B1D6800202B6842
:100F400098476B8AA98A9BB289B28B4238BFE889DD
:100F5000A3EB010296B238BF321A288938BF96B285
:100F6000B04225D2834219D2EA8902449B1A9BB22D
:100F7000AB8288423AD96A896B6803A802FB0131C7
:100F800001F062FCAA8A92B2531C9BB29A424FF0C3
:100F9000010611D9EA8913449BB210E02A8A1B1A70
:100FA0009BB29A423EBFEA899B1A9BB2AB8206462D
:100FB000002EDED1AB8A9BB22A8A9A42EAD3AB8258
:100FC00001202B689847002E00F08D839DF80D308E
:100FD000013B072B00F23483DFE813F00B0018000D
:100FE000320390039003220011039203091A89B27D
:100FF000BFE79DF80C00FFF7CFFE5B4814220021ED
:1010000001F030FC9DF81030A37095E79DF80C00BE
:10101000FFF7C2FE14220021534801F023FC8BE7A6
:101020002378DFF844919DF810809DF80C5043F030
:101030000103237094F827306FF3000384F82730FE
:1010400094F827306FF3820384F8273094F828301F
:101050006FF3000384F8283094F828306FF382038C
:1010600084F828300023C9F8103008F06003602BA2
:1010700011D14FF0E023D3F8F03DD90700D500BEE1
:101080009DF80C000021FFF72DFB9DF80C0080213E
:10109000FFF728FB50E7402B0DD1344B002BEFD04E
:1010A00004AA01212846C9F81030AFF300800028B7
:1010B0007FF442AFE4E708F01F08B8F1010F00F039
:1010C000E981B8F1020F00F00C82B8F1000FD0D125
:1010D000202B0FD19DF814300F2BD1D82344D87872
:1010E000FFF71EFC01460028CAD004AA2846FFF7D5
:1010F00033FCDCE7002BBCD19DF81130092BB8D8AC
:1011000001A151F823F000BF3314000021140000A6
:10111000731000000D140000731000003111000066
:10112000E5120000731000004B1100007111000067
:1011300006AB13E903000023C9E90233237843F027
:101140000203C9E900012370F6E663788DF80A30DE
:1011500001220DF10A0104A8FFF7A8FEECE600BF8A
:1011600098100020941000206C1000200000000057
:101170009DF812B063789B4500F097806378002B50
:101180003FD02846B04EB14FFFF79AFA4FF0010911
:1011900009204FF00C0E4FF0000C0EFB00631B7A81
:1011A0002BB303F07F08DB091A0106EB031343445A
:1011B000019293F87830F98E09FA03FA89B221EA9C
:1011C0000A01F986002B3DD0A14A591E02EB4101CC
:1011D000A1F800C0A7F86430A7F868C0019A3244AB
:1011E0000EFB0363424483F808C082F878C00138DC
:1011F000D3D10DB9FFF770FAA6782846FFF7CCFDDA
:10120000A670BBF1000F50D02378DFF8849223F052
:101210003003237099F801300B2B03BF99F800308D
:1012200099F803A099444FF0010A99F80130042B72
:101230000CD04FF0E023D3F8F03DDA077FF519AF7B
:1012400000BE16E78349C3E78146E3E7824BA3EB81
:1012500009081FFA88F80027FEB23046FFF760FB46
:101260000028E6D083684246494628469847082821
:1012700031D980452FD3002209E099F802703B4410
:1012800054FA83F30132DF78FF2FD2D1DE70D3B26C
:101290009A45F2D8714F484448450CD8704B1B789A
:1012A000B342C6D36C4B9842CED384F801B004A8A5
:1012B000FFF760FD40E699F80130052B07D199F85A
:1012C000023003F07F0207EB4202DB09D65499F8A3
:1012D00000309944E0E7624B01371A78FBB29A423A
:1012E000BAD2A6E7BDF812301A0AD8B2531E0E2B96
:1012F0003FF6C6AE01A151F823F000BF391300003C
:101300005B130000731300008110000081100000C7
:10131000F51300005B130000811000008110000035
:101320008110000081100000811000008110000079
:1013300081100000451300004A49122204A8FFF75B
:10134000B5FDB4E6484B002B3FF49AAEAFF30080F6
:10135000014600283FF48DAE02E0022A02D1434943
:101360004A88EBE7424B002B3FF48AAEAFF3008094
:10137000EEE770B93F494048022201F065FA0120CA
:101380004000821C3D4942F440730B8002F0FE0293
:10139000D4E705283FF674AE394B3A4D53F8206038
:1013A0002B78BBB9384BD3F89C3103F1140758693B
:1013B0002946FFF7E7F9786805F10801FFF7E2F938
:1013C000B86805F11001FFF7DDF9F86805F11801BB
:1013D000FFF7D8F9304601F04DFA2849C0B2002293
:1013E000D3B2834202F10102CAD25D1CF35C21F840
:1013F0001530F5E7254B002B3FF442AEAFF30080EC
:10140000014600283FF43CAE027897E7BDF8123061
:10141000012B7FF435AE237843F00803237046E7B1
:10142000BDF81230012B7FF42BAE23786FF3C3038A
:10143000F4E72378C3F340129B0803F0020313433D
:10144000ADF80A30022284E6401100200000094075
:101450007000094060000940142A0000AB10002011
:1014600090100020142A000000000000F029000065
:1014700000000000062900006C0F00206A0F002009
:10148000D8290000280F002000B07F400000000095
:10149000F92900009DF814300F2B3FF6F1AD2344DD
:1014A000D878FFF73DFA014600283FF4E9AD04AAD9
:1014B0002846FFF751FA00287FF43EAD9DF8103022
:1014C00013F060037FF4DCAD9DF81120A2F10A0156
:1014D00001293FF6D5AD0A2AC9F810307FF4E7AEEE
:1014E00034E69DF8141001F07F02092A3FF6C1ADE1
:1014F00004EB420707EBD1170193F87CFFF710FAD2
:10150000019B4FEAD11B560082462BB100283FF4C5
:10151000B7AD04AA0146E9E59DF8113003F0FD00DE
:10152000012807D0002B7FF4A4AD97F82730C3F330
:10153000400385E7BDF8120000283DD174482037EC
:10154000012B0078FB7949D19B0735D5A2B1714BAE
:1015500003EB0B13134493F878306BB16E4F5B00C1
:101560001F44FFF7ADF84FF480733B80BBF1000FD1
:1015700004D001233B800EE0684FF2E7654B0B443B
:1015800093F87820664BA3F86420B3F86830C3F36F
:101590008133012BEDD108B9FFF79EF826445E4454
:1015A00096F827306FF3410386F8273096F82730F6
:1015B0006FF3000386F82730BAF1000F3FF4BCAC9C
:1015C00004AA51462846FFF7C7F90023C9F810308E
:1015D00094F82830D8073FF5AFAC68E69F07EBD406
:1015E00026445E44FFF77EF896F8273043F0020366
:1015F00086F8273096F8273043F00103DAE79DF8A4
:10160000101001F07F0504EB450303EBD1134FEA03
:10161000D11C93F827006FF3000083F8270093F89C
:1016200027006FF3820083F82700002D50D13D4D35
:101630009DF80C702B78059EBCEBD31F18D046B1DB
:101640004FF0E023D3F8F03DDB077FF575AC00BE2B
:1016500072E4354B1BB129463846AFF300802B6945
:10166000002B3FF469AC2F4A03213846984763E4C6
:1016700095F90030A868002B06DB00283FF45CAC2D
:101680002A49324601F0E0F8AA68EB893244334433
:10169000AA60EA889BB29A42EB8101D03F2E14D80F
:1016A0002B6933B92878FFF75DFB00287FF444AC41
:1016B000C6E702211B4A3846984701460028F1D167
:1016C0003846FFF70FF88021E2E4FFF7C7FBECE7AD
:1016D000D87CFFF725F948B94FF0E023D3F8F03D67
:1016E000DA0700D500BE07B0BDE8F08F0569059B9D
:1016F0009DF811209DF80C00A8471DE423781BE4F9
:10170000049B002B3FF418AC0598984714E400BFE5
:10171000B0050020401100206E0009406000094023
:10172000000009406C10002000000000E80E0020BE
:1017300008B50D4C0D4E2568327823685B1B632B72
:101740000CD9BFF34F8F0A490A4BCA6802F4E06212
:101750001343CB60BFF34F8F00BFFDE7FF2AECD0F0
:10176000FFF7E6FBE8E700BFD4100020B00500203B
:1017700000ED00E00400FA057FB54378023B044623
:10178000032B12D8DFE803F00226151D2C4B1A7824
:101790006FF300021A701A7800216FF341021A7079
:1017A00059701A7861F382021A70264B2146186824
:1017B00038E0234B1A78D5073FD51A7842F0040257
:1017C000F2E71F4A1378D80737D513786FF38203EF
:1017D0001370EAE71C4E0025E8B2FFF7A1F820B12C
:1017E000436913B161682078984732780135EBB2CC
:1017F0009A42F1D2124A137859071ED513786FF323
:10180000820313700023CDF80630CDF80A30ADF80E
:101810000E3023788DF8043005238DF80530094B00
:10182000186801A90430FFF7E9FA30B94FF0E02356
:10183000D3F8F03DDB0700D500BE04B070BD00BF9B
:101840009810002094100020901000202DE9F04FF7
:101850008BB0EFF30383103B5BB2AC4AC03352F85A
:1018600023106FF3104142F82310A94BB3F8401036
:10187000CA4362F478428CB292B20904A3F84020C1
:101880000CD5B3F8402012F0800FC2F3C0111A88B3
:1018900014BF42F0100261F304121A80620413D5DF
:1018A0000025052307A88DF81D30CDF81E50CDF872
:1018B0002250ADF826508DF81C50FFF75DFF944B79
:1018C0001A8E65F34D321A86A30416D5904E338EC8
:1018D0009F0412D50025032307A88DF81D30CDF8ED
:1018E0001E50CDF82250ADF826508DF81C50FFF751
:1018F00043FF338E65F34D333386E50407D504F09B
:101900007003202B00F0D08061D8102B7DD02005F3
:1019100032D5E10740F1E8807D4BB3F84020120753
:101920002AD54FF480425A84B3F85420ADF81420DD
:10193000B3F85620ADF81620B3F85820ADF81820AB
:10194000B3F85A20ADF81A204FF6F772A3F84020EA
:101950000023CDF81E30CDF82230ADF826308DF8BA
:101960001C300822062305A908A88DF81D3000F0B8
:101970006BFF07A8FFF700FF670515D5644BB3F8A9
:101980004A200021D607A3F84A100DD5FEF718FE0D
:1019900050B1604B4FF4E0659B880993802207A803
:1019A000CDE90752FFF7E8FEE4050DD5584D594C37
:1019B000EB8EB5F84670BFB21F40FB439BB2A5F853
:1019C0004630002F40F0AC800BB0BDE8F08F602BAC
:1019D00004D018D804F06003402B98D10023CDF830
:1019E0001E30CDF82230ADF826308DF81C3007A817
:1019F00004238DF81D30FFF7BFFE454A138E43F4D4
:101A00000053138683E7702BE7E7414B01225A8787
:101A1000DA864FF480425A8400221A851A8D12F019
:101A20000F02FBD19A859A8D12F00F02FBD13A4D2D
:101A30003A493748012394464FF400774FF48076B3
:101A40001FFA83FEA0F864E0A0F868C021F81370C4
:101A500021F8132025F823600133062BF0D100254F
:101A60002B4A2E464FF400709FB2A2F86470A2F881
:101A7000686021F8130021F8135001330A2BF3D1C9
:101A800024489822002100F0EDFE0123CDF81E50DD
:101A9000CDF82250ADF826508DF81C508DF81D3031
:101AA00007A8FFF769FE32E7194BB3F85030DBB2F5
:101AB000002B3FF42CAF4FF4A062ADF8163000239A
:101AC000ADF814200693CDF81E30CDF82230ADF8D5
:101AD00026308DF81C300822062305A908A88DF8A9
:101AE0001D3000F0B1FEDBE714F007027FF444AFD5
:101AF000074B1B8C0992C3F340134FF4E061DB01E9
:101B0000CDE907128DF8203033E700BF00600040B8
:101B100000000940401100208C0009406E0009407F
:101B200097FAA7F6B6FA86F60C237343E2180193E8
:101B3000117AC90902F1080317D03046FEF776FD85
:101B400000285ED00C2303FB06434FF4E0609A8824
:101B5000197ADB88D31A0022CDE9070207A88DF88D
:101B600020100993FFF708FE4BE00393002E57D097
:101B7000B2F806B0B2B22A853046A5F86420B5F8AE
:101B80006CA0FEF7BDFCB5F82A901FFA8AFAC9F3DB
:101B90000B09D1454B4628BF53465B45029328BFEE
:101BA0005B469846019B54F80390B8F1000F09D0AA
:101BB000039B5B78D80729D50B46424635494846F2
:101BC000FEF7C8FCC24584BF4FF480436B850023F9
:101BD0002B852B8D1A07FCD10C2303FB0642ABEBA4
:101BE0000801C245D18002D8029A934509D87343AF
:101BF000E1180022E2544A708A70CA70B9F1000FED
:101C0000A0D10123B34027EA0307DAE6424621497F
:101C10004846FEF796FC019A09EB0803A350D1E76A
:101C2000B5F85EA0B4F806B06B8C0AF07F0AD34515
:101C3000D846C3F30B0328BFD046984528BF984623
:101C4000B8F1000F0AD0637AD4F80090DB0713D5FF
:101C50001149334642464846FEF77CFCABEB08038D
:101C6000C2459BB211D8C345E380CAD1002323707B
:101C70006370A370E37065E7484607494246C14474
:101C8000FEF75FFCC4F80090E8E74FF480426A84F6
:101C9000E380EBE71800094014000940FFF7D6BDC8
:101CA000FFF7D4BDFFF7D2BDA0F101000028FBD1A2
:101CB0007047FFFF10B5174B4AF68022A3F8B22FEA
:101CC000154B81680446062000F0DEFD93F8A03035
:101CD0009B070CBF1020502000F0EAFD63681A78C3
:101CE000BAB193F911300D4A03F1C00152F8210045
:101CF0006FF3104042F8210003F01F015B099B00C5
:101D000003F1604303F5614301228A40C3F8802157
:101D10001A6010BD00F07E4000E00140006000400D
:101D20008FB5C44BC4484FF47002C3F88820C34A2F
:101D30009A604AF20253A0F8FE33012380F81F3460
:101D400090F8B134DE06FBD54FF42543A0F8FE33FE
:101D50004AF20353A0F8FE33B94BBA4ABA4DBB4915
:101D60000024A3F80041BA4BC3E900524FF40042EB
:101D7000C3E902211A61B74A5A61FEF7DDFC092363
:101D800080F8134480F8A23090F8803473B90123AE
:101D900080F88034B04BB1481A68B14BB3FBF2F312
:101DA000B0FBF3F0800801D0FFF77EFFA24B0022CA
:101DB00083F8812483F8802493F8A020002A40F03F
:101DC0009B829D4C012384F83630002384F8323006
:101DD00094F83C301E07FBD58B2384F82B3007206A
:101DE000FFF762FF0023944884F82A3090F83C30D3
:101DF0009D06FBD50124052380F8314080F826306C
:101E0000984B0362FEF798FC002380F8D0304FF423
:101E10002543A0F8FE338A4BA3F80441B3F80441EC
:101E2000A4B2002CFAD10126A3F800618DF8074076
:101E30009DF80730FEF72AFEEFF3108286F3108834
:101E4000894FD7F8043123F00043C7F80431D7F89D
:101E5000043182F31088854D2B68C3F300038DF89D
:101E600007302B68C3F300038DF807302B68C3F3EA
:101E700000038DF80730EFF3108286F31088D7F84F
:101E8000043143F00043C7F80431D7F8043182F33A
:101E90001088FEF719FE764B76489C804FF4254259
:101EA0001A80754A9A60754ADA60754A4FF4805113
:101EB000A2F82011734A9E80121A214600F0D2FC2B
:101EC0007148724A7249734E121A00F0BDFC724B8F
:101ED000F61AB6109846A64200F32382FEF72CFCB1
:101EE0006E4A6749002303F1C000013312F8014B29
:101EF00041F82040202BF6D1694B6A4A196891427B
:101F000074D0694C1A6000262246B046B4464FF0A1
:101F1000010AB2F80490DFF89CE100233EF8021BAE
:101F200089450BD110680AFA03F100F0B850C9B224
:101F3000B0F1807F0CBF41EA08080E430133032B48
:101F4000ECD10CF1010CBCF1090F02F10802E0D157
:101F5000FEF79CFD384A92F8BB3443EA080323EAB3
:101F6000060382F8BB34FEF7AFFDEFF310800123C8
:101F700083F310884D4B196819B94D4AD17040212F
:101F8000D1701A6801321A6080F310880020A1888D
:101F900026680A0A16F4803FC9B24FEA02120BD033
:101FA00002EB010C55F82CE06FF3104E45F82CE0D5
:101FB00026F4803E45F82CE00A440130092845F813
:101FC000226004F10804E2D1EFF31081012282F3D0
:101FD00010881A6812B11A68013A1A601A681AB998
:101FE000334BDA708022DA7081F31088124ADFF8FE
:101FF00068804AF20253A2F8FE33D7F8003123F486
:102000000063C7F800314FF42543A2F8FE33D8F837
:1020100000304FF47A72B3FBF2F3013BB3F1807FEF
:102020004DD24FF0E022F0215361024B83F8231090
:10203000002341E000ED00E000E00140000000006E
:1020400000C0014000127A0000366E010024F40046
:10205000B4050020006CDC02DC100020A09D120002
:1020600000CA9A3B00010110006F044000080440C0
:10207000000D0040D0050020D8150020D819002000
:1020800000600040D811002000000020B4050020AE
:10209000B42A0000B4050020B4050020402A000046
:1020A000E010002054524F5008290000D8100020A2
:1020B000000D0440602A00009361072313619B4BCD
:1020C0009B4AD3F8001591424AF20251A3F8FE133D
:1020D00040F050810022C3F800254FF42542A3F8B8
:1020E000FE23944EDFF8889233684B4562D0082374
:1020F000F360914B914A7360002501233374B26001
:102100007561C6E90655EFF3108283F31088D7F89E
:10211000083123F04003C7F80831D7F8083182F3BB
:102120001088B3684FF425421A60B4684FF080738A
:10213000E562E563A564E3624FF0004323616361F8
:10214000A36149F6950365622A46A56202A9E56185
:1021500044F64B402562A36663664FF0FF33CDE93A
:102160000235FEF765FD029B6365A365039B284668
:102170001A0642EA0342FEF7C9FC4FF4AA03A5631C
:10218000C4F888502364F368E36042F0030342F02C
:1021900001026063FF21236328462263FEF7BEFC31
:1021A00029462846FEF7BAFC29462846FEF7B6FC23
:1021B000C6F800907168087844F61F6344F6206200
:1021C000032898BF1A46B3689A66097819B942F28B
:1021D0000F7159659965D96ACC0705D45A664FF4D1
:1021E000AA021A64F268DA6000210846FEF758FD78
:1021F0003368534C534D4B4504BFD6E902325A6005
:102200002368AB4274D0504B63604848D8F8001044
:10221000002384F83430026AC2F3026301FA03F344
:10222000C2F30272D340494AE360934209D8484A54
:10223000934206D0474A934203D0474A934240F024
:10224000F080026A4248454EC2F302629140D1409A
:1022500003F5742303F23F2301F57421B3FBF0F37C
:10226000E36040F2835301F23F21B1FBF0F106201D
:102270004B43B3FBF0F3236140F276334B43B3FBA4
:10228000F0F3636158234B43B3FBF0F3A361344B8A
:10229000A1604B43B3FBF0F3E361324B4B43B3FB21
:1022A000F0F32362304B4B43B3FBF0F363622F4BED
:1022B000002283F8C02F96F89030012B04D0012320
:1022C00086F8903000F0E0FA1D48FFF7F3FCE36871
:1022D000D6F8D8211A48013B03F01F0363F3050227
:1022E000C6F8D82100F0DCFA002840F0968025607E
:1022F000134800F0CDFA94E093F836201AB993F819
:102300003C20D107FBD5094B93F8A020C2F3001164
:10231000D206F9D483F8A01093F8A020D706FBD4F6
:102320004FE558F8043B98470134D4E500E00140FC
:1023300035817307201100207C2A000000830740AC
:10234000E81000204E45504F682A0000FF083D006D
:1023500040420F0080841E00C0C62D0000C07E4099
:10236000B86A0500D066050068ED220000F07E40E6
:1023700054504700C3F800254FF42542A3F8FE232C
:10238000794A1368B3F5FA7FFBD3784B4AF20255CA
:1023900000214FF425444FF48042A3F8FE53C3F8C4
:1023A0000015A3F8FE43106800F07F40B0F1005F15
:1023B0007FF497AEA3F8FE53EFF31086012585F363
:1023C0001088D7F8000140F40060C7F80001D7F882
:1023D000000186F31088EFF3108685F31088D7F894
:1023E000000140F48050C7F80001D7F8000186F3DF
:1023F0001088A3F8FE435E4B998072B6BFF34F8FEF
:10240000BFF36F8F4FF0E0231961C3F8082D1368F5
:1024100083F308885368984763E62368AB423FF428
:1024200067AF544D2B78FF2B25D13B22002152481A
:1024300000F018FA514A00235382938213895B00FB
:102440009BB2591E5B42D3814D4B11821A604D4B9A
:1024500023B14D48AFF300804C4B18604A4E002426
:10246000E0B2FEF75DFA48BB4FF0E023D3F8F03D51
:10247000D80700D500BEDFF8F080454F454E2B78D9
:10248000FF2B01D0FEF754FDD8F800203B68D21A8C
:10249000632AF4D934686433002120463B60FEF798
:1024A000FFFB3D4B1A78002A51D0B4F5FA6F4AD29F
:1024B00000221A704FF4FA633360E0E7036898472C
:1024C00001343278E3B29A42CAD200232B70334BE4
:1024D0001A8842F480621A801A885105FCD51A883D
:1024E0006FF345121A801A886FF386121A801A88C1
:1024F00042F001021A800522C3F8F020D3F800242C
:102500006FF30412C3F80024B3F8CC2092B242F067
:102510008002A3F8CC20B3F85E20402161F30602CC
:10252000A3F85E204FF45D421A8601225A87DA86AC
:10253000B3F84020120642BF1A8842F010021A80F7
:10254000FEF7CAF897E7A4F5FA64346097E704F554
:10255000FA6444F61F629442346090D901221A70E2
:1025600044F62063A8E700BFD410002000E001403B
:10257000000D0040B00500209810002098050020B4
:102580009410002000000000901000208C1000200B
:1025900088100020841000208210002000000940D4
:1025A00010B5104B1988FEF737FA0346C0B90E4A2A
:1025B00002EA8112A2F56E3101396FF47E30814258
:1025C0000ED30A490A48B1F5802F80F8343007D974
:1025D000BDE810404FF4006302F5804200F05CB9A2
:1025E00010BD00BF980E002000F8FFFF98060020E5
:1025F000E810002070B51378144603F01F02012A7A
:102600000D4640F00D8113F0600019D163780A2B5C
:102610000DD00B2B27D1012924D1824B62885A700F
:10262000FEF7AEF92046BDE87040FEF7A3BB0129D6
:1026300018D10A467C492046BDE87040FEF736BCFA
:10264000202840F0ED806378062B00F2E980DFE877
:1026500003F004321C520F140F00012904D120464C
:10266000FEF788FB012070BD0329FBD1FFF760F85E
:102670000129F7D1FEF784F9F1E70129F2D10A46E1
:1026800020466A49FEF712FCECE70129EAD1654EC3
:10269000337813F00200E6D0E588402D00F2C080C8
:1026A00061882A46694306F10C0000F0CDF82A46FD
:1026B00006F10C01BFE70129D4D15A490B7813F078
:1026C0000100D0D08B78022B02D0052B40F0A880DF
:1026D000E388402B00F2A48001230B716388CB8038
:1026E000E3880B81E2881AB103238B705049A2E77B
:1026F00006238B7096E74B4A9178032905D006296B
:1027000052D0012DAED1002309E0012D0BD1137958
:102710003BB15378002B14BF642300230421D278EB
:102720004DE00521FBE7032D9CD11379002B38D018
:102730000423D18893703F4B1489198001F580716F
:10274000890111F4F86F14D172B6FEF765F90346EA
:1027500070B93948B1F5802F80F8343008DA21F4A7
:10276000FF614FF40063012221F0070100F09CF8A3
:1027700062B6324D32482B882D492246184400F06B
:1027800063F82B881C44A4B2B4F5006F2C8005D1EB
:1027900072B6FFF705FF62B600232B80FEF754F9EF
:1027A00060E7052393705DE7012D0DD11379D27891
:1027B000002B18BF07214FF0000308BF022120465D
:1027C000BDE87040FEF79CBB032D7FF44BAF13793F
:1027D00023B30723937072B6FFF7E2FE62B6FEF7EB
:1027E00033F9FEF719F900287FF43CAF124B18605B
:1027F0005B6893F9113013F1210F3FF433AF5A099D
:10280000012103F01F03994002F120030D4A42F811
:102810002310BFF34F8FBFF36F8F23E70223C1E76E
:10282000002020E79C0E00209D0E00209E0E002020
:10283000A80E0020980E0020E81000208010002034
:102840009806002000E100E00A44914200F1FF33C5
:1028500000D1704710B511F8014B03F8014F9142B8
:10286000F9D110BD02440346934200D1704703F8EA
:10287000011BF9E7034613F8012B002AFBD1181AB4
:1028800001387047FFFFFFFF5FF800F07D00002078
:102890005FF800F0390100205FF800F039040020F3
:1028A0005FF800F0B90000205FF800F0110300208D
:1028B0005FF800F08F00002000000603332E362E54
:1028C00030004275696C7420776974682052656EB7
:1028D0006573617320416476616E63656420466C44
:1028E000657869626C6520536F66747761726520E4
:1028F0005061636B6167652076657273696F6E20E6
:10290000332E362E300009040000011307040000A6
:102910000000011300050000000001130105000084
:10292000000001030B010000040000000F04000080
:102930000400000004040000040000000004000083
:10294000000000000500000000000000060000007C
:102950000100000000000000000000000000000076
:102960000000000000000000000000000000000067
:102970000000000000000000000000000000000057
:1029800041726475696E6F0053616E746961676F3F
:10299000204446550040436F6465466C617368206F
:1029A0002F307830303030303030302F382A324BC2
:1029B000612C3132302A324B6700404461746146E9
:1029C0006C617368202F30783038303030303030E0
:1029D0002F382A314B6700FF0629000080290000AC
:1029E00088290000280F002095290000BA2900003E
:1029F0000902240001010080320904000000FE01E8
:102A000002040904000100FE010205092107E80390
:102A1000400001011201000200000040412369034F
:102A2000000101020301FFFFA1090000910900005C
:102A3000A9090000F52500000000000000000000CA
:102A400033343132000000000000000000000000BC
:102A50000000000000000000000000000000000076
:102A6000020403040404FFFF00000000710A0000D8
:102A70000000000000000000020702080200000041
:102A800096980000020000004B4C000003FF00007D
:102A9000000000000000000050290000BB080000FA
:102AA000ED07000043050000290800000B080000A6
:042AB0001905000004
:102AB40010B5431E19440B4B93F804416FF3000403
:102AC40083F80441040C80B2A3F81041D2B2A3F8F5
:102AD4000801080C89B2C3F82001A3F8181183F87F
:102AE400142110BD00C07E4082B00F4B0190D3F87A
:102AF4002C2151060FD5002283F814210190D3F81C
:102B04002C21C2F38010520608D5019A2AB1019AE9
:102B1400013A0192F3E7019A12B9142002B0704706
:102B2400019A013A0192E2E700C07E40484303283B
:102B340004D98008A0F101000028FBD17047094B9B
:102B4400A522C3F88021C243D2B283F8000183F8DE
:102B5400002183F8000193F80031834200D100BFC3
:102B6400704700BF00C07E4073B51D4EB6F8B24F2B
:102B7400A4B24FF49643012C0546019309D1922047
:102B8400FFF7DDFF0320A968FFF7D0FF1220FFF74E
:102B9400D6FF0820FFF7D3FFA96806204FF42A4385
:102BA400FFF7C4FFA6F8B23FB6F8B23F9BB27BB9B9
:102BB400012C0AD10B4BA3F80441B3F8042192B2BF
:102BC400002AFAD10122A3F80021002002B070BD2E
:102BD400019B1BB1019B013B0193E5E71420F5E741
:102BE40000F07E4000C0014010B5002380F834306E
:102BF4000C4BB3F8B23F9BB204460BB900F020FA79
:102C0400094BD3F8242142F00102C3F82421D3F85C
:102C140024216FF30002C3F824212046BDE81040AC
:102C2400A2E700BF00F07E4000C07E40F8B5054634
:102C3400084616461F46FFF757FF1428044604D1DA
:102C44002846FFF7D1FF2046F8BD054BD3F8F041E5
:102C54003440F8D02846FFF7C7FF3C46F3E700BFEF
:102C640000C07E4010B50023934200D110BDCC5C5F
:102C7400C4540133F8E738B51D4B0022A3F80021F2
:102C840043681A7804467AB193F9113001215A093C
:102C940003F01F03994002F12003164A42F823105F
:102CA400BFF34F8FBFF36F8F134B4AF60122A3F884
:102CB400B22F1220FFF743FF104BA1680320FFF748
:102CC40035FF93F8A03003F00303002B15BFC22196
:102CD4008221D220922014BF04250625FFF72FFF5E
:102CE4000846FFF72CFFA1682846BDE838401DE7D9
:102CF40000C0014000E100E000F07E4000E001403F
:102D040082B00F4B0190D3F82C2111060FD500226D
:102D1400C3F8DC210190D3F82C21C2F3C0101206B1
:102D240008D5019A2AB1019A013A0192F3E7019A6E
:102D340012B9142002B07047019A013A0192E2E7F5
:102D440000C07E4038B50546406AFFF7D9FF142815
:102D5400044604D12846FFF747FF204638BD054BFB
:102D6400D3F8F04114F01204F7D02846FFF73CFFE3
:102D74001824F2E700C07E40F8B5054614460F4615
:102D84001E46FFF778FF214683223846FFF790FE60
:102D94000334A969A4084FF4FC7310226143284644
:102DA400FFF744FF48B9054BD3F82831C3F3C003F8
:102DB40033702846BDE8F840D6E6F8BD00C07E4032
:102DC400F8B5044615460E461F46FFF754FF0D4B53
:102DD40093F804216FF3000283F8042107FB05F143
:102DE40084223046FFF764FEE16919231122694306
:102DF4002046FFF71BFF18B92046BDE8F840B3E6AC
:102E0400F8BD00BF00C07E402DE9F84F89468046DA
:102E14009246FFF730FF214C4D4683274FF6FF7B48
:102E240094F8043143F0010384F80431BAF1000F3B
:102E34001DD1C4F830B1C4F838B1C4F8DC714046CF
:102E4400FFF780FF94F804316FF30003013784F82F
:102E54000431064618B9872F05F10405E0D1404630
:102E6400FFF782FE002E18BF3046BDE8F88F6A785F
:102E74002B7843EA0223C4F83031BB00B3F5067F54
:102E84000DBFB9F80E30EA78AB784AEA030318BFED
:102E940043EA0223C4F83831CFE700BF00C07E40C4
:102EA40013B5104C0B0C89B2A4F810310822A4F805
:102EB400081101466846FFF7D5FEBDF80030C4F896
:102EC4003031BDF80230C4F83831BDF80430C4F8EC
:102ED4004031BDF80630C4F84431812384F81431FC
:102EE40002B010BD00C07E40F8B5044617460E4639
:102EF4001D46FFF7C0FEC4E90A67154AED082563BD
:102F040092F804316FF3000382F804310025236B37
:102F140013B9C5B12846F8BD002DFBD1D4E90A0187
:102F2400FFF7BEFFA36A21690833A362E36A08338B
:102F3400E362236B013B2363122218232046FFF72D
:102F440075FE0546E3E72046FFF70EFEE2E700BF05
:102F540000C07E400C4B5AB9C0F38F20C1F38F21BF
:102F6400C3F830018222C3F83811C3F8DC2170475A
:102F740040F47E404FF6FF7240F0FF00C3F8382162
:102F8400C3F830018122F0E700C07E40F8B517464F
:102F940006460C46164DFFF76EFE4FB1D5F8D831F4
:102FA40064F38713C5F8D8313046BDE8F840DBE553
:102FB40095F80431E44343F0010304F0010485F877
:102FC4000431012239462002FFF7C4FF3046FFF7DF
:102FD400B9FE95F8043167F30003044685F804311B
:102FE4003046FFF7C1FD002C18BF2046F8BD00BFD6
:102FF40000C07E40F8B5114E05460C461746FFF753
:103004003AFE96F8043143F0010386F804310022B5
:1030140039462046FFF79EFF2846FFF793FE96F8B1
:1030240004316FF30003044686F804312846FFF7A1
:103034009BFD002C18BF2046F8BD00BF00C07E4099
:103044005FF800F0B51C000069090000D0050020FD
:1030540010000C000000E0FF1F0000000000000052
:04306400FF00000069
:0400000300001D21BB
:00000001FF
