:10000000F81900201D20000081090000C909000026
:10001000C9090000C9090000C9090000C909000098
:10002000000000000000000000000000C9090000FE
:10003000C909000000000000C909000071090000A2
:1000400059180000B11C0000AD1C0000A91C0000E4
:1000500000000000000000000000000000000000A0
:100060000000000000000000000000000000000090
:100070000000000000000000000000000000000080
:100080000000000000000000000000000000000070
:1005000030B5184DAB686D685C6E2D78032D98BFC3
:10051000013408B1A0421CD35B6BD20754BF03F077
:100520001F03C3F30443032D07D91B0983F0010301
:1005300048B9A3B902234B6030BD03F00C031A1F66
:1005400053425341F4E7A04201D3002BF2D10323DD
:10055000F1E7032D98BF00F1FF300860ECE7002CB5
:10056000E8D0F4E7D0110020F0B501F00307032F25
:1005700085B00D4654D02F4E72681278062A01F0CD
:100580000C0302D11BB9052048E0002BFBD13268D7
:10059000294B9A4246D1B3685B6E0133834243D301
:1005A00000234FF0FF32CDE9022302A92A46019031
:1005B000FFF7A6FFB36803991C6B0198B1B915F05A
:1005C000080F0CBF0222042215F0020F05BFD2193A
:1005D000123203EB820303EB8203DDF808C016BF7F
:1005E000C3F84CC0C3F804C0C3F850C0012F1DD0DD
:1005F00024F44034022D44EA01440AD119B1012205
:1006000002A9FFF77DFF039B24F0407444EA0364D2
:1006100001E0002FF7D1B36800201C6305B0F0BDE6
:100620000120FBE70720F9E70320F7E7022DE5D0DB
:10063000E9E700BFD011002054504700EFF31081CC
:10064000012383F310880C4B5A8892B21AB15A884E
:10065000013A92B25A805B889BB24BB9074AB2F812
:10066000FE339BB223F0020343F42543A2F8FE338A
:1006700081F31088704700BF7C11002000E001402A
:10068000EFF31080012383F310880A4A53889BB24A
:100690004BB90949B1F8FE339BB243F4254343F00B
:1006A0000203A1F8FE33538801339BB2538080F3D9
:1006B000108870477C11002000E00140084B0022A8
:1006C0001A719A78042A02D103229A707047072A75
:1006D000FCD11A7812F0040F14BF06220822F4E7A6
:1006E000A807002070B500238D7818468C79012C5E
:1006F0001ED04B78212B20D1144B8A781A70B1F878
:1007000005300930402B80B21ED9114B1B68DB0726
:100710001AD500BE18E08C78AC420ED1CE78DCB28F
:10072000A6420AD10C78204480B221440133DDE78F
:10073000CC79022CDDD19042EDD3054B186810F036
:10074000010001D000BE002070BD00BFA80700203E
:10075000F0ED00E0024B02225A8000221A7170472D
:10076000A8070020024B00221A80FFF7F3BF00BF4A
:10077000A80700200020FFF7F5BFFFFF0B68024924
:100780000B610121184700BFFC050020094B63B134
:10079000094B1B78834206D9084B1B6800EB4000CD
:1007A00003EBC0007047C01AC0B20028044818BF4D
:1007B0000020704700000000F8050020F40500202C
:1007C0008829000070B5C289048A858892B2A4B2D3
:1007D000A24238BF4689A2EB04039BB23CBF9B1BDD
:1007E0009BB2EB1A9BB22BB9C1E900338B6070BD91
:1007F000521B92B2AA42FBD2AC4209D20568944283
:1008000015444D6007D9A21A00230A804B80EDE7FA
:10081000641BA4B2F0E784881B1B1344A51A0D8047
:100820004B800368E2E730B5C489038AA4B29BB267
:100830009C4238BF4589A4EB030292B238BF521BD9
:10084000858838BF92B295420ED2A54204D88289DB
:10085000631B9BB29A4203D243892B44E31A9BB297
:100860000382038A2A469BB22AB9C1E900228A6020
:1008700030BD641BA4B2A542FBD99D4209D90568CD
:10088000A3421D444D6007D200230A804B808B6039
:10089000EEE75B1B9BB2F0E78488121BE51A1A4453
:1008A0000D804A800368F2E7038A11FA83F19AB255
:1008B00089B28A4202D883898B4202D24389194481
:1008C00089B201827047C38911FA83F19AB289B261
:1008D0008A4202D883898B4202D24389194489B261
:1008E000C18170470B4B00F1C00253F822106FF327
:1008F000104143F8221000F01F0301229A404309DF
:100900009B0003F1604303F56143C3F880211A6043
:10091000704700BF00600040031E09DB03F1604325
:10092000090103F56143C9B283F80013FFF7DABF89
:10093000704710B501F1080400F00F02D3B2092A84
:10094000CCBF3733303304F8013DA1424FEA1010D9
:10095000F2D110BD08B50378012B06D103490B88ED
:100960001BB1FFF7ABFE00230B8008BD3611002042
:10097000024A136801331360704700BFF41100206E
:10098000034AB2F840319BB2A2F83031704700BF41
:1009900000600040A0F101000028FBD17047FFFF7C
:1009A000064B93F826101A6A054B53F82130C2F310
:1009B0000262D340034A1360704700BF00E0014069
:1009C000D4050020F005002000BE704710F07F0322
:1009D000C2B20BD00648D20900EB0210184490F8BE
:1009E00078301BB103485B001844704702487047D9
:1009F000100600206E0009406000094038B9044B21
:100A00000122C3F88020BFF34F8FBFF36F8F704771
:100A100000E100E010B9024B01221A60704700BFEC
:100A200000E100E0034A034610780BB1FFF7F2BF84
:100A3000FFF7E4BFD005002010B504460846FFF7D5
:100A4000C5FF014670B12046FFF7D8FF0B8803F0C1
:100A5000030343F002030B8002230B80BDE8104028
:100A6000FFF7D8BF10BDFFFF2DE9F04F1F460C2345
:100A7000DFF860A07B4385B00AEB030489465AF88F
:100A8000033001A9164680469847BDF80450D4F8B3
:100A900008B00298B54228BF35462A464946D8478D
:100AA000741B55460AD0BDF806A00398A24528BF7E
:100AB000A24652464946D847A4EB0A040C2303FB3E
:100AC0000757311B7B6889B24046984705B0BDE89F
:100AD000F08F00BF8C2A00000244904200D1704782
:100AE0000B7800F8013BF8E770B522F001045308D9
:100AF00004440546A5420CD16FF0010522F0010423
:100B000005FB032222B1025D0B7862F307030B7031
:100B100070BD35F8026B0E80ECE7FFFFF8B5184B9F
:100B2000DC881E462CB91C705C709C70DC70012047
:100B3000F8BD144BB3F85E7007F07F07BC42254642
:100B400028BF3D4645B1737A3068DB0710D50E49A2
:100B500001232A46FFF788FFBD423CBF094B4FF4F3
:100B60000042A4EB050438BF5A840020F480DFE77C
:100B700005492A46FFF7B8FF28443060ECE700BF7C
:100B8000100600200000094014000940054A1146E3
:100B9000138D03F00F038342FAD14B8D9B04FCD5D8
:100BA000704700BF000009402DE9F047244B4FF08B
:100BB0000C0909FB00F903EB09050646EC88984689
:100BC0003CB903F8094001206C70AC70EC70BDE8D2
:100BD000F0871C4B82B242F480611985A3F864202F
:100BE000B3F86CA01FFA8AFAFFF7D0FF54452746E6
:100BF00028BF57464FB155F8080B6B78DB0717D560
:100C0000114901233A46FFF72FFF0E4A57453CBFD3
:100C10004FF40043538500231385138D13F00F0306
:100C2000FBD10C2000FB0686E41BF4801846CEE7BF
:100C300005493A46FFF758FF384448F80900E4E709
:100C40001006002000000940180009402DE9F84373
:100C5000384F154607EBD012064692F8274014F09D
:100C600001044FEAD01809D0334B1B68DC0703D4CA
:100C700000242046BDE8F88300BEF9E72F4B93F827
:100C8000009092F8273043F0010382F8273048465D
:100C9000FFF7B4FE2A4B002E37D04FF484621A843B
:100CA0001A8C9006FCD5274B5A7A9D806FF3000270
:100CB0005A72DD80224A002D33D0196066B3B2F833
:100CC0006030180403D5B2F85430190622D41A4BF8
:100CD0001B68DA0700D500BE4846FFF79BFE002CD4
:100CE000C7D107EB080393F8272064F3000283F8C9
:100CF000272093F8272064F3820283F827200E4BE5
:100D00001B68DB07B4D500BEB3E71E841A8C9206BD
:100D1000FCD4C8E7FFF702FF094B0124A3F86040A9
:100D2000DAE71D705D709D70DD700523A2F86030FC
:100D30000124D1E734080020F0ED00E0D0050020C8
:100D4000000009401006002010B40A4C08680B4649
:100D50004968224603C20022C4E9022293F9003006
:100D60005DF8044B93421146ACBF80201046FFF75C
:100D70006DBF00BFFC05002013B5124B9889D989BF
:100D800093F90040421A92B2402A28BF4022002C18
:100D90000EDA884212D099680B48019201F06AFD80
:100DA0000949019A802002B0BDE81040FFF74EBF0C
:100DB00088424FF0000003D10021F4E78020FBE7D8
:100DC0000149F0E7FC050020F4070020F8B5184DB4
:100DD0000C46074608684968AA602E4603C60021EB
:100DE000E981E1888B4228BF0B46AB81E18879B16C
:100DF00043B13AB90F4B1B68DA0701D40020F8BDA4
:100E000000BEFBE73846FFF7B7FF58B10120F6E711
:100E100094F90030002B0A46ACBF80200020FFF779
:100E200015FFF2E7034B1B68DB07E7D500BEE6E7DB
:100E3000FC050020F0ED00E013B5049C8DF80030B7
:100E4000230A8DF8023000238DF801408DF804202C
:100E50008DF80530240C06236A468DF80340FFF711
:100E6000B5FF02B010BD38B5C589028AADB292B2E5
:100E7000AA42A5EB020388BF42899BB288BF9B1A96
:100E8000828888BF9BB29A42044619D1007AB8B9C9
:100E900038BD9B1A9BB29342FBD2E288206802FBCA
:100EA000030001F0E7FC6B1C9BB29D4202D8A289B3
:100EB0009A4202D2628913449BB2E3810120E7E7A0
:100EC0002B46E8E77FB54378023B0446032B12D854
:100ED000DFE803F00253151D294B1A786FF3000267
:100EE0001A701A7800216FF341021A7059701A783B
:100EF00061F382021A70234B2146186832E0204BBE
:100F00001A78D50737D51A7842F00402F2E71C4A5E
:100F10001378D8072FD513786FF382031370EAE79D
:100F2000FFF734FC20B1436913B16168207898471A
:100F300001353378E8B28342F2D2114A1378590767
:100F400019D513786FF3820313700023CDE90133B1
:100F5000039323788DF8043005238DF80530094B71
:100F6000186801A90430FFF77EFF20B9064B1B6803
:100F7000DB0700D500BE04B070BD044E0025D8E7E5
:100F80003408002070080020F0ED00E0F805002093
:100F900070B5134E05460024E0B2FFF7F7FB28B901
:100FA000104B1B68DB0700D500BE70BD43682846A8
:100FB000984701343278E3B29A42EDD23B220021C5
:100FC000094801F065FC1022FF21084801F060FC8F
:100FD000BDE8704006481422FF2101F059BC00BF53
:100FE000F8050020F0ED00E034080020370800206C
:100FF000470800202DE9F04F87B0B94B1C6800204E
:1010000023689847628AA18A92B289B28A4238BF1D
:10101000E089A2EB01039DB238BF2B1A208938BFAB
:101020009DB2A8420CD2824204D3258A131A9BB2E5
:101030009D4203D2E3890344D21A93B2A3820546A8
:101040002DBBA38A9AB215FA83F39BB29A4202D8B7
:10105000228A9A4202D2E28913449BB2A3820120DF
:1010600023689847002D00F0AD839DF80D30013BBB
:10107000072B00F25083DFE813F0150023004E0326
:10108000B003B0032D002B03B303091A89B28842C1
:10109000FBD96289636803A802FB013101F0EAFB16
:1010A0000125CEE79DF80C00FFF772FF14228D4852
:1010B000002101F0EDFB8C4B9DF810209A709CE70D
:1010C0009DF80C00FFF764FF14220021854801F011
:1010D000DFFB92E7844CDFF80C8223789DF810B098
:1010E0009DF80C5043F00103237094F827306FF300
:1010F000000384F8273094F827306FF3820384F8D4
:10110000273094F828306FF3000384F8283094F8DF
:1011100028306FF3820384F828300023C8F8103099
:101120000BF06003602B26460FD1704B1B68D9076C
:1011300000D500BE9DF80C000021FFF77DFC9DF856
:101140000C008021FFF778FC57E7402B0DD1684B4E
:10115000002BEFD004AA01212846C8F81030AFF3C5
:10116000008000287FF449AFE4E70BF01F0BBBF1D0
:10117000010F00F0DD81BBF1020F00F00182BBF135
:10118000000FD2D1202B10D19DF814300F2BD1D8C5
:101190001C44E078FFF7FAFA0028CBD004AA00F14B
:1011A0000C012846FFF7EAFADBE7002BBDD19DF8DA
:1011B0001130092BB9D801A151F823F01B150000FB
:1011C000091500002B110000F51400002B11000080
:1011D000E5110000C51300002B110000FF110000F5
:1011E0001512000006AB13E903000023C8E902331F
:1011F000237843F00203C8E900012370FDE6637819
:101200008DF80A3001230DF10A0204A92846FFF7E0
:10121000DDFDF2E69DF812300093009A63789A4261
:1012200000F0C9806378BBB12846FFF7E7FB314F78
:1012300031480A2301934FF00C0E4FF0010B4FF091
:10124000000C019B013B01931DD12846FFF7E2FBF7
:10125000A778FFF79DFEA770009B002B00F0AB80E6
:101260002378DFF89CB023F0300323704FF001099E
:101270009BF80130042B47D01C4B1B68D9077FF526
:1012800054AF00BE51E7019B0EFB03031B7A002BFA
:10129000D7D003F07F08DB094FEA031A00EB0313F2
:1012A0004344FA8E93F8783092B20BFA03F922EAAB
:1012B0000902FA8633B311495A1E01EB42028244F5
:1012C000A2F800C0C2449AB20EFB0303A7F8642040
:1012D000A7F868C083F808C08AF878C0B1E700BFF3
:1012E00070080020FC05002034080020F0ED00E02C
:1012F00000000000000009401006002070000940B6
:10130000A9290000B34ADAE7B34BA3EB0B021FFA9B
:1013100082FA4FF000085FFA88F73846FFF736FA8E
:101320000028A9D08368524659462846984708287D
:1013300038D9824536D300220BE09BF802C06344C3
:1013400056FA83F3013293F803C0BCF1FF0F93D137
:10135000DF70D3B29945F0D85844584511D89F4B07
:101360001B78BB4288D39C4B984224D243780B2BEA
:1013700003BF037890F80390C0184FF0010983462B
:1013800076E79BF80130052B08D19BF8022002F08C
:101390007F0306EB430303EBD213DF749BF80030AB
:1013A0009B44DAE78D4B08F1010818785FFA88F35F
:1013B0009842B0D260E7009B637004A92846FFF70B
:1013C000C3FC1AE6BDF81200030A5A1EC0B20E2A68
:1013D0003FF6B0AE01A151F822F000BF1914000091
:1013E0003F1400005D1400003511000035110000AD
:1013F000DD1400003F14000035110000351100001D
:1014000035110000351100003511000035110000C4
:101410003511000027140000714A122304A9284640
:10142000FFF7D4FC9DE66F4B002B3FF483AEAFF388
:101430000080024600283FF478AE5388EEE7022B86
:1014400001D1694AF9E7694B002B3FF473AEAFF362
:10145000008000283FF469AE0246EEE770B96449A7
:101460006448022201F006FA01204000831C624A0F
:1014700043F44071118003F0FE03CFE705283FF6E7
:1014800059AE5E4B5E4E53F820403378B3B95D4B96
:101490001B6803F1140758693146FFF74AFA786868
:1014A00006F10801FFF745FAB86806F11001FFF7E9
:1014B00040FAF86806F11801FFF73BFA204601F000
:1014C000EFF94D49C0B20023DAB2824203F10103C1
:1014D000CBD2561CA25C21F81620F5E74A4B002B14
:1014E0003FF428AEAFF30080024600283FF422AE5E
:1014F000037893E7BDF81230012B7FF41BAE2378FD
:1015000043F00803237058E7BDF81230012B7FF435
:1015100011AE23786FF3C303F4E72378C3F34012CB
:101520009B0803F002031343ADF80A3002236AE676
:101530009DF814300F2B3FF6FDAD1C44E078FFF70B
:1015400025F900283FF4F6AD00F10C0104AA284665
:10155000FFF714F900287FF450AD9DF8103013F018
:1015600060037FF4E7AD9DF81120A2F10A01012983
:101570003FF6E0AD0A2AC8F810307FF41EAF3FE610
:101580009DF8141001F07F02092A3FF6CEAD5700F6
:1015900004EB420202EBD1120093D07C4FEAD11A45
:1015A000FFF7F4F8009B814633B100283FF4C2AD49
:1015B00004AA00F10C01F4E59DF8113003F0FD00E0
:1015C000012823D0002B7FF4B0AD92F82730C3F36D
:1015D0004003A9E760000940C4290000F805002085
:1015E000C429000000000000A02900000000000045
:1015F00085290000AA060020A8060020C42A0000B1
:10160000881100209CB17F4000000000BDF812004E
:10161000002838D176482032012B90F800B0D379D9
:1016200044D19A072FD50846FFF7D0F90090E0B1D2
:101630005846FFF7E3F9009B4FF480721A80BAF125
:10164000000F02D001221A800CE06A4A11446A4A53
:1016500091F87810A2F86410B2F86820C2F38132D1
:10166000012AEFD15846FFF7D5F93E44B2449AF823
:1016700027306FF341038AF827309AF827306FF349
:1016800000038AF82730B9F1000F3FF4B6AC04AA82
:1016900009F10C012846FFF771F80023C8F8103053
:1016A00094F82830D8073FF5A8AC86E69B07EAD423
:1016B0003E44B2445846FFF7BFF99AF8273043F04A
:1016C00002038AF827309AF8273043F00103D8E75D
:1016D0009DF81010494B01F07F0603EB460303EB26
:1016E000D1134FEAD11C93F827006FF3000083F861
:1016F000270093F827006FF3820083F82700002E5D
:1017000057D13F4C9DF80C502378059FBCEBD31F5D
:10171000214615D037B13B4B1B68DB077FF56DAC1D
:1017200000BE6AE4384B13B12846AFF3008023694A
:10173000002B3FF462AC324A0321284698475CE410
:1017400094F90030002B07DBA06800283FF455AC6B
:101750002E493A4601F08EF8A268E3893A443B44A8
:10176000A260E2889BB29A42E38101D03F2F1CD84D
:1017700023696BB994F900300022002B1146B4BFE5
:1017800030468020FFF762FA00287FF436ACC2E7CB
:1017900002211B4A2846984701460028EAD12846DC
:1017A000FFF74AF980212846CCE42846FFF7E4FAFF
:1017B000EAE7D87CFEF7EAFF38B9124B1B68DA0774
:1017C00000D500BE07B0BDE8F08F0469059B9DF809
:1017D00011209DF80C00A0470FE4084B1B780CE487
:1017E000049B002B3FF409AC0598984705E400BF23
:1017F000D005002010060020000009403408002019
:10180000FC050020F0ED00E000000000F4070020DF
:1018100008B50D4C0D4E2568327823685B1B632B91
:101820000CD9BFF34F8F0A490A4BCA6802F4E06231
:101830001343CB60BFF34F8F00BFFDE7FF2AECD00F
:10184000FFF7D8FBE8E700BFF4110020D005002027
:1018500000ED00E00400FA052DE9F04F8BB0EFF346
:101860000383103B5BB2B64AC03352F823106FF3C8
:10187000104142F82310B34BB3F84010CA4362F44E
:1018800078428CB292B20904A3F840200CD5B3F888
:10189000402012F0800FC2F3C0111A8814BF42F02A
:1018A000100261F304121A8062040FD500254FF470
:1018B000A06307A8CDE907550995ADF81C30FFF7DF
:1018C00001FBA04B1A8E65F34D321A86A30412D584
:1018D0009C4E338E9F040ED500254FF4407307A80D
:1018E000CDE907550995ADF81C30FFF7EBFA338EBB
:1018F00065F34D333386E50407D504F07003202BE0
:1019000000F0CE8063D8102B7BD020052ED5E107C8
:1019100040F1E2808B4BB3F84020120726D54FF4FC
:1019200080425A84B3F85420ADF81420B3F85620FE
:10193000ADF81620B3F85820ADF81820B3F85A20A7
:10194000ADF81A204FF6F772A3F840200023CDE936
:101950000733099308224FF4C06305A908A8ADF81E
:101960001C3000F087FF07A8FFF7ACFA670519D510
:10197000744BB3F84A200025D607A3F84A5011D576
:10198000FFF7CCF870B1704B9B8809934FF4E0627D
:10199000802307A8CDE90755ADF81C20ADF820300D
:1019A000FFF790FAE0050FD5664B674CDA8EB3F877
:1019B0004660DFF8A0B1B6B21640F24392B2A3F887
:1019C0004620002E40F09F800BB0BDE8F08F602BCA
:1019D00004D014D804F06003402B96D10023CDE945
:1019E0000733099307A84FF48063ADF81C30FFF765
:1019F00069FA544A138E43F40053138685E7702B1B
:101A0000EBE7504B01225A87DA864FF480425A8422
:101A100000221A851A8D12F00F02FBD19A859A8D39
:101A200012F00F02FBD14949494E464D012396461B
:101A30004FF4007C4FF4807708461FFA83F8A5F82E
:101A40006480A5F868E021F813C021F8132026F877
:101A500023700133062BF0D13A4A00254FF4007170
:101A60009EB2A2F86460A2F8685020F8131020F823
:101A7000135001330A2BF3D133489822002100F090
:101A800007FF4FF48073CDE90755ADF81C304FF0D8
:101A9000000309958DF8203007A8FFF713FA34E703
:101AA000284BB3F8503013F07F033FF42EAF4FF4C0
:101AB000A062ADF816300023CDE90633CDE9083336
:101AC000ADF814204FF4C063082205A908A8ADF8AA
:101AD0001C3000F0CFFEDFE714F007037FF446AFC1
:101AE000184A128C099312F0200F14BF8022002292
:101AF0004FF4E061CDE90733ADF81C108DF82020DC
:101B00008DF821302FE796FAA6F54FF00C09B5FABB
:101B100085F509FB05F304EB0309019399F80830F7
:101B2000DB0909F1080117D02846FFF73DF8002826
:101B300040F09680012303FA05F526EA050640E702
:101B40000060004000000940100600206E000940BF
:101B50008C00094014000940CDE90213504F002DBC
:101B600051D0A8B2B9F806A03885A7F86400284675
:101B7000B7F86C80FFF70AF8788D1FFA88F8C0F381
:101B80000B004045034628BF43465345009328BFFA
:101B90005346D9F800901F464BB102994A78D107B5
:101BA00027D5039B3F493A464846FEF75DFF3C4B2D
:101BB000B84584BF4FF480425A8500221A851A8D99
:101BC0001207FCD10C2303FB0542AAEB0701B84521
:101BD000D18002D8009A9245ACD86B430022E1181C
:101BE000B9EB0200E25418BF01204A708A70CA7033
:101BF0009DE71A462B494846FEF76EFF019A09EB0E
:101C00000703A350D3E7B7F85E80B4F806907A8C48
:101C100008F07F08C1454F46C2F30B0228BF474674
:101C2000974228BF174647B1637A2068DB072ED555
:101C30002B463A465946FEF717FFB84582BF184B68
:101C40004FF480425A84A9EB0703B845E38002D8D9
:101C5000B9457FF46FAF002323706370A370E37006
:101C60000C2303FB05434FF4E0609A88197ADB8864
:101C7000D21A0023CDE90733ADF81C0007A88DF870
:101C8000201009928DF82130FFF71CF952E73A46EF
:101C900059460090FEF720FF009838442060CCE7BA
:101CA0000000094018000940FFF7D6BDFFF7D4BD7A
:101CB000FFF7D2BD10B50F4A43F6B2734AF6802142
:101CC000D15204468168062000F0F6FD0A4B93F8D5
:101CD000A0309B070CBF1020502000F0F5FD63687A
:101CE0001A782AB1BDE8104093F91100FEF7FABD49
:101CF00010BD00BF00C07E4000E0014010B4194894
:101D0000194B02689A4221D1184A43F6B273D35A4A
:101D100013F081041ED1164B1A88164B03EA821366
:101D200003F58042B2F5802F16D203F59043B3F548
:101D3000802F13D8104980F83440B1F5802F0FD987
:101D40005DF8044B4FF4006300F0B2BD07205DF86E
:101D5000044B70470820FAE71620F8E71720F6E74B
:101D60000120F4E73C1100204E45504F00C07E405A
:101D70003409002000F8FFFF36090020F7B513787A
:101D8000154603F01F02012A06460C4640F02E813C
:101D900013F060031FD16A780A2A12D00B2A40F090
:101DA0002581012901D0012428E0914B6A885A70CD
:101DB000FEF7D0FC2946304603B0BDE8F040FEF700
:101DC000C3BF0129EFD18B4A0B46294603B0BDE8BA
:101DD000F040FEF7FBBF202B40F008816B78062B0C
:101DE00000F20481DFE803F004361E5711161100DB
:101DF000012906D129463046FEF7A6FF204603B04A
:101E0000F0BD0329CFD1FFF703FD0129CBD1FEF7A8
:101E1000A1FCEFE70129C6D10B46774A2946FEF718
:101E2000D5FFEBE70129BED1714F3C7814F00204D5
:101E3000E4D0EC88402C00F2D980698822466143C6
:101E400007F10C0000F016FD234607F10C022946AD
:101E50003046BBE70129A6D1654B1C7814F001047C
:101E60001A46CBD09B78022B02D0052B40F0BE80C7
:101E7000EB88402B00F2BA80012313716B88D3806A
:101E8000EB881381EB881BB1032191705B4ADEE77D
:101E9000062393708EE7564B9A78032A194608D08A
:101EA000062A63D0012C7FF47EAF00210091DB78FD
:101EB0000BE0012C11D11B796BB14B78002B0CBFBF
:101EC0000023642304220093CB7829463046FEF792
:101ED000B3FF044692E70522F5E7032C7FF463AFD6
:101EE0001C79002C3FD00422D9881D899A70444B5C
:101EF000198001F58071890111F4F86F1BD172B658
:101F00004048414B02689A4214D1404A43F6B273AA
:101F1000D35A13F081030DD1B1F5802F80F83430FE
:101F200008D221F4FF614FF40063012221F0070180
:101F300000F0D2FC62B6364E364833882F492A4626
:101F4000184400F097FC33881D44ADB2B5F5006F1E
:101F5000358005D172B6FFF7D1FE62B6002333801B
:101F6000FEF7ACFB4AE705229A701CE7012C09D169
:101F70001A79002A4FF000020092DB780CBF02228F
:101F80000722A2E7032C7FF40EAF1C7964B307226B
:101F90009A7072B6FFF7B2FE62B6FEF78FFB194A6F
:101FA000194B116899427FF4FEAE184943F6B2739B
:101FB000CB5A13F081037FF4F6AE1360536893F9A4
:101FC000113013F1210F3FF4EEAE5A09012103F055
:101FD0001F0301FA03F320320F4941F82230BFF307
:101FE0004F8FBFF36F8F09E70222BDE7002405E79B
:101FF000A8070020A9070020AA070020B407002096
:10200000340900203C1100204E45504F00C07E4056
:10201000361100203609002000E100E08FB5C34BE7
:10202000C3484FF47002C3F88820C24A9A604AF24B
:102030000253A0F8FE33012380F81F3490F8B13426
:10204000DE06FBD54FF42543A0F8FE334AF20353D6
:10205000A0F8FE33B84BB94AB94DBA490024A3F8E9
:102060000041B94BC3E900524FF40042C3E90221D9
:102070001A61B64A5A61FEF793FC092380F81344AB
:1020800080F8A23090F8803473B9012380F880344E
:10209000AF4BB0481B68B0FBF3F3AF48B0FBF3F0B5
:1020A000800801D0FEF776FCA14B002283F8812442
:1020B00083F8802493F8A020002A40F091829C4C61
:1020C000012384F83630002384F8323094F83C3011
:1020D0001F07FBD5472384F82B300720FEF75AFC57
:1020E0000023934884F82A3090F83C309E06FBD5B4
:1020F0000124052380F8314080F82630974B036295
:10210000FEF74EFC002380F8D0304FF42543A0F8B2
:10211000FE33894BA3F80441B3F80441A4B2002C68
:10212000FAD10127A3F800718DF807409DF8073018
:10213000FEF7A6FAEFF3108287F31088884DAB689C
:1021400023F00043AB60AB6882F31088854E3368A0
:10215000C3F300038DF807303368C3F300038DF831
:1021600007303368C3F300038DF80730EFF31082B4
:1021700087F31088AB6843F00043AB60AB6882F331
:102180001088FEF75BFA784B78489C804FF4254224
:102190001A80774A9A60774ADA60774A4FF480511A
:1021A000A2F82011754A9F80121A214600F070FB98
:1021B0007348744A7449754F121A00F05BFB744BF4
:1021C000FF1ABF109846A74200F32082FEF7E8FBF3
:1021D000704A6949002303F1C000013312F8014B32
:1021E00041F82040202BF6D16B4B6C4A1968914284
:1021F00074D06B4C1A6000272146B846BC464FF09D
:10220000010AB1F80490DFF8B0E100223EF8023B89
:1022100099450BD108680AFA02F300F0B850DBB216
:10222000B0F1807F0CBF48EA03081F430132032A44
:10223000ECD10CF1010CBCF1090F01F10801E0D166
:10224000FEF71EFA3A4A92F8BB3443EA080323EA3F
:10225000070382F8BB34FEF7F1F9EFF31081012395
:1022600083F310884F4802681AB94F4BDA70402246
:10227000DA7003680133036081F310880027A388B4
:10228000D4F800C01A0A1CF4803FD9B24FEA0213F6
:102290000AD05A1856F822E06FF3104E46F822E0A2
:1022A0002CF4803E46F822E00B440137092F46F813
:1022B00023C004F10804E2D1EFF31081012383F37A
:1022C0001088036813B10368013B036002681AB900
:1022D000354BDA708022DA7081F31088144A1C4E74
:1022E0004AF20253A2F8FE336B6823F400636B607A
:1022F0004FF42543A2F8FE3333684FF47A72B3FBF0
:10230000F2F3013BB3F1807FB04609D2274A536014
:10231000064BF02183F823100023936007231360FA
:10232000234A24481368834248E000BF00ED00E0E0
:1023300000E001400000000000C0014000127A00EF
:1023400000366E01001BB700D4050020006CDC02D3
:10235000F005002000CA9A3BA09D12000001011068
:10236000FC6F044000080440000D0040F005002010
:10237000F8150020F819002000600040F811002036
:1023800000000020D4050020DC2A0000D405002035
:10239000D4050020342A00007411002054524F50FC
:1023A000D829000084110020000D044010E000E056
:1023B00000E5014035817307842A0000964B4AF2FC
:1023C00002541146A3F8FE4340F0488100211160F9
:1023D0004FF42542A3F8FE23904C914F2368BB4253
:1023E0005CD00823E3608F4B8F4A63600026012393
:1023F0002374A2606661C4E90666EFF3108283F37A
:102400001088EB6823F04003EB60EB6882F31088E0
:10241000A3684FF425421A60A3684FF08072DE6211
:10242000DE639E64DA624FF000421A615A619A617B
:1024300049F695025E6202A99E6244F64B40DE6157
:102440001E629A665A664FF0FF333246CDE9023675
:10245000FEF756F8A368029A5A659A65039A9E6336
:10246000110641EA02414FF4AA02C3F888601A64D7
:10247000E268DA6040F209125A6341F0030241F067
:1024800001011A6330461963FF21FEF745FA314610
:10249000FEF742FA3146FEF73FFA27606168087896
:1024A00044F61F6344F62062032898BF1A46A368C7
:1024B0009A66097819B942F20F7159659965D96A16
:1024C000CD0705D45A664FF4AA021A64E268DA60AE
:1024D00000210846FEF748F82368544DBB4208BF68
:1024E000D4E90232524C08BF5A602B68A34273D021
:1024F000504B6B60484AD8F80010002385F8343000
:10250000106AC0F3026301FA03F3C0F30270C34020
:102510004948EB60834209D84848834206D048487E
:10252000834203D04748834240F0E880126A434820
:10253000454EC2F302629140D14003F5742303F289
:102540003F2301F57421B3FBF0F3EB6040F28353BA
:1025500001F23F21B1FBF0F106204B43B3FBF0F356
:102560002B6140F276334B43B3FBF0F36B6158239E
:102570004B43B3FBF0F3AB61344BA9604B43B3FB6C
:10258000F0F3EB61324B4B43B3FBF0F32B62314B77
:102590004B43B3FBF0F36B622F4B00221A7096F89B
:1025A0009030012B04D0012386F8903000F084F99C
:1025B0001E48FFF77FFBEB68D6F8D8211B48013B8C
:1025C00003F01F0363F30502C6F8D82100F078F981
:1025D000002840F08F802C60144800F079F98DE0DD
:1025E00093F836201AB993F83C20D107FBD50A4B53
:1025F000194693F8A020C2F30010D206F9D483F84C
:10260000A00091F8A030DB06FBD458E558F8043B55
:1026100098470134D7E500BF00E00140D011002009
:1026200054504700A42A0000008307403C110020BA
:102630004E45504F202A0000FF083D0040420F0049
:1026400080841E00C0C62D0000C07E40B86A050010
:10265000D066050068ED2200C0FF7E4010604FF498
:102660002542A3F8FE23724A1368B3F5FA7FFBD321
:10267000704A4AF202570020A2F8FE734FF4254434
:1026800008604FF48041A2F8FE430B6803F07F43DB
:10269000B3F1005F7FF4A0AEA2F8FE73EFF3108CED
:1026A000012787F310886B6843F400636B606B68E5
:1026B0008CF31088EFF3108C87F310886B6843F469
:1026C00080536B606B688CF310885B4BA2F8FE4301
:1026D000988072B6BFF34F8FBFF36F8F574B186060
:1026E000C3F8F81C0B6883F3088844F204031B68E2
:1026F000984771E62B68A3423FF46EAF504D2B789C
:10270000FF2B23D13B2200214E4800F0C1F84E4A56
:1027100000235382938213895B009BB2591E5B4254
:10272000D3814A4B11821A60494B23B14948AFF318
:102730000080494B1860474E0024E0B2FEF726F8AF
:1027400038BB464B1B68D80700D500BEDFF8E080D9
:10275000434F444E2B78FF2B01D0FEF74BFCD8F8AB
:1027600000203B68D21A632AF4D93468643300210C
:1027700020463B60FDF7F8FE3B4B1A78002A4BD011
:10278000B4F5FA6F44D200221A704FF4FA63336042
:10279000E0E70368984701343278E3B29A42CCD23A
:1027A00000232B70314B1A8842F480621A801A88F9
:1027B0005105FCD51A886FF345121A801A886FF3F9
:1027C00086121A801A8842F001021A800522C3F884
:1027D000F020D3F800246FF30412C3F80024B3F8F8
:1027E0005E20402161F30602A3F85E204FF45D42B3
:1027F0001A8601225A87DA86B3F84020120642BFB1
:102800001A8842F010021A80194B01221A609DE7C3
:10281000A4F5FA6434609DE704F5FA6444F61F6297
:102820009442346096D901221A7044F62063AEE7D0
:10283000F411002000E00140000D004010E000E035
:10284000D005002034080020B805002070080020C2
:1028500000000000F8050020F4050020F0ED00E085
:10286000F0110020CC110020381100200000094098
:1028700000E100E00A44914200F1FF3300D17047CB
:1028800010B511F8014B03F8014F9142F9D110BD79
:1028900002440346934200D1704703F8011BF9E755
:1028A000034613F8012B002AFBD1181A0138704790
:1028B0005FF800F0B10400205FF800F0050100208F
:1028C0005FF800F0250200205FF800F0DD00002036
:1028D0005FF800F0AD0200205FF800F01D05002059
:1028E00000000603332E362E30004275696C7420CA
:1028F000776974682052656E6573617320416476F0
:10290000616E63656420466C657869626C6520530E
:102910006F667477617265205061636B61676520D3
:1029200076657273696F6E20332E362E30004172D9
:102930006475696E6F0053616E746961676F2044DE
:1029400046550040436F6465466C617368202F30C4
:102950007830303030303030302F382A324B612CE4
:102960003132302A324B67004044617461466C61F9
:102970007368202F307830383030303030302F3896
:102980002A314B67000904FF750700006507000046
:10299000E50600007D1D00000000000000000000B2
:1029A0000902240001010080320904000000FE0138
:1029B00002040904000100FE010205092107E803E1
:1029C00040000101120100020000004041236903A0
:1029D000000101020301FFFF0000011307040000D2
:1029E00000000113000500000000011301050000B4
:1029F000000001030B010000040000000F040000B0
:102A000004000000040400000400000000040000B2
:102A100000000000050000000000000006000000AB
:102A20000000000055090000000000000000000048
:102A300002070208333431320000000000000000B9
:102A40000000000000000000000000000000000086
:102A50000000000001000000000000000000000075
:102A60000000000000000000000000000000000066
:102A70000000000000000000000000000000000056
:102A800000000000020403040404FFFFC507000067
:102A9000C7080000D90A000027080000A9080000A4
:102AA000E90A000002000000969800000200000001
:102AB0004B4C000003FF000000000000000000007D
:102AC000542A0000852900002E2900003629000024
:0C2AD00088110020432900006829000044
:102ADC000C4B5AB9C0F38F20C1F38F21C3F83001CE
:102AEC008222C3F83811C3F8DC21704740F47E40D1
:102AFC004FF6FF7240F0FF00C3F83821C3F83001E5
:102B0C008122F0E700C07E40104B82B01946019044
:102B1C00D3F82C2112060FD50022C3F8DC2101902A
:102B2C00D1F82C31C3F3C0101B0608D5019B2BB177
:102B3C00019B013B0193F3E7019A12B9142002B0F7
:102B4C007047019A013A0192E2E700BF00C07E4053
:102B5C0010B50023934200D110BDCC5CC45401339A
:102B6C00F8E713B5104C0B0C89B2A4F810310822FD
:102B7C00A4F8081101466846FFF7EAFFBDF80030DB
:102B8C00C4F83031BDF80230C4F83831BDF8043027
:102B9C00C4F84031BDF80630C4F84431812384F8C0
:102BAC00143102B010BD00BF00C07E40084BA522FE
:102BBC00C3F88021C243D2B283F8000183F800210C
:102BCC0083F8000193F80031834200D100BF7047B5
:102BDC0000C07E404143032904D98908A1F10101B9
:102BEC000029FBD1704738B51E4B0022A3F80021F9
:102BFC0043681A7804467AB193F9113001215A09C5
:102C0C0003F01F0301FA03F32032174941F8223075
:102C1C00BFF34F8FBFF36F8F144A43F6B2734AF66C
:102C2C000121D1521220FFF7C1FFA1680320FFF749
:102C3C00D1FF0F4B93F8A03003F00303002B0BBF15
:102C4C009220D220062504250CBF8221C221FFF739
:102C5C00ADFF0846FFF7AAFFA1682846BDE838403B
:102C6C00B8E700BF00C0014000E100E000C07E40BA
:102C7C0000E00140104B82B019460190D3F82C2192
:102C8C0052060FD5002283F814210190D1F82C3173
:102C9C00C3F380105B0608D5019B2BB1019B013B54
:102CAC000193F3E7019A12B9142002B07047019A0C
:102CBC00013A0192E2E700BF00C07E4010B5431E0E
:102CCC0019440B4B93F804416FF3000483F804414F
:102CDC00040C80B2A3F81041D2B2A3F80801080C7E
:102CEC0089B2C3F82001A3F8181183F8142110BD80
:102CFC0000C07E4073B543F6B2721D4DAC5AA4B2FF
:102D0C004FF49642012C0646019209D19220FFF70E
:102D1C004DFF0320B168FFF75DFF1220FFF746FF60
:102D2C000820FFF743FFB1680620FFF753FF43F677
:102D3C00B2734FF42A42EA520E4A108880B270B92C
:102D4C00012C0AD10C4BA3F80441B3F8040180B256
:102D5C000028FAD10122A3F8002102B070BD019B1A
:102D6C001BB1019B013B0193E7E71420F5E700BF82
:102D7C0000C07E40B2FF7E4000C0014038B5002349
:102D8C0080F834300C4C43F6B2730546E35A9BB2D0
:102D9C000BB900F075F9D4F8243143F00103C4F8F1
:102DAC002431D4F824316FF30003C4F824312846BD
:102DBC00BDE838409EE700BF00C07E4038B50546F0
:102DCC00406AFFF7A1FE1428044604D12846FFF7F9
:102DDC00D5FF204638BD054BD3F8F04114F0120452
:102DEC00F7D02846FFF7CAFF1824F2E700C07E4050
:102DFC002DE9F84F264C8846914682464546FFF70A
:102E0C00F2FE8327A3464FF6FF7294F8043143F089
:102E1C00010384F80431B9F1000F1FD1C4F830213B
:102E2C00C4F83821CBF8DC715046FFF7C7FF9BF88C
:102E3C0004316FF3000301378BF80431064628B9CF
:102E4C00872F05F104054FF6FF72DED15046FFF7D0
:102E5C0051FF002E18BF3046BDE8F88F69782B78EB
:102E6C0043EA0123C4F83031BB00B3F5067F07BF3A
:102E7C0098F80E3098F80F10E978AB7806BF43EA53
:102E8C00012349EA030343EA0123C4F83831C9E7B3
:102E9C0000C07E4073B5114E019205460C46FFF7FB
:102EAC00A2FE96F8043143F0010386F8043101992F
:102EBC0000222046FFF70CFE2846FFF77FFF96F80E
:102ECC0004316FF30003044686F804312846FFF7FB
:102EDC0011FF002C18BF204602B070BD00C07E4010
:102EEC00F8B5164607460D46164CFFF77CFE6EB13C
:102EFC00D4F8D83165F38713C4F8D8310025384697
:102F0C00FFF7F8FE002D18BF2846F8BD94F80431E1
:102F1C0015F0010F43F0010384F804310CBF4FF49A
:102F2C008070002001223146FFF7D2FD3846FFF7B2
:102F3C0045FF94F8043166F30003054684F8043128
:102F4C00DDE700BF00C07E40F8B5054608461646D2
:102F5C001F46FFF78FFE1428044604D12846FFF7BE
:102F6C000DFF2046F8BD054BD3F8F0413440F8D0A6
:102F7C002846FFF703FF3C46F3E700BF00C07E4046
:102F8C00F8B5044617460E461D46FFF72CFEC4E95D
:102F9C000A67154AED08256392F804316FF30003B4
:102FAC0082F804310025236BBBB10DB12846F8BD66
:102FBC00D4E90A01FFF7D5FDA36A21690833A3629E
:102FCC00E36A0833E362236B013B23631222182369
:102FDC002046FFF7B9FF0546E5E7002DE6D1204670
:102FEC00FFF788FEE2E700BF00C07E40F8B504465C
:102FFC0015460E461F46FFF7F6FD0D4B93F80421C0
:10300C006FF3000283F8042107FB05F1842230469C
:10301C00FFF754FEE1691923112269432046FFF79B
:10302C0093FF18B92046BDE8F84063E6F8BD00BF31
:10303C0000C07E40F8B5054614460F461E46FFF705
:10304C00D2FD214683223846FFF738FE0334A969A6
:10305C00A4084FF4FC73102261432846FFF774FF59
:10306C0048B9054BD3F82831C3F3C0033370284655
:10307C00BDE8F8403EE6F8BD00C07E400000000010
:10308C005FF800F0B51C0000250A00007408002051
:10309C0010000C000000E0FF1F000000000000000A
:0430AC00FF00000021
:040000030000201DBC
:00000001FF
