:10000000601C00208D0F00008D120000890F000081
:10001000890F0000890F0000890F0000890F000080
:10002000000000000000000000000000890F000038
:10003000890F000000000000890F0000F11500008A
:10004000491500006D1500007115000075150000C0
:1000500000000000000000000000000000000000A0
:100060000000000000000000000000000000000090
:100070000000000000000000000000000000000080
:100080000000000000000000000000000000000070
:10040000FFFFFFFFDF8EFFFFFCFFFF00FFFFFF008E
:10041000FCFFFF00FFFFFF00FCFFFF00FFFFFF00EE
:10042000FCFF0F20FFFF0F20FCFF7F40FFFF7F40FE
:10043000FCFF0D40FFFF0D40FFFFFFFFFFFFFFFF31
:10044000FFFFFFFFFFFFFFFFFFFFFFFFFFFFFFFFBC
:10045000FFFFFFFFFFFFFFFFFFFFFFFFFFFFFFFFAC
:10046000FFFFFFFFFFFFFFFFFFFFFFFFFFFFFFFF9C
:10047000FFFFFFFFFFFFFFFFFFFFFFFFFFFFFFFF8C
:10048000FFFFFFFFFFFFFFFFFFFFFFFFFFFFFFFF7C
:10049000FFFFFFFFFFFFFFFFFFFFFFFFFFFFFFFF6C
:1004A000FFFFFFFFFFFFFFFFFFFFFFFFFFFFFFFF5C
:1004B000FFFFFFFFFFFFFFFFFFFFFFFFFFFFFFFF4C
:1004C000FFFFFFFFFFFFFFFFFFFFFFFFFFFFFFFF3C
:1004D000FFFFFFFFFFFFFFFFFFFFFFFFFFFFFFFF2C
:1004E000FFFFFFFFFFFFFFFFFFFFFFFFFFFFFFFF1C
:1004F000FFFFFFFFFFFFFFFFFFFFFFFFFFFFFFFF0C
:1005000018B143000248184470470248704700BFC2
:100510006E00094060000940044A138D03F00F0388
:100520008342FAD1538D9B04FCD5704700000940EB
:1005300070B522F0010405190346AB4209D122F03F
:100540000103A2421FBFC25C0B7862F307030B706A
:1005500070BD33F8026B0E80EFE70244904200D189
:1005600070470B7800F8013BF8E7FFFF2DE9F04FEB
:1005700098460C23174E03FB08F385B0894606EB1B
:10058000030A01A9F358154607469847BDF80440E9
:10059000DAF808B00298AC4228BF2C4622464946F9
:1005A000D8472C1B0AD0BDF806A00398A24528BF47
:1005B000A24652464946D847A4EB0A040C2303FB43
:1005C0000863291B5B6889B23846984705B0BDE8C7
:1005D000F08F00BF284D0000F8B5174CE5882DB905
:1005E00025706570A570E5700120F8BD134BB3F858
:1005F0005E7007F07F07BD422E4628BF3E4646B1DB
:10060000637A2068DB0710D50D4901233246FFF7D6
:10061000ADFFBE423CBF094B4FF40042A5EB0605BF
:1006200038BF5A840020E580DFE705493246FFF7EE
:100630007FFF30442060ECE74806002000000940BE
:10064000140009402DE9F843214D0C274743E919CF
:100650008046CC8834B9EC5501204C708C70CC703D
:10066000BDE8F8831B4B82B242F480661E85A3F876
:100670006420B3F86C901FFA89F9FFF74DFF4C45E1
:10068000264628BF4E4646B14B7AE859DB0717D5B8
:10069000114901233246FFF769FF0E4A4E453CBF20
:1006A0004FF40043538500231385138D13F00F037C
:1006B000FBD10C2202FB0850A41BC4801846CFE7D4
:1006C00005493246FFF734FF3044E851E5E700BF03
:1006D0004806002000000940180009402DE9F041BB
:1006E000064611F07F001C463AD1494B09B34FF43E
:1006F00084601884188C8006FCD5464B587A9C8000
:1007000066F300005872DC80414804B31A60C9B136
:10071000B0F860301D0403D5B0F854301C060FD477
:100720004FF0E023D3F8F03DD80707D40020BDE810
:10073000F0811984188C8706FCD4DEE700BEF5E74B
:10074000FFF74AFF324B0120A3F86000EFE71C706F
:100750005C709C70DC700523A0F860300120E6E737
:100760002C4FC90907EB0113034493F8780038B9FB
:100770004FF0E023D3F8F03DD907D7D500BED6E738
:100780000C2545437B197A5193F809C09C8066F388
:10079000000C83F809C0DC8081B114B1FFF752FF6F
:1007A000DCE71B4983B20B85FFF7B6FE4FF400432D
:1007B0004B850C850B8D1A07FCD1CFE7451E042D08
:1007C000CCD8134B144E82B2A3F86420B3F86C80DB
:1007D000FFF796FE03881FFA88F89B074FF4807393
:1007E00018BF018006EB850726F8253008F1FF3396
:1007F0002344B3FBF8F39BB27B8036F825300246E6
:1008000043F40073012026F8253010808FE700BFE5
:1008100000000940480600209000094010B9024B32
:1008200001221A60704700BF00E100E038B9044BB4
:100830000122C3F88020BFF34F8FBFF36F8F704743
:1008400000E100E07047FFFF024A138843F0100305
:10085000138070470000094008B5184B1A8842F40D
:1008600080621A801A885205FCD51A886FF34512E7
:100870001A801A886FF386121A801A8842F00102D1
:100880001A800522C3F8F020D3F800246FF3041275
:10089000C3F80024B3F85E20402161F30602A3F8F8
:1008A0005E204FF45D421A8601225A87DA86B3F839
:1008B00040301B0601D5FFF7C7FF08BD0000094007
:1008C000024B1A886FF304121A8070470000094027
:1008D0002DE9F843CD78B1F8049005F00305012D1A
:1008E0000646C9F30A0904D1B9F5807F17D900205B
:1008F0005CE0032D62D0022DF9D13A4B93F82C2005
:10090000002A55D093F83820002A53D093F8442079
:10091000002A51D01B7D002BE9D1012408E0314B86
:100920001A7D002AF9D093F82030002BDFD1022461
:1009300089782C4BCF090C2202FB043201F07F088E
:1009400003EB07134344117283F878403046FFF7F6
:100950006DFF254AA3B2A2F864302046A2F86C903D
:10096000FFF7CEFD4FF44073038039010023022DC1
:10097000038041EA08032DD143F48543012101FAA4
:1009800004F49BB2A4B2A2F8683084F4FF734B4025
:10099000A2F84630D38E9BB21C43D4860FB9022DE9
:1009A00000D001803046FFF739FF0120BDE8F88311
:1009B0000324BDE70424BBE70524B9E7094B06245B
:1009C0000C2202FB0430007A0028B1D001340A2C3A
:1009D000F7D18CE7032D0CBF43F4004343F44243AB
:1009E000CCE700BF480600200000094038B5CA091E
:1009F00001F07F030F49104D01EB02121A44EB8EF8
:100A000092F878400120A0409BB223EA0003EB86D5
:100A10002046FFF775FD00230380A0B2A5F864000F
:100A20000C2000FB0411A5F868300B7282F87830B6
:100A300038BD00BF4806002000000940F8B5FFF7A8
:100A4000F5FE0A4E04460A250C27013D04D1204636
:100A5000BDE8F840FFF7E2BE07FB0563197A0029FD
:100A6000F3D02046FFF7C2FFEFE700BF48060020A3
:100A700013B50446CDE90032FFF7D8FEDDE90032B8
:100A80000020FFF72BFE01462046FFF7C7FE084671
:100A900002B010BD024611F07F0008B519D00E4B10
:100AA000C90903EB0113034493F87800FFF728FD0D
:100AB000014680B11046FFF7B9FE0B8803F003032F
:100AC00043F002030B8002230B80BDE80840FFF7D0
:100AD000A5BE0249EEE708BD4806002060000940B7
:100AE00011F07F0270B505464FEAD11613D0144BB2
:100AF00003EB0613134493F87800FFF701FD044657
:100B0000E8B12846FFF792FE4FF48073238026B1A8
:100B1000012323800EE00B4CF3E7094B0B4493F8C1
:100B20007820094BA3F86420B3F86830C3F381330D
:100B3000012BEDD12846BDE87040FFF76FBE70BDB8
:100B40004806002060000940000009402DE9F04FF0
:100B5000A74AB2F84010CB4363F478439BB20F042A
:100B60008BB005468CB2A2F8403006D5B2F84030C2
:100B70001E0640F19E80FFF767FE610411D5002636
:100B80000523012107A8CDE9076609968DF81D30D8
:100B90008DF81C5001F0CEFF954B1A8E66F34D3246
:100BA0001A86A20414D5924F3B8E9B0410D50026C2
:100BB0000323012107A8CDE9076609968DF81D30AA
:100BC0008DF81C5001F0B6FF3B8E66F34D333B862B
:100BD000E60408D504F07003202B00F0D6806BD813
:100BE000102B00F08580200530D5E10740F1EB8027
:100BF0007F4BB3F84020120728D54FF480425A8427
:100C0000B3F85420ADF81420B3F85620ADF81620F0
:100C1000B3F85820ADF81820B3F85A20ADF81A20D0
:100C20004FF6F772A3F840200023CDE9073309936C
:100C30000822062305A908A88DF81C508DF81D3040
:100C400003F012F8012107A801F074FF63051BD51A
:100C5000674BB3F84A200026D707A3F84A6013D59C
:100C6000FFF7BAFC80B1634B07229B880993CDE95B
:100C7000076601218DF81D2007A880228DF81C50E1
:100C80008DF8202001F056FFE0050FD5584B594C48
:100C9000DA8EB3F84670DFF868B1BFB21740FA4396
:100CA00092B2A3F84620002F40F0AC800BB0BDE814
:100CB000F08FFFF705FE60E7602B04D016D804F034
:100CC0006003402B8FD10023CDE907330993012125
:100CD000042307A88DF81D308DF81C5001F02AFF61
:100CE000434A138E43F4005313867CE7702BE9E7E5
:100CF0003F4B01225A87DA864FF480425A84002201
:100D00001A851A8D12F00F02FBD19A859A8D12F076
:100D10000F02FBD1384E39493548012396464FF42E
:100D2000007C4FF480771FFA83F8A0F86480A0F865
:100D300068E021F813C021F8132026F8237001334E
:100D4000062BF0D100262A4A37464FF400701FFACE
:100D500083FCA2F864C0A2F8687021F8130021F89F
:100D6000136001330A2BF2D100212248982202F0AD
:100D700089FF0121CDE9076609968DF81C508DF891
:100D80001D1007A801F0D6FE2DE7194BB3F850301F
:100D900013F07F033FF427AF4FF4A062ADF8163095
:100DA0000023CDE90633CDE90833ADF8142006233E
:100DB00005A9082208A88DF81C508DF81D3002F0F6
:100DC00053FF0121DDE714F007027FF43FAF084B2A
:100DD0001B8C09920721C3F340138B40CDE90722F6
:100DE0008DF81C508DF81D108DF820302AE700BFBB
:100DF00000000940480600208C0009406E000940B0
:100E00001400094097FAA7F6B6FA86F60C23734346
:100E1000E2180193137ADB0902F108011ED0304673
:100E2000FFF710FCA8B10C2303FB064307A89A8820
:100E3000197ADB88D31A0022CDE9072207228DF820
:100E4000201001218DF81C508DF81D20099301F010
:100E500071FE0123B34027EA030724E7DFF824816A
:100E60000393002E52D0B2F806A0B2B2A8F8282000
:100E70003046A8F86420B8F86C90FFF74DFBB8F83E
:100E80002A201FFA89F9C2F30B024A45134628BFEC
:100E90004B465345029328BF53469846019BE05862
:100EA000B8F1000F09D04A78D10724D5039B344903
:100EB00001904246FFF75AFB0198324BC14584BF6F
:100EC0004FF480425A8500221A851A8D1207FCD1F0
:100ED0000C2303FB0642AAEB0801C145D18002D8CE
:100EE000029A5245B5D37343E1180022E2544A7086
:100EF0008A70CA7096E7424621490390FFF72DFB9E
:100F00000398019A00EB0803A350D6E7B8F85E9067
:100F1000B4F806A0B8F8223009F07F09CA45D046D7
:100F2000C3F30B0328BFC846984528BF9846B8F1BD
:100F3000000F08D0637A2068DB0718D53346424695
:100F40005946FFF713FBC14582BF0E4B4FF4804259
:100F50005A84AAEB0803C145E38002D8C2457FF456
:100F600078AF002323706370A370E3705BE74246A1
:100F700059460190FFF7F1FA019840442060E2E7FA
:100F8000180009400000094000BE704708B500F095
:100F900005F800F06DFCFEE77047FFFF444B4FF48F
:100FA000700273B5C3F88820424A9A60424B4AF2F5
:100FB0000252A3F8FE23012283F81F2493F8B124E0
:100FC000D206FBD54FF42546A3F8FE63002000248B
:100FD000FFF7E2FF00F0BAF88DF8074001209DF816
:100FE000073000F0ADF9EFF31081012585F310888B
:100FF000324BD3F8042122F00042C3F80421D3F885
:10100000042181F310882E4A1168C1F300018DF884
:1010100007101168C1F300018DF807101268C2F3C0
:1010200000028DF80720EFF3108185F31088D3F8C4
:10103000042142F00042C3F80421D3F8043181F3C3
:101040001088284600F050F92846FFF7A5FF1D4BF1
:101050001D4A9C801E809A601C4ADA601C4A1D480A
:101060001D4E4FF48051A2F820111C4A9D80121A87
:10107000214602F007FE1A481A4A1B491B4D121A54
:1010800002F0F2FDAD1BAD10AC420CDB00F04AF8F3
:101090000220FFF781FF00F015F9002002B0BDE843
:1010A000704000F047BA56F8043B98470134EBE72C
:1010B00000ED00E00000000000E00140006F04408F
:1010C00000080440000D004060180020601C002053
:1010D0000060004048060020300600205C1400201C
:1010E00000000020300600202B50000030060020B9
:1010F0000B4B93F8A020824211D093F836201AB9F6
:1011000093F83C20D207FBD5054B93F8A020D106DD
:10111000FBD483F8A00093F8A020D206FBD470473C
:1011200000E00140064B93F826101A6A054B53F86D
:101130002130C2F30262D340034A1360704700BFFC
:1011400000E0014030060020E006002010B5314CE0
:101150003149324A4AF20353A4F8FE33304B00209F
:10116000A3F800012F4BC3E900122F494FF40042AE
:10117000C3E902211A612D4A5A61FFF7D3FF0923FF
:1011800084F8130484F8A23094F8803433B9012130
:1011900084F8801440F2C44000F052F8002084F833
:1011A000810484F88004FFF7A3FF012384F836301C
:1011B00084F83200174C94F83C301A07FBD54723CB
:1011C00084F82B30072000F035F8002384F82A300B
:1011D00094F83C309B06FBD50120052384F83100B0
:1011E00084F82630124B2362FFF79CFF002384F81B
:1011F000D0304FF42543A4F8FE33094BA3F8040183
:10120000B3F8042192B2002AFAD10122A3F80021F6
:1012100010BD00BF00E0014000366E0100127A00F0
:1012200000C0014030060020001BB700006CDC024B
:1012300000010110A0F101000028FBD17047FFFF61
:1012400010B4104B104A1B68B2FBF3F248434FF442
:101250007A73A0FB03143CB9B1FBF2F3980868B1B0
:101260005DF8044BFFF7E6BF9200B0FBF2F0A0FB85
:101270000303002BF3D04FF0FF30F1E75DF8044B90
:10128000704700BFE006002000CA9A3B70B50B4BC8
:101290000B4EB3F840510024ADB225FA04F3DB073E
:1012A000E0B203D556F8243003B198470134102C2E
:1012B000F3D1024BA3F8305170BD00BF0060004075
:1012C000E406002010B5064A0649002303F1C000D9
:1012D000013312F8014B41F82040202BF6D110BD0C
:1012E000A04D00000060004010B5EFF31081012315
:1012F00083F310880F4A32F810309BB22BB132F8CA
:101300001030013B9BB222F8103032F810309BB203
:1013100063B9094A094CB2F8FE3334F810009BB2A5
:1013200043F4254323EA0003A2F8FE3381F3108837
:1013300010BD00BFA807002000E00140404D0000A4
:1013400030B5EFF31084012383F310880D4A32F88F
:1013500010309BB263B90C490C4DB1F8FE3335F82F
:1013600010509BB22B4343F425439BB2A1F8FE33AC
:1013700032F8103001339BB222F8103084F3108819
:1013800030BD00BFA807002000E00140404D000034
:1013900008B50B4A1168034609B90A49116010687B
:1013A0000949033323F0030303448B4206D902F0B7
:1013B00055FC0C2303604FF0FF3008BD1360FCE7C1
:1013C000B00700206014002060180020EFF31080A8
:1013D000012383F31088064B196819B9054AD170A7
:1013E0004021D1701A6801321A6080F3108870476A
:1013F00024070020000D0440EFF31081012383F344
:101400001088074B1A6812B11A68013A1A601A68F4
:101410001AB9044BDA708022DA7081F310887047B1
:1014200024070020000D0440030A11F4803F30B56A
:10143000094AC0B24FEA03130AD01C1852F82450CC
:101440006FF3104542F8245021F4803542F82450BF
:10145000034442F8231030BD000804402DE9F8434E
:101460000025B0F800E02C462B464FF001089E45C1
:101470000FD80120FFF764FF144B93F8BB241443EB
:1014800024EA050483F8BB44BDE8F8430120FFF7D4
:101490002BBF4168DFF838C001EBC3010022B1F86F
:1014A00004903CF8026BB1450AD10F6808FA02F6C5
:1014B00007F0B857F6B2B7F1807F0CBF344335431D
:1014C0000132032AEDD10133D1E700BF00E0014032
:1014D000484D000038B50546FFF7C0FFFFF776FF1F
:1014E00000242A88A3B29A4203D8BDE83840FFF707
:1014F00083BF6B68A2B203EBC20053F8321080883E
:10150000FFF792FF0134ECE708B560B159B14B68C1
:101510004BB1074B02689A4207D003600846FFF7B9
:10152000D9FF002008BD0120FCE70E20FAE700BF2C
:1015300054524F5070470846114600F057B80846BD
:10154000114600F051B8FFFFEFF30383103B5BB28D
:10155000054AC033002052F823106FF3104142F8BF
:101560002310FFF7F3BA00BF00600040FFF7ECBFA5
:10157000FFF7EABFFFF7E8BF08B515491548FFF7C1
:10158000C3FF154A15494AF20253A2F8FE33D1F8B7
:10159000003123F40063C1F800314FF42543A2F871
:1015A000FE330F4B4FF47A721B68B3FBF2F3013B2F
:1015B000B3F1807F0AD24FF0E022F0215361094B52
:1015C00083F82310002393610723136108BD00BF34
:1015D000504D0000B407002000E00140006F0440BF
:1015E000E006002000ED00E000207047002070477A
:1015F000024A136801331360704700BFBC07002024
:10160000014B1868704700BFBC07002010B5037875
:10161000012B07D1044C238823B1002002F004FBE6
:101620000023238010BD00BFC20F00201B494AF2D7
:10163000025330B4A1F8FE33EFF31085012484F394
:101640001088174BD3F8002142F40062C3F8002140
:10165000D3F8002185F31088EFF3108584F3108808
:10166000D3F8002142F48052C3F80021D3F80031AE
:1016700085F310884FF42543A1F8FE33094B00226F
:101680009A8072B6BFF34F8FBFF36F8F064B98608F
:10169000036883F3088830BC4368184700E00140C2
:1016A000006F0440000D004000ED00E070477047FF
:1016B00070477047042904D100280CBF0020642023
:1016C000704700207047FFFF064B074A1B880749F9
:1016D000074802EA8312074B02F5C0421B8800F05C
:1016E0008DBB00BFC007002000F8FFFFC20700202D
:1016F000C80F0020C20F002070B51C46144B198083
:1017000001F5C073990111F4F86F164605D172B650
:101710000122104800F00CFB62B60F4D0F482B88D9
:1017200022461844314602F09FFA2B881C44A4B28A
:10173000B4F5006F2C8005D172B6FFF7C5FF62B615
:1017400000232B80BDE87040002002F06DBA00BF7E
:10175000C0070020C80F0020C20F0020C2070020D1
:1017600008B5074802F096FA72B6FFF7ADFF62B609
:10177000002002F059FABDE80840024800F06EB9B6
:10178000C04D0000C80F002010B510461C461A4678
:10179000594302F069FA204610BDFFFF014802F0EC
:1017A00079BA00BFEA4D000010B50F4802F072FA96
:1017B000FFF726FF0446FFF723FF031B632B0CD91B
:1017C000BFF34F8F09490A4BCA6802F4E062134322
:1017D000CB60BFF34F8F00BFFDE700214FF0FF301C
:1017E00001F012FBE7E700BF024E000000ED00E051
:1017F0000400FA0510B5114B114C1A682168114804
:1018000000F0D4FB104A13785BB12368B3F5FA6F8C
:101810003BBF00231370A3F5FA634FF4FA63236010
:1018200010BD236844F61F6103F5FA638B42236001
:10183000F6D90123137044F62063F0E7041000206A
:101840000010002008100020C40F002008B5FFF78A
:10185000D7FE064A1368C01A632805D9643313609B
:10186000BDE80840FFF7C6BF08BD00BF2810002034
:1018700010B5204CFFF780FE22681F4B9A4225D1FD
:10188000002323601D491E4800F044FC44F62061FB
:101890001B4800F0FFFB1B4B19481A68002100F0A1
:1018A00085FB174800F018FB1749184800F0B4F9F9
:1018B000164800F0A1F9002001F0F4F800214FF0E3
:1018C000FF3001F0A1FAFFF7C1FFF7E72360FFF750
:1018D00097FEB0F5FA7FFAD300234FF4C04023609F
:1018E000036803F07F43B3F1005FCBD1FFF79EFEA7
:1018F000C8E700BF0010002035817307704E00005C
:1019000008100020041000202C4E0000C80F0020FA
:1019100010B501F1080400F00F02D3B2092ACCBFC0
:101920003733303304F8013DA1424FEA1010F2D1B1
:1019300010BDFFFF00487047504F0000004870473F
:10194000EA4E000070B568B91F4B204819680222A2
:1019500002F08AF9012301331D485B0043F4407310
:10196000038070BD05282DD8174B1A4C53F8206002
:101970002378BBB9184BD3F89C3103F1140558698F
:101980002146FFF7C5FF686804F10801FFF7C0FFB3
:10199000A86804F11001FFF7BBFFE86804F1180123
:1019A000FFF7B6FF304602F08DF9C3B208480022B7
:1019B000D1B28B4202F10102CDD94C1C715C20F8EE
:1019C0001410F5E70020CCE7980500202E10002029
:1019D0002C1000202C11002000B07F4068B102685C
:1019E000084B9A420BD1084BB3F8B20F00F08100BC
:1019F000003818BF0120C000704701207047072041
:101A0000704700BF4E45504F00F07E4038B5144639
:101A10001D46FFF7E3FFD8B9B1F5802F0AD20B19A5
:101A2000B3F5802F04D885B14A0712D163070CD0D3
:101A300017200DE001F13F4303F57003B3F5005F9C
:101A400007D2054B21449942F2D8002C08BF172039
:101A500038BD1620FCE700BF0020104008B5014645
:101A6000FFF7BCFFA0B94B68086093F9113013F180
:101A7000210F0DD05A09012103F01F03994002F1F3
:101A80002003044A42F82310BFF34F8FBFF36F8F38
:101A900008BD00BF00E100E010B5314C314B0146FC
:101AA000206A1B68C0F3026203FA02F2C0F30270FC
:101AB000C2402D48CA60824208D82C48824205D0D4
:101AC0002B48824202D02B48824245D1206A274CC3
:101AD000C0F302608340C34002F5742202F23F2249
:101AE00003F57423B2FBF4F2CA6040F2835206207D
:101AF00003F23F23B3FBF4F35A43B2FBF0F20A6163
:101B000040F276325A43B2FBF0F24A6158225A430D
:101B1000B2FBF0F28A61184A184C8B605A43B2FB50
:101B2000F0F2CA61164A5A43B2FBF0F20A62154A51
:101B30005343154AB3FBF0F34B62002384F8C03FD4
:101B400092F89040012C05D0012482F890408968D9
:101B500003F0A2F8184601E04FF4FB7010BD00BF7F
:101B600000E00140E0060020FF083D0040420F0079
:101B700080841E00C0C62D00B86A050000F07E40BB
:101B8000D066050068ED220000C07E4010B5174BFE
:101B90004AF68022A3F8B22F154B8168044606202E
:101BA00003F07AF893F8A0309B070CBF1020502068
:101BB00003F086F863681A78BAB193F911300D4AC8
:101BC00003F1C00152F821006FF3104042F82100E8
:101BD00003F01F015B099B0003F1604303F56143C0
:101BE00001228A40C3F880211A6010BD00F07E40B7
:101BF00000E001400060004008B538B10268054BC4
:101C00009A4205D103F050F8002008BD0120FCE7FE
:101C10000720FAE74E45504F38B50546002954D005
:101C2000002852D02A4C0368A3424AD00B7833B123
:101C300091F91130002B46DB4B68002B45D06960D1
:101C40000B781BB391F911300A7C03F1604101F567
:101C500061411201D2B281F800231E4A03F1C00192
:101C600042F823501C4A52F821006FF3104042F80A
:101C7000210003F01F015B099B0003F1604303F5A2
:101C8000614301228A40C3F880211A60002385F84D
:101C900034302846FFF700FF90B92846FFF776FF5B
:101CA000EB680E4A013BD2F8D81103F01F0363F32F
:101CB0000501C2F8D811284603F006F800B92C60D7
:101CC00038BD0E20FCE70B20FAE70120F8E700BF43
:101CD0004E45504F280700200060004000C07E4065
:101CE00010B5182341691222044602F0E5FFC8B975
:101CF000A16AE26A4B1CA362531CE362236B581E69
:101D0000206378B1084B1344084A180C9BB2A2F820
:101D10001001A2F808314B78C2F83031812382F8E3
:101D20001431082010BD00BF0100F0BD00C07E408E
:101D30002DE9F04105461746FFF750FE064608B963
:101D40001FB915263046BDE8F081B1F5802F85F822
:101D5000340010D221F4FF6121F0070101EBC72309
:101D6000B3F5802FEDD83A4628464FF40063BDE81E
:101D7000F04102F095BF21F47F7424F0030404F1D4
:101D80003F4303F57003B3F5005F4FEA87282FD276
:101D9000184B04EB08029A42D3D86B681B785B009F
:101DA00085F834302846FFF7F1FE134A92F80431E3
:101DB00004F13D4066F3000300F5700082F8043141
:101DC0004146A8622F63842202F072FF6B681B7881
:101DD000002BB7D1296A192311227943284602F032
:101DE0006BFF06460028ADD1284602F06DFFA9E73B
:101DF0001626A7E70020104000C07E402DE9F041E4
:101E000016461F46884601233A4631460446FFF7E8
:101E1000FDFD054600283FD1B6F5802F84F834003B
:101E20000AD2B8F5802F3AD93B4632464146204681
:101E3000BDE8F04102F04CBFC4E90A86636827633D
:101E40001B7884F834302046FFF7A0FE154A92F83C
:101E5000043165F3000382F80431D4E90A1303F175
:101E60003D4303F57003180C9BB2A2F81001A2F8D1
:101E700008310B78C2F83031812382F8143163685D
:101E80001B784BB92046FFF72BFF08280546F9D0F1
:101E900010B9204602F018FF2846BDE8F081012560
:101EA000FAE700BF00C07E4000F1C002084B53F8C3
:101EB00022106FF3104143F822104309054900F046
:101EC0001F0001226033824041F82320704700BF89
:101ED0000060004000E100E040B10268054B9A421A
:101EE00006D1D0E9023200205A60704701207047C5
:101EF000072070475450470082684FF00043136139
:101F000082685361826893618268002353628268A9
:101F10009362704738B5041E11DB094D09012B1976
:101F2000C9B283F80013074B43F82420FFF7BCFF26
:101F30006209012304F01F04A34045F8223038BD94
:101F400000E100E02807002030B5856840686C6E2D
:101F50000078032898BF013409B18C421DD813F0D2
:101F6000010F6B6B0CBF03F01F03C3F30443032883
:101F700007D91B0983F0010349B9A3B902235360B0
:101F800030BD03F00C03181F43424341F4E78C4279
:101F900001D8002BF2D10323F1E7032898BF01F108
:101FA000FF311160ECE7002CE8D0F4E72DE9FF41A8
:101FB000164602F00308044600285FD0B8F1030F6C
:101FC0005CD002F00C0342681278062A02D11BB9D9
:101FD000052050E0002BFBD122682D4B9A424FD1B7
:101FE000A7687B6E01338B424CD34FF0FF30002348
:101FF000CDE9020302AA204633460191FFF7A4FF70
:1020000003983D6B0199A0B916F0080F0CBF02238D
:102010000423B207DDF808C020D503F1120207EB54
:1020200082021333C2F804C0A26802EB8302C2F832
:1020300004C0B8F1010F27D025F44035022E45EA3F
:10204000004512D120B1012302AA2046FFF77CFFF0
:10205000039B25F0407545EA036509E043441233CC
:1020600007EB8307C7F804C0E3E7B8F1000FEFD12F
:10207000A36800201D6304B0BDE8F0810120FAE7E9
:102080000720F8E70320F6E7022EDBD0E0E700BFE9
:102090005450470020B30268134B9A4222D1436840
:1020A0001B78032B836894BF01F1FF320A469A66BE
:1020B00043681B782BB983684908013959658368DF
:1020C00099658168CB6A13F0010307D14A6682687B
:1020D0004FF4AA011164D0E90221D16000207047B9
:1020E0000120704707207047545047000B01022819
:1020F00043EA81130AD003280AD8002914BF092211
:10210000062243EA020040F4807070470922F8E793
:102110000322F6E72DE9F34704460D4619B90120DD
:1021200002B0BDE8F087CB69002BF8D00028F6D0CC
:102130000B7AD907F3D40A2BF1D8DFF834A203685D
:10214000534500F00B812A7C01239340DAB2C3602F
:10215000002A00F005816A6912B92978012904D1A1
:1021600095F912100029C0F2FE80E969896A29B147
:1021700091F90110002901DB002AD0D013F0030FE0
:102180000CBF01230023656023742B7C03F58003BF
:1021900003F5F0631B02A3606B696361AB69E361E4
:1021A0000023A361EE69EFF31080012282F310880F
:1021B0006E4A2F7CD2F80811022F34BF6FF020072F
:1021C0006FF040073940C2F80811D2F8082180F3B7
:1021D0001088A2684FF425411160A268D362A268FA
:1021E000D363A26893642A782B7A6968DB05032A93
:1021F00088BF43EA0243A2682046D36298BF01F138
:10220000FF31FFF779FEA368B269DA61A368F2696A
:102210001A62A3689966A3684FF0FF3259660023DB
:10222000CDE900232A78D6F82C80002A40F0878058
:102230006B685B08013B0093A268009B5365A26832
:102240009365019B4FEA036949EA0349F36A7BB945
:1022500033782BB171782878FFF748FF48EA0008F7
:10226000B3782BB1F1782878FFF740FF48EA0048AF
:10227000B76AA268002F6CD0BB78F9781B0643EAD6
:102280000173397943EA01439363A268BB68C2F8DA
:102290008C30002B5BD1FA68003A18BF0122F36A38
:1022A00033B93B7FF97E5B0643EA412348EA0308E2
:1022B000A368C3F88820F36A43B996F8213096F8EA
:1022C00020205B0743EA423348EA0308A3684FF43F
:1022D000AA021A642B78012B04D1A2680023D364CC
:1022E000A2681365D4E90232DA60A368C3F83480C7
:1022F000A36849F003021A63A26849F0010313635B
:10230000697C95F912002246FFF704FE96F8221028
:1023100096F924002246FFF7FDFD96F8231096F962
:1023200025002246FFF7F6FD2FB1397897F9010015
:102330002246FFF7EFFDC4F800A00020F0E6012AD6
:102340003FF47AAFE9686A46FFF7FEFD74E70122C1
:10235000A5E79763A368C3F88870ACE70E20DFE6B3
:1023600040F27A50DCE60B20DAE600BF006F044052
:102370005450470000F08EBB037813F0010309D1DD
:102380000278520704D4037843F004030370012356
:10239000184670470023FBE70378C3F380015B070F
:1023A00008D5037813F0010203BF037862F38203B8
:1023B00003700021084670478388C07800F003004E
:1023C0000228C3F30A0315D003281DD001280FD11A
:1023D000022940F2FF3208BF4FF480629A420FD2C6
:1023E0004FF0E023D3F8F00D10F0010008D000BE4C
:1023F00000207047022904D1B3F5007FF0D10120FD
:102400007047402BFBD9EBE702290CBF4FF48062E9
:1024100040229A42F3D2E3E730B50A44914200D316
:1024200030BD4C78052C06D18C7804F07F0500EB8C
:102430004505E4092B550C782144EFE70A4492B294
:102440008A4202D38389934202D243891A4492B2C8
:102450001046704782888A4210B504D884898B1A46
:102460009BB29C4203D243891A44891A8BB20382DD
:1024700010BDF8B59A42A2EB03041D4638BF43894C
:102480008788A4B23CBFE41AA4B2A7420E46114604
:1024900002D2FFF7DFFF3C461CB920460BE0ED1BE4
:1024A000ADB2AF42FBD9C2880168304602FB0511CC
:1024B00001F0DAFB0120F8BD930813B501EB8303AB
:1024C000044699420BD112F0030206D0002301A862
:1024D000019301F0C9FB019B236002B010BD51F8CC
:1024E000040B2060EDE72DE9F04385B08846BDF888
:1024F00030508488AB42A3EB0509194638BF4389A5
:102500001FFA89F93CBFA9EB03031FFA83F94C4575
:102510000746164604D2FFF79DFF058AA146ADB2D5
:10252000B9F1000F1ED0B14528BFB146AC421DD94C
:10253000FA883B68661B02FB0531A9EB04049DF891
:1025400034302C44B0B214FB02F416FB02F6012B1B
:10255000B6B2A4B216D081450BD802FB09F24046B0
:1025600001F082FB484605B0BDE8F0832D1BADB2FB
:10257000DCE73246404601F077FB3968224608EB3B
:102580000600EDE7814506D819FB02F292B24046FB
:10259000FFF792FFE6E726F0030295B22A4640468F
:1025A0000191FFF789FF16F0030628D001994A1917
:1025B000C6F1040189B2A1424FF0000328BF2146B1
:1025C000641A039303ABA4B295191846AA420CD11E
:1025D0003B68013E821919448B420BD1039BC8F81A
:1025E0000030002CBED02246D1E712F801CB03F810
:1025F00001CBEBE713F8010B02F8010FECE73968A8
:10260000EFE713B5930800EB8303984209D112F06A
:10261000030204D00B68019301A901F025FB02B06D
:1026200010BD0C6840F8044BEFE72DE9F043074676
:10263000B0F80E908588048A1646C288007A85B064
:102640001FFA89F9A4B288BBA145A9EB040038BFE1
:102650007C8980B23CBF001B80B2281A80B28642BF
:1026600028BF06464C46AC4228D2A5EB0408751B91
:10267000386825441FFA88FC15FB02F518FB02F8A0
:10268000012B1FFA88F8ADB202FB040022D0664588
:1026900017D8724301F0E8FA324649463846FFF748
:1026A000CDFEF881304605B0BDE8F083AE4221BFD3
:1026B000761B02FB0611A1462E46D3E7641BA4B28B
:1026C000D1E74246009101F0CFFA009938682A46D6
:1026D0004144DFE7664505D816FB02F292B2FFF7E8
:1026E00090FFD9E728F00304A4B22246CDE9000107
:1026F000FFF787FF18F00308019929D0C8F10403F8
:102700009BB2AB4200980A68039228BF2B46ED1A91
:10271000013C0DF10C0C0444ADB240466246013858
:102720001CF801EB04F801EF10F0FF00F7D1386856
:10273000904408EB0304421EA04504D11844002D28
:10274000AAD02A46CBE718F801CB02F801CFF3E76D
:102750003868F4E7B2F5004F10D882805200C38089
:1027600092B29DF800300372531E838152420023BF
:10277000C3810160428103820120704700207047BD
:10278000C189028A89B292B29142A1EB020338BF99
:10279000428980889BB23CBF9B1A9BB2984228BF5B
:1027A00018467047C289038A92B29BB2D31A584224
:1027B0005841704710B5C189028A848892B289B2A3
:1027C0009142A1EB020338BF42899BB23CBF9B1AE6
:1027D0009BB2E01A80B210BD38B5C289038A0446A4
:1027E0009BB292B2FFF745FE218A054682B289B2BA
:1027F0002046FFF723FE2082284638BD73B5C389E3
:10280000058A0026ADB20446CDE900569BB2FFF71B
:102810006AFE218A0546024689B22046FFF70EFE6F
:102820002082284602B070BD38B5C589028AADB293
:1028300092B2AA42A5EB020388BF42899BB288BF2D
:102840009B1A828888BF9BB29A42044614D1007AB0
:1028500090B938BD801A80B29042FBD2E2882368DA
:1028600002FB003001F000FA012229462046FFF762
:10287000E5FDE0810120ECE72846EDE712B10023F9
:10288000FFF7D3BE104670470023C38103828388BD
:102890005B009BB25A1E5B428281438101207047DC
:1028A00001720120704710B50A46C18989B20446F9
:1028B000FFF7C4FDE08110BD10B50A46018A89B258
:1028C0000446FFF7BBFD208210BD70B5C689028AA1
:1028D0008588B6B292B296420C46A6EB020338BF88
:1028E00041899BB23CBF5B1A9BB29D4205D23146E7
:1028F000FFF7B0FD028A2B4692B22BB9C4E9003330
:10290000A36070BD761BB6B2B542FBD9954208D91B
:102910000568B2421544656006D2238000236380B7
:10292000EEE7521B92B2F1E781885B1A8D1A1A44C6
:10293000258062800368E3E770B5C289048A8588D0
:1029400092B2A4B2A24238BF4689A2EB04039BB262
:102950003CBF9B1B9BB2EB1A9BB22BB9C1E9003366
:102960008B6070BD521B92B2AA42FBD2AC4209D21C
:102970000568944215444D6007D9A41A00230C80C1
:102980004B80EDE7641BA4B2F0E784881B1BA51AFB
:102990001A440D804A800368E2E7FFFF0B4B63B1E6
:1029A0000B4B1B78834206D90A4B1B6800EB400097
:1029B00003EBC0007047C01AC0B2012803D8064B11
:1029C00000EB4000F4E70020704700BF000000006B
:1029D0007411002070110020644F000037B50C46C0
:1029E0000546C868019200F06BFDE368019A012179
:1029F000284603B0BDE830401847FFFF70B5144EBD
:102A0000054600242046FFF7C9FF38B94FF0E02300
:102A1000D3F8F03DDB0700D500BE70BD4368284603
:102A2000984733780134E4B20133A342EADA3B2217
:102A30000021084801F026F91022FF21064801F084
:102A400021F9BDE8704005481422FF2101F01AB9B0
:102A500074110020751100207811002088110020C9
:102A6000034A034610780BB1FDF7D8BEFDF7DEBE72
:102A7000C8050020024B5878003818BF0120704765
:102A800075110020024B1878C0F38000704700BF1A
:102A900075110020024B1878FF3818BF01207047CD
:102AA000C8050020F8B51C4E3378FF2B05462FD102
:102AB0001A4C1B483B22002101F0E4F8201DFFF7CF
:102AC000E3FE184B1C60184B23B11848AFF300808D
:102AD000174B1860154F00242046FFF75FFF40B9E1
:102AE0004FF0E023D3F8F03D13F0010312D000BE05
:102AF000F8BD036898473B780134E4B20133A34240
:102B0000EADA28463570FDF7A7FE2846FDF786FE6F
:102B10000120EDE71846EBE7C8050020B0050020CE
:102B200075110020B0110020000000007411002079
:102B300070110020F0B54378023B85B005460C4685
:102B4000032B12D8DFE803F002631921314B1A7806
:102B50006FF300021A701A7800216FF341021A70A5
:102B600059701A7861F382021A702B4B1E6814B9DF
:102B7000336820469847294637E0264B1A78D6070F
:102B800043D51A7842F00402EEE7224A1378D807B8
:102B90003BD513786FF382031370E6E7FFF7FEFE71
:102BA00020B1436913B169682878984701363B78AA
:102BB000F0B201338342F1DA164A1378590724D56B
:102BC00013786FF3820313700023CDE9013303936D
:102BD0002B788DF8043005238DF805300E4B1E68D8
:102BE00014B933682046984701A9301DFFF71CFE31
:102BF000054614B933680120984735B94FF0E023F2
:102C0000D3F8F03DDB0700D500BE05B0F0BD034FA3
:102C10000026CCE775110020B011002074110020AF
:102C200038B50F4B1D788B7803F07F03092B0C46CA
:102C300008D94FF0E023D3F8F03DDB0700D500BE04
:102C4000002038BD074B20469978FFF7B5FB0028D8
:102C5000EFD021462846BDE83840FDF739BE00BF19
:102C6000C8050020751100202DE9F047DDE9085660
:102C700081460C4690469A460027B84501DC012063
:102C80000EE06378052B04D1E37803F0030353458A
:102C90000AD04FF0E023D3F8F03DDA0702D4002049
:102CA000BDE8F08700BEFAE721464846FFF7B8FFC7
:102CB00038B94FF0E023D3F8F03DDB07EFD500BE85
:102CC000EEE7A378DA0914BF33702B70237801374D
:102CD0001C44D2E7CB0901F07F020448273303EB01
:102CE000420300211844FFF747BB00BF75110020C5
:102CF000CB0901F07F020448273303EB4203002194
:102D00001844FFF749BB00BF7511002070B5174C80
:102D1000174801F07F0604EB460404EBD11420347D
:102D2000E5790078ED0709D54FF0E023D3F8F03DC1
:102D3000DA0701D4002070BD00BEFBE7E57945F05D
:102D40000105E571FDF794FE0028F4D1E37960F305
:102D50000003E371E37960F38203E3714FF0E02352
:102D6000D3F8F03DDB07E5D500BEE4E775110020A0
:102D7000C805002010B50C4C01F07F0204EB4204A2
:102D800004EBD1142034E3799B070BD4074B18785C
:102D9000FDF780FEE37943F00203E371E37943F04A
:102DA0000103E37110BD00BF75110020C8050020AC
:102DB00010B50C4C01F07F0204EB420404EBD1147B
:102DC0002034E3799B070BD5074B1878FDF788FE75
:102DD000E3796FF34103E371E3796FF30003E37188
:102DE00010BD00BF75110020C8050020054B01F083
:102DF0007F0203EB420303EBD11191F82700C0F3EC
:102E000040007047751100202DE9F04F87B0FFF7A3
:102E1000B1FA002800F08D82B34B1D682C460020CB
:102E200054F8043B9847204603A9FFF7D5FC2B68CC
:102E3000044601209847002C00F07B829DF80D305D
:102E4000013B072B00F2A282DFE813F00800130019
:102E5000A0027E028D021F004A0299029DF80C001A
:102E6000FFF7CCFD00F024FBA04B9DF810209A70DA
:102E7000D2E79DF80C00FFF7C1FD00F019FB9C4B59
:102E8000002BC9D0FEF713FCC6E7984C9DF80C50F8
:102E9000237843F00103237094F827306FF3000385
:102EA00084F8273094F827306FF3820384F82730B2
:102EB00094F828306FF3000384F8283094F8283011
:102EC0006FF3820384F82830002000F0F9FA9DF8AF
:102ED000106006F06002602A11D14FF0E023D3F8B1
:102EE000F03DDC0700D500BE9DF80C000021FDF789
:102EF000D1FD9DF80C008021FDF7CCFD8CE7402A28
:102F00000DD17C480028EFD000F0DAFA04AA0121A4
:102F10002846AFF3008000287FF47EAFE4E706F098
:102F20001F06012E00F07181022E00F09881002E04
:102F3000D3D1202A0FD19DF814300F2BD4D823449D
:102F4000D878FFF72BFD01460028CDD004AA2846EB
:102F5000FFF744FDDFE7002ABFD19DF81130092BB0
:102F6000BBD801A252F823F0F5310000E331000094
:102F7000DB2E0000CF310000DB2E0000912F00007F
:102F80000F310000DB2E0000AB2F0000C12F00002E
:102F900004A800F09BFA9DF812102846FDF752FC99
:102FA000237843F00203237036E763788DF80A3004
:102FB00001230DF10A0204A9284600F045FA2BE787
:102FC0009DF812A063789A4537D063783BB12846C4
:102FD000FDF734FDA6782846FFF710FDA670BAF17C
:102FE000000F2AD00AF1FF30C0B2FEF7A7FC10B1E3
:102FF0004378022B08D04FF0E023D3F8F03DDF07F1
:103000007FF56BAF00BE68E7C379C3F38012C3F3EB
:1030100040131B0143EA4213227822F0300213438B
:1030200023704388C31800F109060093009BB34244
:103030000AD8314B0BB1FEF739FB84F801A004A983
:10304000284600F0EFF9E7E673780B2B03BF3378DF
:1030500096F80380F6184FF001087378042BCAD154
:10306000009B9B1B9BB201934FF0000B234B1B78E3
:103070005FFA8BF70133BB42BDDB3846FFF78EFCAE
:1030800081460028B7D08368019A31462846984780
:103090000828024638D9019B834235D3B8F1010F85
:1030A00006D1D9F8083016498B4208BF4FF0020804
:1030B0000021CBB298450DD83B46314611480192CC
:1030C000FFF7AAF90D4B019A1B7801339F42164472
:1030D000ACDD90E7B078034454FA83F30131D8783B
:1030E000FF2888D1DF70E4E7B011002075110020BF
:1030F000AF16000000000000AD16000074110020A3
:10310000F5360000881100200BF1010BAEE7BDF889
:103110001200030A5A1EC0B20E2A3FF6E5AE01A104
:1031200051F822F0613100008B310000AD31000018
:10313000E92E0000E92E0000C13100008B310000B3
:10314000E92E0000E92E0000E92E0000E92E000023
:10315000E92E0000E92E0000E92E00007331000086
:10316000FEF7E8FB1223024604A9284600F06CF99A
:10317000D1E68B4B002B3FF4B7AEAFF30080024695
:1031800000283FF4AAAE4388EEE7022B07D1FEF7F2
:10319000D5FB00283FF4A1AE43880246E4E7814B0B
:1031A000002B3FF4A1AEAFF30080F2E7BDF814109E
:1031B000FEF7C8FB024600283FF496AE0378D3E73B
:1031C000794B002B3FF490AEAFF30080F2E7BDF8EF
:1031D0001230012B7FF488AE237843F0080323706C
:1031E0002DE7BDF81230012B7FF47EAE23786FF30C
:1031F000C303F4E72378C3F340129B0803F00203F0
:103200001343ADF80A300223D3E69DF814300F2B98
:103210003FF66AAE2344D878FFF7C0FB014600288A
:103220003FF462AE04AA2846FFF7D8FB00287FF4DB
:10323000F3AD9DF8103013F060047FF455AE9DF8A7
:1032400011300A3B012B3FF64FAE00F039F99DF8E3
:1032500011300A2B7FF4F3AE8DF80A40A8E69DF8F2
:10326000141001F07F03092B3FF637AE04EB430344
:1032700003EBD113D87CFFF791FB07462AB1002856
:103280003FF432AE04AA014661E69DF8113003F026
:10329000FD02012A08D0002B7FF41FAE2846FFF75D
:1032A000A5FDADF80A00AEE7BDF8122022B9012B4A
:1032B000284612D1FFF77CFD002F3FF4ADAD04AAE4
:1032C00039462846FFF78AFB002000F0F9F894F809
:1032D0002830DE073FF5A0ADB1E6FFF74BFDEBE789
:1032E0009DF81010314B01F07F0403EB440303EB16
:1032F000D11393F827006FF3000083F8270093F8A9
:1033000027006FF3820083F827003CB9059B9DF8E6
:1033100011209DF80C0000F0E7F87DE5D87CFFF760
:103320003DFB48B94FF0E023D3F8F03DD80700D576
:1033300000BE07B0BDE8F08F0469059B9DF8112021
:103340009DF80C00A04767E5184B1A78D1077FF568
:1033500063AD174A002A3FF45FAD1878C0F3C00090
:10336000FEF7A6F958E5114B1B78DA077FF554AD47
:10337000104B002B3FF450ADFEF79BF94CE5049B3E
:10338000002B3FF449AD0598984745E54FF0E02301
:10339000D3F8F03DDB077FF53FAD00BE3CE500BF55
:1033A0000000000000000000000000007511002077
:1033B000B1160000B316000037B514490446CA8997
:1033C000888991F90050831A9BB2402B28BF402373
:1033D000002D10DA904214D01A4689680C480193E7
:1033E00000F042FC0A4A019B8021204603B0BDE860
:1033F0003040FFF78BBC90424FF0000103D1002218
:10340000F3E78021FBE7024AEFE700BF74120020D8
:1034100088120020C94300231A4601F08001FFF7FB
:1034200075BCFFFF30B4074C05460B460868496879
:10343000224603C20022C4E902222846197830BC81
:10344000FFF7E8BF74120020F8B5184E0C46054689
:1034500008684968B260374603C70021F181E188F6
:103460008B4228BF0B46B381E18889B153B14AB979
:103470004FF0E023D3F8F03DDA0701D40020F8BD87
:1034800000BEFBE72846FFF797FF30B10120F6E7C3
:1034900021782846FFF7BEFFF7E74FF0E023D3F887
:1034A000F03DDB07EAD500BEE9E700BF741200205B
:1034B00002481422002100F0E5BB00BF7412002076
:1034C000014B1861704700BF7412002010B502460E
:1034D000044C00685168234603C30023C4E9023347
:1034E00010BD00BF7412002070B52D4C1E4623780D
:1034F000C909B1EBD31F054618D04EB14FF0E023F8
:10350000D3F8F03DDA0701D4002070BD00BEFBE720
:10351000244B13B12146AFF3008023690BB901207E
:10352000F3E71F4A032128469847F8E794F900304B
:10353000A068002B05DB0028E6D01B49324600F0CE
:1035400093FBA268E38932443344A260E2889BB2D1
:103550009A42E38101D03F2E1ED823696BB92178AE
:103560002846FFF757FF0028D9D14FF0E023D3F8C2
:10357000F03DDB07C8D500BEC7E70221084A284650
:10358000984701460028EAD12846FDF783FA8021B2
:103590002846FDF77FFAC2E72846FFF70DFFE2E76E
:1035A00074120020000000008812002070B500F1A5
:1035B000100504462846FFF7FDF83F2817D9E178A3
:1035C0000020FFF787FB90B12846FFF7F3F83F286C
:1035D000E17807D904F1B8024023BDE8704000202B
:1035E000FFF794BBBDE870400020FFF781BB70BDC2
:1035F0002DE9F0410446FFF73DFA10B90020BDE87F
:10360000F081FFF73FFA06460028F7D14FF49C738C
:10361000164D5C4304F12408A8444046FFF7B0F877
:103620000028EBD02F193046B978FFF753FB00285C
:10363000E4D0F8342544294640224046FFF7DEF81E
:10364000B978044668B103462A463046FFF75EFB68
:1036500048B94FF0E023D3F8F03DDB07CED500BEEC
:10366000CDE7FFF745FB2046C9E700BFC8120020A1
:1036700037B5134C4FF49C720021204600F002FB3A
:10368000FF234FF4424201256371E28000230822A8
:1036900063812273009304F138012B46402204F128
:1036A00010002581FFF756F800952B46402204F1C3
:1036B000780104F12400FFF74DF803B030BD00BFDE
:1036C000C812002010B50A4C00210522204600F047
:1036D000D9FA04F110002434FFF7D6F82046FFF79A
:1036E000D3F820460121BDE81040FFF7D9B800BF4C
:1036F000C8120020F7B54B79022B064603D00025EF
:10370000284603B0F0BD8B79022BF8D1204FBB784F
:103710007BBB8B783B700B780925CC1803E02378B2
:103720001D44ADB21C446378242B1BD19542F6D9BD
:103730006378042B12D163790A2B0FD1154B2778AC
:1037400001930133009302231A46E1193046FFF733
:103750008BFA70B10E3517FA85F5ADB20C48FFF74C
:1037600025FFCDE7052BE3D121463046FFF758FA78
:1037700038B94FF0E023D3F8F03DDB07BFD500BEEA
:10378000BDE7A3787B7023781D44ADB21C44CFE71E
:10379000C8120020CA12002070B50B4611461278DC
:1037A00002F06002202A47D1244E8A88347894425D
:1037B00042D14A78203A032A3ED8DFE802F00214C8
:1037C0001731012B05D11E4A0723FFF73DFE0120CB
:1037D00070BD032BFBD11B4B002BF8D018490020E8
:1037E000AFF30080F3E7012BF1D1ECE7012B02D11D
:1037F000FFF718FEEBE7032BE9D14C881248347130
:1038000004F0010585F00101FFF74AF80F4B002B8A
:10381000DDD0C4F3400229460020AFF30080D6E794
:10382000012BE5D0032BD2D1094B002BCFD04988F7
:103830000020AFF30080CAE70020C9E7C8120020CB
:10384000CE12002000000000EC120020000000005A
:10385000000000002DE9F347374D1C46EB788B4202
:1038600007460E4607D0AB788B4258D1AB78B342AF
:1038700032D001245CE0A2B205F1B80105F11000DC
:10388000FEF7FCFF2D4B2BB92D4BEBB92A48FFF768
:103890008DFEEBE76B79FF2BF6D005F1B7094FF002
:1038A000000805F1100AA045EED06A7919F8013F29
:1038B0009A4206D15046FEF775FF10B96979AFF309
:1038C000008008F10108EEE71E48FEF76BFF0028B4
:1038D000DCD1AFF30080D9E71B4B13B10020AFF36D
:1038E00000800020FFF784FE0028C2D11748FEF7B1
:1038F00047FF0028BDD1002CBBD014F03F03B8D146
:10390000A97801933846FFF7E5F9019B04460028A2
:10391000AFD0A9781A463846FFF7F8F908E04FF01B
:10392000E023D3F8F04D14F0010401D000BE0024D0
:10393000204602B0BDE8F087C81200200000000059
:1039400000000000D812002000000000EC1200204F
:10395000024B02225A8000221A7170470014002084
:1039600013B5049C8DF80030230A8DF80230002333
:103970008DF801408DF804208DF80530240C0623C5
:103980006A468DF80340FFF75FFD02B010BDFFFFF0
:10399000024B00221A80FFF7DBBF00BF001400209B
:1039A0000020FFF7F5BFFFFF70B500238D781846A4
:1039B0008C79012C20D04B78212B22D1164B8A7880
:1039C0001A70B1F805300930402B80B222D94FF07F
:1039D000E023D3F8F03DDB071CD500BE1AE08C785D
:1039E000AC420ED1CE78DCB2A6420AD10C7820448B
:1039F00080B221440133DBE7CC79022CDBD1904249
:103A0000EDD34FF0E023D3F8F00D10F0010001D01A
:103A100000BE002070BD00BF001400202DE9F3415E
:103A2000137803F01F04012C0646154640F0EC8085
:103A300013F060031ED152780A2A10D00B2A40F0EE
:103A4000E380012940F0BA80704B6A885A70FFF712
:103A50007FFF294602B0BDE8F041FFF7E3BC012932
:103A600040F0AC806A4A0B46294602B0BDE8F041FE
:103A7000FFF7EABC202B40F0C7805378062B00F2FA
:103A8000C380DFE803F004462C66131820000129E8
:103A900004D129463046FFF7C5FC05E0032903D1D0
:103AA0005C4B0BB1FDF780FE012487E00129FBD1BF
:103AB000FFF74EFFEDE70129F6D10B46564A29469E
:103AC000FFF7C2FCF0E70129F2D00329ECD1534BF8
:103AD000002BE9D04D4B5878FDF760FEE4E7012953
:103AE000E2D14A4F3C7814F0020467D04C4C002CD1
:103AF00064D0EB88402B00F2878007F10C026988C4
:103B00007878FDF741FE07F10C020346294630465E
:103B1000ABE70129C8D13D4A147814F001044DD017
:103B20009378022B01D0052B6ED1EB88402B6BD8FC
:103B3000012313716B88D380EB881381EB881BB151
:103B400003219170374AE1E70623937029463046F6
:103B500080E7DFF8B88098F80220032A06D0062A0A
:103B600034D00129A0D1002300930BE0012913D107
:103B700098F8040070B198F801000421FDF79AFD4F
:103B80000422009098F8033029463046FFF7E8FEFB
:103B9000044613E00522F4E7032985D198F8044090
:103BA00084B1042388F80230B8F80610B8F8083059
:103BB00098F8010008F10C02FDF79EFD204602B0C6
:103BC000BDE8F081052388F802306DE701290BD1AB
:103BD00098F8040030B198F801000721FDF76AFD5C
:103BE0000722CEE70222CCE703297FF45DAF98F8E5
:103BF00004403CB1072398F8010088F80230FDF733
:103C0000AFFDDBE70223DEE70024D7E70014002046
:103C100001140020A9170000021400209D170000C5
:103C2000891700000C1400200B4B00221A7170B988
:103C30009A78042A02D103229A707047072A09D180
:103C40001A7812F0040F14BF06220822F4E70A22A1
:103C50009A70D870704700BF00140020014B18689C
:103C6000704700BFCC0500200A44914200F1FF33A9
:103C700000D1704710B511F8014B03F8014F914284
:103C8000F9D110BD02440346934200D1704703F8B6
:103C9000011BF9E70FB40A4B13B51C6824B1A369E3
:103CA00013B9204600F06EF805AB049AA1680193A1
:103CB000204600F0C5F902B0BDE8104004B07047DE
:103CC000CC050020034613F8012B002AFBD1181A5B
:103CD00001387047002310B50446C0E90033C0E93D
:103CE0000433836081814366C2818361194608225F
:103CF0005C30FFF7C7FF054B6362054BA362054BC2
:103D0000E362054B2462236310BD00BFBD42000087
:103D1000DF420000174300003B430000014900F070
:103D2000AFB800BF1546000070B568234D1E5D4357
:103D30000E4605F1740100F0E5F8044640B100219B
:103D4000C0E900160C30A06005F16802FFF79AFF89
:103D5000204670BD014800F0B3B800BF4D140020EC
:103D6000014800F0AEB800BF4D140020014800F03B
:103D7000A7B800BF4E140020014800F0A2B800BF51
:103D80004E14002010B50446FFF7F0FFA3691BB1E5
:103D9000BDE81040FFF7F0BFC4E912332365134BB1
:103DA000134A1B68A262A34204BF0123A3612046F9
:103DB00000F020F86060204600F01CF8A06020466B
:103DC00000F018F80022E06004216068FFF782FF2D
:103DD000A06801220921FFF77DFFE068022212217D
:103DE000FFF778FF0123A361D2E700BF944F0000E3
:103DF0001D3D0000F8B50746FFF7ACFF1E4B1E68DF
:103E0000B36913B93046FFF7BDFF4836D6E9013430
:103E1000013B03D533680BB33668F7E7B4F90C50B0
:103E2000D5B9164BE36004F15800656600F047F819
:103E3000FFF796FFC4E90155C4E904552560A56163
:103E40000822294604F15C00FFF71CFFC4E90D5568
:103E5000C4E912552046F8BD6834D9E70421384634
:103E6000FFF762FF044630600028D5D1FFF778FFE6
:103E70000C233B60EEE700BF944F00000100FFFF02
:103E80002DE9F8430646884600F148040027D4E9A6
:103E90000195B9F1010905D52468002CF7D1384600
:103EA000BDE8F883AB89012B07D9B5F90E30013392
:103EB00003D029463046C04707436835E9E77047D5
:103EC0007047704770B50E4E0C463168054611B903
:103ED00000F0E4F930602146284600F0DFF9431C89
:103EE0000AD0C41C24F00304A04207D0211A28469B
:103EF00000F0D4F9013001D14FF0FF34204670BDFD
:103F0000541400202DE9F041CD1C25F0030508359F
:103F10000C2D38BF0C25002D074601DBA94205D921
:103F20000C233B6000263046BDE8F0812E4E00F0A9
:103F300077FC33681C4634BB29463846FFF7C2FF7E
:103F4000431C04464DD134682646002E40D12368D8
:103F50003146384604EB030800F0A0F980453AD119
:103F600023680335ED1A25F0030508350C2D38BFFD
:103F70000C2529463846FFF7A5FF01302BD02368D2
:103F80002B4423600EE02268521B1ED40B2A16D944
:103F90006119A342256018BF5960636808BF31608A
:103FA00062514B60384604F10B0600F03FFC26F0EE
:103FB0000706231DF21AB6D09B1BA350B3E7626815
:103FC000A3420CBF32605A60ECE723466468B2E754
:103FD00034467668B9E70C233B60384600F026FC8F
:103FE000A1E72560DEE700BF501400209368013B85
:103FF000002B10B4936008DA9469A34201DB0A290C
:1040000003D15DF8044B00F09DB91368581C106093
:10401000197008465DF8044B7047F8B506460F4620
:104020001446D518AC4201D1002007E014F8011B5A
:104030003A463046FFF7DAFF431CF3D1F8BDFFFFE5
:104040002DE9F04F0D469DB014469846064618B12E
:1040500083690BB9FFF796FE884B9D421BD17568AB
:104060006B6ED90705D4AB899A0502D4A86DFFF70A
:1040700027FFAB891B0701D52B69EBB929463046D1
:1040800000F0C4F9C0B16B6EDC070ED54FF0FF3005
:104090001DB0BDE8F08F7A4B9D4201D1B568DFE7D6
:1040A000784B9D4208BFF568DAE7AB899805EDD4F7
:1040B000A86DFFF706FFE9E70023099320238DF899
:1040C0002930CDF80C803023DFF8BC818DF82A3000
:1040D0004FF0010923469A4613F8012B0AB1252A0D
:1040E000F9D1BAEB040B0BD05B4622462946304689
:1040F000FFF793FF013000F0A980099A5A44099212
:104100009AF80030002B00F0A18000234FF0FF321E
:10411000CDE905230AF1010A049307938DF8533082
:104120001A935446052214F8011B574800F028FB47
:10413000049AD8B9D10644BF20238DF85330130711
:1041400044BF2B238DF853309AF800302A2B15D01A
:10415000079A544600204FF00A0C214611F8013B03
:10416000303B092B4DD9B0B1079214E0A0EB080306
:1041700009FA03F313430493A246D2E7039B191DE4
:104180001B680391002BBBBF5B4242F00202079306
:104190000793B8BF049223782E2B0CD163782A2B77
:1041A00034D1039B1A1D1B680392002BB8BF4FF03C
:1041B000FF3302340593DFF8E0A021780322504654
:1041C00000F0DEFA38B1049BA0EB0A0040228240E6
:1041D00013430134049314F8011B2C488DF8281064
:1041E000062200F0CDFA00283FD0294B1BBB039BD1
:1041F000073323F0070308330393099B3B440993D8
:1042000068E70CFB02320C460120A6E700230134CC
:10421000059319464FF00A0C204610F8012B303A4E
:10422000092A03D9002BC6D00591C4E70CFB012154
:1042300004460123F0E703AB00932A46154B04A97B
:104240003046AFF300800746781CD6D16B6ED90795
:1042500005D4AB899A0502D4A86DFFF732FEAB896D
:104260005B063FF513AF099812E703AB00932A46AC
:10427000084B04A9304600F099FBE4E7B84F000072
:10428000D84F0000984F0000F84F00000250000087
:10429000000000001B400000FE4F000038B5064D36
:1042A0000023044608462B60FDF772F8431C02D138
:1042B0002B6803B1236038BD5814002010B50C469C
:1042C000B1F90E1000F094FC0028ABBF636DA38918
:1042D0001B1823F48053ACBF6365A38110BD2DE987
:1042E000F0411F468B89DB0505460C46164605D571
:1042F000B1F90E100223002200F0C8F9A389B4F925
:104300000E1023F48053A38132463B462846BDE875
:10431000F04100F069B810B50C46B1F90E1000F08C
:10432000B5F9431CA38915BF606523F4805343F49A
:104330008053A38118BFA38110BDB1F90E1000F006
:10434000D3B8FFFFF8B50E461446054618B1836989
:104350000BB9FFF717FD214B9C422BD16C68A36969
:10436000A360A3891A072FD523696BB3236920683B
:10437000C01A6369F6B28342374604DC21462846F8
:1043800000F048F930BBA368013BA36023685A1CC6
:1043900022601E7063690130834204D0A389DB0769
:1043A00006D50A2E04D12146284600F033F988B9F3
:1043B0003846F8BD0A4B9C4201D1AC68CFE7094BA7
:1043C0009C4208BFEC68CAE72146284600F01EF868
:1043D0000028CBD04FF0FF37EAE700BFB84F00000E
:1043E000D84F0000984F000038B5074D04460846E6
:1043F000114600222A601A46FDF79DF8431C02D19F
:104400002B6803B1236038BD58140020324B70B5BF
:104410001D6806460C4625B1AB6913B92846FFF75F
:10442000B1FC2E4B9C420FD16C68A389B4F90C20CF
:1044300019072CD4DD0611D40923336042F0400360
:10444000A3814FF0FF303EE0254B9C4201D1AC6888
:10445000EBE7244B9C4208BFEC68E6E7580712D50F
:10446000616B41B104F14403994202D0304600F03F
:10447000E3F900236363A38923F02403A3810023CA
:10448000636023692360A38943F00803A381236940
:104490004BB9A38903F42073B3F5007F03D0214601
:1044A000304600F02BF9A089B4F90C2010F001037C
:1044B0000AD00023A36063695B42A361236943B907
:1044C00010F08000BAD170BD810758BF6369A36046
:1044D000F4E70020F7E700BFCC050020B84F00004C
:1044E000D84F0000984F000038B5064D0023044611
:1044F00008462B6000F0B0FB431C02D12B6803B1CF
:10450000236038BD581400208A892DE9F041054602
:1045100010070C4658D44B68002B05DC0B6C002BA5
:1045200002DC0020BDE8F081E66A002EF9D000230D
:1045300012F480522F68216A2B6032D0606DA389FB
:104540005A0705D56368C01A636B0BB1236CC01A98
:1045500000230246E66A216A2846B047431CA38925
:1045600006D129681D292BD8294A0A41D60727D404
:1045700000226260D9042269226004D5421C01D164
:104580002B6803B96065616B2F600029C9D004F105
:104590004403994202D0284600F04EF9002060639F
:1045A000C0E701232846B047411CC8D12B68002B27
:1045B000C5D01D2B01D0162B01D12F60B1E7A389E7
:1045C00043F04003A381ADE70F69002FA9D0930703
:1045D0000E6808BF4B690F6018BF0023A6EB0708E1
:1045E0008B60B8F1000F9CDD216AA66A43463A460B
:1045F0002846B047002806DCA38943F04003A38186
:104600004FF0FF308EE70744A8EB0008E9E700BF52
:10461000FEFFBFDF38B50B6905460C4613B9002510
:10462000284638BD18B183690BB9FFF7ABFB144BB3
:104630009C421BD16C68B4F90C30002BEFD0626E39
:10464000D00704D4990502D4A06DFFF739FC2846A1
:104650002146FFF759FF636EDA070546E0D4A389C8
:104660009B05DDD4A06DFFF72CFCD9E7054B9C42E0
:1046700001D1AC68DFE7044B9C4208BFEC68DAE785
:10468000B84F0000D84F0000984F000038B5074DD4
:1046900004460846114600222A601A4600F0F4FA41
:1046A000431C02D12B6803B1236038BD581400208D
:1046B00070B50C46B1F90E10002996B015461E468D
:1046C0000DDAA38913F0800F4FF000010CBF4FF4F7
:1046D00080634023002031602B6016B070BD6A46B5
:1046E00000F098FA0028ECDB019901F47041A1F583
:1046F0000053594259414FF48063EBE78B8973B5FE
:104700009D0706460C4607D504F147032360236145
:104710000123636102B070BD01AB6A46FFF7C8FFB9
:10472000009905463046FFF7EDFB48B9B4F90C3067
:104730009A05EFD423F0030343F00203A381E3E7D8
:104740000D4BB362A389206043F08003A381009BDB
:104750006361019B20615BB1B4F90E10304600F03B
:104760006BFA28B1A38923F0030343F00103A3816B
:10477000A3891D43A581CDE71D3D0000FFFFFFFF7D
:1047800001F0FF01102A2BDB10F0070F08D010F802
:10479000013B013A8B422DD010F0070F42B3F6D106
:1047A000F0B441EA012141EA014122F007047FF01F
:1047B00000070023F0E80256083C85EA010586EA76
:1047C000010685FA47F5A3FA87F586FA47F6A5FAB2
:1047D00087F68EB9EED1F0BC01F0FF0102F00702BE
:1047E00032B110F8013B013A83EA010313B1F8D169
:1047F0000020704701387047002D06BF354603384A
:10480000073815F0010F07D1013015F4807F02BF82
:10481000013015F4C03F0130F0BC0138704700BFD3
:104820000148FFF74DBB00BF4C1400200148FFF7C3
:1048300048BB00BF4C14002037B5002944D051F8C4
:10484000043C0190002BA1F10404B8BFE418FFF769
:10485000E7FF1E4A0198136833B96360146003B020
:10486000BDE83040FFF7E2BFA34208D925686119CF
:104870008B4201BF19685B6849192160EDE71A4650
:104880005B680BB1A342FAD911685518A5420BD148
:10489000246821445418A3421160E0D11C685B686D
:1048A00053600C441460DAE702D90C230360D6E7A6
:1048B000256861198B4204BF19685B68636004BF97
:1048C000491921605460CAE703B030BD501400207C
:1048D0002DE9F047164699468A680B69DDF8208075
:1048E0009342B8BF1346336091F8432007460C4605
:1048F0000AB1013333602368990642BF336802333B
:104900003360256815F0060506D104F1190AE3683D
:1049100032689B1AAB4226DC94F84320131E2268AF
:1049200018BF012392062BD404F1430249463846AE
:10493000C04701301ED02368226903F00603042B10
:1049400002BFE5683368ED1AA3680CBF25EAE57578
:1049500000259342C4BF9B1AED1800261A34B542B5
:104960001AD1002008E00123524649463846C04784
:10497000013003D14FF0FF30BDE8F0870135C6E7C5
:10498000E1185A1C302081F84300224494F8451065
:1049900082F843100233C7E70123224649463846CE
:1049A000C0470130E6D00136D9E7FFFF2DE9FF47C8
:1049B0000F7E0C9D782F914680460C469A4601F159
:1049C000430207D8622F0AD8002F00F0D480582F56
:1049D00000F0C08004F1420584F842703AE0A7F18B
:1049E0006303152BF6D801A151F823F0454A0000C6
:1049F000594A0000D5490000D5490000D5490000BA
:104A0000D5490000594A0000D5490000D5490000A9
:104A1000D5490000D54900005D4B0000854A0000E3
:104A2000174B0000D5490000D54900007F4B00001E
:104A3000D5490000854A0000D5490000D54900004D
:104A40001F4B00002B681A1D1B682A6004F14205E9
:104A500084F8423001239FE020682B68070603F1A9
:104A60000401296001D51E6803E04606FBD5B3F9B1
:104A70000060002E03DA2D23764284F843305A4832
:104A80000A2312E02B682068191D2960050601D54C
:104A90001E6802E04106FBD51E8853486F2F0CBFED
:104AA00008230A23002184F843106568A560002DBF
:104AB000A2BF216821F0040121600EB9002D4BD066
:104AC0001546B6FBF3F103FB1167C75D05F8017DE1
:104AD0003746BB420E46F4D9082B0BD12368DE07BC
:104AE00008D5236961689942DEBF302305F8013C8F
:104AF00005F1FF35521B2261CDF800A04B4603AAF9
:104B000021464046FFF7E4FE01304AD14FF0FF3026
:104B100004B0BDE8F087236843F0200323603348E6
:104B2000782784F84570236829681F0651F8046BBC
:104B300002D45F0648BFB6B2DF0748BF43F0200388
:104B4000296048BF23601EB9236823F02003236037
:104B50001023A7E72448E4E71546BDE72B6826683D
:104B60006169181D286035061B6801D5196002E0CF
:104B70007006FBD51980002323611546BCE72B681E
:104B80001A1D2A601D68626800212846FFF7F8FD9B
:104B900008B1401B606063682361002384F84330E0
:104BA000AAE723692A4649464046D0470130ADD09E
:104BB00023689B0713D4E068039B9842B8BF18464C
:104BC000A6E70123324649464046D04701309DD0F2
:104BD0000135E36803995B1AAB42F2DCEBE7002591
:104BE00004F11906F5E700BF095000001A50000053
:104BF00038B5074D04460846114600222A601A4679
:104C0000FCF79DFC431C02D12B6803B1236038BD27
:104C10005814002038B5074D0023044608461146B5
:104C20002B6000F021F8431C02D12B6803B12360F4
:104C300038BD00BF5814002038B5064D0023044687
:104C400008462B6000F018F8431C02D12B6803B112
:104C5000236038BD58140020024B58221A604FF0D0
:104C6000FF30704758140020024B58221A604FF052
:104C7000FF30704758140020024B58221A60002061
:104C8000704700BF58140020024B58221A604FF0A2
:104C9000FF307047581400205FF800F07D000020BE
:104CA0005FF800F0110300205FF800F039010020E8
:104CB0005FF800F0010000205FF800F07D010020A7
:104CC0005FF800F08F0000205FF800F0B9000020CE
:104CD0005FF800F0390400204275696C7420776930
:104CE00074682052656E6573617320416476616EED
:104CF00063656420466C657869626C6520536F66F5
:104D00007477617265205061636B616765207665B9
:104D10007273696F6E20332E362E3000332E362E8E
:104D2000300000000000060339290000A728000019
:104D30005B050000CB280000B92800003105000009
:104D40000100020008001000020403040404FFFF35
:104D500009000000584D0000000001130704000086
:104D60000000011300050000000001130105000010
:104D7000000001020B010000040000000F0400000D
:104D8000040000000404000004000000000400000F
:104D90000000000005000000000000000600000008
:104DA0003334313200000000000000000000000039
:104DB00000000000000000000000000000000000F3
:104DC000446F776E6C6F616420636F6D706C657497
:104DD00065642C20656E746572206D616E69666510
:104DE00073746174696F6E0D0A00486F737420618B
:104DF000626F72746564207472616E736665720DA1
:104E00000A00486F7374206465746163682C2077AE
:104E1000652073686F756C642070726F6261626C7C
:104E200079207265626F6F740D0A00FF0000000048
:104E30000D1600000000000000000000020702083C
:104E40000100000000000000000000000000000061
:104E50000000000000000000000000000000000052
:104E60000000000000000000000000000000000042
:104E70000200000096980000010000004B4C00006A
:104E800003FF00000000000000000000404E000092
:104E900041726475696E6F0053616E746961676F0A
:104EA000204446550040436F6465466C617368203A
:104EB0002F307830303030303030302F31322A32AD
:104EC0004B612C3131362A324B67004044617461AA
:104ED000466C617368202F30783038303030303095
:104EE000302F382A314B670009040902660003019C
:104EF0000080320904000000FE01020409040001E0
:104F000000FE010205092107E80340000101080B2A
:104F1000010202020000090401000102020004056E
:104F200024002001052401000204240202052406B5
:104F300001020705810308001009040200020A00AB
:104F40000000070502024000000705820240000041
:104F500012010002EF020140412369030001010236
:104F60000301FFFF71360000C5360000F536000072
:104F7000993700005538000000000000A1390000FA
:104F800091390000A93900001D3A0000000000001E
:104F900000000000D005002000000000000000001C
:104FA0000000000000000000000000000000000001
:104FB00000000000000000000000000000000000F1
:104FC00000000000000000000000000000000000E1
:104FD00000000000000000000000000000000000D1
:104FE00000000000000000000000000000000000C1
:104FF0000000000000000000232D302B2000686C12
:105000004C006566674546470030313233343536EB
:105010003738394142434445460030313233343524
:0B502000363738396162636465660052
:10502B0010B5431E19440B4B93F804416FF3000466
:10503B0083F80441040C80B2A3F81041D2B2A3F858
:10504B000801080C89B2C3F82001A3F8181183F8E2
:10505B00142110BD00C07E4082B00F4B0190D3F8DD
:10506B002C2151060FD5002283F814210190D3F87F
:10507B002C21C2F38010520608D5019A2AB1019A4D
:10508B00013A0192F3E7019A12B9142002B070476A
:10509B00019A013A0192E2E700C07E40484303289F
:1050AB0004D98008A0F101000028FBD17047094BFF
:1050BB00A522C3F88021C243D2B283F8000183F842
:1050CB00002183F8000193F80031834200D100BF27
:1050DB00704700BF00C07E4073B51D4EB6F8B24F8F
:1050EB00A4B24FF49643012C0546019309D19220AB
:1050FB00FFF7DDFF0320A968FFF7D0FF1220FFF7B2
:10510B00D6FF0820FFF7D3FFA96806204FF42A43E8
:10511B00FFF7C4FFA6F8B23FB6F8B20F80B270B972
:10512B00012C0AD10B4BA3F80441B3F8040180B254
:10513B000028FAD10122A3F8002102B070BD019B17
:10514B001BB1019B013B0193E6E71420F5E700BF80
:10515B0000F07E4000C0014010B5002380F83430D1
:10516B000C4BB3F8B23F9BB204460BB900F020FADC
:10517B00094BD3F8242142F00102C3F82421D3F8C0
:10518B0024216FF30002C3F824212046BDE8104010
:10519B00A2E700BF00F07E4000C07E40F8B5054698
:1051AB00084616461F46FFF757FF1428044604D13E
:1051BB002846FFF7D1FF2046F8BD054BD3F8F04149
:1051CB003440F8D02846FFF7C7FF3C46F3E700BF53
:1051DB0000C07E4010B50023934200D110BDCC5CC3
:1051EB00C4540133F8E738B51D4B0022A3F8002156
:1051FB0043681A7804467AB193F9113001215A09A0
:10520B0003F01F03994002F12003164A42F82310C2
:10521B00BFF34F8FBFF36F8F134B4AF60122A3F8E7
:10522B00B22F1220FFF743FF104BA1680320FFF7AB
:10523B0035FF93F8A03003F00303002B0BBF822143
:10524B00C2219220D2200CBF06250425FFF72FFF89
:10525B000846FFF72CFFA1682846BDE838401DE73C
:10526B0000C0014000E100E000F07E4000E00140A2
:10527B0082B00F4B0190D3F82C2111060FD50022D1
:10528B00C3F8DC210190D3F82C21C2F3C010120615
:10529B0008D5019A2AB1019A013A0192F3E7019AD2
:1052AB0012B9142002B07047019A013A0192E2E759
:1052BB0000C07E4038B50546406AFFF7D9FF142879
:1052CB00044604D12846FFF747FF204638BD054B5F
:1052DB00D3F8F04114F01204F7D02846FFF73CFF47
:1052EB001824F2E700C07E40F8B5054614460F4679
:1052FB001E46FFF778FF214683223846FFF790FEC4
:10530B000334A969A4084FF4FC73102261432846A7
:10531B00FFF744FF48B9054BD3F82831C3F3C0035B
:10532B0033702846BDE8F840D6E6F8BD00C07E4095
:10533B00F8B5044615460E461F46FFF754FF0D4BB6
:10534B0093F804216FF3000283F8042107FB05F1A6
:10535B0084223046FFF764FEE16919231122694369
:10536B002046FFF71BFF18B92046BDE8F840B3E60F
:10537B00F8BD00BF00C07E402DE9F84F894680463E
:10538B009246FFF730FF214C4D4683274FF6FF7BAC
:10539B0094F8043143F0010384F80431BAF1000F9F
:1053AB001DD1C4F830B1C4F838B1C4F8DC71404633
:1053BB00FFF780FF94F804316FF30003013784F893
:1053CB000431064618B9872F05F10405E0D1404694
:1053DB00FFF782FE002E18BF3046BDE8F88F6A78C3
:1053EB002B7843EA0223C4F83031BB00B3F5067FB8
:1053FB000DBFB9F80E30EA78AB784AEA030318BF51
:10540B0043EA0223C4F83831CFE700BF00C07E4027
:10541B0013B5104C0B0C89B2A4F810310822A4F868
:10542B00081101466846FFF7D5FEBDF80030C4F8F9
:10543B003031BDF80230C4F83831BDF80430C4F84F
:10544B004031BDF80630C4F84431812384F814315F
:10545B0002B010BD00C07E40F8B5044617460E469C
:10546B001D46FFF7C0FEC4E90A67154AED08256320
:10547B0092F804316FF3000382F804310025236B9B
:10548B00BBB10DB12846F8BDD4E90A01FFF7C0FF47
:10549B00A36A21690833A362E36A0833E362236BCF
:1054AB00013B2363122218232046FFF777FE0546A4
:1054BB00E5E7002DE6D12046FFF70EFEE2E700BF41
:1054CB0000C07E400C4B5AB9C0F38F20C1F38F2123
:1054DB00C3F830018222C3F83811C3F8DC217047BE
:1054EB0040F47E404FF6FF7240F0FF00C3F83821C6
:1054FB00C3F830018122F0E700C07E40F8B51746B3
:10550B0006460C46154DFFF76EFE6FB1D5F8D83138
:10551B0064F38713C5F8D83100243046FFF7DCFD60
:10552B00002C18BF2046F8BD95F80431E44343F036
:10553B00010304F0010485F80431200201223946ED
:10554B00FFF7C0FF3046FFF7B5FE95F8043167F360
:10555B000003044685F80431DFE700BF00C07E403E
:10556B0073B5114E019205460C46FFF73CFE96F8BB
:10557B00043143F0010386F80431019900222046DF
:10558B00FFF7A0FF2846FFF795FE96F804316FF35F
:10559B000003044686F804312846FFF79DFD002CD6
:1055AB0018BF204602B070BD00C07E400000000056
:1055BB005FF800F08D1B0000E84E0000904E0000DD
:1055CB00984E00002C110020A54E0000CB4E000081
:1055DB00612A0000B411002010000C000000E0FF55
:1055EB001F00000000000000FF000000D00500209D
:1055FB0000000000B84F0000D84F0000984F00008B
:10560B00000000000000000000000000000000008F
:10561B00000000000000000000000000000000007F
:10562B00000000000000000000000000000000006F
:10563B00000000000000000000000000000000005F
:10564B00000000000000000000000000000000004F
:020000040101F8
:10001800FFFFFFFFFFFFFFFFFFFFFFFFFFFFFFFFE8
:0C002800FFFFFFFFFFFFFFFFFFFFFFFFD8
:0400000300000F8D5D
:00000001FF
