:10000000A0390020351F000015070000E906000098
:10001000E9060000E9060000E9060000E906000024
:10002000000000000000000000000000E9060000E1
:10003000E906000000000000E9060000910700004A
:1000400071180000CD1C0000D11C0000D51C000060
:10005000B508000099090000FD140000D90900004E
:100060000000000000000000000000000000000090
:100070000000000000000000000000000000000080
:100080000000000000000000000000000000000070
:100090000000000000000000000000000000000060
:10040000FFFFFFFFDFCEFFFFFCFFFF00FFFFFF004E
:10041000FCFFFF00FFFFFF00FCFFFF00FFFFFF00EE
:10042000FCFF0F20FFFF0F20FCFF7F40FFFF7F40FE
:10043000FCFF0D40FFFF0D40FFFFFFFFFFFFFFFF31
:10044000FFFFFFFFFFFFFFFFFFFFFFFFFFFFFFFFBC
:10045000FFFFFFFFFFFFFFFFFFFFFFFFFFFFFFFFAC
:10046000FFFFFFFFFFFFFFFFFFFFFFFFFFFFFFFF9C
:10047000FFFFFFFFFFFFFFFFFFFFFFFFFFFFFFFF8C
:10048000FFFFFFFFFFFFFFFFFFFFFFFFFFFFFFFF7C
:10049000FFFFFFFFFFFFFFFFFFFFFFFFFFFFFFFF6C
:1004A000FFFFFFFFFFFFFFFFFFFFFFFFFFFFFFFF5C
:1004B000FFFFFFFFFFFFFFFFFFFFFFFFFFFFFFFF4C
:1004C000FFFFFFFFFFFFFFFFFFFFFFFFFFFFFFFF3C
:1004D000FFFFFFFFFFFFFFFFFFFFFFFFFFFFFFFF2C
:1004E000FFFFFFFFFFFFFFFFFFFFFFFFFFFFFFFF1C
:1004F000FFFFFFFFFFFFFFFFFFFFFFFFFFFFFFFF0C
:10050000044A138D03F00F038342FAD1538D9B04E9
:10051000FCD570470000094022F0010330B50344C8
:1005200004469C4209D1D30706D522F001020B787C
:10053000825C62F307030B7030BD34F8025B0D8000
:10054000EFE70244904200D170470B7800F8013B7E
:10055000F8E7FFFF2DE9F04F98460C23174E03FBF9
:1005600008F385B0894606EB030A01A9F35815463E
:1005700007469847BDF80440DAF808B00298AC4244
:1005800028BF2C4622464946D8472C1B0AD0BDF826
:1005900006A00398A24528BFA24652464946D8471E
:1005A000A4EB0A040C2303FB0866291B736889B2B9
:1005B0003846984705B0BDE8F08F00BFBC34000056
:1005C000F8B5174CE5882DB925706570A570E570F4
:1005D0000120F8BD134BB3F85E7007F07F07BD42F2
:1005E0002E4628BF3E4646B1637A2068DB0710D509
:1005F0000D4901233246FFF7ADFFBE423CBF094B18
:100600004FF40042A5EB060538BF5A840020E58070
:10061000DFE705493246FFF77FFF30442060ECE713
:100620000431002000000940140009402DE9F8437E
:10063000204D0C274743E9198046CC8834B9EC5546
:1006400001204C708C70CC70BDE8F8831A4B82B2DC
:1006500042F480661E85A3F86420B3F86C901FFAFC
:1006600089F9FFF74DFF4C45264628BF4E4646B157
:100670004B7AE859DB0716D5104901233246FFF7BC
:1006800069FF0D4A4E453CBF4FF40043538500239C
:100690001385138D13F00F00FBD10C2303FB0855BA
:1006A000A41BEC80D0E705493246FFF735FF304404
:1006B000E851E6E704310020000009401800094035
:1006C00010B9024B01221A60704700BF00E100E040
:1006D00038B9044B0122C3F88020BFF34F8FBFF31A
:1006E0006F8F704700E100E000BE7047064B93F843
:1006F00026101A6A054B53F82130C2F30262D34028
:10070000034A1360704700BF00E0014080060020EC
:1007100070300020034AB2F840319BB2A2F8303169
:10072000704700BF00600040EFF31080012383F3A7
:100730001088064B196819B9054AD1704021D1704B
:100740001A6801321A6080F310887047900F0020F9
:10075000000D0440EFF31081012383F31088074B51
:100760001A6812B11A68013A1A601A681AB9044B69
:10077000DA708022DA7081F310887047900F0020C1
:10078000000D0440EFF30380103840B27047FFFFC4
:10079000024A136801331360704700BF6C300020B9
:1007A000BFF34F8F0549064BCA6802F4E06213435A
:1007B000CB60BFF34F8F00BFFDE700BF00ED00E04F
:1007C0000400FA050379042B09D1084B1A683F2A63
:1007D0000AD81A68511C1960054B017A995403799B
:1007E000012B04BF034A1370704700BFE82F00209D
:1007F000A52F0020A42F0020064B074A1B6A126871
:10080000C3F30261C3408A4003F0070322FA03F0F6
:10081000704700BF00E00140703000200B4B00F13A
:10082000C00253F822106FF3104143F8221000F079
:100830001F0301229A4043099B0003F1604303F523
:100840006143C3F880211A60704700BF0060004018
:100850004309064900F01F0020330122824041F87D
:100860002320BFF34F8FBFF36F8F704700E100E08D
:10087000F0B5846A85B006468C4617466D46B4B11D
:1008800094E80F0085E80F00F3691B782360C4F833
:1008900008C02771F36AE3602046736A9847B46A18
:1008A0001CB195E80F0084E80F0005B0F0BD2C46A0
:1008B000EAE7FFFF38B5FFF765FF344B00F1C002F0
:1008C00053F822106FF3104143F82210304B53F8C5
:1008D0002000C3691B6903BB0269036A62B9026A2B
:1008E000937803F07F0343F004039370436A00217D
:1008F000C160002B44D138BD0278002A29D0DB8AA0
:10090000244CC3F304230278016A9A4201D9026994
:100910003AB90B796FF3C7130B710369002BEAD156
:10092000DDE78278C56802F00302022A0DBF2A883B
:100930002A78CA73224304BF92B2CA8182780169BD
:1009400002F00302891A0161C1681144C1600133D8
:10095000D9E78278C16802F00302022A0DBF0A8833
:100960000A78DA7042F47E4208BFDA81837802693D
:1009700003F00303D21A0261C2681A44C260CCE7D2
:10098000BDE838408022FFF773BF00BF0060004021
:10099000EC2F002000FEFFFF10B5FFF7F3FE0C4B1D
:1009A000044653F82000026A937803F07B039370A7
:1009B000436A1BB102220021FFF75AFF054BC034E6
:1009C00053F824206FF3104243F8242010BD00BFD9
:1009D000EC2F00200060004038B5FFF7D3FE164B27
:1009E000044653F820000278036A22B9827802F0A4
:1009F0000302022A1DD1198AC1F308011D7905F0ED
:100A00003802ED0604D51D7FED0758BF42F04002C5
:100A10001D7905F0C7051D71436A0BB1FFF728FF6B
:100A2000064BC03453F824206FF3104243F82420BF
:100A300038BD5979C9B2E1E7EC2F002000600040D1
:100A4000062070470620704778B10268094B9A4229
:100A50000DD190F90430084AC033002052F8231019
:100A60006FF3186142F82310704701207047072088
:100A7000704700BF004354440060004058B3026810
:100A8000164B9A4225D131B390F90420144B53F8F8
:100A900022300022C1E90022DA783F2A12D94FF42D
:100AA00080728A60DA89D2B2CA60DA7802F0C00253
:100AB000802A05D14FF480320A609B899BB24B603B
:100AC000002070474FF480328A60DB899BB2CB6094
:100AD000F6E7072070470120704700BF00435444E9
:100AE000000000200346A8B101680C4A914213D1CE
:100AF00090F904200A49C03251F822006FF31860BF
:100B000041F82200074A93F90410002042F821001E
:100B10001860704701207047072070470043544415
:100B2000006000400000002010B50B46DA783F2A34
:100B300082BFDA89D2B242EA02221C4688BFDA8139
:100B4000A2783F2A03F11003F0D8054B08221A704F
:100B500090F90400034A42F8201018221A7010BDC0
:100B60000054004000000020C37803F00C02042A67
:100B700011D0827802F00C0104290CD03F2B04D94B
:100B8000C3899BB2B3F5807F07D83F2A00F11000DC
:100B9000EAD8002070470620704701207047C389BB
:100BA00011FA83F19AB289B28A4202D883898B42C0
:100BB00002D24389194489B2C1817047038A11FA6C
:100BC00083F19AB289B28A4202D883898B4202D2D7
:100BD0004389194489B20182704730B5C489038AB8
:100BE000A4B29BB29C4238BF4589A4EB030292B2E7
:100BF00038BF521B858838BF92B2954220D2A54299
:100C000012D943892B44E31A9BB20382038A2A46F2
:100C10009BB29D421FD90568A3421D444D601DD261
:100C200000230A804B800EE08289631B9BB29A42AC
:100C30003EBF42899B1A9BB20382038A2A469BB21B
:100C400032B9C1E9002200238B6030BD641BA4B21D
:100C5000A542FBD9DDE75B1B9BB2DAE78488121B58
:100C6000E51A13440D804B800368EDE770B5C38926
:100C7000048A85889BB2A4B2A34238BF4689A3EBFD
:100C8000040292B23CBF921B92B2AA1A92B232B93B
:100C9000C1E9002200238B6070BD5B1B9BB2AB429D
:100CA000FBD2AC4209D205689C421D444D6007D975
:100CB000E41A00230C804B80ECE7641BA4B2F0E73D
:100CC0008488121BE51A13440D804B800368E2E709
:100CD0000028024818BF0020704700BFF83300000A
:100CE000024B02225A8000221A717047AC0E00207B
:100CF000024B00221A80FFF7F3BF00BFAC0E0020AA
:100D00000020FFF7F5BFFFFF70B500238D78184670
:100D10008C79012C20D04B78212B22D1154B8A784D
:100D20001A70B1F80530402B06D94FF0E023D3F804
:100D3000F03DDB0700D500BE093080B219E08C78A9
:100D4000AC420ED1CE78DCB2A6420AD10C78204457
:100D500080B221440133DBE7CC79022CDBD1904215
:100D6000EDD34FF0E023D3F8F03DDA0700D500BE15
:100D7000002070BDAC0E0020F8B5394D05EBD01346
:100D8000144693F82720D20706464FEAD01708D515
:100D90004FF0E023D3F8F03DDB0700D500BE002084
:100DA0004BE093F82720FF2042F0010283F8272030
:100DB000FFF78EFC2B4B56B34FF484621A841A8CC7
:100DC0009606FCD5284A507A94806FF30000507242
:100DD000D480002C3BD01160B3F8602010042DD4D7
:100DE0004FF0E023D3F8F03DDA072ED4FF20FFF7D1
:100DF00067FCEB1993F827206FF3000283F8272094
:100E000093F827206FF3820283F82720C0E71E841F
:100E10001A8C12F02002FBD1134B587A9C8062F39B
:100E200000005872DC8094B119600E4B0122FF2043
:100E3000A3F86020FFF744FC0120F8BDB3F854305C
:100E40001906CDD5FFF7BCFBEFE700BECEE7064B9A
:100E500000221A705A709A70DA70024B0522E6E787
:100E6000500F00200000094004310020084B0022F0
:100E70001A719A78042A02D103229A707047072ABD
:100E8000FCD11A7812F0040F0CBF08220622F4E7F6
:100E9000AC0E002008B50378012B06D103490B885E
:100EA0001BB1FFF7E3FF00230B8008BD8C0F002070
:100EB000EFF31080012383F310880A4A53889BB212
:100EC0004BB90949B1F8FE339BB243F4254343F0D3
:100ED0000203A1F8FE33538801339BB2538080F3A1
:100EE00010887047A006002000E00140EFF3108159
:100EF000012383F310880C4A53889BB21BB153889B
:100F0000013B9BB2538053889BB24BB9074AB2F85E
:100F1000FE339BB223F0020343F42543A2F8FE33D1
:100F200081F31088704700BFA006002000E0014058
:100F30002DE9F8430025B0F800E02C462B464FF091
:100F400001089E450DD8FFF7B3FF144B93F8BB245F
:100F5000144324EA050483F8BB44BDE8F843FFF7D3
:100F6000C5BF4168DFF838C001EBC3010022B1F80A
:100F700004903CF8026BB1450AD10F6808FA02F6FA
:100F800007F0B857F6B2B7F1807F0CBF3443354352
:100F90000132032AEDD10133D3E700BF00E0014065
:100FA00010340000030143EA801040F4847040F0E4
:100FB00001007047031E0DDB03F1604202F5614240
:100FC0000901C9B282F80013034A044942F8231008
:100FD000FFF724BC704700BFEC2F0020E430002056
:100FE00030B48368F3B10368E3B14468D4B12368D3
:100FF000C3B16468B4B10D4C0A60257815B102F133
:101000000C050D60E469647834B9DC78012565F37A
:1010100005140B32DC700A60836830BCD0E9000133
:101020001B681847012030BC704700BF7C3000208F
:1010300038B50D4604460846FFF70AFC0A4B05F191
:10104000C002240153F822106FF3104143F822101C
:1010500005F1604303F56143E4B283F80043034BB9
:10106000034A43F8252038BD00600040EC2F0020E3
:101070007C300020084B1A68084B9A4209D1084B73
:10108000B3F8B20F00F08100003818BF0120C00093
:1010900070470720704700BFAC3000204E45504FCE
:1010A00000F07E4010B580B179B10B4B0B4A5C6803
:1010B00094420CD19B7803F00303022B09D108431F
:1010C00010F0010018BF032010BD0120FCE707202D
:1010D000FAE70020F8E700BF7C3000205549435371
:1010E00030B51A4DAB686D685C6E2D78032D06D84F
:1010F000013490B1844210D90138086024E008B16D
:101100008442FAD85B6BD50754BF03F01F03C3F3C7
:1011100004431B0983F001030BE05B6BD20754BF50
:1011200003F01F03C3F3044303F00C031A1F5342DD
:10113000534118B933B12CB1032304E0A042FBD3CF
:10114000002BF9D002234B6030BD00BFE4300020FB
:101150002DE9F34101F00307032F80460D4607D028
:101160002F4B5A681278062A01F00C0103D129B9D5
:1011700002B0BDE8F08109B1032AF9D11968294A02
:101180009142F5D19E68736E01334345F0D34FF021
:10119000FF3400232A4669464046CDE90043FFF765
:1011A0009FFF019A346B8AB915F0080F0CBF022318
:1011B0000423A8075BBFDB19123306EB830306EB9E
:1011C000830300994ABFD964596019656B060BD532
:1011D000336C012F43F48003336411D1019B24F05D
:1011E000407444EA036411E0012F11D1022DF5D1BE
:1011F000002AF3D0012269464046FFF771FFEDE770
:1012000024F4403444EA0244002FE7D13463AFE7CA
:1012100024F44034022D44EA0244E9D0F4E700BF4C
:10122000E43000205450470070B5234C0646FFF7C9
:1012300039FF236918430D4617D1226A937803F0CA
:101240007B03937023788BB9A17801F003016D1AA9
:101250003144C4E90315E06903694BB9226A937804
:1012600043F0800393702378C3B170BD3146F0E73B
:10127000002DF3D0A37803F00303013B25FA03F319
:101280000022B3F5803F2261EFD8006985680068CD
:10129000AD689BB2A8470028E0D0E6E7A378226AB1
:1012A00003F00303022B0DBF33883378D37043F46C
:1012B0007E4308BFD381D8E77C3000201FB50F4B99
:1012C0001A680F4B9A42044616D14FF48163ADF869
:1012D0000C3001230290ADF80030684602AB019358
:1012E000FFF726FEFFF720FA064BC3F8204104B0B3
:1012F000BDE81040FFF72EBA04B010BD74300020D6
:1013000054524F5000080440C0430022114600F0E0
:101310008000FFF731BDFFFF10B40346064C0068A4
:101320005968224603C20022C4E9022218785DF8F7
:10133000044BFFF7E9BF00BF3C0F002070B5194B0D
:1013400053F8202001464FF0FF36D37803F00C000D
:10135000042822D0947804F00C0004281DD0506892
:10136000E8B19068D8B19568C3F3011306FA03F3A6
:101370009D436FEA030012D1536818400FD13F2CF0
:1013800002F11002E1D8084C01F1C00354F8232007
:1013900042F0807244F8232070BD0620FCE7012053
:1013A000FAE700BF000000200060004038B50D469D
:1013B000044608B9012038BD0268184B9A422AD168
:1013C0000029F7D00846FFF7CFFB0028F2D194F9A7
:1013D0000430134AC03352F8231060F3186142F806
:1013E000231094F904300F49C03352F82330C3F36B
:1013F000080343F40043CA8992B29342FBD02946C2
:101400002046FFF791FB94F90400FFF797FF0028AF
:1014100018BF1320CFE70720CDE700BF0043544497
:10142000006000400054004013B501910092002874
:1014300048D00168254A914246D190F904202449B8
:10144000C03251F822406FF3186441F8224090F9FD
:101450000420204CC03251F82220C2F3080242F48A
:101460000042E18989B29142FBD0082222700199A1
:10147000194A29B190F90410019C52F821104C60CE
:10148000009929B190F90410009C52F821108C6049
:1014900090F9041052F82120D17801F0C004802C7A
:1014A0000CD193810B4B18221A7090F90400FFF7AE
:1014B00045FF002818BF132002B010BD3F2998BF78
:1014C000D381EFE70120F7E70720F5E70043544415
:1014D00000600040005400400000002038B1026865
:1014E000054B9A4205D190F90400FFF727BF012070
:1014F00070470720704700BF0043544413B5FFF7FF
:1015000041F92D4B00F1C00253F822106FF3104146
:1015100043F82210294B53F82040E369DB6813B1EC
:10152000A369002B3BD12278236ACAB1DA8AD2069A
:1015300011D0198AC1F30801A3690191C3B9636A83
:101540001BB104222046FFF793F9237833B1236AB5
:10155000DB8ADB06E7D1236ABE221A7102B010BD16
:10156000A27802F00302022AE3D05979C9B2E3E774
:10157000A278606902F0030201A901F0F5FBA378EB
:101580006269A16903F003031A44C91A6261A16187
:101590000029DAD1636A002BD7D00122D2E7636A2F
:1015A0000021C4E90511002BD8D00122204602B049
:1015B000BDE81040FFF75CB900600040EC2F002050
:1015C00038B5C589028AADB292B2AA42A5EB020330
:1015D00088BF42899BB288BF9B1A828888BF9BB212
:1015E0009A42044619D1007AB8B938BD801A80B23F
:1015F0009042FBD22368E28802FB003001F0B4FB8A
:101600006B1C9BB29D4202D8A2899A4202D2628987
:1016100013449BB2E3810120E7E72846E8E7FFFF98
:1016200010B5114B9989DA8993F900008C1AA4B28C
:10163000402C28BF402400280DDA914211D099682F
:101640000A48224601F090FB802008492246BDE866
:101650001040FFF791BB91424FF00000F5D10146D9
:10166000F4E780200021F1E73C0F0020FC0E002071
:1016700070B50346124D00680C465968AC602E46A2
:1016800003C60021E981D9888A4228BF0A46AA8177
:10169000D98881B14AB144B94FF0E023D3F8F03D85
:1016A000DB0700D500BE002004E0FFF7B9FF0028EB
:1016B000F2D0012070BD1878FFF726FEF7E700BFD3
:1016C0003C0F002007B58DF800208DF801301A0A74
:1016D0001B0C8DF802208DF803308DF804100023C8
:1016E000062269468DF80530FFF7C2FF03B05DF8AA
:1016F00004FBFFFF2DE9F8430E460546002840D0C5
:10170000DFF89C800368434539D0002939D04B6805
:10171000002B36D00868A0B3FFF726FA044658BB62
:101720001B4B1A78C2B901271F70EFF3108187F3A2
:101730001088184BDA6922F48002DA61DB6981F3E0
:101740001088DFF8589001468022484601F01AFBC5
:10175000114BC3F804901F73736893F90030002B8A
:1017600011DB0E4A52F823207AB92B7131682846D2
:10177000FFF7DAF9C5F800802046BDE8F8830E24AB
:10178000FAE70124F8E70B24F6E70824F4E700BFA2
:10179000F80E002000E0014000540040000000204E
:1017A0000043544408B5044A116813685B1A632B5C
:1017B000FBD9FEF7F5FF00BF6C3000201FB5437862
:1017C000023B0446032B12D8DFE803F00224131B6C
:1017D000264B1A786FF300021A701A7800216FF303
:1017E00041021A7059701A7861F382021A70214608
:1017F0002FE01E4B1A78D20736D51A7842F0040231
:10180000F4E71A4A1378D8072ED513786FF38203BA
:101810001370ECE70020FFF75BFA20B1436913B1C6
:10182000616820789847114A137859071CD51378B6
:101830006FF3820313700023CDF80630CDF80A3021
:10184000ADF80E3023788DF8043005238DF805307F
:1018500001A90420FFF7B4FE30B94FF0E023D3F81C
:10186000F03DDB0700D500BE04B010BD500F0020D6
:101870002DE9F04F8BB0FEF785FFB04BC03053F829
:1018800020206FF3104243F8202003F50A23B3F819
:101890004010CA4362F478428CB292B20904A3F8B1
:1018A00040200CD5B3F8402012F0800FC2F3C011D5
:1018B0001A8814BF42F0100261F304121A80620405
:1018C00013D50025052307A88DF81D30CDF81E502F
:1018D000CDF82250ADF826508DF81C50FFF76EFF62
:1018E000974B1A8E65F34D321A86A30416D5944E83
:1018F000338E9F0412D50025032307A88DF81D30D1
:10190000CDF81E50CDF82250ADF826508DF81C5061
:10191000FFF754FF338E65F34D333386E60408D565
:1019200004F07003202B00F0D78068D8102B00F053
:101930008480A50542BF824B0022A3F848202005E1
:1019400032D5E10740F1E8807D4BB3F84020120723
:101950002AD54FF480425A84B3F85420ADF81420AD
:10196000B3F85620ADF81620B3F85820ADF818207B
:10197000B3F85A20ADF81A204FF6F772A3F84020BA
:101980000023CDF81E30CDF82230ADF826308DF88A
:101990001C300822062305A908A88DF81D3001F087
:1019A000E3F907A8FFF70AFF670515D5644BB3F8FD
:1019B0004A200021D607A3F84A100DD5FEF700FEF5
:1019C00050B1604B4FF4E0659B880993802207A8D3
:1019D000CDE90752FFF7F2FEE4050DD5584D594CFD
:1019E000EB8EB5F84670BFB21F40FB439BB2A5F823
:1019F0004630002F40F0AC800BB0BDE8F08F602B7C
:101A000004D018D804F06003402B92D10023CDF805
:101A10001E30CDF82230ADF826308DF81C3007A8E6
:101A200004238DF81D30FFF7C9FE454A138E43F499
:101A3000005313867DE7702BE7E7414B01225A875D
:101A4000DA864FF480425A8400221A851A8D12F0E9
:101A50000F02FBD19A859A8D12F00F02FBD13A4DFD
:101A60003A493748012394464FF400774FF4807683
:101A70001FFA83FEA0F864E0A0F868C021F8137094
:101A800021F8132025F823600133062BF0D100251F
:101A90002B4A2E464FF400709FB2A2F86470A2F851
:101AA000686021F8130021F8135001330A2BF3D199
:101AB00024489822002101F065F90123CDF81E5039
:101AC000CDF82250ADF826508DF81C508DF81D3001
:101AD00007A8FFF773FE2CE7194BB3F85030DBB2C1
:101AE000002B3FF426AF4FF4A062ADF81630002370
:101AF000ADF814200693CDF81E30CDF82230ADF8A5
:101B000026308DF81C300822062305A908A88DF878
:101B10001D3001F029F9DBE714F007027FF444AF30
:101B2000074B1B8C0992C3F340134FF4E061DB01B8
:101B3000CDE907128DF8203033E700BF0060004088
:101B400000000940043100208C0009406E0009406B
:101B500097FAA7F6B6FA86F60C237343E2180193B8
:101B6000117AC90902F1080317D03046FEF75EFD6D
:101B700000285ED00C2303FB06434FF4E0609A88F4
:101B8000197ADB88D31A0022CDE9070207A88DF85D
:101B900020100993FFF712FE4BE00393002E57D05D
:101BA000B2F806B0B2B22A853046A5F86420B5F87E
:101BB0006CA0FEF7A5FCB5F82A901FFA8AFAC9F3C3
:101BC0000B09D1454B4628BF53465B45029328BFBE
:101BD0005B469846019B54F80390B8F1000F09D07A
:101BE000039B5B78D80729D50B46424635494846C2
:101BF000FEF7B0FCC24584BF4FF480436B850023E1
:101C00002B852B8D1A07FCD10C2303FB0642ABEB73
:101C10000801C245D18002D8029A934509D873437E
:101C2000E1180022E2544A708A70CA70B9F1000FBC
:101C3000A0D10123B34027EA0307DAE6424621494F
:101C40004846FEF77EFC019A09EB0803A350D1E752
:101C5000B5F85EA0B4F806B06B8C0AF07F0AD345E5
:101C6000D846C3F30B0328BFD046984528BF9846F3
:101C7000B8F1000F0AD0637AD4F80090DB0713D5CF
:101C80001149334642464846FEF764FCABEB080375
:101C9000C2459BB211D8C345E380CAD1002323704B
:101CA0006370A370E37065E7484607494246C14444
:101CB000FEF747FCC4F80090E8E74FF480426A84DE
:101CC000E380EBE71800094014000940FFF7D0BD9E
:101CD000FFF7CEBDFFF7CCBDA0F101000028FBD17E
:101CE0007047FFFF48434FF47A73A0FB0303064B92
:101CF0001A68064BB3FBF2F3B0FBF3F0800801D097
:101D0000FFF7EABF704700BF7030002000CA9A3B5F
:101D100010B50E4B4AF68022A3F8B22F0C4B816807
:101D20000446062001F0BCFA93F8A0309B070CBFD4
:101D30001020502001F0B0FA63681A782AB1BDE88B
:101D4000104093F91100FEF769BD10BD00F07E4010
:101D500000E001402DE9F0410446FFF78BF90E4603
:101D60000746002851D12A4DB4F5802F85F834005C
:101D700010D224F4FF6121F0070101EBC623B3F573
:101D8000802F42D8324628464FF40063BDE8F04128
:101D900001F07ABA24F47F7424F0030404F13F4381
:101DA00003F57003B3F5005F4FEA81282DD2194B7C
:101DB00004EB08029A4228D86B681B7828465B001F
:101DC00085F83430FFF7A4FF134A92F8043104F188
:101DD0003D4067F3000382F8043100F5700084226F
:101DE0004146A8622E6301F04BFA6B681B7863B919
:101DF000296A192311227143284601F035FA20B9C6
:101E00002846BDE8F04101F033BABDE8F08100BFDB
:101E1000AC3000200020104000C07E402DE9F04191
:101E200006461546FFF726F9074658B9B1F5802F43
:101E30000AD24B19B3F5802F04D841EA050313F0F9
:101E4000070358D0BDE8F08101F13F4303F570036B
:101E5000B3F5005FF6D2334B4A199A42F2D8002DFF
:101E6000F0D0314CC4E90A61636884F8340025631A
:101E70002E4D1B7884F834302046FFF749FF95F843
:101E8000043167F3000385F80431D4E90A2303F130
:101E90003D4303F57003190C9BB2A5F81011A5F88A
:101EA00008311378C5F83031812385F8143163681F
:101EB0001B78002BC6D11E4E6169182312222046C2
:101EC00001F0D2F930BBA16A4B1CA362E36A5A1C31
:101ED000E262226B013A2263FAB133441A0C9BB2DC
:101EE000A5F81021A5F808314B78C5F830318123C9
:101EF00085F81431E0E7002DA4D00B48B6F5802F0B
:101F000080F834309ED92B460A463146BDE8F04170
:101F100001F0BEB90828CFD094E7BDE8F0410248EF
:101F200001F0A6B900201040AC30002000C07E4077
:101F30000100F0BD2DE98048CD4BCE4897B000257B
:101F40004FF47002CDE90455CDE906550895C3F864
:101F50008820C94A9A604AF20253A0F8FE3301234E
:101F600080F81F3490F8B134DB06FBD54FF42543DD
:101F7000A0F8FE334AF20353A0F8FE33BF4BC0492A
:101F8000C04F0022A3F80021BF4BC3E900714FF4FA
:101F90000041C3E90212C3E90412FEF7A7FB0823BC
:101FA00080F81334092380F8A23090F8803433B9D4
:101FB000012180F8801440F2C440FFF793FEAD4B3E
:101FC000002283F8812483F8802493F8A020002A3B
:101FD00040F06C82A748002380F8363090F83C30FF
:101FE00013F001030993F9D00124002380F8314054
:101FF00080F82630A54B0362FEF778FB042380F8B7
:102000003E30842380F83E304FF4254380F8D040A2
:10201000A0F8FE33994BA3F80441B3F80471BFB2A2
:10202000002FFAD14FF00108A3F800818DF84F700E
:102030009DF84F30FEF73CFFEFF3108288F31088D5
:10204000934CD4F8043123F00043C4F80431D4F89D
:10205000043182F310888F4E3368C3F300038DF888
:102060004F303368C3F300038DF84F303368C3F348
:1020700000038DF84F30EFF3108288F31088D4F806
:10208000043143F00043C4F80431D4F8043182F33E
:102090001088FEF72BFF804B80489F804FF425422D
:1020A0001A807F4A9A607F4ADA607F4A4FF48051F3
:1020B000A2F820117D4AA3F80480121A394600F0D4
:1020C00061FE7B487B4A7C49121A00F04DFE7B4A38
:1020D0007B4BA3EB02084FEAA8089146B84500F3F2
:1020E000FA81FEF703FB774A6F49002303F1C00032
:1020F000013312F8017B41F82070202BF6D1DFF874
:10210000EC81714FD8F80030BB4228D06F48C8F836
:102110000070FEF70DFFFEF707FB6D4900208A886F
:10212000D1F800C0130A1CF4803FD2B24FEA031367
:102130000BD003EB020E56F82E906FF3104946F8C1
:102140002E902CF4803946F82E9013440130062846
:1021500046F823C001F10801E1D1FEF7FBFA454B37
:1021600093F80135282B28D10420FFF7A7F8D8F8D9
:102170000030BB4202BF574B4FF48072C3F8882037
:102180004FF47A710220FFF7ADFDD8F80030BB4262
:1021900002BF504B4FF08072C3F888200020FFF739
:1021A0008DF8344B4AF20252A3F8FE23002283F842
:1021B00001254FF42542A3F8FE23474B4FF47A72D2
:1021C0001B68B3FBF2F3013BB3F1807F0AD24FF0FF
:1021D000E022F0215361264B83F823100023936102
:1021E00007231361234B3D4AD3F8001591424AF26D
:1021F0000251A3F8FE1340F073810022C3F80025BA
:102200004FF42542A3F8FE23354FDFF8E4803B6806
:10221000434500F0AF800423FB60324B324A7B60C1
:102220004FF0000901233B74BA60C7F81490C7E966
:102230000699EFF3108283F31088D4F8083123F065
:102240004003C4F80831D4F8083182F31088BB6821
:102250004FF425421A60BE684FF08073C6F82C9088
:10226000C6F83C90C6F84890F3624FF0004341E056
:1022700000ED00E000E001400000000000C001406F
:1022800000127A00006CDC028006002000010110C0
:10229000006F044000080440000D00409806002034
:1022A000A0350020A0390020006000409C310020B3
:1022B00080000020800600200436000080060020F8
:1022C000800600201634000054524F506034000045
:1022D000783300000000044070300020358173071F
:1022E000E43000209C34000000820740743000205D
:1022F0005450470033617361B36149F69503C6F8E2
:1023000024904A46C6F8289014A9C6F81C9044F6B2
:102310004B40C6F82090B36673664FF0FF33CDE9AB
:102320001439FEF7DDFE149B7365B365159B4846B3
:102330001A0642EA0342FEF735FE4FF4AA03C6F836
:102340003890C6F888903364FB68F360000442F06C
:10235000030342F001027063FF2133634846326396
:10236000FEF728FE4946FEF725FE4946FEF722FE07
:10237000C7F80080844E7168087844F61F6344F6FD
:102380002062032898BF1A46B3689A66097819B97B
:1023900042F20F7159659965D96AC90705D45A6621
:1023A0004FF4AA021A64F268DA6001210020FEF7F5
:1023B000CFFE3368754F434508BFD6E90232744EED
:1023C00008BF5A603B68B3426CD0724B7B601C20E4
:1023D000002387F83430FEF70FFA6F4BF86098420D
:1023E000804609D86D4B984206D06D4B984203D079
:1023F0006C4B984240F0EC801820FEF7FDF908F590
:102400007428664A08F23F2800F57421B8FBF2F3FD
:10241000FB6040F28353062001F23F21B1FBF2F151
:102420004B43B3FBF0F33B6140F276334B43B3FBDA
:10243000F0F37B6158234B43B3FBF0F3BB615A4B82
:10244000DFF88081B9604B43B3FBF0F3FB61574B7E
:102450004B43B3FBF0F33B62554B4B43B3FBF0F301
:102460007B62544B002283F8C02F98F89030012BE8
:1024700004D0012388F8903000F012FF4348FFF7A2
:1024800047FCFB68D8F8D8214048013B03F01F0304
:1024900063F30502C8F8D82100F0EAFE002840F0F6
:1024A00093803E60394800F0E7FE91E093F83620D3
:1024B0001AB993F83C20D607FBD53F4B93F8A020E0
:1024C000D406C2F30011F9D483F8A01093F8A02029
:1024D000D006FBD47EE559F8043B98470137FDE56B
:1024E000C3F800254FF42542A3F8FE23334A1368AE
:1024F000B3F5FA7FFBD3304B4AF2025700214FF479
:1025000025464FF48042A3F8FE73C3F80015A3F8E4
:10251000FE63106800F07F40B0F1005F7FF474AE9E
:10252000A3F8FE73EFF3108C012787F31088D4F81B
:10253000000140F40060C4F80001D4F800018CF3FD
:102540001088EFF3108087F31088D4F8007147F4F7
:102550008057C4F80071D4F8007180F31088A3F894
:10256000FE63174B998072B6BFF34F8FBFF36F8F27
:102570004FF0E0231961C3F8082D136883F308882E
:102580005368984740E600BFE4300020AC3000209C
:102590004E45504F88340000FF083D0040420F0078
:1025A00080841E00C0C62D00B86A0500D0660500F4
:1025B00068ED220000F07E4000E001406C30002019
:1025C000000D004000C07E403B68B3423FF46AAF5C
:1025D000B04EB14FFF23B37033786FF38203337083
:1025E0000C208023F370FEF707F9A0FB07234FF0C0
:1025F00000081093030A03900F920D93CDF8048006
:10260000CDF83080CDF808809DF808300E934FF05B
:102610000009A24B13F80930C3F34002C3F380034F
:102620000B930A9213460B9A13430E9A9A4212D1B5
:102630009B4B33F819B04FF4613303FB0BFB039B47
:10264000B3FBFBFABAF5807F05D80AFB0BF2BAF1AF
:10265000000F40F0E28009F10109B9F10D0FD8D166
:10266000029B002B00F00F81B8F1000F06D0894BC0
:10267000059ADA701A7842F004021A70019B8BB145
:10268000844A069B04999370537861F30103537055
:102690000799137861F3C303089961F3041365F391
:1026A000861313707F4DDFF814826B68434500F08A
:1026B0008F807D4B2B620023C5E90A332B70AB78EA
:1026C0007A4AEA6101277A4A6A6267F301030721BD
:1026D0000220AB70FEF7ACFC06210220FEF7A8FC3E
:1026E00004210220FEF7A4FC05210220FEF7A0FC35
:1026F00070492A6A70484FF4002341F8043B0532C0
:10270000FEF76EFC002840F0F480EFF3108287F3B0
:102710001088D4F8003123F48003C4F80031D4F8D1
:10272000003182F310882B6A98702B6A18712B6A1B
:1027300058722B6A98722B6AD8722B6A58832B6A4C
:102740004022DA742B6A06221A772B78002B40F08D
:10275000B7802A6A002313702A6AF22191712A6ACB
:1027600053732A6A13722A6A8021D1712A6AB17856
:1027700051701178707860F301011170F1789174E3
:10278000D079317800F0A30001F05C010143D171F0
:10279000C5E90333C5E90533EB6993F90500FEF795
:1027A0003DF8EB6993F90B00FEF738F8EB6993F904
:1027B0000700FEF733F8EB6993F90900FEF72EF8EE
:1027C0002B6A70229A704FF6FF732B81C5F8048034
:1027D0002A6A937803F00303012B00F28E8093782A
:1027E00003F07B0003F00B0393702A4A0023EB6095
:1027F0002B6A917859701978547864F30101197033
:10280000D1789974D979127801F0A30102F05C02B1
:102810000A43DA712B6A98706FE0D317DDE90F0174
:10282000119200F07DFB0D9B119AB2FBF3F17F2911
:102830000AF1FF3A7FF60FAF484348BFFF3003125B
:10284000A3F5C333A03B002BB8BF5B42BB4212DAF7
:1028500012480C9110F8090000F00105C0F3C10006
:1028600004905FFA8AF006900B9807900A980890F7
:10287000099801901F469DF83030DDF824800593BB
:10288000A2EB0B02E3E60123052F02933FF7BCAE58
:10289000EAE600BF18060020A086010050340000C0
:1028A000363400007C3000202001074068340000EE
:1028B000C507000008060020BC33000055494353FB
:1028C000EA69D168013B39B9D269177A1F403F02E2
:1028D00007F4706747F001071B039BB22A6A3B436A
:1028E00043F006019182296A8A8A92B29342FBD10F
:1028F0002FE76B6843453FF46BAF6F4E6F4F336804
:10290000002B50D03368013BFB5C232B4BD1336849
:102910000022FA543B78493B102B42D8DFE803F001
:102920001441B641410941419D411D41410E411AA9
:10293000750063480221FEF777FC32E0614800F041
:1029400029FA01465F48F6E75F4800F023FA01469E
:102950005D48F0E75D480321EDE7102200215C4867
:10296000DFF8889100F090FA1022044600215948BF
:1029700000F08AFA002389F80030574B1C440146C6
:1029800080462046FEF78EFBAB6950EA030104D176
:10299000EB69D86830BBC5E9054899F80030002BD1
:1029A000FBD0002333604D4B4D491A680B68D21A97
:1029B000632AA4D9DFF83881D8F8004064330B606B
:1029C00020460121FEF7C4FB464B1A78002A64D04A
:1029D000B4F5FA6F5CD200221A704FF4FA63C8F8AB
:1029E00000308CE7AB7803F00303013B28FA03F3D4
:1029F000B3F5803FD1D882680068D2F808A09BB2B6
:102A00002246D0470028C6D0C7E710220021304810
:102A1000DFF8E09000F038FA1022044600212D483B
:102A200000F032FA8046A8B172B604F5804AC4F3C9
:102A30000A041CB902215046FFF78CF9D9F800307E
:102A40002548424651461844FFF7E8F962B6264841
:102A5000032170E7C9F80040F9E74FF4804440F6DD
:102A60000D28102214F8010BADF8528014A900F0C3
:102A700079F9042114A8FEF7D7FB4FF47A710520E9
:102A8000FFF730F9B4F5C04FEBD18AE7FDF788FEC8
:102A9000A4F5FA64C8F8004031E704F5FA6444F696
:102AA0001F629442C8F800407FF629AF01221A70D5
:102AB00044F6206393E700BFE82F0020A52F0020F5
:102AC0003E330000F6320000313300004133000095
:102AD000A62F0020AF2F0020A40F00206C30002074
:102AE0009C0F0020940F002045330000A42F0020ED
:102AF000980F0020A00F0020054B06491B880648B0
:102B000001EA83114FF4006201F58041FFF786B9B5
:102B1000A80E002000F8FFFFA806002070B513786B
:102B2000144603F01F02012A0D4640F0F08013F016
:102B3000600019D163780A2B0DD00B2B27D1012906
:102B400024D1744B62885A70FEF7CAF82046BDE85B
:102B50007040FEF7E1BB012918D10A466E492046B4
:102B6000BDE87040FEF784BD202840F0D080637837
:102B7000062B00F2CC80DFE803F004321C520F1465
:102B80000F00012904D12046FEF7C6FB012070BDCD
:102B90000329FBD1FEF706FE0129F7D1FEF7A0F8C5
:102BA000F1E70129F2D10A4620465C49FEF760FDB3
:102BB000ECE70129EAD1574E337813F00200E6D052
:102BC000E588402D00F2A38061882A46694306F11A
:102BD0000C0000F0C9F82A4606F10C01BFE70129F4
:102BE000D4D14C490B7813F00100D0D08B78022B54
:102BF00002D0052B40F08B80E388402B00F28780C9
:102C000001230B716388CB80E3880B81E2881AB1C2
:102C100003238B704249A2E706238B7096E73D4A57
:102C20009178032905D0062941D0012DAED100238A
:102C300009E0012D0BD113793BB15378002B14BF60
:102C4000642300230421D2783CE00521FBE7032D17
:102C50009CD1137943B30423D0889370314B1489EA
:102C6000188000F58070800110F4F86F04D172B6FE
:102C70000121FFF76FF862B62B4D2C482B882849AD
:102C80002246184400F070F82B881C44A4B2B4F516
:102C9000006F2C8005D172B6FFF72EFF62B60023BD
:102CA0002B80FEF7E3F871E7052393706EE7012DA3
:102CB0000DD11379D278002B18BF07214FF00003F4
:102CC00008BF02212046BDE87040FEF7FBBC032D83
:102CD0007FF45CAF1379C3B10723937072B6FFF72B
:102CE0000BFF62B6FEF7C2F8FEF7C4F900287FF4C6
:102CF0004DAF0F4B18605B6893F9110010F1210F75
:102D00003FF444AFFDF7A4FD40E70223CDE70020E8
:102D10003DE700BFAC0E0020AD0E0020AE0E00203F
:102D2000B80E0020A80E00208C0F0020A80600205E
:102D3000AC300020931E222B10B50C4604D9002382
:102D40000B701C46204610BD0A2A09D1002807DA5C
:102D50002D230B7040420121214400F09FF8F1E740
:102D60000021F9E7FFF7E6BF0A44914200F1FF3383
:102D700000D1704710B511F8014B03F8014F914293
:102D8000F9D110BD02440346934200D1704703F8C5
:102D9000011BF9E7034613F8012B002AFBD1181A8F
:102DA000013870472DE9F043364F86460D462846D8
:102DB00015F8014B3E5D16F00806F8D12D2C30D1E8
:102DC0002C780126851C002B57D0102B09D1302CD4
:102DD00007D1287800F0DF00582849D16C781023FB
:102DE00002354FF0FF380027B8FBF3F803FB08F972
:102DF0006FEA09093846A4F1300CBCF1090F15D867
:102E00006446A34223DDB7F1FF3F07D080451BD3C3
:102E100001D1A14518DB00FB0340012715F8014B48
:102E2000E9E72B2C04BF2C78851CCCE7A4F1410CDE
:102E3000BCF1190F01D8373CE3E7A4F1610CBCF1F8
:102E4000190F04D8573CDCE74FF0FF37E6E77B1C4F
:102E500006D12223CEF80030384632B9BDE8F083DF
:102E600006B14042002AF9D007B1691E1160F5E7AA
:102E70003024002BB5D10823B3E7302CA9D00A2386
:102E8000AFE700BFFA34000013460A460146024885
:102E90000068FFF787BF00BF1C060020F0B51F4C7D
:102EA0008BB005460B466E4604F1200C2068616825
:102EB000374603C7083464453E46F7D12179397156
:102EC000911E2068386022294FF0000104D9197042
:102ED0000B4618460BB0F0BD581E8446B5FBF2F702
:102EE00002FB175628366E440C4616F8286C0CF870
:102EF000016F2E46B24201F101013D46EED900229A
:102F00005A541919A51AAA42E3DA10F8015F0E788B
:102F10000670013201F80159F4E700BFD434000013
:102F20007BB972B90029BEBF00204FF0004106E016
:102F300008BF00281CBF6FF000414FF0FF3000F0C9
:102F40008FB9ADF1080C6DE904CE002909DB002B27
:102F50001ADB00F035F8DDF804E0DDE9022304B007
:102F60007047404261EB4101002B1BDB00F028F869
:102F7000DDF804E0DDE9022304B0404261EB4101E9
:102F8000524263EB43037047524263EB430300F04A
:102F900017F8DDF804E0DDE9022304B0404261EBFC
:102FA00041017047524263EB430300F009F8DDF83A
:102FB00004E0DDE9022304B0524263EB43037047AF
:102FC0002DE9F04786468C460846089E154674460D
:102FD0001946002B40F0C2808542B2FA82F245D9F0
:102FE0004AB1C2F1200300FA02FC2EFA03F3954025
:102FF00043EA0C0C94404FEA154EA8B2BCFBFEF815
:10300000230C0EFB18CC08FB00F943EA0C4399454E
:1030100028D9EB1808F1FF3704D2994502D9A8F155
:1030200002072B44A3EB0903A4B2B3FBFEFC0EFB87
:103030001C330CFB00F044EA0344A04214D92C19C1
:103040000CF1FF3304D2A04202D9ACF102032C44AC
:10305000241A43EA07401EB1D44000233460736051
:10306000BDE8F0874746DDE76346F1E792BB431BC7
:1030700001214FEA154EAFB2B3FBFEFC200C0EFB54
:103080001C330CFB07F840EA0343984562D9EB1860
:103090000CF1FF3004D2984502D9ACF102002B4468
:1030A000A3EB0803A4B2B3FBFEFC0EFB1C330CFB2A
:1030B00007F744EA0344A7424ED92C190CF1FF3319
:1030C00004D2A74202D9ACF102032C44E41B43EA28
:1030D0000040C0E7C2F1200320FA03F19540904080
:1030E0002EFA03F303434FEA154EAFB2B1FBFEFCD9
:1030F0000EFB1C10190C0CFB07F841EA0041884537
:1031000004FA02F422D969180CF1FF3004D2884580
:1031100002D9ACF102002944A1EB08019BB2B1FB3A
:10312000FEFC0EFB1C110CFB07F743EA01439F4218
:103130000ED9EB180CF1FF3104D29F4202D9ACF149
:1031400002012B44DB1B41EA004192E76046E3E7C2
:103150006146F7E76046A3E76346B7E7834206D9CF
:1031600016B9002108467BE7C6E900E0F9E7B3FAA3
:1031700083F78FB9834201D3724508D8BEEB0204AE
:1031800060EB030301209C461EB9002168E7384626
:10319000FAE7C6E9004CF8E7C7F1200CBB4022FA79
:1031A0000CF41C432EFA0CF120FA0CF3B840014346
:1031B0004FEA14490EFA07F5B3FBF9F81FFA84FE3B
:1031C00009FB18300B0C08FB0EFA43EA00439A4542
:1031D00002FA07F240D9E31808F1FF3004D29A4509
:1031E00002D9A8F102002344A3EB0A0389B2B3FB7E
:1031F000F9F809FB183308FB0EFE41EA03418E453E
:103200002CD9611808F1FF3304D28E4502D9A8F1F8
:103210000203214443EA0040A0FB0298A1EB0E0107
:103220004145CE46434602D306D14D4504D2B9EBC3
:10323000020E68EB04030138002EA6D0B5EB0E0297
:1032400061EB030101FA0CFC22FA07F34CEA0303D9
:10325000F940C6E9003198E74046C5E74346D9E75B
:10326000704700BFFFFFFFFF5FF800F0FD01002087
:103270005FF800F0390100205FF800F0B90100208C
:103280005FF800F0810000205FF800F07503002077
:103290005FF800F09D0400205FF800F00F010020AF
:1032A0005FF800F0FD00002000000004342E302EF6
:1032B00030004275696C7420776974682052656EBD
:1032C0006573617320416476616E63656420466C4A
:1032D000657869626C6520536F66747761726520EA
:1032E0005061636B6167652076657273696F6E20EC
:1032F000342E302E300041726475696E6F20426F3B
:103300006F746C6F61646572202853414D2D42418A
:1033100020657874656E6465642920322E30205BE8
:1033200041726475696E6F3A494B58595A5D0A0D7E
:10333000006E524635323834302D514941410A0D24
:1033400000580A0D00590A0D0006FFFFF51600008F
:10335000AD13000029140000DD140000490A00002C
:10336000410A0000450A00007D0A0000E50A00004D
:103370000806002049330000000001130704000084
:10338000000001130005000000000113010500000A
:103390000000010302010000000001050901000016
:1033A000000001050A0100000001000018060020CD
:1033B0000100FFFF00000000FFFF00009806002052
:1033C000703300004C3300000000010000000000DA
:1033D00000000000000000000000000000000000ED
:1033E00000000000000000000000000000000000DD
:1033F0000000000000000000010D0000F10C0000C2
:10340000090D00001D2B000000000000000000005E
:1034100002040304040433343132A9AAA8AB000027
:10342000000000000000000000000000000000009C
:103430000000000000000600080010001800200036
:1034400040006000800000018001000200040008CC
:103450000403010C00091408111C101918FFFFFFC8
:103460000600000078330000090200000206020492
:1034700002050207BC33000000000000C507000081
:1034800000000000A833000000000000950E0000BE
:103490000000000000000000020702080200000017
:1034A00096980000020000004B4C000002FF000054
:1034B0000000000000000000C83300006D0C000098
:1034C0009F0B000043050000DB0B0000BD0B00005C
:1034D00019050000303132333435363738396162FE
:1034E000636465666768696A6B6C6D6E6F70717234
:1034F000737475767778797A000020202020202058
:103500002020202828282828202020202020202093
:103510002020202020202020202088101010101093
:1035200010101010101010101010040404040404E3
:1035300004040404101010101010104141414141C6
:10354000410101010101010101010101010101012B
:1035500001010101011010101010104242424242BC
:1035600042020202020202020202020202020202FB
:1035700002020202021010101020000000000000E1
:10358000000000000000000000000000000000003B
:10359000000000000000000000000000000000002B
:1035A000000000000000000000000000000000001B
:1035B000000000000000000000000000000000000B
:1035C00000000000000000000000000000000000FB
:1035D00000000000000000000000000000000000EB
:1035E00000000000000000000000000000000000DB
:0A35F00000000000000000000000D1
:0835FC00C4F9FF7F010000008B
:1036040010B5431E19440B4B93F804416FF30004A7
:1036140083F80441040C80B2A3F81041D2B2A3F899
:103624000801080C89B2C3F82001A3F8181183F823
:10363400142110BD00C07E4082B00F4B0190D3F81E
:103644002C2151060FD5002283F814210190D3F8C0
:103654002C21C2F38010520608D5019A2AB1019A8E
:10366400013A0192F3E7019A12B9142002B07047AB
:10367400019A013A0192E2E700C07E4048430328E0
:1036840004D98008A0F101000028FBD17047094B40
:10369400A522C3F88021C243D2B283F8000183F883
:1036A400002183F8000193F80031834200D100BF68
:1036B400704700BF00C07E4073B51D4EB6F8B24FD0
:1036C400A4B24FF49643012C0546019309D19220EC
:1036D400FFF7DDFF0320A968FFF7D0FF1220FFF7F3
:1036E400D6FF0820FFF7D3FFA96806204FF42A432A
:1036F400FFF7C4FFA6F8B23FB6F8B23F9BB27BB95E
:10370400012C0AD10B4BA3F80441B3F8042192B263
:10371400002AFAD10122A3F80021002002B070BDD2
:10372400019B1BB1019B013B0193E5E71420F5E7E5
:1037340000F07E4000C0014010B5002380F8343012
:103744000C4BB3F8B23F9BB204460BB900F014FA29
:10375400094BD3F8242142F00102C3F82421D3F801
:1037640024216FF30002C3F824212046BDE8104051
:10377400A2E700BF00F07E4000C07E40F8B50546D9
:10378400084616461F46FFF757FF1428044604D17F
:103794002846FFF7D1FF2046F8BD054BD3F8F0418A
:1037A4003440F8D02846FFF7C7FF3C46F3E700BF94
:1037B40000C07E4010B50023934200D110BDCC5C04
:1037C400C4540133F8E738B5174B0022A3F800219D
:1037D40043681A7804461AB193F9110000F0D0F93D
:1037E400124B4AF60122A3F8B22F1220FFF74FFF23
:1037F4000F4BA1680320FFF741FF93F8A03003F0BB
:103804000303002B15BFC2218221D220922014BFB2
:1038140004250625FFF73BFF0846FFF738FFA1689C
:103824002846BDE8384029E700C0014000F07E404A
:1038340000E0014082B00F4B0190D3F82C21110617
:103844000FD50022C3F8DC210190D3F82C21C2F358
:10385400C010120608D5019A2AB1019A013A0192C0
:10386400F3E7019A12B9142002B07047019A013AA1
:103874000192E2E700C07E4038B50546406AFFF792
:10388400D9FF1428044604D12846FFF755FF2046E3
:1038940038BD054BD3F8F04114F01204F7D0284694
:1038A400FFF74AFF1824F2E700C07E40F8B505464A
:1038B40014460F461E46FFF786FF214683223846EC
:1038C400FFF79EFE0334A969A4084FF4FC73102289
:1038D40061432846FFF752FF48B9054BD3F8283116
:1038E400C3F3C00333702846BDE8F840E4E6F8BDEE
:1038F40000C07E40F8B5044615460E461F46FFF745
:1039040062FF0D4B93F804216FF3000283F8042146
:1039140007FB05F184223046FFF772FEE1691923A3
:10392400112269432046FFF729FF18B92046BDE854
:10393400F840C1E6F8BD00BF00C07E402DE9F84F55
:10394400894680469246FFF73EFF214C4D46832729
:103954004FF6FF7B94F8043143F0010384F80431FB
:10396400BAF1000F1DD1C4F830B1C4F838B1C4F8AD
:10397400DC714046FFF780FF94F804316FF30003D5
:10398400013784F80431064618B9872F05F1040578
:10399400E0D14046FFF790FE002E18BF3046BDE848
:1039A400F88F6A782B7843EA0223C4F83031BB00DD
:1039B400B3F5067F0DBFB9F80E30EA78AB784AEA62
:1039C400030318BF43EA0223C4F83831CFE700BF2A
:1039D40000C07E4013B5104C0B0C89B2A4F8103112
:1039E4000822A4F8081101466846FFF7E3FEBDF873
:1039F4000030C4F83031BDF80230C4F83831BDF8B5
:103A04000430C4F84031BDF80630C4F84431812391
:103A140084F8143102B010BD00C07E40F8B50446ED
:103A240017460E461D46FFF7CEFEC4E90A67154A3F
:103A3400ED08256392F804316FF3000382F8043132
:103A44000025236B13B9C5B12846F8BD002DFBD161
:103A5400D4E90A01FFF7BEFFA36A21690833A36210
:103A6400E36A0833E362236B013B236312221823C6
:103A74002046FFF783FE0546E3E72046FFF71CFEDA
:103A8400E2E700BF00C07E400C4B5AB9C0F38F2060
:103A9400C1F38F21C3F830018222C3F83811C3F86F
:103AA400DC21704740F47E404FF6FF7240F0FF0087
:103AB400C3F83821C3F830018122F0E700C07E400A
:103AC400F8B5174606460C46164DFFF77CFE4FB177
:103AD400D5F8D83164F38713C5F8D8313046BDE83A
:103AE400F840E9E595F80431E44343F0010304F0B8
:103AF400010485F80431012239462002FFF7C4FF8E
:103B04003046FFF7B9FE95F8043167F30003044625
:103B140085F804313046FFF7CFFD002C18BF20464E
:103B2400F8BD00BF00C07E40F8B5114E05460C46F6
:103B34001746FFF748FE96F8043143F0010386F870
:103B44000431002239462046FFF79EFF2846FFF73E
:103B540093FE96F804316FF30003044686F80431AB
:103B64002846FFF7A9FD002C18BF2046F8BD00BF6A
:103B740000C07E40000000005FF800F0111D00004E
:103B84005FF800F051080000000008000000000089
:103B94000000000000000000400019002006002082
:103BA4000000000000000000000000000000000011
:103BB4000000000000000000000000000000000001
:103BC40000000000000000000000000000000000F1
:103BD40000000000000000000000000000000000E1
:103BE40000000000000000000000000000000000D1
:103BF40000000000000000000000000000000000C1
:0400000300001F35A5
:00000001FF
